{
  "contractName": "ToriToken",
  "abi": [
    {
      "constant": true,
      "inputs": [
        {
          "name": "_interfaceId",
          "type": "bytes4"
        }
      ],
      "name": "supportsInterface",
      "outputs": [
        {
          "name": "",
          "type": "bool"
        }
      ],
      "payable": false,
      "stateMutability": "view",
      "type": "function"
    },
    {
      "constant": true,
      "inputs": [
        {
          "name": "_tokenId",
          "type": "uint256"
        }
      ],
      "name": "getApproved",
      "outputs": [
        {
          "name": "",
          "type": "address"
        }
      ],
      "payable": false,
      "stateMutability": "view",
      "type": "function"
    },
    {
      "constant": false,
      "inputs": [
        {
          "name": "_to",
          "type": "address"
        },
        {
          "name": "_tokenId",
          "type": "uint256"
        }
      ],
      "name": "approve",
      "outputs": [],
      "payable": false,
      "stateMutability": "nonpayable",
      "type": "function"
    },
    {
      "constant": true,
      "inputs": [
        {
          "name": "_operator",
          "type": "address"
        },
        {
          "name": "_role",
          "type": "string"
        }
      ],
      "name": "checkRole",
      "outputs": [],
      "payable": false,
      "stateMutability": "view",
      "type": "function"
    },
    {
      "constant": true,
      "inputs": [],
      "name": "InterfaceId_ERC165",
      "outputs": [
        {
          "name": "",
          "type": "bytes4"
        }
      ],
      "payable": false,
      "stateMutability": "view",
      "type": "function"
    },
    {
      "constant": true,
      "inputs": [
        {
          "name": "_level",
          "type": "uint256"
        }
      ],
      "name": "checkLevelCapacity",
      "outputs": [
        {
          "name": "",
          "type": "uint256"
        }
      ],
      "payable": false,
      "stateMutability": "view",
      "type": "function"
    },
    {
      "constant": true,
      "inputs": [
        {
          "name": "_operator",
          "type": "address"
        },
        {
          "name": "_role",
          "type": "string"
        }
      ],
      "name": "hasRole",
      "outputs": [
        {
          "name": "",
          "type": "bool"
        }
      ],
      "payable": false,
      "stateMutability": "view",
      "type": "function"
    },
    {
      "constant": false,
      "inputs": [
        {
          "name": "_from",
          "type": "address"
        },
        {
          "name": "_to",
          "type": "address"
        },
        {
          "name": "_tokenId",
          "type": "uint256"
        }
      ],
      "name": "transferFrom",
      "outputs": [],
      "payable": false,
      "stateMutability": "nonpayable",
      "type": "function"
    },
    {
      "constant": true,
      "inputs": [],
      "name": "ROLE_VISIT",
      "outputs": [
        {
          "name": "",
          "type": "string"
        }
      ],
      "payable": false,
      "stateMutability": "view",
      "type": "function"
    },
    {
      "constant": false,
      "inputs": [
        {
          "name": "_from",
          "type": "address"
        },
        {
          "name": "_to",
          "type": "address"
        },
        {
          "name": "_tokenId",
          "type": "uint256"
        }
      ],
      "name": "safeTransferFrom",
      "outputs": [],
      "payable": false,
      "stateMutability": "nonpayable",
      "type": "function"
    },
    {
      "constant": true,
      "inputs": [
        {
          "name": "_tokenId",
          "type": "uint256"
        }
      ],
      "name": "exists",
      "outputs": [
        {
          "name": "",
          "type": "bool"
        }
      ],
      "payable": false,
      "stateMutability": "view",
      "type": "function"
    },
    {
      "constant": true,
      "inputs": [
        {
          "name": "_tokenId",
          "type": "uint256"
        }
      ],
      "name": "ownerOf",
      "outputs": [
        {
          "name": "",
          "type": "address"
        }
      ],
      "payable": false,
      "stateMutability": "view",
      "type": "function"
    },
    {
      "constant": true,
      "inputs": [
        {
          "name": "_owner",
          "type": "address"
        }
      ],
      "name": "balanceOf",
      "outputs": [
        {
          "name": "",
          "type": "uint256"
        }
      ],
      "payable": false,
      "stateMutability": "view",
      "type": "function"
    },
    {
      "constant": false,
      "inputs": [
        {
          "name": "addr",
          "type": "address"
        },
        {
          "name": "roleName",
          "type": "string"
        }
      ],
      "name": "adminRemoveRole",
      "outputs": [],
      "payable": false,
      "stateMutability": "nonpayable",
      "type": "function"
    },
    {
      "constant": true,
      "inputs": [],
      "name": "ROLE_TRANSFER",
      "outputs": [
        {
          "name": "",
          "type": "string"
        }
      ],
      "payable": false,
      "stateMutability": "view",
      "type": "function"
    },
    {
      "constant": true,
      "inputs": [],
      "name": "ROLE_PROMO",
      "outputs": [
        {
          "name": "",
          "type": "string"
        }
      ],
      "payable": false,
      "stateMutability": "view",
      "type": "function"
    },
    {
      "constant": false,
      "inputs": [
        {
          "name": "_minLevel",
          "type": "uint256"
        },
        {
          "name": "_capacity",
          "type": "uint256"
        }
      ],
      "name": "addLevelCapacity",
      "outputs": [],
      "payable": false,
      "stateMutability": "nonpayable",
      "type": "function"
    },
    {
      "constant": false,
      "inputs": [
        {
          "name": "_to",
          "type": "address"
        },
        {
          "name": "_approved",
          "type": "bool"
        }
      ],
      "name": "setApprovalForAll",
      "outputs": [],
      "payable": false,
      "stateMutability": "nonpayable",
      "type": "function"
    },
    {
      "constant": false,
      "inputs": [
        {
          "name": "addr",
          "type": "address"
        },
        {
          "name": "roleName",
          "type": "string"
        }
      ],
      "name": "adminAddRole",
      "outputs": [],
      "payable": false,
      "stateMutability": "nonpayable",
      "type": "function"
    },
    {
      "constant": false,
      "inputs": [
        {
          "name": "_from",
          "type": "address"
        },
        {
          "name": "_to",
          "type": "address"
        },
        {
          "name": "_tokenId",
          "type": "uint256"
        },
        {
          "name": "_data",
          "type": "bytes"
        }
      ],
      "name": "safeTransferFrom",
      "outputs": [],
      "payable": false,
      "stateMutability": "nonpayable",
      "type": "function"
    },
    {
      "constant": true,
      "inputs": [],
      "name": "ROLE_ADMIN",
      "outputs": [
        {
          "name": "",
          "type": "string"
        }
      ],
      "payable": false,
      "stateMutability": "view",
      "type": "function"
    },
    {
      "constant": true,
      "inputs": [
        {
          "name": "_owner",
          "type": "address"
        }
      ],
      "name": "getMaxCapacity",
      "outputs": [
        {
          "name": "maxCapacity",
          "type": "uint256"
        }
      ],
      "payable": false,
      "stateMutability": "view",
      "type": "function"
    },
    {
      "constant": true,
      "inputs": [
        {
          "name": "_owner",
          "type": "address"
        },
        {
          "name": "_operator",
          "type": "address"
        }
      ],
      "name": "isApprovedForAll",
      "outputs": [
        {
          "name": "",
          "type": "bool"
        }
      ],
      "payable": false,
      "stateMutability": "view",
      "type": "function"
    },
    {
      "constant": true,
      "inputs": [],
      "name": "ROLE_UPDATE",
      "outputs": [
        {
          "name": "",
          "type": "string"
        }
      ],
      "payable": false,
      "stateMutability": "view",
      "type": "function"
    },
    {
      "anonymous": false,
      "inputs": [
        {
          "indexed": true,
          "name": "_address",
          "type": "address"
        },
        {
          "indexed": false,
          "name": "toriIdx",
          "type": "uint256"
        }
      ],
      "name": "NewTori",
      "type": "event"
    },
    {
      "anonymous": false,
      "inputs": [
        {
          "indexed": true,
          "name": "_from",
          "type": "address"
        },
        {
          "indexed": true,
          "name": "_to",
          "type": "address"
        },
        {
          "indexed": true,
          "name": "_tokenId",
          "type": "uint256"
        }
      ],
      "name": "Transfer",
      "type": "event"
    },
    {
      "anonymous": false,
      "inputs": [
        {
          "indexed": true,
          "name": "_owner",
          "type": "address"
        },
        {
          "indexed": true,
          "name": "_approved",
          "type": "address"
        },
        {
          "indexed": true,
          "name": "_tokenId",
          "type": "uint256"
        }
      ],
      "name": "Approval",
      "type": "event"
    },
    {
      "anonymous": false,
      "inputs": [
        {
          "indexed": true,
          "name": "_owner",
          "type": "address"
        },
        {
          "indexed": true,
          "name": "_operator",
          "type": "address"
        },
        {
          "indexed": false,
          "name": "_approved",
          "type": "bool"
        }
      ],
      "name": "ApprovalForAll",
      "type": "event"
    },
    {
      "anonymous": false,
      "inputs": [
        {
          "indexed": true,
          "name": "operator",
          "type": "address"
        },
        {
          "indexed": false,
          "name": "role",
          "type": "string"
        }
      ],
      "name": "RoleAdded",
      "type": "event"
    },
    {
      "anonymous": false,
      "inputs": [
        {
          "indexed": true,
          "name": "operator",
          "type": "address"
        },
        {
          "indexed": false,
          "name": "role",
          "type": "string"
        }
      ],
      "name": "RoleRemoved",
      "type": "event"
    },
    {
      "constant": false,
      "inputs": [],
      "name": "updateGeneration",
      "outputs": [],
      "payable": false,
      "stateMutability": "nonpayable",
      "type": "function"
    },
    {
      "constant": false,
      "inputs": [
        {
          "name": "_quizzes",
          "type": "uint8[]"
        },
        {
          "name": "_name",
          "type": "string"
        },
        {
          "name": "_special",
          "type": "uint256"
        },
        {
          "name": "_owner",
          "type": "address"
        }
      ],
      "name": "generateSpecialTori",
      "outputs": [
        {
          "name": "success",
          "type": "bool"
        }
      ],
      "payable": false,
      "stateMutability": "nonpayable",
      "type": "function"
    },
    {
      "constant": false,
      "inputs": [
        {
          "name": "_dna",
          "type": "uint256"
        },
        {
          "name": "_level",
          "type": "uint256"
        },
        {
          "name": "_proficiency",
          "type": "uint32"
        },
        {
          "name": "_personality",
          "type": "uint32"
        },
        {
          "name": "_parent1",
          "type": "uint256"
        },
        {
          "name": "_parent2",
          "type": "uint256"
        },
        {
          "name": "_name",
          "type": "string"
        },
        {
          "name": "_owner",
          "type": "address"
        },
        {
          "name": "_special",
          "type": "uint256"
        },
        {
          "name": "_generation",
          "type": "uint256"
        }
      ],
      "name": "transferOldTori",
      "outputs": [
        {
          "name": "success",
          "type": "bool"
        }
      ],
      "payable": false,
      "stateMutability": "nonpayable",
      "type": "function"
    },
    {
      "constant": false,
      "inputs": [
        {
          "name": "_dna",
          "type": "uint256"
        },
        {
          "name": "_level",
          "type": "uint256"
        },
        {
          "name": "_proficiency",
          "type": "uint32"
        },
        {
          "name": "_personality",
          "type": "uint32"
        },
        {
          "name": "_parent1",
          "type": "uint256"
        },
        {
          "name": "_parent2",
          "type": "uint256"
        },
        {
          "name": "_name",
          "type": "string"
        },
        {
          "name": "_owner",
          "type": "address"
        },
        {
          "name": "_special",
          "type": "uint256"
        },
        {
          "name": "_generation",
          "type": "uint256"
        }
      ],
      "name": "generateNewTori",
      "outputs": [
        {
          "name": "success",
          "type": "bool"
        }
      ],
      "payable": false,
      "stateMutability": "nonpayable",
      "type": "function"
    },
    {
      "constant": false,
      "inputs": [
        {
          "name": "_dna",
          "type": "uint256"
        },
        {
          "name": "_level",
          "type": "uint256"
        },
        {
          "name": "_proficiency",
          "type": "uint32"
        },
        {
          "name": "_personality",
          "type": "uint32"
        },
        {
          "name": "_parent1",
          "type": "uint256"
        },
        {
          "name": "_parent2",
          "type": "uint256"
        },
        {
          "name": "_name",
          "type": "string"
        },
        {
          "name": "_owner",
          "type": "address"
        },
        {
          "name": "_special",
          "type": "uint256"
        }
      ],
      "name": "generateNewTori",
      "outputs": [
        {
          "name": "success",
          "type": "bool"
        }
      ],
      "payable": false,
      "stateMutability": "nonpayable",
      "type": "function"
    },
    {
      "constant": false,
      "inputs": [
        {
          "name": "_owner",
          "type": "address"
        },
        {
          "name": "_tokenId",
          "type": "uint256"
        }
      ],
      "name": "burnTori",
      "outputs": [
        {
          "name": "success",
          "type": "bool"
        }
      ],
      "payable": false,
      "stateMutability": "nonpayable",
      "type": "function"
    },
    {
      "constant": true,
      "inputs": [
        {
          "name": "_owner",
          "type": "address"
        }
      ],
      "name": "getTokenIndexes",
      "outputs": [
        {
          "name": "",
          "type": "uint256[]"
        }
      ],
      "payable": false,
      "stateMutability": "view",
      "type": "function"
    },
    {
      "constant": true,
      "inputs": [
        {
          "name": "_owner",
          "type": "address"
        }
      ],
      "name": "getTokenIndexesWithMaxLevel",
      "outputs": [
        {
          "name": "",
          "type": "uint256[]"
        },
        {
          "name": "",
          "type": "uint256"
        }
      ],
      "payable": false,
      "stateMutability": "view",
      "type": "function"
    },
    {
      "constant": true,
      "inputs": [
        {
          "name": "_toriId",
          "type": "uint256"
        }
      ],
      "name": "getTokenInfo",
      "outputs": [
        {
          "name": "toriId",
          "type": "uint256"
        },
        {
          "name": "toriDna",
          "type": "uint256"
        },
        {
          "name": "level",
          "type": "uint256"
        },
        {
          "name": "name",
          "type": "string"
        },
        {
          "name": "proficiency",
          "type": "uint32"
        },
        {
          "name": "personality",
          "type": "uint32"
        },
        {
          "name": "readyTime",
          "type": "uint32"
        },
        {
          "name": "generation",
          "type": "uint256"
        },
        {
          "name": "special",
          "type": "uint256"
        },
        {
          "name": "postingPrice",
          "type": "uint256"
        },
        {
          "name": "toriOwner",
          "type": "address"
        }
      ],
      "payable": false,
      "stateMutability": "view",
      "type": "function"
    },
    {
      "constant": true,
      "inputs": [
        {
          "name": "_tokenId",
          "type": "uint256"
        }
      ],
      "name": "getParentIds",
      "outputs": [
        {
          "name": "parent1",
          "type": "uint256"
        },
        {
          "name": "parent2",
          "type": "uint256"
        }
      ],
      "payable": false,
      "stateMutability": "view",
      "type": "function"
    },
    {
      "constant": true,
      "inputs": [],
      "name": "getTokenCount",
      "outputs": [
        {
          "name": "toriCount",
          "type": "uint256"
        }
      ],
      "payable": false,
      "stateMutability": "view",
      "type": "function"
    },
    {
      "constant": true,
      "inputs": [],
      "name": "getAllTokensCount",
      "outputs": [
        {
          "name": "",
          "type": "uint256"
        }
      ],
      "payable": false,
      "stateMutability": "view",
      "type": "function"
    },
    {
      "constant": false,
      "inputs": [
        {
          "name": "_tokenId",
          "type": "uint256"
        },
        {
          "name": "_salePrice",
          "type": "uint256"
        }
      ],
      "name": "approveForSale",
      "outputs": [],
      "payable": false,
      "stateMutability": "nonpayable",
      "type": "function"
    },
    {
      "constant": false,
      "inputs": [
        {
          "name": "_tokenId",
          "type": "uint256"
        }
      ],
      "name": "removeForSale",
      "outputs": [],
      "payable": false,
      "stateMutability": "nonpayable",
      "type": "function"
    },
    {
      "constant": false,
      "inputs": [
        {
          "name": "_tokenId",
          "type": "uint256"
        }
      ],
      "name": "buyForSale",
      "outputs": [],
      "payable": true,
      "stateMutability": "payable",
      "type": "function"
    },
    {
      "constant": true,
      "inputs": [],
      "name": "retrieveAllForSales",
      "outputs": [
        {
          "name": "",
          "type": "uint256[]"
        }
      ],
      "payable": false,
      "stateMutability": "view",
      "type": "function"
    },
    {
      "constant": false,
      "inputs": [
        {
          "name": "_tokenId",
          "type": "uint256"
        },
        {
          "name": "_newName",
          "type": "string"
        }
      ],
      "name": "updateName",
      "outputs": [
        {
          "name": "",
          "type": "bool"
        }
      ],
      "payable": false,
      "stateMutability": "nonpayable",
      "type": "function"
    },
    {
      "constant": false,
      "inputs": [
        {
          "name": "_tokenId",
          "type": "uint256"
        },
        {
          "name": "_name",
          "type": "string"
        },
        {
          "name": "_proficiency",
          "type": "uint32"
        },
        {
          "name": "_personality",
          "type": "uint32"
        },
        {
          "name": "_special",
          "type": "uint256"
        },
        {
          "name": "_minLevel",
          "type": "uint256"
        }
      ],
      "name": "updateTori",
      "outputs": [
        {
          "name": "result",
          "type": "bool"
        }
      ],
      "payable": false,
      "stateMutability": "nonpayable",
      "type": "function"
    }
  ],
  "bytecode": "0x6080604052602360005560036001556006600255600054600a0a600355600160025401600a0a600455600154600a0a60055560a060405190810160405280601961ffff168152602001606461ffff16815260200160af61ffff16815260200160c861ffff16815260200161012c61ffff1681525060069060056200008592919062000680565b50600254600a0a600755608060405190810160405280609661ffff16815260200160c861ffff16815260200161012c61ffff16815260200161015e61ffff168152506008906004620000d9929190620006d8565b50604b600955600060165562000134336040805190810160405280600581526020017f61646d696e00000000000000000000000000000000000000000000000000000081525062000248640100000000026401000000009004565b620001516001600662000391640100000000026401000000009004565b6200016e6004601062000391640100000000026401000000009004565b6200018b6008601962000391640100000000026401000000009004565b620001c86301ffc9a77c0100000000000000000000000000000000000000000000000000000000026200044c640100000000026401000000009004565b620002056380ac58cd7c0100000000000000000000000000000000000000000000000000000000026200044c640100000000026401000000009004565b62000242634f558e797c0100000000000000000000000000000000000000000000000000000000026200044c640100000000026401000000009004565b62000758565b620002d782600a836040518082805190602001908083835b60208310151562000287578051825260208201915060208101905060208303925062000260565b6001836020036101000a03801982511681845116808217855250505050505090500191505090815260200160405180910390206200050b64010000000002620043eb179091906401000000009004565b8173ffffffffffffffffffffffffffffffffffffffff167fbfec83d64eaa953f2708271a023ab9ee82057f8f3578d548c1a4ba0b5b700489826040518080602001828103825283818151815260200191508051906020019080838360005b838110156200035257808201518184015260208101905062000335565b50505050905090810190601f168015620003805780820380516001836020036101000a031916815260200191505b509250505060405180910390a25050565b620003e1336040805190810160405280600581526020017f61646d696e00000000000000000000000000000000000000000000000000000081525062000569640100000000026401000000009004565b6000600c6000848152602001908152602001600020541415156200040457600080fd5b80600c600084815260200190815260200160002081905550600d8290806001815401808255809150509060018203906000526020600020016000909192909190915055505050565b63ffffffff7c010000000000000000000000000000000000000000000000000000000002817bffffffffffffffffffffffffffffffffffffffffffffffffffffffff1916141515156200049e57600080fd5b6001600e6000837bffffffffffffffffffffffffffffffffffffffffffffffffffffffff19167bffffffffffffffffffffffffffffffffffffffffffffffffffffffff1916815260200190815260200160002060006101000a81548160ff02191690831515021790555050565b60018260000160008373ffffffffffffffffffffffffffffffffffffffff1673ffffffffffffffffffffffffffffffffffffffff16815260200190815260200160002060006101000a81548160ff0219169083151502179055505050565b620005f882600a836040518082805190602001908083835b602083101515620005a8578051825260208201915060208101905060208303925062000581565b6001836020036101000a0380198251168184511680821785525050505050509050019150509081526020016040518091039020620005fc640100000000026200348c179091906401000000009004565b5050565b62000617828262000627640100000000026401000000009004565b15156200062357600080fd5b5050565b60008260000160008373ffffffffffffffffffffffffffffffffffffffff1673ffffffffffffffffffffffffffffffffffffffff16815260200190815260200160002060009054906101000a900460ff16905092915050565b828054828255906000526020600020908101928215620006c5579160200282015b82811115620006c4578251829061ffff16905591602001919060010190620006a1565b5b509050620006d4919062000730565b5090565b8280548282559060005260206000209081019282156200071d579160200282015b828111156200071c578251829061ffff16905591602001919060010190620006f9565b5b5090506200072c919062000730565b5090565b6200075591905b808211156200075157600081600090555060010162000737565b5090565b90565b61497080620007686000396000f300608060405260043610610204576000357c0100000000000000000000000000000000000000000000000000000000900463ffffffff16806301ffc9a714610209578063081812fc1461026d578063095ea7b3146102da5780630988ca8c14610327578063120e22e4146103b0578063165d7da4146103e757806319fa8f50146104e45780631c7dc6091461054d578063217fe6c61461058e57806323b872dd1461062f5780633b1203d71461069c57806342842e0e1461072c578063444c9293146107995780634dac6dcf146108585780634f558e79146108bd5780634f8e2a42146109025780635178f004146109f557806353e76f2c14610a3d5780636352211e14610ac85780636b8667f514610b3557806370a0823114610b6257806378a8956714610bb957806380507b5714610be457806388cee87e14610c7c57806389b1fa0a14610d055780638c7a63ae14610d9557806391f8548d14610ed1578063933b545414610f6157806394b1e1cb14610f8c578063a22cb46514610fc3578063b25fa92c14611012578063b32805c31461109b578063b438314f146110b2578063b88d4fde146110d2578063bc53c17a14611185578063be928c9214611282578063d391014b146112ee578063dd2043141461137e578063e3ce2257146113d5578063e728ce9014611474578063e985e9c514611562578063feb3a68a146115dd575b600080fd5b34801561021557600080fd5b5061025360048036038101908080357bffffffffffffffffffffffffffffffffffffffffffffffffffffffff1916906020019092919050505061166d565b604051808215151515815260200191505060405180910390f35b34801561027957600080fd5b50610298600480360381019080803590602001909291905050506116d5565b604051808273ffffffffffffffffffffffffffffffffffffffff1673ffffffffffffffffffffffffffffffffffffffff16815260200191505060405180910390f35b3480156102e657600080fd5b50610325600480360381019080803573ffffffffffffffffffffffffffffffffffffffff16906020019092919080359060200190929190505050611712565b005b34801561033357600080fd5b506103ae600480360381019080803573ffffffffffffffffffffffffffffffffffffffff169060200190929190803590602001908201803590602001908080601f0160208091040260200160405190810160405280939291908181526020018383808284378201915050505050509192919290505050611857565b005b3480156103bc57600080fd5b506103e560048036038101908080359060200190929190803590602001909291905050506118d8565b005b3480156103f357600080fd5b506104ca6004803603810190808035906020019092919080359060200190929190803563ffffffff169060200190929190803563ffffffff1690602001909291908035906020019092919080359060200190929190803590602001908201803590602001908080601f0160208091040260200160405190810160405280939291908181526020018383808284378201915050505050509192919290803573ffffffffffffffffffffffffffffffffffffffff169060200190929190803590602001909291908035906020019092919050505061198c565b604051808215151515815260200191505060405180910390f35b3480156104f057600080fd5b506104f96119f1565b60405180827bffffffffffffffffffffffffffffffffffffffffffffffffffffffff19167bffffffffffffffffffffffffffffffffffffffffffffffffffffffff1916815260200191505060405180910390f35b34801561055957600080fd5b5061057860048036038101908080359060200190929190505050611a18565b6040518082815260200191505060405180910390f35b34801561059a57600080fd5b50610615600480360381019080803573ffffffffffffffffffffffffffffffffffffffff169060200190929190803590602001908201803590602001908080601f0160208091040260200160405190810160405280939291908181526020018383808284378201915050505050509192919290505050611ab2565b604051808215151515815260200191505060405180910390f35b34801561063b57600080fd5b5061069a600480360381019080803573ffffffffffffffffffffffffffffffffffffffff169060200190929190803573ffffffffffffffffffffffffffffffffffffffff16906020019092919080359060200190929190505050611b39565b005b3480156106a857600080fd5b506106b1611c46565b6040518080602001828103825283818151815260200191508051906020019080838360005b838110156106f15780820151818401526020810190506106d6565b50505050905090810190601f16801561071e5780820380516001836020036101000a031916815260200191505b509250505060405180910390f35b34801561073857600080fd5b50610797600480360381019080803573ffffffffffffffffffffffffffffffffffffffff169060200190929190803573ffffffffffffffffffffffffffffffffffffffff16906020019092919080359060200190929190505050611c7f565b005b3480156107a557600080fd5b5061083e60048036038101908080359060200190929190803590602001908201803590602001908080601f0160208091040260200160405190810160405280939291908181526020018383808284378201915050505050509192919290803563ffffffff169060200190929190803563ffffffff1690602001909291908035906020019092919080359060200190929190505050611cb7565b604051808215151515815260200191505060405180910390f35b34801561086457600080fd5b506108a3600480360381019080803573ffffffffffffffffffffffffffffffffffffffff16906020019092919080359060200190929190505050611e08565b604051808215151515815260200191505060405180910390f35b3480156108c957600080fd5b506108e860048036038101908080359060200190929190505050611e1c565b604051808215151515815260200191505060405180910390f35b34801561090e57600080fd5b506109db6004803603810190808035906020019092919080359060200190929190803563ffffffff169060200190929190803563ffffffff1690602001909291908035906020019092919080359060200190929190803590602001908201803590602001908080601f0160208091040260200160405190810160405280939291908181526020018383808284378201915050505050509192919290803573ffffffffffffffffffffffffffffffffffffffff16906020019092919080359060200190929190505050611e8e565b604051808215151515815260200191505060405180910390f35b348015610a0157600080fd5b50610a2060048036038101908080359060200190929190505050611fb2565b604051808381526020018281526020019250505060405180910390f35b348015610a4957600080fd5b50610aae60048036038101908080359060200190929190803590602001908201803590602001908080601f0160208091040260200160405190810160405280939291908181526020018383808284378201915050505050509192919290505050612000565b604051808215151515815260200191505060405180910390f35b348015610ad457600080fd5b50610af3600480360381019080803590602001909291905050506120be565b604051808273ffffffffffffffffffffffffffffffffffffffff1673ffffffffffffffffffffffffffffffffffffffff16815260200191505060405180910390f35b348015610b4157600080fd5b50610b606004803603810190808035906020019092919050505061213c565b005b348015610b6e57600080fd5b50610ba3600480360381019080803573ffffffffffffffffffffffffffffffffffffffff1690602001909291905050506121e4565b6040518082815260200191505060405180910390f35b348015610bc557600080fd5b50610bce612268565b6040518082815260200191505060405180910390f35b348015610bf057600080fd5b50610c25600480360381019080803573ffffffffffffffffffffffffffffffffffffffff1690602001909291905050506122af565b6040518080602001828103825283818151815260200191508051906020019060200280838360005b83811015610c68578082015181840152602081019050610c4d565b505050509050019250505060405180910390f35b348015610c8857600080fd5b50610d03600480360381019080803573ffffffffffffffffffffffffffffffffffffffff169060200190929190803590602001908201803590602001908080601f0160208091040260200160405190810160405280939291908181526020018383808284378201915050505050509192919290505050612412565b005b348015610d1157600080fd5b50610d1a61245f565b6040518080602001828103825283818151815260200191508051906020019080838360005b83811015610d5a578082015181840152602081019050610d3f565b50505050905090810190601f168015610d875780820380516001836020036101000a031916815260200191505b509250505060405180910390f35b348015610da157600080fd5b50610dc060048036038101908080359060200190929190505050612498565b604051808c81526020018b81526020018a8152602001806020018963ffffffff1663ffffffff1681526020018863ffffffff1663ffffffff1681526020018763ffffffff1663ffffffff1681526020018681526020018581526020018481526020018373ffffffffffffffffffffffffffffffffffffffff1673ffffffffffffffffffffffffffffffffffffffff16815260200182810382528a818151815260200191508051906020019080838360005b83811015610e8c578082015181840152602081019050610e71565b50505050905090810190601f168015610eb95780820380516001836020036101000a031916815260200191505b509c5050505050505050505050505060405180910390f35b348015610edd57600080fd5b50610ee66126c5565b6040518080602001828103825283818151815260200191508051906020019080838360005b83811015610f26578082015181840152602081019050610f0b565b50505050905090810190601f168015610f535780820380516001836020036101000a031916815260200191505b509250505060405180910390f35b348015610f6d57600080fd5b50610f766126fe565b6040518082815260200191505060405180910390f35b348015610f9857600080fd5b50610fc1600480360381019080803590602001909291908035906020019092919050505061270b565b005b348015610fcf57600080fd5b50611010600480360381019080803573ffffffffffffffffffffffffffffffffffffffff1690602001909291908035151590602001909291905050506127b4565b005b34801561101e57600080fd5b50611099600480360381019080803573ffffffffffffffffffffffffffffffffffffffff169060200190929190803590602001908201803590602001908080601f01602080910402602001604051908101604052809392919081815260200183838082843782019150505050505091929192905050506128f0565b005b3480156110a757600080fd5b506110b061293d565b005b6110d06004803603810190808035906020019092919050505061299a565b005b3480156110de57600080fd5b50611183600480360381019080803573ffffffffffffffffffffffffffffffffffffffff169060200190929190803573ffffffffffffffffffffffffffffffffffffffff16906020019092919080359060200190929190803590602001908201803590602001908080601f0160208091040260200160405190810160405280939291908181526020018383808284378201915050505050509192919290505050612c6d565b005b34801561119157600080fd5b506112686004803603810190808035906020019092919080359060200190929190803563ffffffff169060200190929190803563ffffffff1690602001909291908035906020019092919080359060200190929190803590602001908201803590602001908080601f0160208091040260200160405190810160405280939291908181526020018383808284378201915050505050509192919290803573ffffffffffffffffffffffffffffffffffffffff1690602001909291908035906020019092919080359060200190929190505050612cac565b604051808215151515815260200191505060405180910390f35b34801561128e57600080fd5b50611297612dcd565b6040518080602001828103825283818151815260200191508051906020019060200280838360005b838110156112da5780820151818401526020810190506112bf565b505050509050019250505060405180910390f35b3480156112fa57600080fd5b50611303612e91565b6040518080602001828103825283818151815260200191508051906020019080838360005b83811015611343578082015181840152602081019050611328565b50505050905090810190601f1680156113705780820380516001836020036101000a031916815260200191505b509250505060405180910390f35b34801561138a57600080fd5b506113bf600480360381019080803573ffffffffffffffffffffffffffffffffffffffff169060200190929190505050612eca565b6040518082815260200191505060405180910390f35b3480156113e157600080fd5b50611416600480360381019080803573ffffffffffffffffffffffffffffffffffffffff169060200190929190505050612f2e565b6040518080602001838152602001828103825284818151815260200191508051906020019060200280838360005b8381101561145f578082015181840152602081019050611444565b50505050905001935050505060405180910390f35b34801561148057600080fd5b5061154860048036038101908080359060200190820180359060200190808060200260200160405190810160405280939291908181526020018383602002808284378201915050505050509192919290803590602001908201803590602001908080601f016020809104026020016040519081016040528093929190818152602001838380828437820191505050505050919291929080359060200190929190803573ffffffffffffffffffffffffffffffffffffffff169060200190929190505050612fc6565b604051808215151515815260200191505060405180910390f35b34801561156e57600080fd5b506115c3600480360381019080803573ffffffffffffffffffffffffffffffffffffffff169060200190929190803573ffffffffffffffffffffffffffffffffffffffff1690602001909291905050506133bf565b604051808215151515815260200191505060405180910390f35b3480156115e957600080fd5b506115f2613453565b6040518080602001828103825283818151815260200191508051906020019080838360005b83811015611632578082015181840152602081019050611617565b50505050905090810190601f16801561165f5780820380516001836020036101000a031916815260200191505b509250505060405180910390f35b6000600e6000837bffffffffffffffffffffffffffffffffffffffffffffffffffffffff19167bffffffffffffffffffffffffffffffffffffffffffffffffffffffff1916815260200190815260200160002060009054906101000a900460ff169050919050565b60006010600083815260200190815260200160002060009054906101000a900473ffffffffffffffffffffffffffffffffffffffff169050919050565b600061171d826120be565b90508073ffffffffffffffffffffffffffffffffffffffff168373ffffffffffffffffffffffffffffffffffffffff161415151561175a57600080fd5b8073ffffffffffffffffffffffffffffffffffffffff163373ffffffffffffffffffffffffffffffffffffffff16148061179a575061179981336133bf565b5b15156117a557600080fd5b826010600084815260200190815260200160002060006101000a81548173ffffffffffffffffffffffffffffffffffffffff021916908373ffffffffffffffffffffffffffffffffffffffff160217905550818373ffffffffffffffffffffffffffffffffffffffff168273ffffffffffffffffffffffffffffffffffffffff167f8c5be1e5ebec7d5bd14f71427d1e84f3dd0314c0f7b2291e5b200ac8c7c3b92560405160405180910390a4505050565b6118d482600a836040518082805190602001908083835b602083101515611893578051825260208201915060208101905060208303925061186e565b6001836020036101000a038019825116818451168082178552505050505050905001915050908152602001604051809103902061348c90919063ffffffff16565b5050565b813373ffffffffffffffffffffffffffffffffffffffff166118f9826120be565b73ffffffffffffffffffffffffffffffffffffffff1614151561191b57600080fd5b6000601460008581526020019081526020016000205414801561193e5750600082115b151561194957600080fd5b81601460008581526020019081526020016000208190555061197760016015546134a590919063ffffffff16565b6015819055506119873084611712565b505050565b60006040805190810160405280600881526020017f7472616e736665720000000000000000000000000000000000000000000000008152506119ce3382611857565b6119e08c8c8c8c8c8c8c8c8c8c6134c1565b9150509a9950505050505050505050565b6301ffc9a77c01000000000000000000000000000000000000000000000000000000000281565b60008060008091505b600d80549050821015611a9357600d600183600d805490500303815481101515611a4757fe5b906000526020600020015490508381111515611a7857600c6000828152602001908152602001600020549250611aab565b611a8c6001836134a590919063ffffffff16565b9150611a21565b600c6000600181526020019081526020016000205492505b5050919050565b6000611b3183600a846040518082805190602001908083835b602083101515611af05780518252602082019150602081019050602083039250611acb565b6001836020036101000a038019825116818451168082178552505050505050905001915050908152602001604051809103902061378890919063ffffffff16565b905092915050565b80611b4433826137e1565b1515611b4f57600080fd5b600073ffffffffffffffffffffffffffffffffffffffff168473ffffffffffffffffffffffffffffffffffffffff1614151515611b8b57600080fd5b600073ffffffffffffffffffffffffffffffffffffffff168373ffffffffffffffffffffffffffffffffffffffff1614151515611bc757600080fd5b611bd18483613876565b611bdb8483613979565b611be58383613aa8565b818373ffffffffffffffffffffffffffffffffffffffff168573ffffffffffffffffffffffffffffffffffffffff167fddf252ad1be2c89b69c2b068fc378daa952ba7f163c4a11628f55a4df523b3ef60405160405180910390a450505050565b6040805190810160405280600581526020017f766973697400000000000000000000000000000000000000000000000000000081525081565b80611c8a33826137e1565b1515611c9557600080fd5b611cb18484846020604051908101604052806000815250612c6d565b50505050565b6000806040805190810160405280600681526020017f7570646174650000000000000000000000000000000000000000000000000000815250611cfa3382611857565b883373ffffffffffffffffffffffffffffffffffffffff16611d1b826120be565b73ffffffffffffffffffffffffffffffffffffffff16141515611d3d57600080fd5b898580601383815481101515611d4f57fe5b90600052602060002090600802016001015410151515611d6e57600080fd5b60138c815481101515611d7d57fe5b906000526020600020906008020194508a856002019080519060200190611da59291906147b9565b50898560030160006101000a81548163ffffffff021916908363ffffffff160217905550888560030160046101000a81548163ffffffff021916908363ffffffff1602179055508785600501819055506001955050505050509695505050505050565b6000611e148383613c02565b905092915050565b600080600f600084815260200190815260200160002060009054906101000a900473ffffffffffffffffffffffffffffffffffffffff169050600073ffffffffffffffffffffffffffffffffffffffff168173ffffffffffffffffffffffffffffffffffffffff161415915050919050565b60006040805190810160405280600581526020017f7669736974000000000000000000000000000000000000000000000000000000815250611ed03382611857565b8360008073ffffffffffffffffffffffffffffffffffffffff168273ffffffffffffffffffffffffffffffffffffffff16148015611f495750611f48336040805190810160405280600581526020017f7669736974000000000000000000000000000000000000000000000000000000815250611ab2565b5b15611f6957611f628d8d8d8d8d8d8d8d8d6016546134c1565b9350611fa2565b611f7282612eca565b9050611f7d826121e4565b8110151515611f8b57600080fd5b611f9f8d8d8d8d8d8d8d8d8d6016546134c1565b93505b5050509998505050505050505050565b600080601383815481101515611fc457fe5b906000526020600020906008020160060154601384815481101515611fe557fe5b90600052602060002090600802016007015491509150915091565b600080833373ffffffffffffffffffffffffffffffffffffffff16612024826120be565b73ffffffffffffffffffffffffffffffffffffffff1614151561204657600080fd5b8460048060138381548110151561205957fe5b9060005260206000209060080201600101541015151561207857600080fd5b60138781548110151561208757fe5b90600052602060002090600802019350858460020190805190602001906120af9291906147b9565b50600194505050505092915050565b600080600f600084815260200190815260200160002060009054906101000a900473ffffffffffffffffffffffffffffffffffffffff169050600073ffffffffffffffffffffffffffffffffffffffff168173ffffffffffffffffffffffffffffffffffffffff161415151561213357600080fd5b80915050919050565b803373ffffffffffffffffffffffffffffffffffffffff1661215d826120be565b73ffffffffffffffffffffffffffffffffffffffff1614151561217f57600080fd5b600060146000848152602001908152602001600020541115156121a157600080fd5b600060146000848152602001908152602001600020819055506121d06001601554613cab90919063ffffffff16565b6015819055506121e03383613876565b5050565b60008073ffffffffffffffffffffffffffffffffffffffff168273ffffffffffffffffffffffffffffffffffffffff161415151561222157600080fd5b601160008373ffffffffffffffffffffffffffffffffffffffff1673ffffffffffffffffffffffffffffffffffffffff168152602001908152602001600020549050919050565b6000601160003373ffffffffffffffffffffffffffffffffffffffff1673ffffffffffffffffffffffffffffffffffffffff16815260200190815260200160002054905090565b606060006060600080601160008773ffffffffffffffffffffffffffffffffffffffff1673ffffffffffffffffffffffffffffffffffffffff168152602001908152602001600020549350836040519080825280602002602001820160405280156123295781602001602082028038833980820191505090505b50925060009150600090505b601380549050811015612406578573ffffffffffffffffffffffffffffffffffffffff16600f600083815260200190815260200160002060009054906101000a900473ffffffffffffffffffffffffffffffffffffffff1673ffffffffffffffffffffffffffffffffffffffff1614156123dd578083838151811015156123b857fe5b90602001906020020181815250506123da6001836134a590919063ffffffff16565b91505b83821015156123eb57612406565b6123ff6001826134a590919063ffffffff16565b9050612335565b82945050505050919050565b612451336040805190810160405280600581526020017f61646d696e000000000000000000000000000000000000000000000000000000815250611857565b61245b8282613cc4565b5050565b6040805190810160405280600881526020017f7472616e7366657200000000000000000000000000000000000000000000000081525081565b6000806000606060008060008060008060006124b2614839565b60138d8154811015156124c157fe5b906000526020600020906008020161014060405190810160405290816000820154815260200160018201548152602001600282018054600181600116156101000203166002900480601f0160208091040260200160405190810160405280929190818152602001828054600181600116156101000203166002900480156125895780601f1061255e57610100808354040283529160200191612589565b820191906000526020600020905b81548152906001019060200180831161256c57829003601f168201915b505050505081526020016003820160009054906101000a900463ffffffff1663ffffffff1663ffffffff1681526020016003820160049054906101000a900463ffffffff1663ffffffff1663ffffffff1681526020016003820160089054906101000a900463ffffffff1663ffffffff1663ffffffff16815260200160048201548152602001600582015481526020016006820154815260200160078201548152505090508c9b508060200151995080600001519a508060400151985080606001519750806080015196508060a0015195508060c0015194508060e001519350601460008e8152602001908152602001600020549250600f60008e815260200190815260200160002060009054906101000a900473ffffffffffffffffffffffffffffffffffffffff1691505091939597999b90929496989a50565b6040805190810160405280600581526020017f70726f6d6f00000000000000000000000000000000000000000000000000000081525081565b6000601380549050905090565b61274a336040805190810160405280600581526020017f61646d696e000000000000000000000000000000000000000000000000000000815250611857565b6000600c60008481526020019081526020016000205414151561276c57600080fd5b80600c600084815260200190815260200160002081905550600d8290806001815401808255809150509060018203906000526020600020016000909192909190915055505050565b3373ffffffffffffffffffffffffffffffffffffffff168273ffffffffffffffffffffffffffffffffffffffff16141515156127ef57600080fd5b80601260003373ffffffffffffffffffffffffffffffffffffffff1673ffffffffffffffffffffffffffffffffffffffff16815260200190815260200160002060008473ffffffffffffffffffffffffffffffffffffffff1673ffffffffffffffffffffffffffffffffffffffff16815260200190815260200160002060006101000a81548160ff0219169083151502179055508173ffffffffffffffffffffffffffffffffffffffff163373ffffffffffffffffffffffffffffffffffffffff167f17307eab39ab6107e8899845ad3d59bd9653f200f220920489ca2b5937696c3183604051808215151515815260200191505060405180910390a35050565b61292f336040805190810160405280600581526020017f61646d696e000000000000000000000000000000000000000000000000000000815250611857565b6129398282613df8565b5050565b61297c336040805190810160405280600581526020017f61646d696e000000000000000000000000000000000000000000000000000000815250611857565b61299260016016546134a590919063ffffffff16565b601681905550565b6000806129a730846137e1565b80156129c6575060006014600085815260200190815260200160002054115b80156129e5575060146000848152602001908152602001600020543410155b15156129f057600080fd5b6129f9836120be565b9150612a21601460008581526020019081526020016000205434613cab90919063ffffffff16565b90506000811115612ad2573373ffffffffffffffffffffffffffffffffffffffff166108fc829081150290604051600060405180830381858888f19350505050158015612a72573d6000803e3d6000fd5b508173ffffffffffffffffffffffffffffffffffffffff166108fc60146000868152602001908152602001600020549081150290604051600060405180830381858888f19350505050158015612acc573d6000803e3d6000fd5b50612b1a565b8173ffffffffffffffffffffffffffffffffffffffff166108fc349081150290604051600060405180830381858888f19350505050158015612b18573d6000803e3d6000fd5b505b60006014600085815260200190815260200160002081905550612b496001601554613cab90919063ffffffff16565b601581905550612b7933601385815481101515612b6257fe5b906000526020600020906008020160010154613f2c565b3073ffffffffffffffffffffffffffffffffffffffff166342842e0e8333866040518463ffffffff167c0100000000000000000000000000000000000000000000000000000000028152600401808473ffffffffffffffffffffffffffffffffffffffff1673ffffffffffffffffffffffffffffffffffffffff1681526020018373ffffffffffffffffffffffffffffffffffffffff1673ffffffffffffffffffffffffffffffffffffffff1681526020018281526020019350505050600060405180830381600087803b158015612c5057600080fd5b505af1158015612c64573d6000803e3d6000fd5b50505050505050565b81612c7833826137e1565b1515612c8357600080fd5b612c8e858585611b39565b612c9a85858585613fc2565b1515612ca557600080fd5b5050505050565b60006040805190810160405280600581526020017f7669736974000000000000000000000000000000000000000000000000000000815250612cee3382611857565b8460008073ffffffffffffffffffffffffffffffffffffffff168273ffffffffffffffffffffffffffffffffffffffff16148015612d675750612d66336040805190810160405280600581526020017f7669736974000000000000000000000000000000000000000000000000000000815250611ab2565b5b15612d8557612d7e8e8e8e8e8e8e8e8e8e8e6134c1565b9350612dbc565b612d8e82612eca565b9050612d99826121e4565b8110151515612da757600080fd5b612db98e8e8e8e8e8e8e8e8e8e6134c1565b93505b5050509a9950505050505050505050565b606080600080601554604051908082528060200260200182016040528015612e045781602001602082028038833980820191505090505b50925060009150600090505b601380549050811015612e8857600060146000838152602001908152602001600020541115612e6d57808383815181101515612e4857fe5b9060200190602002018181525050612e6a6001836134a590919063ffffffff16565b91505b612e816001826134a590919063ffffffff16565b9050612e10565b82935050505090565b6040805190810160405280600581526020017f61646d696e00000000000000000000000000000000000000000000000000000081525081565b600080600b60008473ffffffffffffffffffffffffffffffffffffffff1673ffffffffffffffffffffffffffffffffffffffff1681526020019081526020016000205490506000811415612f1d57600190505b612f2681611a18565b915050919050565b6060600060606000806000612f42876122af565b935060019250600091505b8351821015612fb75760138483815181101515612f6657fe5b90602001906020020151815481101515612f7c57fe5b906000526020600020906008020160010154905082811115612f9c578092505b612fb06001836134a590919063ffffffff16565b9150612f4d565b83839550955050505050915091565b6000612fd0614839565b60006040805190810160405280600581526020017f70726f6d6f0000000000000000000000000000000000000000000000000000008152506130123382611857565b8460008073ffffffffffffffffffffffffffffffffffffffff168273ffffffffffffffffffffffffffffffffffffffff1614801561308b575061308a336040805190810160405280600581526020017f7669736974000000000000000000000000000000000000000000000000000000815250611ab2565b5b156132125761309c8a8a898b6141e4565b9450600160138690806001815401808255809150509060018203906000526020600020906008020160009091929091909150600082015181600001556020820151816001015560408201518160020190805190602001906130fe92919061489f565b5060608201518160030160006101000a81548163ffffffff021916908363ffffffff16021790555060808201518160030160046101000a81548163ffffffff021916908363ffffffff16021790555060a08201518160030160086101000a81548163ffffffff021916908363ffffffff16021790555060c0820151816004015560e082015181600501556101008201518160060155610120820151816007015550500393506131ad8785614273565b6131bb878660200151613f2c565b8673ffffffffffffffffffffffffffffffffffffffff167f163090350da897fd03497e870bbe993a1948b39328cd37a8fe6b9179e120dd27856040518082815260200191505060405180910390a2600195506133b2565b61321b82612eca565b9050613226826121e4565b811015151561323457600080fd5b6132408a8a898b6141e4565b9450600160138690806001815401808255809150509060018203906000526020600020906008020160009091929091909150600082015181600001556020820151816001015560408201518160020190805190602001906132a292919061489f565b5060608201518160030160006101000a81548163ffffffff021916908363ffffffff16021790555060808201518160030160046101000a81548163ffffffff021916908363ffffffff16021790555060a08201518160030160086101000a81548163ffffffff021916908363ffffffff16021790555060c0820151816004015560e082015181600501556101008201518160060155610120820151816007015550500393506133518785614273565b61335f878660200151613f2c565b8673ffffffffffffffffffffffffffffffffffffffff167f163090350da897fd03497e870bbe993a1948b39328cd37a8fe6b9179e120dd27856040518082815260200191505060405180910390a2600195505b5050505050949350505050565b6000601260008473ffffffffffffffffffffffffffffffffffffffff1673ffffffffffffffffffffffffffffffffffffffff16815260200190815260200160002060008373ffffffffffffffffffffffffffffffffffffffff1673ffffffffffffffffffffffffffffffffffffffff16815260200190815260200160002060009054906101000a900460ff16905092915050565b6040805190810160405280600681526020017f757064617465000000000000000000000000000000000000000000000000000081525081565b6134968282613788565b15156134a157600080fd5b5050565b600081830190508281101515156134b857fe5b80905092915050565b60006134cb614839565b6000808b63ffffffff16101580156134ed57506006805490508b63ffffffff16105b8015613500575060008a63ffffffff1610155b801561351657506008805490508a63ffffffff16105b151561352157600080fd5b610140604051908101604052808e81526020018d81526020018881526020018c63ffffffff1681526020018b63ffffffff1681526020014263ffffffff1681526020018581526020018681526020018a8152602001898152509150600160138390806001815401808255809150509060018203906000526020600020906008020160009091929091909150600082015181600001556020820151816001015560408201518160020190805190602001906135dc92919061489f565b5060608201518160030160006101000a81548163ffffffff021916908363ffffffff16021790555060808201518160030160046101000a81548163ffffffff021916908363ffffffff16021790555060a08201518160030160086101000a81548163ffffffff021916908363ffffffff16021790555060c0820151816004015560e08201518160050155610100820151816006015561012082015181600701555050039050600073ffffffffffffffffffffffffffffffffffffffff168673ffffffffffffffffffffffffffffffffffffffff16141561370d5785600f600083815260200190815260200160002060006101000a81548173ffffffffffffffffffffffffffffffffffffffff021916908373ffffffffffffffffffffffffffffffffffffffff160217905550613774565b6137178682614273565b613725868360200151613f2c565b8573ffffffffffffffffffffffffffffffffffffffff167f163090350da897fd03497e870bbe993a1948b39328cd37a8fe6b9179e120dd27826040518082815260200191505060405180910390a25b6001925050509a9950505050505050505050565b60008260000160008373ffffffffffffffffffffffffffffffffffffffff1673ffffffffffffffffffffffffffffffffffffffff16815260200190815260200160002060009054906101000a900460ff16905092915050565b6000806137ed836120be565b90508073ffffffffffffffffffffffffffffffffffffffff168473ffffffffffffffffffffffffffffffffffffffff16148061385c57508373ffffffffffffffffffffffffffffffffffffffff16613844846116d5565b73ffffffffffffffffffffffffffffffffffffffff16145b8061386d575061386c81856133bf565b5b91505092915050565b8173ffffffffffffffffffffffffffffffffffffffff16613896826120be565b73ffffffffffffffffffffffffffffffffffffffff161415156138b857600080fd5b600073ffffffffffffffffffffffffffffffffffffffff166010600083815260200190815260200160002060009054906101000a900473ffffffffffffffffffffffffffffffffffffffff1673ffffffffffffffffffffffffffffffffffffffff161415156139755760006010600083815260200190815260200160002060006101000a81548173ffffffffffffffffffffffffffffffffffffffff021916908373ffffffffffffffffffffffffffffffffffffffff1602179055505b5050565b8173ffffffffffffffffffffffffffffffffffffffff16613999826120be565b73ffffffffffffffffffffffffffffffffffffffff161415156139bb57600080fd5b613a0e6001601160008573ffffffffffffffffffffffffffffffffffffffff1673ffffffffffffffffffffffffffffffffffffffff16815260200190815260200160002054613cab90919063ffffffff16565b601160008473ffffffffffffffffffffffffffffffffffffffff1673ffffffffffffffffffffffffffffffffffffffff168152602001908152602001600020819055506000600f600083815260200190815260200160002060006101000a81548173ffffffffffffffffffffffffffffffffffffffff021916908373ffffffffffffffffffffffffffffffffffffffff1602179055505050565b600073ffffffffffffffffffffffffffffffffffffffff16600f600083815260200190815260200160002060009054906101000a900473ffffffffffffffffffffffffffffffffffffffff1673ffffffffffffffffffffffffffffffffffffffff16141515613b1657600080fd5b81600f600083815260200190815260200160002060006101000a81548173ffffffffffffffffffffffffffffffffffffffff021916908373ffffffffffffffffffffffffffffffffffffffff160217905550613bbb6001601160008573ffffffffffffffffffffffffffffffffffffffff1673ffffffffffffffffffffffffffffffffffffffff168152602001908152602001600020546134a590919063ffffffff16565b601160008473ffffffffffffffffffffffffffffffffffffffff1673ffffffffffffffffffffffffffffffffffffffff168152602001908152602001600020819055505050565b60006040805190810160405280600581526020017f7669736974000000000000000000000000000000000000000000000000000000815250613c443382611857565b600060146000858152602001908152602001600020541115613c965760006014600085815260200190815260200160002081905550613c8f6001601554613cab90919063ffffffff16565b6015819055505b613ca08484614319565b600191505092915050565b6000828211151515613cb957fe5b818303905092915050565b613d4182600a836040518082805190602001908083835b602083101515613d005780518252602082019150602081019050602083039250613cdb565b6001836020036101000a038019825116818451168082178552505050505050905001915050908152602001604051809103902061438d90919063ffffffff16565b8173ffffffffffffffffffffffffffffffffffffffff167fd211483f91fc6eff862467f8de606587a30c8fc9981056f051b897a418df803a826040518080602001828103825283818151815260200191508051906020019080838360005b83811015613dba578082015181840152602081019050613d9f565b50505050905090810190601f168015613de75780820380516001836020036101000a031916815260200191505b509250505060405180910390a25050565b613e7582600a836040518082805190602001908083835b602083101515613e345780518252602082019150602081019050602083039250613e0f565b6001836020036101000a03801982511681845116808217855250505050505090500191505090815260200160405180910390206143eb90919063ffffffff16565b8173ffffffffffffffffffffffffffffffffffffffff167fbfec83d64eaa953f2708271a023ab9ee82057f8f3578d548c1a4ba0b5b700489826040518080602001828103825283818151815260200191508051906020019080838360005b83811015613eee578082015181840152602081019050613ed3565b50505050905090810190601f168015613f1b5780820380516001836020036101000a031916815260200191505b509250505060405180910390a25050565b6000600b60008473ffffffffffffffffffffffffffffffffffffffff1673ffffffffffffffffffffffffffffffffffffffff16815260200190815260200160002054905081811015613fbd5781600b60008573ffffffffffffffffffffffffffffffffffffffff1673ffffffffffffffffffffffffffffffffffffffff168152602001908152602001600020819055505b505050565b600080613fe48573ffffffffffffffffffffffffffffffffffffffff16614449565b1515613ff357600191506141db565b8473ffffffffffffffffffffffffffffffffffffffff1663150b7a02338887876040518563ffffffff167c0100000000000000000000000000000000000000000000000000000000028152600401808573ffffffffffffffffffffffffffffffffffffffff1673ffffffffffffffffffffffffffffffffffffffff1681526020018473ffffffffffffffffffffffffffffffffffffffff1673ffffffffffffffffffffffffffffffffffffffff16815260200183815260200180602001828103825283818151815260200191508051906020019080838360005b838110156140e85780820151818401526020810190506140cd565b50505050905090810190601f1680156141155780820380516001836020036101000a031916815260200191505b5095505050505050602060405180830381600087803b15801561413757600080fd5b505af115801561414b573d6000803e3d6000fd5b505050506040513d602081101561416157600080fd5b8101908080519060200190929190505050905063150b7a027c0100000000000000000000000000000000000000000000000000000000027bffffffffffffffffffffffffffffffffffffffffffffffffffffffff1916817bffffffffffffffffffffffffffffffffffffffffffffffffffffffff19161491505b50949350505050565b6141ec614839565b60008060006141fc88888861445c565b80935081945082955050505061014060405190810160405280848152602001600181526020018881526020018363ffffffff1681526020018263ffffffff1681526020014263ffffffff16815260200160165481526020018681526020016000815260200160008152509350505050949350505050565b600073ffffffffffffffffffffffffffffffffffffffff168273ffffffffffffffffffffffffffffffffffffffff16141515156142af57600080fd5b6142b98282613aa8565b808273ffffffffffffffffffffffffffffffffffffffff16600073ffffffffffffffffffffffffffffffffffffffff167fddf252ad1be2c89b69c2b068fc378daa952ba7f163c4a11628f55a4df523b3ef60405160405180910390a45050565b6143238282613876565b61432d8282613979565b80600073ffffffffffffffffffffffffffffffffffffffff168373ffffffffffffffffffffffffffffffffffffffff167fddf252ad1be2c89b69c2b068fc378daa952ba7f163c4a11628f55a4df523b3ef60405160405180910390a45050565b60008260000160008373ffffffffffffffffffffffffffffffffffffffff1673ffffffffffffffffffffffffffffffffffffffff16815260200190815260200160002060006101000a81548160ff0219169083151502179055505050565b60018260000160008373ffffffffffffffffffffffffffffffffffffffff1673ffffffffffffffffffffffffffffffffffffffff16815260200190815260200160002060006101000a81548160ff0219169083151502179055505050565b600080823b905060008111915050919050565b600080600080428587604051808481526020018373ffffffffffffffffffffffffffffffffffffffff1673ffffffffffffffffffffffffffffffffffffffff166c0100000000000000000000000002815260140182805190602001908083835b6020831015156144e157805182526020820191506020810190506020830392506144bc565b6001836020036101000a038019825116818451168082178552505050505050905001935050505060405180910390206001900490506003548181151561452357fe5b0693506000600160005403600a0a8581151561453b57fe5b04141561455057600160005403600a0a840193505b6005548481151561455d57fe5b06925060055460075481151561456f57fe5b046007548581151561457d57fe5b0681151561458757fe5b0491506145e48360068054806020026020016040519081016040528092919081815260200182805480156145da57602002820191906000526020600020905b8154815260200190600101908083116145c6575b505050505061460c565b92506145f08783614679565b9150600454848115156145ff57fe5b0493505093509350939050565b60008060008060009250600091505b845182101561466857848281518110151561463257fe5b9060200190602002015190508083018663ffffffff16101561465657819350614670565b8083019250818060010192505061461b565b600185510393505b50505092915050565b6000606060008060008060088054806020026020016040519081016040528092919081815260200182805480156146cf57602002820191906000526020600020905b8154815260200190600101908083116146bb575b5050505050945060009350600092505b87518310156147145787838151811015156146f657fe5b9060200190602002015160ff168401935082806001019350506146df565b6001885103600a02915060008411801561472e5750875184105b156147a257600092505b87518310156147a157878381518110151561474f57fe5b9060200190602002015160ff1688510290508381039050808281151561477157fe5b04858481518110151561478057fe5b90602001906020020181815101915081815250508280600101935050614738565b5b6147ac878661460c565b9550505050505092915050565b828054600181600116156101000203166002900490600052602060002090601f016020900481019282601f106147fa57805160ff1916838001178555614828565b82800160010185558215614828579182015b8281111561482757825182559160200191906001019061480c565b5b509050614835919061491f565b5090565b61014060405190810160405280600081526020016000815260200160608152602001600063ffffffff168152602001600063ffffffff168152602001600063ffffffff168152602001600081526020016000815260200160008152602001600081525090565b828054600181600116156101000203166002900490600052602060002090601f016020900481019282601f106148e057805160ff191683800117855561490e565b8280016001018555821561490e579182015b8281111561490d5782518255916020019190600101906148f2565b5b50905061491b919061491f565b5090565b61494191905b8082111561493d576000816000905550600101614925565b5090565b905600a165627a7a723058204cf308778aed018bf88a864d3e3fd5372841fda39e5342236b9645dc4d97cbf60029",
  "source": "pragma solidity ^0.4.21;\n\nimport './DnaCore.sol';\nimport './ToriCapacity.sol';\n\n//import 'github.com/OpenZeppelin/zeppelin-solidity/contracts/token/ERC721/ERC721BasicToken.sol';\n//import 'github.com/OpenZeppelin/zeppelin-solidity/contracts/math/SafeMath.sol';\n\nimport 'openzeppelin-solidity/contracts/token/ERC721/ERC721BasicToken.sol';\nimport 'openzeppelin-solidity/contracts/math/SafeMath.sol';\n\ncontract ToriToken is DnaCore, ToriCapacity, ERC721BasicToken {\n\n  using SafeMath for uint256;\n\n  struct Tori {\n    uint256 dna;\n    uint256 level;\n    string name;\n    uint32 proficiency;\n    uint32 personality;\n    uint32 readyTime;\n    uint256 generation;\n    uint256 special;\n    // 0, 0 --> generation 1.\n    uint256 parent1;\n    uint256 parent2;\n  }\n\n  Tori[] toris;\n\n  // toriId to price (in wei)\n  mapping (uint => uint256) toriSale;\n  uint256 toriSaleCount;\n\n  event NewTori(address indexed _address, uint256 toriIdx);\n  uint256 currentGeneration = 0;\n\n  // ROLES\n  string public constant ROLE_VISIT = \"visit\";\n  string public constant ROLE_TRANSFER = \"transfer\";\n  string public constant ROLE_PROMO = \"promo\";\n  string public constant ROLE_UPDATE = \"update\";\n\n\n  function updateGeneration() onlyAdmin public {\n    currentGeneration = currentGeneration.add(1);\n  }\n\n  modifier capacityNotFull(address _owner) {\n    if ((_owner == address(0)) && (hasRole(msg.sender, ROLE_VISIT))) {\n      // Bypass capacity check for transfer\n      _;\n    } else {\n      uint maxCapacity = getMaxCapacity(_owner);\n      require(maxCapacity >= balanceOf(_owner));\n      _;\n    }\n  }\n\n  /*\n  *   Generate random dna, personality, and proficiency level from\n  *   the given quiz & sender address.\n  */\n  function _generateRandomTori(uint8[] _quizzes,\n                               string _name,\n                               address _owner,\n                               uint256 _special) private view returns (Tori) {\n    uint256 dna;\n    uint32 proficiency;\n    uint32 personality;\n    (dna, proficiency, personality) = _generateRandomTraits(_quizzes, _name, _owner);\n    return Tori(dna, 1, _name, proficiency, personality, uint32(now), currentGeneration, _special, 0, 0);\n  }\n\n  function generateSpecialTori(uint8[] _quizzes,\n                               string _name,\n                               uint256 _special,\n                               address _owner) onlyRole(ROLE_PROMO) capacityNotFull(_owner) public returns (bool success) {\n    Tori memory newTori = _generateRandomTori(_quizzes, _name, _owner, _special);\n    // Push to the book keeping array.\n    uint256 id = toris.push(newTori) - 1;\n    _mint(_owner, id);\n    updateMaxLevel(_owner, newTori.level);\n    emit NewTori(_owner, id);\n    return true;\n  }\n\n  function _generateNewTori(uint256 _dna,\n                            uint256 _level,\n                            uint32 _proficiency,\n                            uint32 _personality,\n                            uint256 _parent1,\n                            uint256 _parent2,\n                            string _name,\n                            address _owner,\n                            uint256 _special,\n                            uint256 _generation) private returns (bool success) {\n    require((_proficiency >= 0) &&\n            (_proficiency < PROFICIENCY_THRESHOLD.length) &&\n            (_personality >= 0) &&\n            (_personality < PERSONALITY_THRESHOLD.length));\n    // Generate three new toris.\n    Tori memory newTori = Tori(_dna,\n                               _level,\n                               _name,\n                               _proficiency,\n                               _personality,\n                               uint32(now),\n                               _generation,\n                               _special,\n                               _parent1,\n                               _parent2);\n    // Push to the book keeping array.\n    uint256 id = toris.push(newTori) - 1;\n\n    if (_owner == address(0)) {\n      tokenOwner[id] = _owner;\n    } else {\n      _mint(_owner, id);\n      updateMaxLevel(_owner, newTori.level);\n      emit NewTori(_owner, id);\n    }\n    return true;\n  }\n\n  function generateNewTori(uint256 _dna,\n                           uint256 _level,\n                           uint32 _proficiency,\n                           uint32 _personality,\n                           uint256 _parent1,\n                           uint256 _parent2,\n                           string _name,\n                           address _owner,\n                           uint256 _special,\n                           uint256 _generation) onlyRole(ROLE_VISIT) capacityNotFull(_owner) public returns (bool success) {\n    return _generateNewTori(\n      _dna,\n      _level,\n      _proficiency,\n      _personality,\n      _parent1,\n      _parent2,\n      _name,\n      _owner,\n      _special,\n      _generation\n    );\n  }\n\n  function transferOldTori(uint256 _dna,\n                           uint256 _level,\n                           uint32 _proficiency,\n                           uint32 _personality,\n                           uint256 _parent1,\n                           uint256 _parent2,\n                           string _name,\n                           address _owner,\n                           uint256 _special,\n                           uint256 _generation) onlyRole(ROLE_TRANSFER) public returns (bool success) {\n    return _generateNewTori(\n      _dna,\n      _level,\n      _proficiency,\n      _personality,\n      _parent1,\n      _parent2,\n      _name,\n      _owner,\n      _special,\n      _generation\n    );\n  }\n\n  function generateNewTori(uint256 _dna,\n                           uint256 _level,\n                           uint32 _proficiency,\n                           uint32 _personality,\n                           uint256 _parent1,\n                           uint256 _parent2,\n                           string _name,\n                           address _owner,\n                           uint256 _special) onlyRole(ROLE_VISIT) capacityNotFull(_owner) public returns (bool success) {\n    return _generateNewTori(\n      _dna,\n      _level,\n      _proficiency,\n      _personality,\n      _parent1,\n      _parent2,\n      _name,\n      _owner,\n      _special,\n      currentGeneration\n    );\n  }\n\n  function _burnTori(address _owner, uint256 _tokenId) onlyRole(ROLE_VISIT) private returns (bool success) {\n    // Check if for sale\n    // TODO: remove it automatically for now.\n    if (toriSale[_tokenId] > 0) {\n      toriSale[_tokenId] = 0;\n      toriSaleCount = toriSaleCount.sub(1);\n    }\n    _burn(_owner, _tokenId);\n    // TODO: check if burn succeed\n    return true;\n  }\n\n  function burnTori(address _owner, uint256 _tokenId) public returns (bool success) {\n    return _burnTori(_owner, _tokenId);\n  }\n\n  function getTokenIndexes(address _owner) public view returns (uint[]) {\n    uint size = ownedTokensCount[_owner];\n    uint[] memory result = new uint[](size);\n\n    uint idx = 0;\n    for (uint i = 0; i < toris.length; i = i.add(1)) {\n      if (tokenOwner[i] == _owner) {\n        result[idx] = i;\n        idx = idx.add(1);\n      }\n      if (idx >= size) {\n        break;\n      }\n    }\n    return result;\n  }\n\n  function getTokenIndexesWithMaxLevel(address _owner) public view returns (uint[], uint) {\n    uint[] memory indexes = getTokenIndexes(_owner);\n    uint maxLevel = 1;\n    for (uint i = 0; i < indexes.length; i = i.add(1)) {\n      uint currLevel = toris[indexes[i]].level;\n      if (currLevel > maxLevel) {\n        maxLevel = currLevel;\n      }\n    }\n    return (indexes, maxLevel);\n  }\n\n  function getTokenInfo(uint256 _toriId) public view returns\n                    (uint256 toriId,\n                      uint256 toriDna,\n                      uint256 level,\n                      string name,\n                      uint32 proficiency,\n                      uint32 personality,\n                      uint32 readyTime,\n                      uint256 generation,\n                      uint256 special,\n                      uint postingPrice,\n                      address toriOwner) {\n    Tori memory tori = toris[_toriId];\n    toriId = _toriId;\n    level = tori.level;\n    toriDna = tori.dna;\n    name = tori.name;\n    proficiency = tori.proficiency;\n    personality = tori.personality;\n    readyTime = tori.readyTime;\n    generation = tori.generation;\n    special = tori.special;\n    postingPrice = toriSale[_toriId];\n    toriOwner = tokenOwner[_toriId];\n  }\n\n  function getParentIds(uint256 _tokenId) public view returns (uint256 parent1, uint256 parent2) {\n    return (toris[_tokenId].parent1, toris[_tokenId].parent2);\n  }\n\n  function getTokenCount() public view returns (uint256 toriCount) {\n    return ownedTokensCount[msg.sender];\n  }\n\n  function getAllTokensCount() public view returns (uint) {\n    return toris.length;\n  }\n\n\n  // TODO: add functionality for users to change the sale price.\n  function approveForSale(uint256 _tokenId, uint256 _salePrice) public onlyOwnerOf(_tokenId) {\n    require((toriSale[_tokenId] == 0) && (_salePrice > 0));\n    toriSale[_tokenId] = _salePrice;\n    toriSaleCount = toriSaleCount.add(1);\n\n    approve(this, _tokenId);\n  }\n\n  function removeForSale(uint256 _tokenId) public onlyOwnerOf(_tokenId) {\n    require(toriSale[_tokenId] > 0);\n    toriSale[_tokenId] = 0;\n    toriSaleCount = toriSaleCount.sub(1);\n\n    clearApproval(msg.sender, _tokenId);\n  }\n\n  function buyForSale(uint256 _tokenId) public payable {\n    // TODO: does msg.value needs to be exactly equal?\n    require(isApprovedOrOwner(this, _tokenId) &&\n            (toriSale[_tokenId] > 0) &&\n            (msg.value >= toriSale[_tokenId]));\n\n    address _from = ownerOf(_tokenId);\n    // Send the ether.\n    uint256 excess = msg.value.sub(toriSale[_tokenId]);\n    if (excess > 0) {\n      msg.sender.transfer(excess);\n      _from.transfer(toriSale[_tokenId]);\n    } else {\n      _from.transfer(msg.value);\n    }\n\n    // Delete sale entry.\n    toriSale[_tokenId] = 0;\n    toriSaleCount = toriSaleCount.sub(1);\n\n    // Update max level\n    updateMaxLevel(msg.sender, toris[_tokenId].level);\n\n    // We want to call this from this contract.\n    this.safeTransferFrom(_from, msg.sender, _tokenId);\n  }\n\n  function retrieveAllForSales() public view returns (uint[]) {\n    uint[] memory result = new uint[](toriSaleCount);\n    uint idx = 0;\n    for (uint i = 0; i < toris.length; i = i.add(1)) {\n      if (toriSale[i] > 0) {\n        result[idx] = i;\n        idx = idx.add(1);\n      }\n    }\n    return result;\n  }\n\n  modifier minLevel(uint256 _tokenId, uint256 _minLevel) {\n    require(toris[_tokenId].level >= _minLevel);\n    _;\n  }\n\n  function updateName(uint256 _tokenId, string _newName) public onlyOwnerOf(_tokenId) minLevel(_tokenId, 4) returns (bool) {\n    Tori storage tori = toris[_tokenId];\n    tori.name = _newName;\n    return true;\n  }\n\n  function updateTori(uint256 _tokenId,\n                      string _name,\n                      uint32 _proficiency,\n                      uint32 _personality,\n                      uint256 _special,\n                      uint256 _minLevel) onlyRole(ROLE_UPDATE) onlyOwnerOf(_tokenId) minLevel(_tokenId, _minLevel) public returns (bool result) {\n    Tori storage tori = toris[_tokenId];\n    tori.name = _name;\n    tori.proficiency = _proficiency;\n    tori.personality = _personality;\n    tori.special = _special;\n    return true;\n  }\n}\n",
  "sourcePath": "/Users/Cindy/Desktop/cs359b/cs359b-cribtori/contracts/ToriToken.sol",
  "compiler": {
    "name": "solc",
    "version": "0.4.24+commit.e67f0147.Emscripten.clang"
  },
  "schemaVersion": "2.0.1",
  "updatedAt": "2018-07-25T08:23:58.451Z"
}