{
  "contractName": "ToriAccessories",
  "abi": [
    {
      "inputs": [],
      "payable": false,
      "stateMutability": "nonpayable",
      "type": "constructor"
    },
    {
      "anonymous": false,
      "inputs": [
        {
          "indexed": true,
          "name": "_address",
          "type": "address"
        },
        {
          "indexed": false,
          "name": "accIdx",
          "type": "uint256"
        }
      ],
      "name": "NewAccessories",
      "type": "event"
    },
    {
      "constant": false,
      "inputs": [
        {
          "name": "_quiz",
          "type": "string"
        }
      ],
      "name": "generateNewAccessories",
      "outputs": [
        {
          "name": "success",
          "type": "bool"
        }
      ],
      "payable": false,
      "stateMutability": "nonpayable",
      "type": "function"
    },
    {
      "constant": true,
      "inputs": [
        {
          "name": "_owner",
          "type": "address"
        }
      ],
      "name": "getTokenIndexes",
      "outputs": [
        {
          "name": "",
          "type": "uint256[]"
        }
      ],
      "payable": false,
      "stateMutability": "view",
      "type": "function"
    },
    {
      "constant": true,
      "inputs": [
        {
          "name": "_accId",
          "type": "uint256"
        }
      ],
      "name": "getTokenInfo",
      "outputs": [
        {
          "name": "accId",
          "type": "uint256"
        },
        {
          "name": "variety",
          "type": "uint256"
        },
        {
          "name": "rarity",
          "type": "uint256"
        },
        {
          "name": "space",
          "type": "uint32"
        },
        {
          "name": "postingPrice",
          "type": "uint256"
        }
      ],
      "payable": false,
      "stateMutability": "view",
      "type": "function"
    },
    {
      "constant": true,
      "inputs": [],
      "name": "getTokenCount",
      "outputs": [
        {
          "name": "accCount",
          "type": "uint256"
        }
      ],
      "payable": false,
      "stateMutability": "view",
      "type": "function"
    },
    {
      "constant": true,
      "inputs": [],
      "name": "getAllTokensCount",
      "outputs": [
        {
          "name": "",
          "type": "uint256"
        }
      ],
      "payable": false,
      "stateMutability": "view",
      "type": "function"
    }
  ],
  "bytecode": "0x6060604052600a60005560026001556001600255600054600a0a600355600154600a0a600455600254600a0a600555341561003957600080fd5b600080610044610360565b600060039350600092505b838310156101fb576100a96040805190810160405280600681526020017f73616d706c65000000000000000000000000000000000000000000000000000081525033610234640100000000026106b1176401000000009004565b91506001600680548060010182816100c19190610394565b9160005260206000209001600085909190915060008201518160000160006101000a81548163ffffffff021916908363ffffffff16021790555060208201518160000160046101000a81548163ffffffff021916908363ffffffff16021790555060408201518160000160086101000a81548163ffffffff021916908363ffffffff1602179055505050039050336007600083815260200190815260200160002060006101000a81548173ffffffffffffffffffffffffffffffffffffffff021916908373ffffffffffffffffffffffffffffffffffffffff1602179055506001600860003373ffffffffffffffffffffffffffffffffffffffff1673ffffffffffffffffffffffffffffffffffffffff16815260200190815260200160002060008282540192505081905550828060010193505061004f565b66082bd67afbc00060096000808152602001908152602001600020819055506001600a6000828254019250508190555050505050610424565b61023c610360565b600080600080428688604051808481526020018373ffffffffffffffffffffffffffffffffffffffff1673ffffffffffffffffffffffffffffffffffffffff166c0100000000000000000000000002815260140182805190602001908083835b6020831015156102c1578051825260208201915060208101905060208303925061029c565b6001836020036101000a038019825116818451168082178552505050505050905001935050505060405180910390206001900493506003548481151561030357fe5b0692506004548481151561031357fe5b0691506005548481151561032357fe5b0690506060604051908101604052808463ffffffff1681526020018363ffffffff1681526020018263ffffffff1681525094505050505092915050565b606060405190810160405280600063ffffffff168152602001600063ffffffff168152602001600063ffffffff1681525090565b8154818355818115116103bb578183600052602060002091820191016103ba91906103c0565b5b505050565b61042191905b8082111561041d57600080820160006101000a81549063ffffffff02191690556000820160046101000a81549063ffffffff02191690556000820160086101000a81549063ffffffff0219169055506001016103c6565b5090565b90565b6108e1806104336000396000f30060606040526004361061006d576000357c0100000000000000000000000000000000000000000000000000000000900463ffffffff16806378a895671461007257806380507b571461009b5780638c7a63ae14610129578063933b545414610188578063f355d5fb146101b1575b600080fd5b341561007d57600080fd5b610085610226565b6040518082815260200191505060405180910390f35b34156100a657600080fd5b6100d2600480803573ffffffffffffffffffffffffffffffffffffffff1690602001909190505061026d565b6040518080602001828103825283818151815260200191508051906020019060200280838360005b838110156101155780820151818401526020810190506100fa565b505050509050019250505060405180910390f35b341561013457600080fd5b61014a60048080359060200190919050506103af565b604051808681526020018581526020018481526020018363ffffffff1663ffffffff1681526020018281526020019550505050505060405180910390f35b341561019357600080fd5b61019b6104a3565b6040518082815260200191505060405180910390f35b34156101bc57600080fd5b61020c600480803590602001908201803590602001908080601f016020809104026020016040519081016040528093929190818152602001838380828437820191505050505050919050506104b0565b604051808215151515815260200191505060405180910390f35b6000600860003373ffffffffffffffffffffffffffffffffffffffff1673ffffffffffffffffffffffffffffffffffffffff16815260200190815260200160002054905090565b6102756107dd565b600061027f6107dd565b600080600860008773ffffffffffffffffffffffffffffffffffffffff1673ffffffffffffffffffffffffffffffffffffffff168152602001908152602001600020549350836040518059106102d25750595b9080825280602002602001820160405250925060009150600090505b6006805490508110156103a3578573ffffffffffffffffffffffffffffffffffffffff166007600083815260200190815260200160002060009054906101000a900473ffffffffffffffffffffffffffffffffffffffff1673ffffffffffffffffffffffffffffffffffffffff1614156103885780838381518110151561037157fe5b906020019060200201818152505081806001019250505b8382101515610396576103a3565b80806001019150506102ee565b82945050505050919050565b60008060008060006103bf6107f1565b6006878154811015156103ce57fe5b9060005260206000209001606060405190810160405290816000820160009054906101000a900463ffffffff1663ffffffff1663ffffffff1681526020016000820160049054906101000a900463ffffffff1663ffffffff1663ffffffff1681526020016000820160089054906101000a900463ffffffff1663ffffffff1663ffffffff1681525050905086816000015182602001518360400151600960008c8152602001908152602001600020548363ffffffff1693508263ffffffff169250955095509550955095505091939590929450565b6000600680549050905090565b60006104ba6107f1565b600080600860003373ffffffffffffffffffffffffffffffffffffffff1673ffffffffffffffffffffffffffffffffffffffff1681526020019081526020016000205414151561050957600080fd5b61051384336106b1565b915060016006805480600101828161052b9190610825565b9160005260206000209001600085909190915060008201518160000160006101000a81548163ffffffff021916908363ffffffff16021790555060208201518160000160046101000a81548163ffffffff021916908363ffffffff16021790555060408201518160000160086101000a81548163ffffffff021916908363ffffffff1602179055505050039050336007600083815260200190815260200160002060006101000a81548173ffffffffffffffffffffffffffffffffffffffff021916908373ffffffffffffffffffffffffffffffffffffffff1602179055506001600860003373ffffffffffffffffffffffffffffffffffffffff1673ffffffffffffffffffffffffffffffffffffffff168152602001908152602001600020600082825401925050819055503373ffffffffffffffffffffffffffffffffffffffff167f9fb9d1121de8785167f7aa354b56593da21280049ad43c4e569f6791762a2233826040518082815260200191505060405180910390a2600192505050919050565b6106b96107f1565b600080600080428688604051808481526020018373ffffffffffffffffffffffffffffffffffffffff1673ffffffffffffffffffffffffffffffffffffffff166c0100000000000000000000000002815260140182805190602001908083835b60208310151561073e5780518252602082019150602081019050602083039250610719565b6001836020036101000a038019825116818451168082178552505050505050905001935050505060405180910390206001900493506003548481151561078057fe5b0692506004548481151561079057fe5b069150600554848115156107a057fe5b0690506060604051908101604052808463ffffffff1681526020018363ffffffff1681526020018263ffffffff1681525094505050505092915050565b602060405190810160405280600081525090565b606060405190810160405280600063ffffffff168152602001600063ffffffff168152602001600063ffffffff1681525090565b81548183558181151161084c5781836000526020600020918201910161084b9190610851565b5b505050565b6108b291905b808211156108ae57600080820160006101000a81549063ffffffff02191690556000820160046101000a81549063ffffffff02191690556000820160086101000a81549063ffffffff021916905550600101610857565b5090565b905600a165627a7a72305820700a0abb7f80c04b886cd4c65d40d5f285a59bddcd652f380a2518567e1cdc600029",
  "source": "pragma solidity ^0.4.21;\n\n/* import 'openzeppelin-solidity/contracts/ownership/Ownable.sol'; */\n\ncontract ToriAccessories {\n\n  uint256 private VARIETY_DIGIT = 10;\n  uint256 private RARITY_DIGIT = 2;\n  uint256 private SPACE_DIGIT = 1;\n\n  uint256 private VARIETY_LIMIT = 10**VARIETY_DIGIT;\n  uint256 private RARITY_LIMIT = 10**RARITY_DIGIT;\n  uint256 private SPACE_LIMIT = 10**SPACE_DIGIT;\n\n  struct Accessories {\n    uint32 variety;\n    uint32 rarity;\n    uint32 space;\n  }\n\n  Accessories[] accessories;\n\n  mapping (uint256 => address) accIndexToAddr;\n  mapping (address => uint256) addrToAccCount;\n\n  // accId to price (in wei)\n  mapping (uint => uint256) accessoriesSale;\n  uint256 accessoriesSaleCount;\n\n  event NewAccessories(address indexed _address, uint256 accIdx);\n\n\n  /* DEV USE */\n  function ToriAccessories() {\n    // Generate some Toris for the owner.\n    uint n = 3;\n    for (uint i = 0; i < n; i++) {\n      Accessories memory newAcc = _generateRandomAccessories(\"sample\", msg.sender);\n      // Push to the book keeping array.\n      uint256 id = accessories.push(newAcc) - 1;\n      accIndexToAddr[id] = msg.sender;\n      addrToAccCount[msg.sender] += 1;\n    }\n\n    accessoriesSale[0] = 2300000000000000;\n    accessoriesSaleCount += 1;\n  }\n\n\n\n  function _generateRandomAccessories(string _quiz, address _owner) private view returns (Accessories) {\n    // TODO: implement a more detailed Accessories generation.\n    uint256 generatedRandomness = uint(keccak256(now, _owner, _quiz));\n    uint32 variety = uint32(generatedRandomness % VARIETY_LIMIT);\n    uint32 rarity = uint32(generatedRandomness % RARITY_LIMIT);\n    uint32 space = uint32(generatedRandomness % SPACE_LIMIT);\n    return Accessories(variety, rarity, space);\n  }\n\n  function generateNewAccessories(string _quiz) public returns (bool success) {\n    // Generate three new toris.\n    require (addrToAccCount[msg.sender] == 0);\n    Accessories memory newAcc = _generateRandomAccessories(_quiz, msg.sender);\n    // Push to the book keeping array.\n    uint256 id = accessories.push(newAcc) - 1;\n    accIndexToAddr[id] = msg.sender;\n    addrToAccCount[msg.sender] += 1;\n\n    emit NewAccessories(msg.sender, id);\n    return true;\n  }\n\n  function getTokenIndexes(address _owner) public view returns (uint[]) {\n    uint size = addrToAccCount[_owner];\n    uint[] memory result = new uint[](size);\n\n    uint idx = 0;\n    for (uint i = 0; i < accessories.length; i++) {\n      if (accIndexToAddr[i] == _owner) {\n        result[idx] = i;\n        idx++;\n      }\n      if (idx >= size) {\n        break;\n      }\n    }\n    return result;\n  }\n\n  function getTokenInfo(uint256 _accId) public view returns\n                    (uint256 accId, uint256 variety, uint256 rarity,\n                      uint32 space, uint postingPrice) {\n    Accessories memory acc = accessories[_accId];\n    return (_accId, acc.variety, acc.rarity, acc.space, accessoriesSale[_accId]);\n  }\n\n  function getTokenCount() public view returns (uint256 accCount) {\n    return addrToAccCount[msg.sender];\n  }\n\n  function getAllTokensCount() public view returns (uint) {\n    return accessories.length;\n  }\n}\n",
  "sourcePath": "/Users/Cindy/Desktop/cs359b/cs359b-cribtori/contracts/ToriAccessories.sol",
  "compiler": {
    "name": "solc",
    "version": "0.4.21+commit.dfe3193c.Emscripten.clang"
  },
  "schemaVersion": "2.0.0",
  "updatedAt": "2018-05-01T19:14:19.945Z"
}