{
  "contractName": "ToriToken",
  "abi": [
    {
      "inputs": [],
      "payable": false,
      "stateMutability": "nonpayable",
      "type": "constructor"
    },
    {
      "anonymous": false,
      "inputs": [
        {
          "indexed": true,
          "name": "_address",
          "type": "address"
        },
        {
          "indexed": false,
          "name": "toriIdx",
          "type": "uint256"
        }
      ],
      "name": "NewTori",
      "type": "event"
    },
    {
      "constant": false,
      "inputs": [
        {
          "name": "_quizzes",
          "type": "uint8[]"
        },
        {
          "name": "_name",
          "type": "string"
        }
      ],
      "name": "generateNewTori",
      "outputs": [
        {
          "name": "success",
          "type": "bool"
        }
      ],
      "payable": false,
      "stateMutability": "nonpayable",
      "type": "function"
    },
    {
      "constant": true,
      "inputs": [
        {
          "name": "_owner",
          "type": "address"
        }
      ],
      "name": "getTokenIndexes",
      "outputs": [
        {
          "name": "",
          "type": "uint256[]"
        }
      ],
      "payable": false,
      "stateMutability": "view",
      "type": "function"
    },
    {
      "constant": true,
      "inputs": [
        {
          "name": "_toriId",
          "type": "uint256"
        }
      ],
      "name": "getTokenInfo",
      "outputs": [
        {
          "name": "toriId",
          "type": "uint256"
        },
        {
          "name": "toriDna",
          "type": "uint256"
        },
        {
          "name": "name",
          "type": "string"
        },
        {
          "name": "proficiency",
          "type": "uint32"
        },
        {
          "name": "personality",
          "type": "uint32"
        },
        {
          "name": "readyTime",
          "type": "uint32"
        },
        {
          "name": "postingPrice",
          "type": "uint256"
        }
      ],
      "payable": false,
      "stateMutability": "view",
      "type": "function"
    },
    {
      "constant": true,
      "inputs": [],
      "name": "getTokenCount",
      "outputs": [
        {
          "name": "toriCount",
          "type": "uint256"
        }
      ],
      "payable": false,
      "stateMutability": "view",
      "type": "function"
    },
    {
      "constant": true,
      "inputs": [],
      "name": "getAllTokensCount",
      "outputs": [
        {
          "name": "",
          "type": "uint256"
        }
      ],
      "payable": false,
      "stateMutability": "view",
      "type": "function"
    }
  ],
  "bytecode": "0x6060604052601660005560036001556006600255600054600a0a600355600160025401600a0a600455600154600a0a60055560a060405190810160405280601961ffff168152602001606461ffff16815260200160af61ffff16815260200160c861ffff16815260200161012c61ffff1681525060069060056200008592919062000c6d565b50600254600a0a600755608060405190810160405280609661ffff16815260200160c861ffff16815260200161012c61ffff16815260200161015e61ffff168152506008906004620000d992919062000cc5565b503415620000e657600080fd5b620000f062000d1d565b620000fa62000d31565b600060046040518059106200010c5750595b9080825280602002602001820160405250925060008360008151811015156200013157fe5b9060200190602002019060ff16908160ff168152505060008360018151811015156200015957fe5b9060200190602002019060ff16908160ff168152505060008360028151811015156200018157fe5b9060200190602002019060ff16908160ff16815250506000836003815181101515620001a957fe5b9060200190602002019060ff16908160ff168152505062000215836040805190810160405280600481526020017f546f746f0000000000000000000000000000000000000000000000000000000081525033620007cb640100000000026200085e176401000000009004565b91506001600980548060010182816200022f919062000d7b565b916000526020600020906003020160008590919091506000820151816000015560208201518160010190805190602001906200026d92919062000db0565b5060408201518160020160006101000a81548163ffffffff021916908363ffffffff16021790555060608201518160020160046101000a81548163ffffffff021916908363ffffffff16021790555060808201518160020160086101000a81548163ffffffff021916908363ffffffff160217905550505003905033600a600083815260200190815260200160002060006101000a81548173ffffffffffffffffffffffffffffffffffffffff021916908373ffffffffffffffffffffffffffffffffffffffff1602179055506001600b60003373ffffffffffffffffffffffffffffffffffffffff1673ffffffffffffffffffffffffffffffffffffffff1681526020019081526020016000206000828254019250508190555060018360018151811015156200039a57fe5b9060200190602002019060ff16908160ff168152505062000406836040805190810160405280600481526020017f526972690000000000000000000000000000000000000000000000000000000081525033620007cb640100000000026200085e176401000000009004565b915060016009805480600101828162000420919062000d7b565b916000526020600020906003020160008590919091506000820151816000015560208201518160010190805190602001906200045e92919062000db0565b5060408201518160020160006101000a81548163ffffffff021916908363ffffffff16021790555060608201518160020160046101000a81548163ffffffff021916908363ffffffff16021790555060808201518160020160086101000a81548163ffffffff021916908363ffffffff160217905550505003905033600a600083815260200190815260200160002060006101000a81548173ffffffffffffffffffffffffffffffffffffffff021916908373ffffffffffffffffffffffffffffffffffffffff1602179055506001600b60003373ffffffffffffffffffffffffffffffffffffffff1673ffffffffffffffffffffffffffffffffffffffff1681526020019081526020016000206000828254019250508190555060018360008151811015156200058b57fe5b9060200190602002019060ff16908160ff16815250506001836003815181101515620005b357fe5b9060200190602002019060ff16908160ff16815250506200061f836040805190810160405280600481526020017f5269746f0000000000000000000000000000000000000000000000000000000081525033620007cb640100000000026200085e176401000000009004565b915060016009805480600101828162000639919062000d7b565b916000526020600020906003020160008590919091506000820151816000015560208201518160010190805190602001906200067792919062000db0565b5060408201518160020160006101000a81548163ffffffff021916908363ffffffff16021790555060608201518160020160046101000a81548163ffffffff021916908363ffffffff16021790555060808201518160020160086101000a81548163ffffffff021916908363ffffffff160217905550505003905033600a600083815260200190815260200160002060006101000a81548173ffffffffffffffffffffffffffffffffffffffff021916908373ffffffffffffffffffffffffffffffffffffffff1602179055506001600b60003373ffffffffffffffffffffffffffffffffffffffff1673ffffffffffffffffffffffffffffffffffffffff1681526020019081526020016000206000828254019250508190555066038d7ea4c68000600c6000808152602001908152602001600020819055506001600d6000828254019250508190555050505062000f54565b620007d562000d31565b6000806000620007fb8787876200084d64010000000002620008c8176401000000009004565b80935081945082955050505060a0604051908101604052808481526020018781526020018363ffffffff1681526020018263ffffffff1681526020014263ffffffff1681525093505050509392505050565b600080600080600080428789604051808481526020018373ffffffffffffffffffffffffffffffffffffffff1673ffffffffffffffffffffffffffffffffffffffff166c0100000000000000000000000002815260140182805190602001908083835b602083101515620008d75780518252602082019150602081019050602083039250620008b0565b6001836020036101000a038019825116818451168082178552505050505050905001935050505060405180910390206001900492504287604051808381526020018273ffffffffffffffffffffffffffffffffffffffff1673ffffffffffffffffffffffffffffffffffffffff166c01000000000000000000000000028152601401925050506040518091039020600190049150828260405180838152602001828152602001925050506040518091039020600190049050600354818115156200099d57fe5b06955060055486811515620009ae57fe5b069450600554600754811515620009c157fe5b0460075487811515620009d057fe5b06811515620009db57fe5b04935062000a5085600680548060200260200160405190810160405280929190818152602001828054801562000a3157602002820191906000526020600020905b81548152602001906001019080831162000a1c575b505050505062000a916401000000000262000ad6176401000000009004565b945062000a72898562000b036401000000000262000b43176401000000009004565b93506004548681151562000a8257fe5b04955050505093509350939050565b60008060008060009250600091505b845182101562000af257848281518110151562000ab957fe5b9060200190602002015190508083018663ffffffff16101562000adf5781935062000afa565b8083019250818060010192505062000aa0565b600185510393505b50505092915050565b600062000b0f62000e37565b600080600080600880548060200260200160405190810160405280929190818152602001828054801562000b6357602002820191906000526020600020905b81548152602001906001019080831162000b4e575b5050505050945060009350600092505b875183101562000bab57878381518110151562000b8c57fe5b9060200190602002015160ff1684019350828060010193505062000b73565b6001885103600a02915060008411801562000bc65750875184105b1562000c4057600092505b875183101562000c3f57878381518110151562000bea57fe5b9060200190602002015160ff1688510290508381039050808281151562000c0d57fe5b04858481518110151562000c1d57fe5b9060200190602002018181510191508181525050828060010193505062000bd1565b5b62000c60878662000a916401000000000262000ad6176401000000009004565b9550505050505092915050565b82805482825590600052602060002090810192821562000cb2579160200282015b8281111562000cb1578251829061ffff1690559160200191906001019062000c8e565b5b50905062000cc1919062000e4b565b5090565b82805482825590600052602060002090810192821562000d0a579160200282015b8281111562000d09578251829061ffff1690559160200191906001019062000ce6565b5b50905062000d19919062000e4b565b5090565b602060405190810160405280600081525090565b60a0604051908101604052806000815260200162000d4e62000e73565b8152602001600063ffffffff168152602001600063ffffffff168152602001600063ffffffff1681525090565b81548183558181151162000dab5760030281600302836000526020600020918201910162000daa919062000e87565b5b505050565b828054600181600116156101000203166002900490600052602060002090601f016020900481019282601f1062000df357805160ff191683800117855562000e24565b8280016001018555821562000e24579182015b8281111562000e2357825182559160200191906001019062000e06565b5b50905062000e33919062000e4b565b5090565b602060405190810160405280600081525090565b62000e7091905b8082111562000e6c57600081600090555060010162000e52565b5090565b90565b602060405190810160405280600081525090565b62000f0591905b8082111562000f015760008082016000905560018201600062000eb2919062000f08565b6002820160006101000a81549063ffffffff02191690556002820160046101000a81549063ffffffff02191690556002820160086101000a81549063ffffffff02191690555060030162000e8e565b5090565b90565b50805460018160011615610100020316600290046000825580601f1062000f30575062000f51565b601f01602090049060005260206000209081019062000f50919062000e4b565b5b50565b610ed48062000f646000396000f30060606040526004361061006d576000357c0100000000000000000000000000000000000000000000000000000000900463ffffffff16806378a895671461007257806380507b571461009b5780638c7a63ae14610129578063933b545414610213578063f54292651461023c575b600080fd5b341561007d57600080fd5b6100856102f1565b6040518082815260200191505060405180910390f35b34156100a657600080fd5b6100d2600480803573ffffffffffffffffffffffffffffffffffffffff16906020019091905050610338565b6040518080602001828103825283818151815260200191508051906020019060200280838360005b838110156101155780820151818401526020810190506100fa565b505050509050019250505060405180910390f35b341561013457600080fd5b61014a600480803590602001909190505061047a565b60405180888152602001878152602001806020018663ffffffff1663ffffffff1681526020018563ffffffff1663ffffffff1681526020018463ffffffff1663ffffffff168152602001838152602001828103825287818151815260200191508051906020019080838360005b838110156101d25780820151818401526020810190506101b7565b50505050905090810190601f1680156101ff5780820380516001836020036101000a031916815260200191505b509850505050505050505060405180910390f35b341561021e57600080fd5b610226610624565b6040518082815260200191505060405180910390f35b341561024757600080fd5b6102d760048080359060200190820180359060200190808060200260200160405190810160405280939291908181526020018383602002808284378201915050505050509190803590602001908201803590602001908080601f01602080910402602001604051908101604052809392919081815260200183838082843782019150505050505091905050610631565b604051808215151515815260200191505060405180910390f35b6000600b60003373ffffffffffffffffffffffffffffffffffffffff1673ffffffffffffffffffffffffffffffffffffffff16815260200190815260200160002054905090565b610340610c89565b600061034a610c89565b600080600b60008773ffffffffffffffffffffffffffffffffffffffff1673ffffffffffffffffffffffffffffffffffffffff1681526020019081526020016000205493508360405180591061039d5750595b9080825280602002602001820160405250925060009150600090505b60098054905081101561046e578573ffffffffffffffffffffffffffffffffffffffff16600a600083815260200190815260200160002060009054906101000a900473ffffffffffffffffffffffffffffffffffffffff1673ffffffffffffffffffffffffffffffffffffffff1614156104535780838381518110151561043c57fe5b906020019060200201818152505081806001019250505b83821015156104615761046e565b80806001019150506103b9565b82945050505050919050565b600080610485610c9d565b600080600080610493610cb1565b6009898154811015156104a257fe5b906000526020600020906003020160a0604051908101604052908160008201548152602001600182018054600181600116156101000203166002900480601f01602080910402602001604051908101604052809291908181526020018280546001816001161561010002031660029004801561055f5780601f106105345761010080835404028352916020019161055f565b820191906000526020600020905b81548152906001019060200180831161054257829003601f168201915b505050505081526020016002820160009054906101000a900463ffffffff1663ffffffff1663ffffffff1681526020016002820160049054906101000a900463ffffffff1663ffffffff1663ffffffff1681526020016002820160089054906101000a900463ffffffff1663ffffffff1663ffffffff168152505090508897508060000151965080602001519550806040015194508060600151935080608001519250600c60008a815260200190815260200160002054915050919395979092949650565b6000600980549050905090565b600061063b610cb1565b600080600b60003373ffffffffffffffffffffffffffffffffffffffff1673ffffffffffffffffffffffffffffffffffffffff1681526020019081526020016000205414151561068a57600080fd5b61069585853361085e565b91506001600980548060010182816106ad9190610cf9565b916000526020600020906003020160008590919091506000820151816000015560208201518160010190805190602001906106e9929190610d2b565b5060408201518160020160006101000a81548163ffffffff021916908363ffffffff16021790555060608201518160020160046101000a81548163ffffffff021916908363ffffffff16021790555060808201518160020160086101000a81548163ffffffff021916908363ffffffff160217905550505003905033600a600083815260200190815260200160002060006101000a81548173ffffffffffffffffffffffffffffffffffffffff021916908373ffffffffffffffffffffffffffffffffffffffff1602179055506001600b60003373ffffffffffffffffffffffffffffffffffffffff1673ffffffffffffffffffffffffffffffffffffffff168152602001908152602001600020600082825401925050819055503373ffffffffffffffffffffffffffffffffffffffff167f163090350da897fd03497e870bbe993a1948b39328cd37a8fe6b9179e120dd27826040518082815260200191505060405180910390a260019250505092915050565b610866610cb1565b60008060006108768787876108c8565b80935081945082955050505060a0604051908101604052808481526020018781526020018363ffffffff1681526020018263ffffffff1681526020014263ffffffff1681525093505050509392505050565b600080600080600080428789604051808481526020018373ffffffffffffffffffffffffffffffffffffffff1673ffffffffffffffffffffffffffffffffffffffff166c0100000000000000000000000002815260140182805190602001908083835b602083101515610950578051825260208201915060208101905060208303925061092b565b6001836020036101000a038019825116818451168082178552505050505050905001935050505060405180910390206001900492504287604051808381526020018273ffffffffffffffffffffffffffffffffffffffff1673ffffffffffffffffffffffffffffffffffffffff166c0100000000000000000000000002815260140192505050604051809103902060019004915082826040518083815260200182815260200192505050604051809103902060019004905060035481811515610a1557fe5b06955060055486811515610a2557fe5b069450600554600754811515610a3757fe5b0460075487811515610a4557fe5b06811515610a4f57fe5b049350610aac856006805480602002602001604051908101604052809291908181526020018280548015610aa257602002820191906000526020600020905b815481526020019060010190808311610a8e575b5050505050610ad6565b9450610ab88985610b43565b935060045486811515610ac757fe5b04955050505093509350939050565b60008060008060009250600091505b8451821015610b32578482815181101515610afc57fe5b9060200190602002015190508083018663ffffffff161015610b2057819350610b3a565b80830192508180600101925050610ae5565b600185510393505b50505092915050565b6000610b4d610c89565b6000806000806008805480602002602001604051908101604052809291908181526020018280548015610b9f57602002820191906000526020600020905b815481526020019060010190808311610b8b575b5050505050945060009350600092505b8751831015610be4578783815181101515610bc657fe5b9060200190602002015160ff16840193508280600101935050610baf565b6001885103600a029150600084118015610bfe5750875184105b15610c7257600092505b8751831015610c71578783815181101515610c1f57fe5b9060200190602002015160ff16885102905083810390508082811515610c4157fe5b048584815181101515610c5057fe5b90602001906020020181815101915081815250508280600101935050610c08565b5b610c7c8786610ad6565b9550505050505092915050565b602060405190810160405280600081525090565b602060405190810160405280600081525090565b60a06040519081016040528060008152602001610ccc610dab565b8152602001600063ffffffff168152602001600063ffffffff168152602001600063ffffffff1681525090565b815481835581811511610d2657600302816003028360005260206000209182019101610d259190610dbf565b5b505050565b828054600181600116156101000203166002900490600052602060002090601f016020900481019282601f10610d6c57805160ff1916838001178555610d9a565b82800160010185558215610d9a579182015b82811115610d99578251825591602001919060010190610d7e565b5b509050610da79190610e3b565b5090565b602060405190810160405280600081525090565b610e3891905b80821115610e3457600080820160009055600182016000610de69190610e60565b6002820160006101000a81549063ffffffff02191690556002820160046101000a81549063ffffffff02191690556002820160086101000a81549063ffffffff021916905550600301610dc5565b5090565b90565b610e5d91905b80821115610e59576000816000905550600101610e41565b5090565b90565b50805460018160011615610100020316600290046000825580601f10610e865750610ea5565b601f016020900490600052602060002090810190610ea49190610e3b565b5b505600a165627a7a72305820fbc0f43851a57c3aa782dd2b6c8a0722db000bbc8a7102e290b831e7715093670029",
  "source": "pragma solidity ^0.4.21;\n\nimport './DnaCore.sol';\n\ncontract ToriToken is DnaCore {\n\n  struct Tori {\n    uint256 dna;\n    string name;\n    uint32 proficiency;\n    uint32 personality;\n    uint32 readyTime;\n  }\n\n  Tori[] toris;\n\n  mapping (uint256 => address) toriIndexToAddr;\n  mapping (address => uint256) addrToToriCount;\n\n  // toriId to price (in wei)\n  mapping (uint => uint256) toriSale;\n  uint256 toriSaleCount;\n\n  event NewTori(address indexed _address, uint256 toriIdx);\n\n\n  /* DEV USE */\n  function ToriToken() {\n    // Generate some Toris for the owner.\n\n    // 1.\n    uint8[] memory testQuiz = new uint8[](4);\n    testQuiz[0] = 0;\n    testQuiz[1] = 0;\n    testQuiz[2] = 0;\n    testQuiz[3] = 0;\n    Tori memory newTori = _generateRandomTori(testQuiz, \"Toto\", msg.sender);\n    uint256 id = toris.push(newTori) - 1;\n    toriIndexToAddr[id] = msg.sender;\n    addrToToriCount[msg.sender] += 1;\n    // 2.\n    testQuiz[1] = 1;\n    newTori = _generateRandomTori(testQuiz, \"Riri\", msg.sender);\n    id = toris.push(newTori) - 1;\n    toriIndexToAddr[id] = msg.sender;\n    addrToToriCount[msg.sender] += 1;\n\n    // 3.\n    testQuiz[0] = 1;\n    testQuiz[3] = 1;\n    newTori = _generateRandomTori(testQuiz, \"Rito\", msg.sender);\n    id = toris.push(newTori) - 1;\n    toriIndexToAddr[id] = msg.sender;\n    addrToToriCount[msg.sender] += 1;\n\n    toriSale[0] = 1000000000000000;\n    toriSaleCount += 1;\n  }\n\n\n\n  /*\n  *   Generate random dna, personality, and proficiency level from\n  *   the given quiz & sender address.\n  */\n  function _generateRandomTori(uint8[] _quizzes, string _name, address _owner) private view returns (Tori) {\n    uint256 dna;\n    uint32 proficiency;\n    uint32 personality;\n    (dna, proficiency, personality) = _generateRandomTraits(_quizzes, _name, _owner);\n    return Tori(dna, _name, proficiency, personality, uint32(now));\n  }\n\n  function generateNewTori(uint8[] _quizzes, string _name) public returns (bool success) {\n    // Generate three new toris.\n    require (addrToToriCount[msg.sender] == 0);\n    Tori memory newTori = _generateRandomTori(_quizzes, _name, msg.sender);\n    // Push to the book keeping array.\n    uint256 id = toris.push(newTori) - 1;\n    toriIndexToAddr[id] = msg.sender;\n    addrToToriCount[msg.sender] += 1;\n\n    emit NewTori(msg.sender, id);\n    return true;\n  }\n\n  function getTokenIndexes(address _owner) public view returns (uint[]) {\n    uint size = addrToToriCount[_owner];\n    uint[] memory result = new uint[](size);\n\n    uint idx = 0;\n    for (uint i = 0; i < toris.length; i++) {\n      if (toriIndexToAddr[i] == _owner) {\n        result[idx] = i;\n        idx++;\n      }\n      if (idx >= size) {\n        break;\n      }\n    }\n    return result;\n  }\n\n  function getTokenInfo(uint256 _toriId) public view returns\n                    (uint256 toriId, uint256 toriDna, string name, uint32 proficiency,\n                      uint32 personality, uint32 readyTime, uint postingPrice) {\n    Tori memory tori = toris[_toriId];\n    toriId = _toriId;\n    toriDna = tori.dna;\n    name = tori.name;\n    proficiency = tori.proficiency;\n    personality = tori.personality;\n    readyTime = tori.readyTime;\n    postingPrice = toriSale[_toriId];\n  }\n\n  function getTokenCount() public view returns (uint256 toriCount) {\n    return addrToToriCount[msg.sender];\n  }\n\n  function getAllTokensCount() public view returns (uint) {\n    return toris.length;\n  }\n}\n",
  "sourcePath": "/Users/Cindy/Desktop/cs359b/cs359b-cribtori/contracts/ToriToken.sol",
  "compiler": {
    "name": "solc",
    "version": "0.4.21+commit.dfe3193c.Emscripten.clang"
  },
  "schemaVersion": "2.0.0",
  "updatedAt": "2018-05-04T00:46:09.379Z"
}