{
  "contractName": "ToriToken",
  "abi": [
    {
      "constant": true,
      "inputs": [
        {
          "name": "_tokenId",
          "type": "uint256"
        }
      ],
      "name": "getApproved",
      "outputs": [
        {
          "name": "",
          "type": "address"
        }
      ],
      "payable": false,
      "stateMutability": "view",
      "type": "function"
    },
    {
      "constant": false,
      "inputs": [
        {
          "name": "_to",
          "type": "address"
        },
        {
          "name": "_tokenId",
          "type": "uint256"
        }
      ],
      "name": "approve",
      "outputs": [],
      "payable": false,
      "stateMutability": "nonpayable",
      "type": "function"
    },
    {
      "constant": true,
      "inputs": [
        {
          "name": "addr",
          "type": "address"
        },
        {
          "name": "roleName",
          "type": "string"
        }
      ],
      "name": "checkRole",
      "outputs": [],
      "payable": false,
      "stateMutability": "view",
      "type": "function"
    },
    {
      "constant": true,
      "inputs": [
        {
          "name": "addr",
          "type": "address"
        },
        {
          "name": "roleName",
          "type": "string"
        }
      ],
      "name": "hasRole",
      "outputs": [
        {
          "name": "",
          "type": "bool"
        }
      ],
      "payable": false,
      "stateMutability": "view",
      "type": "function"
    },
    {
      "constant": false,
      "inputs": [
        {
          "name": "_from",
          "type": "address"
        },
        {
          "name": "_to",
          "type": "address"
        },
        {
          "name": "_tokenId",
          "type": "uint256"
        }
      ],
      "name": "transferFrom",
      "outputs": [],
      "payable": false,
      "stateMutability": "nonpayable",
      "type": "function"
    },
    {
      "constant": false,
      "inputs": [
        {
          "name": "_from",
          "type": "address"
        },
        {
          "name": "_to",
          "type": "address"
        },
        {
          "name": "_tokenId",
          "type": "uint256"
        }
      ],
      "name": "safeTransferFrom",
      "outputs": [],
      "payable": false,
      "stateMutability": "nonpayable",
      "type": "function"
    },
    {
      "constant": true,
      "inputs": [
        {
          "name": "_tokenId",
          "type": "uint256"
        }
      ],
      "name": "exists",
      "outputs": [
        {
          "name": "",
          "type": "bool"
        }
      ],
      "payable": false,
      "stateMutability": "view",
      "type": "function"
    },
    {
      "constant": true,
      "inputs": [
        {
          "name": "_tokenId",
          "type": "uint256"
        }
      ],
      "name": "ownerOf",
      "outputs": [
        {
          "name": "",
          "type": "address"
        }
      ],
      "payable": false,
      "stateMutability": "view",
      "type": "function"
    },
    {
      "constant": true,
      "inputs": [
        {
          "name": "_owner",
          "type": "address"
        }
      ],
      "name": "balanceOf",
      "outputs": [
        {
          "name": "",
          "type": "uint256"
        }
      ],
      "payable": false,
      "stateMutability": "view",
      "type": "function"
    },
    {
      "constant": false,
      "inputs": [
        {
          "name": "addr",
          "type": "address"
        },
        {
          "name": "roleName",
          "type": "string"
        }
      ],
      "name": "adminRemoveRole",
      "outputs": [],
      "payable": false,
      "stateMutability": "nonpayable",
      "type": "function"
    },
    {
      "constant": false,
      "inputs": [
        {
          "name": "_to",
          "type": "address"
        },
        {
          "name": "_approved",
          "type": "bool"
        }
      ],
      "name": "setApprovalForAll",
      "outputs": [],
      "payable": false,
      "stateMutability": "nonpayable",
      "type": "function"
    },
    {
      "constant": false,
      "inputs": [
        {
          "name": "addr",
          "type": "address"
        },
        {
          "name": "roleName",
          "type": "string"
        }
      ],
      "name": "adminAddRole",
      "outputs": [],
      "payable": false,
      "stateMutability": "nonpayable",
      "type": "function"
    },
    {
      "constant": false,
      "inputs": [
        {
          "name": "_from",
          "type": "address"
        },
        {
          "name": "_to",
          "type": "address"
        },
        {
          "name": "_tokenId",
          "type": "uint256"
        },
        {
          "name": "_data",
          "type": "bytes"
        }
      ],
      "name": "safeTransferFrom",
      "outputs": [],
      "payable": false,
      "stateMutability": "nonpayable",
      "type": "function"
    },
    {
      "constant": true,
      "inputs": [],
      "name": "ROLE_ADMIN",
      "outputs": [
        {
          "name": "",
          "type": "string"
        }
      ],
      "payable": false,
      "stateMutability": "view",
      "type": "function"
    },
    {
      "constant": true,
      "inputs": [
        {
          "name": "_owner",
          "type": "address"
        },
        {
          "name": "_operator",
          "type": "address"
        }
      ],
      "name": "isApprovedForAll",
      "outputs": [
        {
          "name": "",
          "type": "bool"
        }
      ],
      "payable": false,
      "stateMutability": "view",
      "type": "function"
    },
    {
      "inputs": [],
      "payable": false,
      "stateMutability": "nonpayable",
      "type": "constructor"
    },
    {
      "anonymous": false,
      "inputs": [
        {
          "indexed": true,
          "name": "_address",
          "type": "address"
        },
        {
          "indexed": false,
          "name": "toriIdx",
          "type": "uint256"
        }
      ],
      "name": "NewTori",
      "type": "event"
    },
    {
      "anonymous": false,
      "inputs": [
        {
          "indexed": true,
          "name": "_from",
          "type": "address"
        },
        {
          "indexed": true,
          "name": "_to",
          "type": "address"
        },
        {
          "indexed": false,
          "name": "_tokenId",
          "type": "uint256"
        }
      ],
      "name": "Transfer",
      "type": "event"
    },
    {
      "anonymous": false,
      "inputs": [
        {
          "indexed": true,
          "name": "_owner",
          "type": "address"
        },
        {
          "indexed": true,
          "name": "_approved",
          "type": "address"
        },
        {
          "indexed": false,
          "name": "_tokenId",
          "type": "uint256"
        }
      ],
      "name": "Approval",
      "type": "event"
    },
    {
      "anonymous": false,
      "inputs": [
        {
          "indexed": true,
          "name": "_owner",
          "type": "address"
        },
        {
          "indexed": true,
          "name": "_operator",
          "type": "address"
        },
        {
          "indexed": false,
          "name": "_approved",
          "type": "bool"
        }
      ],
      "name": "ApprovalForAll",
      "type": "event"
    },
    {
      "anonymous": false,
      "inputs": [
        {
          "indexed": false,
          "name": "addr",
          "type": "address"
        },
        {
          "indexed": false,
          "name": "roleName",
          "type": "string"
        }
      ],
      "name": "RoleAdded",
      "type": "event"
    },
    {
      "anonymous": false,
      "inputs": [
        {
          "indexed": false,
          "name": "addr",
          "type": "address"
        },
        {
          "indexed": false,
          "name": "roleName",
          "type": "string"
        }
      ],
      "name": "RoleRemoved",
      "type": "event"
    },
    {
      "constant": false,
      "inputs": [],
      "name": "updateGeneration",
      "outputs": [],
      "payable": false,
      "stateMutability": "nonpayable",
      "type": "function"
    },
    {
      "constant": false,
      "inputs": [
        {
          "name": "_quizzes",
          "type": "uint8[]"
        },
        {
          "name": "_name",
          "type": "string"
        },
        {
          "name": "_special",
          "type": "uint256"
        },
        {
          "name": "_owner",
          "type": "address"
        }
      ],
      "name": "generateSpecialTori",
      "outputs": [
        {
          "name": "success",
          "type": "bool"
        }
      ],
      "payable": false,
      "stateMutability": "nonpayable",
      "type": "function"
    },
    {
      "constant": false,
      "inputs": [
        {
          "name": "_dna",
          "type": "uint256"
        },
        {
          "name": "_level",
          "type": "uint256"
        },
        {
          "name": "_proficiency",
          "type": "uint32"
        },
        {
          "name": "_personality",
          "type": "uint32"
        },
        {
          "name": "_parent1",
          "type": "uint256"
        },
        {
          "name": "_parent2",
          "type": "uint256"
        },
        {
          "name": "_name",
          "type": "string"
        },
        {
          "name": "_owner",
          "type": "address"
        },
        {
          "name": "_special",
          "type": "uint256"
        }
      ],
      "name": "generateNewTori",
      "outputs": [
        {
          "name": "success",
          "type": "bool"
        }
      ],
      "payable": false,
      "stateMutability": "nonpayable",
      "type": "function"
    },
    {
      "constant": false,
      "inputs": [
        {
          "name": "_dna",
          "type": "uint256"
        },
        {
          "name": "_level",
          "type": "uint256"
        },
        {
          "name": "_proficiency",
          "type": "uint32"
        },
        {
          "name": "_personality",
          "type": "uint32"
        },
        {
          "name": "_parent1",
          "type": "uint256"
        },
        {
          "name": "_parent2",
          "type": "uint256"
        },
        {
          "name": "_name",
          "type": "string"
        },
        {
          "name": "_owner",
          "type": "address"
        },
        {
          "name": "_special",
          "type": "uint256"
        },
        {
          "name": "_generation",
          "type": "uint256"
        }
      ],
      "name": "generateNewTori",
      "outputs": [
        {
          "name": "success",
          "type": "bool"
        }
      ],
      "payable": false,
      "stateMutability": "nonpayable",
      "type": "function"
    },
    {
      "constant": false,
      "inputs": [
        {
          "name": "_owner",
          "type": "address"
        },
        {
          "name": "_tokenId",
          "type": "uint256"
        }
      ],
      "name": "burnTori",
      "outputs": [
        {
          "name": "success",
          "type": "bool"
        }
      ],
      "payable": false,
      "stateMutability": "nonpayable",
      "type": "function"
    },
    {
      "constant": true,
      "inputs": [
        {
          "name": "_owner",
          "type": "address"
        }
      ],
      "name": "getTokenIndexes",
      "outputs": [
        {
          "name": "",
          "type": "uint256[]"
        }
      ],
      "payable": false,
      "stateMutability": "view",
      "type": "function"
    },
    {
      "constant": true,
      "inputs": [
        {
          "name": "_owner",
          "type": "address"
        }
      ],
      "name": "getTokenIndexesWithMaxLevel",
      "outputs": [
        {
          "name": "",
          "type": "uint256[]"
        },
        {
          "name": "",
          "type": "uint256"
        }
      ],
      "payable": false,
      "stateMutability": "view",
      "type": "function"
    },
    {
      "constant": true,
      "inputs": [
        {
          "name": "_toriId",
          "type": "uint256"
        }
      ],
      "name": "getTokenInfo",
      "outputs": [
        {
          "name": "toriId",
          "type": "uint256"
        },
        {
          "name": "toriDna",
          "type": "uint256"
        },
        {
          "name": "level",
          "type": "uint256"
        },
        {
          "name": "name",
          "type": "string"
        },
        {
          "name": "proficiency",
          "type": "uint32"
        },
        {
          "name": "personality",
          "type": "uint32"
        },
        {
          "name": "readyTime",
          "type": "uint32"
        },
        {
          "name": "generation",
          "type": "uint256"
        },
        {
          "name": "special",
          "type": "uint256"
        },
        {
          "name": "postingPrice",
          "type": "uint256"
        },
        {
          "name": "toriOwner",
          "type": "address"
        }
      ],
      "payable": false,
      "stateMutability": "view",
      "type": "function"
    },
    {
      "constant": true,
      "inputs": [
        {
          "name": "_tokenId",
          "type": "uint256"
        }
      ],
      "name": "getParentIds",
      "outputs": [
        {
          "name": "parent1",
          "type": "uint256"
        },
        {
          "name": "parent2",
          "type": "uint256"
        }
      ],
      "payable": false,
      "stateMutability": "view",
      "type": "function"
    },
    {
      "constant": true,
      "inputs": [],
      "name": "getTokenCount",
      "outputs": [
        {
          "name": "toriCount",
          "type": "uint256"
        }
      ],
      "payable": false,
      "stateMutability": "view",
      "type": "function"
    },
    {
      "constant": true,
      "inputs": [],
      "name": "getAllTokensCount",
      "outputs": [
        {
          "name": "",
          "type": "uint256"
        }
      ],
      "payable": false,
      "stateMutability": "view",
      "type": "function"
    },
    {
      "constant": false,
      "inputs": [
        {
          "name": "_tokenId",
          "type": "uint256"
        },
        {
          "name": "_salePrice",
          "type": "uint256"
        }
      ],
      "name": "approveForSale",
      "outputs": [],
      "payable": false,
      "stateMutability": "nonpayable",
      "type": "function"
    },
    {
      "constant": false,
      "inputs": [
        {
          "name": "_tokenId",
          "type": "uint256"
        }
      ],
      "name": "removeForSale",
      "outputs": [],
      "payable": false,
      "stateMutability": "nonpayable",
      "type": "function"
    },
    {
      "constant": false,
      "inputs": [
        {
          "name": "_tokenId",
          "type": "uint256"
        }
      ],
      "name": "buyForSale",
      "outputs": [],
      "payable": true,
      "stateMutability": "payable",
      "type": "function"
    },
    {
      "constant": true,
      "inputs": [],
      "name": "retrieveAllForSales",
      "outputs": [
        {
          "name": "",
          "type": "uint256[]"
        }
      ],
      "payable": false,
      "stateMutability": "view",
      "type": "function"
    },
    {
      "constant": false,
      "inputs": [
        {
          "name": "_tokenId",
          "type": "uint256"
        },
        {
          "name": "_newName",
          "type": "string"
        }
      ],
      "name": "updateName",
      "outputs": [
        {
          "name": "",
          "type": "bool"
        }
      ],
      "payable": false,
      "stateMutability": "nonpayable",
      "type": "function"
    },
    {
      "constant": false,
      "inputs": [
        {
          "name": "_tokenId",
          "type": "uint256"
        },
        {
          "name": "_name",
          "type": "string"
        },
        {
          "name": "_proficiency",
          "type": "uint32"
        },
        {
          "name": "_personality",
          "type": "uint32"
        },
        {
          "name": "_special",
          "type": "uint256"
        },
        {
          "name": "_minLevel",
          "type": "uint256"
        }
      ],
      "name": "updateTori",
      "outputs": [
        {
          "name": "result",
          "type": "bool"
        }
      ],
      "payable": false,
      "stateMutability": "nonpayable",
      "type": "function"
    }
  ],
  "bytecode": "0x6060604052602360015560036002556006600355600154600a0a600455600160035401600a0a600555600254600a0a60065560a060405190810160405280601961ffff168152602001606461ffff16815260200160af61ffff16815260200160c861ffff16815260200161012c61ffff1681525060079060056200008592919062000d47565b50600354600a0a600855608060405190810160405280609661ffff16815260200160c861ffff16815260200161012c61ffff16815260200161015e61ffff168152506009906004620000d992919062000d9f565b50604b600a5560006012553415620000f057600080fd5b620000fa62000df7565b6200010462000e0b565b60006200015b336040805190810160405280600581526020017f61646d696e000000000000000000000000000000000000000000000000000000815250620006fd6401000000000262003074176401000000009004565b60046040518059106200016b5750595b9080825280602002602001820160405250925060008360008151811015156200019057fe5b9060200190602002019060ff16908160ff16815250506000836001815181101515620001b857fe5b9060200190602002019060ff16908160ff16815250506000836002815181101515620001e057fe5b9060200190602002019060ff16908160ff168152505060008360038151811015156200020857fe5b9060200190602002019060ff16908160ff168152505062000276836040805190810160405280600481526020017f546f746f0000000000000000000000000000000000000000000000000000000081525033600062000863640100000000026200338e176401000000009004565b91506001600f805480600101828162000290919062000e79565b9160005260206000209060080201600085909190915060008201518160000155602082015181600101556040820151816002019080519060200190620002d892919062000eae565b5060608201518160030160006101000a81548163ffffffff021916908363ffffffff16021790555060808201518160030160046101000a81548163ffffffff021916908363ffffffff16021790555060a08201518160030160086101000a81548163ffffffff021916908363ffffffff16021790555060c0820151816004015560e0820151816005015561010082015181600601556101208201518160070155505003905033600b600083815260200190815260200160002060006101000a81548173ffffffffffffffffffffffffffffffffffffffff021916908373ffffffffffffffffffffffffffffffffffffffff160217905550620004326001600d60003373ffffffffffffffffffffffffffffffffffffffff1673ffffffffffffffffffffffffffffffffffffffff168152602001908152602001600020546200090a6401000000000262002724179091906401000000009004565b600d60003373ffffffffffffffffffffffffffffffffffffffff1673ffffffffffffffffffffffffffffffffffffffff1681526020019081526020016000208190555060018360018151811015156200048757fe5b9060200190602002019060ff16908160ff1681525050620004f5836040805190810160405280600481526020017f526972690000000000000000000000000000000000000000000000000000000081525033600062000863640100000000026200338e176401000000009004565b91506001600f80548060010182816200050f919062000e79565b91600052602060002090600802016000859091909150600082015181600001556020820151816001015560408201518160020190805190602001906200055792919062000eae565b5060608201518160030160006101000a81548163ffffffff021916908363ffffffff16021790555060808201518160030160046101000a81548163ffffffff021916908363ffffffff16021790555060a08201518160030160086101000a81548163ffffffff021916908363ffffffff16021790555060c0820151816004015560e0820151816005015561010082015181600601556101208201518160070155505003905033600b600083815260200190815260200160002060006101000a81548173ffffffffffffffffffffffffffffffffffffffff021916908373ffffffffffffffffffffffffffffffffffffffff160217905550620006b16001600d60003373ffffffffffffffffffffffffffffffffffffffff1673ffffffffffffffffffffffffffffffffffffffff168152602001908152602001600020546200090a6401000000000262002724179091906401000000009004565b600d60003373ffffffffffffffffffffffffffffffffffffffff1673ffffffffffffffffffffffffffffffffffffffff168152602001908152602001600020819055505050506200107a565b6200078c826000836040518082805190602001908083835b6020831015156200073c578051825260208201915060208101905060208303925062000715565b6001836020036101000a03801982511681845116808217855250505050505090500191505090815260200160405180910390206200092764010000000002620035a9179091906401000000009004565b7fbfec83d64eaa953f2708271a023ab9ee82057f8f3578d548c1a4ba0b5b7004898282604051808373ffffffffffffffffffffffffffffffffffffffff1673ffffffffffffffffffffffffffffffffffffffff16815260200180602001828103825283818151815260200191508051906020019080838360005b838110156200082357808201518184015260208101905062000806565b50505050905090810190601f168015620008515780820380516001836020036101000a031916815260200191505b50935050505060405180910390a15050565b6200086d62000e0b565b60008060006200089388888862000985640100000000026200361a176401000000009004565b80935081945082955050505061014060405190810160405280848152602001600281526020018881526020018363ffffffff1681526020018263ffffffff1681526020014263ffffffff16815260200160125481526020018681526020016000815260200160008152509350505050949350505050565b600081830190508281101515156200091e57fe5b80905092915050565b60018260000160008373ffffffffffffffffffffffffffffffffffffffff1673ffffffffffffffffffffffffffffffffffffffff16815260200190815260200160002060006101000a81548160ff0219169083151502179055505050565b600080600080428587604051808481526020018373ffffffffffffffffffffffffffffffffffffffff1673ffffffffffffffffffffffffffffffffffffffff166c0100000000000000000000000002815260140182805190602001908083835b60208310151562000a0c5780518252602082019150602081019050602083039250620009e5565b6001836020036101000a038019825116818451168082178552505050505050905001935050505060405180910390206001900490506004548181151562000a4f57fe5b06935060006001805403600a0a8581151562000a6757fe5b04141562000a7c576001805403600a0a840193505b6006548481151562000a8a57fe5b06925060065460085481151562000a9d57fe5b046008548581151562000aac57fe5b0681151562000ab757fe5b04915062000b2c83600780548060200260200160405190810160405280929190818152602001828054801562000b0d57602002820191906000526020600020905b81548152602001906001019080831162000af8575b505050505062000b6b64010000000002620037c8176401000000009004565b925062000b4e878362000bdd6401000000000262003835176401000000009004565b91506005548481151562000b5e57fe5b0493505093509350939050565b60008060008060009250600091505b845182101562000bcc57848281518110151562000b9357fe5b9060200190602002015190508083018663ffffffff16101562000bb95781935062000bd4565b8083019250818060010192505062000b7a565b600185510393505b50505092915050565b600062000be962000f35565b600080600080600980548060200260200160405190810160405280929190818152602001828054801562000c3d57602002820191906000526020600020905b81548152602001906001019080831162000c28575b5050505050945060009350600092505b875183101562000c8557878381518110151562000c6657fe5b9060200190602002015160ff1684019350828060010193505062000c4d565b6001885103600a02915060008411801562000ca05750875184105b1562000d1a57600092505b875183101562000d1957878381518110151562000cc457fe5b9060200190602002015160ff1688510290508381039050808281151562000ce757fe5b04858481518110151562000cf757fe5b9060200190602002018181510191508181525050828060010193505062000cab565b5b62000d3a878662000b6b64010000000002620037c8176401000000009004565b9550505050505092915050565b82805482825590600052602060002090810192821562000d8c579160200282015b8281111562000d8b578251829061ffff1690559160200191906001019062000d68565b5b50905062000d9b919062000f49565b5090565b82805482825590600052602060002090810192821562000de4579160200282015b8281111562000de3578251829061ffff1690559160200191906001019062000dc0565b5b50905062000df3919062000f49565b5090565b602060405190810160405280600081525090565b61014060405190810160405280600081526020016000815260200162000e3062000f71565b8152602001600063ffffffff168152602001600063ffffffff168152602001600063ffffffff168152602001600081526020016000815260200160008152602001600081525090565b81548183558181151162000ea95760080281600802836000526020600020918201910162000ea8919062000f85565b5b505050565b828054600181600116156101000203166002900490600052602060002090601f016020900481019282601f1062000ef157805160ff191683800117855562000f22565b8280016001018555821562000f22579182015b8281111562000f2157825182559160200191906001019062000f04565b5b50905062000f31919062000f49565b5090565b602060405190810160405280600081525090565b62000f6e91905b8082111562000f6a57600081600090555060010162000f50565b5090565b90565b602060405190810160405280600081525090565b6200102b91905b808211156200102757600080820160009055600182016000905560028201600062000fb891906200102e565b6003820160006101000a81549063ffffffff02191690556003820160046101000a81549063ffffffff02191690556003820160086101000a81549063ffffffff021916905560048201600090556005820160009055600682016000905560078201600090555060080162000f8c565b5090565b90565b50805460018160011615610100020316600290046000825580601f1062001056575062001077565b601f01602090049060005260206000209081019062001076919062000f49565b5b50565b613c92806200108a6000396000f300606060405260043610610196576000357c0100000000000000000000000000000000000000000000000000000000900463ffffffff168063081812fc1461019b578063095ea7b3146101fe5780630988ca8c14610240578063120e22e4146102bc578063217fe6c6146102e857806323b872dd1461037c57806342842e0e146103dd578063444c92931461043e5780634dac6dcf146104ec5780634f558e79146105465780634f8e2a42146105815780635178f0041461066057806353e76f2c1461069e5780636352211e1461071c5780636b8667f51461077f57806370a08231146107a257806378a89567146107ef57806380507b571461081857806388cee87e146108a65780638c7a63ae14610922578063933b545414610a54578063a22cb46514610a7d578063b25fa92c14610ac1578063b32805c314610b3d578063b438314f14610b52578063b88d4fde14610b6a578063bc53c17a14610c0e578063be928c9214610cf6578063d391014b14610d60578063e3ce225714610dee578063e728ce9014610e83578063e985e9c514610f60575b600080fd5b34156101a657600080fd5b6101bc6004808035906020019091905050610fd0565b604051808273ffffffffffffffffffffffffffffffffffffffff1673ffffffffffffffffffffffffffffffffffffffff16815260200191505060405180910390f35b341561020957600080fd5b61023e600480803573ffffffffffffffffffffffffffffffffffffffff1690602001909190803590602001909190505061100d565b005b341561024b57600080fd5b6102ba600480803573ffffffffffffffffffffffffffffffffffffffff1690602001909190803590602001908201803590602001908080601f016020809104026020016040519081016040528093929190818152602001838380828437820191505050505050919050506111d3565b005b34156102c757600080fd5b6102e66004808035906020019091908035906020019091905050611254565b005b34156102f357600080fd5b610362600480803573ffffffffffffffffffffffffffffffffffffffff1690602001909190803590602001908201803590602001908080601f01602080910402602001604051908101604052809392919081815260200183838082843782019150505050505091905050611308565b604051808215151515815260200191505060405180910390f35b341561038757600080fd5b6103db600480803573ffffffffffffffffffffffffffffffffffffffff1690602001909190803573ffffffffffffffffffffffffffffffffffffffff1690602001909190803590602001909190505061138f565b005b34156103e857600080fd5b61043c600480803573ffffffffffffffffffffffffffffffffffffffff1690602001909190803573ffffffffffffffffffffffffffffffffffffffff169060200190919080359060200190919050506114a6565b005b341561044957600080fd5b6104d2600480803590602001909190803590602001908201803590602001908080601f0160208091040260200160405190810160405280939291908181526020018383808284378201915050505050509190803563ffffffff1690602001909190803563ffffffff169060200190919080359060200190919080359060200190919050506114de565b604051808215151515815260200191505060405180910390f35b34156104f757600080fd5b61052c600480803573ffffffffffffffffffffffffffffffffffffffff1690602001909190803590602001909190505061162f565b604051808215151515815260200191505060405180910390f35b341561055157600080fd5b6105676004808035906020019091905050611643565b604051808215151515815260200191505060405180910390f35b341561058c57600080fd5b610646600480803590602001909190803590602001909190803563ffffffff1690602001909190803563ffffffff1690602001909190803590602001909190803590602001909190803590602001908201803590602001908080601f0160208091040260200160405190810160405280939291908181526020018383808284378201915050505050509190803573ffffffffffffffffffffffffffffffffffffffff169060200190919080359060200190919050506116b5565b604051808215151515815260200191505060405180910390f35b341561066b57600080fd5b610681600480803590602001909190505061171b565b604051808381526020018281526020019250505060405180910390f35b34156106a957600080fd5b610702600480803590602001909190803590602001908201803590602001908080601f01602080910402602001604051908101604052809392919081815260200183838082843782019150505050505091905050611769565b604051808215151515815260200191505060405180910390f35b341561072757600080fd5b61073d6004808035906020019091905050611827565b604051808273ffffffffffffffffffffffffffffffffffffffff1673ffffffffffffffffffffffffffffffffffffffff16815260200191505060405180910390f35b341561078a57600080fd5b6107a060048080359060200190919050506118a5565b005b34156107ad57600080fd5b6107d9600480803573ffffffffffffffffffffffffffffffffffffffff1690602001909190505061194d565b6040518082815260200191505060405180910390f35b34156107fa57600080fd5b6108026119d1565b6040518082815260200191505060405180910390f35b341561082357600080fd5b61084f600480803573ffffffffffffffffffffffffffffffffffffffff16906020019091905050611a18565b6040518080602001828103825283818151815260200191508051906020019060200280838360005b83811015610892578082015181840152602081019050610877565b505050509050019250505060405180910390f35b34156108b157600080fd5b610920600480803573ffffffffffffffffffffffffffffffffffffffff1690602001909190803590602001908201803590602001908080601f01602080910402602001604051908101604052809392919081815260200183838082843782019150505050505091905050611b76565b005b341561092d57600080fd5b6109436004808035906020019091905050611bc3565b604051808c81526020018b81526020018a8152602001806020018963ffffffff1663ffffffff1681526020018863ffffffff1663ffffffff1681526020018763ffffffff1663ffffffff1681526020018681526020018581526020018481526020018373ffffffffffffffffffffffffffffffffffffffff1673ffffffffffffffffffffffffffffffffffffffff16815260200182810382528a818151815260200191508051906020019080838360005b83811015610a0f5780820151818401526020810190506109f4565b50505050905090810190601f168015610a3c5780820380516001836020036101000a031916815260200191505b509c5050505050505050505050505060405180910390f35b3415610a5f57600080fd5b610a67611df6565b6040518082815260200191505060405180910390f35b3415610a8857600080fd5b610abf600480803573ffffffffffffffffffffffffffffffffffffffff169060200190919080351515906020019091905050611e03565b005b3415610acc57600080fd5b610b3b600480803573ffffffffffffffffffffffffffffffffffffffff1690602001909190803590602001908201803590602001908080601f01602080910402602001604051908101604052809392919081815260200183838082843782019150505050505091905050611f3f565b005b3415610b4857600080fd5b610b50611f8c565b005b610b686004808035906020019091905050611fe9565b005b3415610b7557600080fd5b610c0c600480803573ffffffffffffffffffffffffffffffffffffffff1690602001909190803573ffffffffffffffffffffffffffffffffffffffff1690602001909190803590602001909190803590602001908201803590602001908080601f01602080910402602001604051908101604052809392919081815260200183838082843782019150505050505091905050612274565b005b3415610c1957600080fd5b610cdc600480803590602001909190803590602001909190803563ffffffff1690602001909190803563ffffffff1690602001909190803590602001909190803590602001909190803590602001908201803590602001908080601f0160208091040260200160405190810160405280939291908181526020018383808284378201915050505050509190803573ffffffffffffffffffffffffffffffffffffffff169060200190919080359060200190919080359060200190919050506122b3565b604051808215151515815260200191505060405180910390f35b3415610d0157600080fd5b610d09612318565b6040518080602001828103825283818151815260200191508051906020019060200280838360005b83811015610d4c578082015181840152602081019050610d31565b505050509050019250505060405180910390f35b3415610d6b57600080fd5b610d736123d8565b6040518080602001828103825283818151815260200191508051906020019080838360005b83811015610db3578082015181840152602081019050610d98565b50505050905090810190601f168015610de05780820380516001836020036101000a031916815260200191505b509250505060405180910390f35b3415610df957600080fd5b610e25600480803573ffffffffffffffffffffffffffffffffffffffff16906020019091905050612411565b6040518080602001838152602001828103825284818151815260200191508051906020019060200280838360005b83811015610e6e578082015181840152602081019050610e53565b50505050905001935050505060405180910390f35b3415610e8e57600080fd5b610f4660048080359060200190820180359060200190808060200260200160405190810160405280939291908181526020018383602002808284378201915050505050509190803590602001908201803590602001908080601f0160208091040260200160405190810160405280939291908181526020018383808284378201915050505050509190803590602001909190803573ffffffffffffffffffffffffffffffffffffffff169060200190919050506124b5565b604051808215151515815260200191505060405180910390f35b3415610f6b57600080fd5b610fb6600480803573ffffffffffffffffffffffffffffffffffffffff1690602001909190803573ffffffffffffffffffffffffffffffffffffffff16906020019091905050612677565b604051808215151515815260200191505060405180910390f35b6000600c600083815260200190815260200160002060009054906101000a900473ffffffffffffffffffffffffffffffffffffffff169050919050565b600061101882611827565b90508073ffffffffffffffffffffffffffffffffffffffff168373ffffffffffffffffffffffffffffffffffffffff161415151561105557600080fd5b8073ffffffffffffffffffffffffffffffffffffffff163373ffffffffffffffffffffffffffffffffffffffff16148061109557506110948133612677565b5b15156110a057600080fd5b600073ffffffffffffffffffffffffffffffffffffffff166110c183610fd0565b73ffffffffffffffffffffffffffffffffffffffff161415806111115750600073ffffffffffffffffffffffffffffffffffffffff168373ffffffffffffffffffffffffffffffffffffffff1614155b156111ce5782600c600084815260200190815260200160002060006101000a81548173ffffffffffffffffffffffffffffffffffffffff021916908373ffffffffffffffffffffffffffffffffffffffff1602179055508273ffffffffffffffffffffffffffffffffffffffff168173ffffffffffffffffffffffffffffffffffffffff167f8c5be1e5ebec7d5bd14f71427d1e84f3dd0314c0f7b2291e5b200ac8c7c3b925846040518082815260200191505060405180910390a35b505050565b611250826000836040518082805190602001908083835b60208310151561120f57805182526020820191506020810190506020830392506111ea565b6001836020036101000a038019825116818451168082178552505050505050905001915050908152602001604051809103902061270b90919063ffffffff16565b5050565b813373ffffffffffffffffffffffffffffffffffffffff1661127582611827565b73ffffffffffffffffffffffffffffffffffffffff1614151561129757600080fd5b600060106000858152602001908152602001600020541480156112ba5750600082115b15156112c557600080fd5b8160106000858152602001908152602001600020819055506112f3600160115461272490919063ffffffff16565b601181905550611303308461100d565b505050565b6000611387836000846040518082805190602001908083835b6020831015156113465780518252602082019150602081019050602083039250611321565b6001836020036101000a038019825116818451168082178552505050505050905001915050908152602001604051809103902061274090919063ffffffff16565b905092915050565b8061139a3382612799565b15156113a557600080fd5b600073ffffffffffffffffffffffffffffffffffffffff168473ffffffffffffffffffffffffffffffffffffffff16141515156113e157600080fd5b600073ffffffffffffffffffffffffffffffffffffffff168373ffffffffffffffffffffffffffffffffffffffff161415151561141d57600080fd5b611427848361282e565b6114318483612997565b61143b8383612ac6565b8273ffffffffffffffffffffffffffffffffffffffff168473ffffffffffffffffffffffffffffffffffffffff167fddf252ad1be2c89b69c2b068fc378daa952ba7f163c4a11628f55a4df523b3ef846040518082815260200191505060405180910390a350505050565b806114b13382612799565b15156114bc57600080fd5b6114d88484846020604051908101604052806000815250612274565b50505050565b6000806040805190810160405280600681526020017f757064617465000000000000000000000000000000000000000000000000000081525061152133826111d3565b883373ffffffffffffffffffffffffffffffffffffffff1661154282611827565b73ffffffffffffffffffffffffffffffffffffffff1614151561156457600080fd5b898580600f8381548110151561157657fe5b9060005260206000209060080201600101541015151561159557600080fd5b600f8c8154811015156115a457fe5b906000526020600020906008020194508a8560020190805190602001906115cc92919061397b565b50898560030160006101000a81548163ffffffff021916908363ffffffff160217905550888560030160046101000a81548163ffffffff021916908363ffffffff1602179055508785600501819055506001955050505050509695505050505050565b600061163b8383612c20565b905092915050565b600080600b600084815260200190815260200160002060009054906101000a900473ffffffffffffffffffffffffffffffffffffffff169050600073ffffffffffffffffffffffffffffffffffffffff168173ffffffffffffffffffffffffffffffffffffffff161415915050919050565b60006040805190810160405280600581526020017f76697369740000000000000000000000000000000000000000000000000000008152506116f733826111d3565b61170b8b8b8b8b8b8b8b8b8b601254612cc9565b9150509998505050505050505050565b600080600f8381548110151561172d57fe5b906000526020600020906008020160060154600f8481548110151561174e57fe5b90600052602060002090600802016007015491509150915091565b600080833373ffffffffffffffffffffffffffffffffffffffff1661178d82611827565b73ffffffffffffffffffffffffffffffffffffffff161415156117af57600080fd5b84600480600f838154811015156117c257fe5b906000526020600020906008020160010154101515156117e157600080fd5b600f878154811015156117f057fe5b906000526020600020906008020193508584600201908051906020019061181892919061397b565b50600194505050505092915050565b600080600b600084815260200190815260200160002060009054906101000a900473ffffffffffffffffffffffffffffffffffffffff169050600073ffffffffffffffffffffffffffffffffffffffff168173ffffffffffffffffffffffffffffffffffffffff161415151561189c57600080fd5b80915050919050565b803373ffffffffffffffffffffffffffffffffffffffff166118c682611827565b73ffffffffffffffffffffffffffffffffffffffff161415156118e857600080fd5b6000601060008481526020019081526020016000205411151561190a57600080fd5b600060106000848152602001908152602001600020819055506119396001601154612f0a90919063ffffffff16565b601181905550611949338361282e565b5050565b60008073ffffffffffffffffffffffffffffffffffffffff168273ffffffffffffffffffffffffffffffffffffffff161415151561198a57600080fd5b600d60008373ffffffffffffffffffffffffffffffffffffffff1673ffffffffffffffffffffffffffffffffffffffff168152602001908152602001600020549050919050565b6000600d60003373ffffffffffffffffffffffffffffffffffffffff1673ffffffffffffffffffffffffffffffffffffffff16815260200190815260200160002054905090565b611a206139fb565b6000611a2a6139fb565b600080600d60008773ffffffffffffffffffffffffffffffffffffffff1673ffffffffffffffffffffffffffffffffffffffff16815260200190815260200160002054935083604051805910611a7d5750595b9080825280602002602001820160405250925060009150600090505b600f80549050811015611b6a578573ffffffffffffffffffffffffffffffffffffffff16600b600083815260200190815260200160002060009054906101000a900473ffffffffffffffffffffffffffffffffffffffff1673ffffffffffffffffffffffffffffffffffffffff161415611b4157808383815181101515611b1c57fe5b9060200190602002018181525050611b3e60018361272490919063ffffffff16565b91505b8382101515611b4f57611b6a565b611b6360018261272490919063ffffffff16565b9050611a99565b82945050505050919050565b611bb5336040805190810160405280600581526020017f61646d696e0000000000000000000000000000000000000000000000000000008152506111d3565b611bbf8282612f23565b5050565b6000806000611bd0613a0f565b6000806000806000806000611be3613a23565b600f8d815481101515611bf257fe5b906000526020600020906008020161014060405190810160405290816000820154815260200160018201548152602001600282018054600181600116156101000203166002900480601f016020809104026020016040519081016040528092919081815260200182805460018160011615610100020316600290048015611cba5780601f10611c8f57610100808354040283529160200191611cba565b820191906000526020600020905b815481529060010190602001808311611c9d57829003601f168201915b505050505081526020016003820160009054906101000a900463ffffffff1663ffffffff1663ffffffff1681526020016003820160049054906101000a900463ffffffff1663ffffffff1663ffffffff1681526020016003820160089054906101000a900463ffffffff1663ffffffff1663ffffffff16815260200160048201548152602001600582015481526020016006820154815260200160078201548152505090508c9b508060200151995080600001519a508060400151985080606001519750806080015196508060a0015195508060c0015194508060e001519350601060008e8152602001908152602001600020549250600b60008e815260200190815260200160002060009054906101000a900473ffffffffffffffffffffffffffffffffffffffff1691505091939597999b90929496989a50565b6000600f80549050905090565b3373ffffffffffffffffffffffffffffffffffffffff168273ffffffffffffffffffffffffffffffffffffffff1614151515611e3e57600080fd5b80600e60003373ffffffffffffffffffffffffffffffffffffffff1673ffffffffffffffffffffffffffffffffffffffff16815260200190815260200160002060008473ffffffffffffffffffffffffffffffffffffffff1673ffffffffffffffffffffffffffffffffffffffff16815260200190815260200160002060006101000a81548160ff0219169083151502179055508173ffffffffffffffffffffffffffffffffffffffff163373ffffffffffffffffffffffffffffffffffffffff167f17307eab39ab6107e8899845ad3d59bd9653f200f220920489ca2b5937696c3183604051808215151515815260200191505060405180910390a35050565b611f7e336040805190810160405280600581526020017f61646d696e0000000000000000000000000000000000000000000000000000008152506111d3565b611f888282613074565b5050565b611fcb336040805190810160405280600581526020017f61646d696e0000000000000000000000000000000000000000000000000000008152506111d3565b611fe1600160125461272490919063ffffffff16565b601281905550565b600080611ff63084612799565b8015612015575060006010600085815260200190815260200160002054115b8015612034575060106000848152602001908152602001600020543410155b151561203f57600080fd5b61204883611827565b9150612070601060008581526020019081526020016000205434612f0a90919063ffffffff16565b90506000811115612113573373ffffffffffffffffffffffffffffffffffffffff166108fc829081150290604051600060405180830381858888f1935050505015156120bb57600080fd5b8173ffffffffffffffffffffffffffffffffffffffff166108fc60106000868152602001908152602001600020549081150290604051600060405180830381858888f19350505050151561210e57600080fd5b612154565b8173ffffffffffffffffffffffffffffffffffffffff166108fc349081150290604051600060405180830381858888f19350505050151561215357600080fd5b5b600060106000858152602001908152602001600020819055506121836001601154612f0a90919063ffffffff16565b6011819055503073ffffffffffffffffffffffffffffffffffffffff166342842e0e8333866040518463ffffffff167c0100000000000000000000000000000000000000000000000000000000028152600401808473ffffffffffffffffffffffffffffffffffffffff1673ffffffffffffffffffffffffffffffffffffffff1681526020018373ffffffffffffffffffffffffffffffffffffffff1673ffffffffffffffffffffffffffffffffffffffff1681526020018281526020019350505050600060405180830381600087803b151561225f57600080fd5b5af1151561226c57600080fd5b505050505050565b8161227f3382612799565b151561228a57600080fd5b61229585858561138f565b6122a1858585856131c5565b15156122ac57600080fd5b5050505050565b60006040805190810160405280600581526020017f76697369740000000000000000000000000000000000000000000000000000008152506122f533826111d3565b6123078c8c8c8c8c8c8c8c8c8c612cc9565b9150509a9950505050505050505050565b6123206139fb565b6123286139fb565b60008060115460405180591061233b5750595b9080825280602002602001820160405250925060009150600090505b600f805490508110156123cf576000601060008381526020019081526020016000205411156123b45780838381518110151561238f57fe5b90602001906020020181815250506123b160018361272490919063ffffffff16565b91505b6123c860018261272490919063ffffffff16565b9050612357565b82935050505090565b6040805190810160405280600581526020017f61646d696e00000000000000000000000000000000000000000000000000000081525081565b6124196139fb565b60006124236139fb565b600080600061243187611a18565b935060019250600091505b83518210156124a657600f848381518110151561245557fe5b9060200190602002015181548110151561246b57fe5b90600052602060002090600802016001015490508281111561248b578092505b61249f60018361272490919063ffffffff16565b915061243c565b83839550955050505050915091565b60006124bf613a23565b60006040805190810160405280600581526020017f70726f6d6f00000000000000000000000000000000000000000000000000000081525061250133826111d3565b61250d8888878961338e565b92506001600f80548060010182816125259190613a8f565b916000526020600020906008020160008690919091506000820151816000015560208201518160010155604082015181600201908051906020019061256b929190613ac1565b5060608201518160030160006101000a81548163ffffffff021916908363ffffffff16021790555060808201518160030160046101000a81548163ffffffff021916908363ffffffff16021790555060a08201518160030160086101000a81548163ffffffff021916908363ffffffff16021790555060c0820151816004015560e0820151816005015561010082015181600601556101208201518160070155505003915061261a858361341d565b8473ffffffffffffffffffffffffffffffffffffffff167f163090350da897fd03497e870bbe993a1948b39328cd37a8fe6b9179e120dd27836040518082815260200191505060405180910390a260019350505050949350505050565b6000600e60008473ffffffffffffffffffffffffffffffffffffffff1673ffffffffffffffffffffffffffffffffffffffff16815260200190815260200160002060008373ffffffffffffffffffffffffffffffffffffffff1673ffffffffffffffffffffffffffffffffffffffff16815260200190815260200160002060009054906101000a900460ff16905092915050565b6127158282612740565b151561272057600080fd5b5050565b6000818301905082811015151561273757fe5b80905092915050565b60008260000160008373ffffffffffffffffffffffffffffffffffffffff1673ffffffffffffffffffffffffffffffffffffffff16815260200190815260200160002060009054906101000a900460ff16905092915050565b6000806127a583611827565b90508073ffffffffffffffffffffffffffffffffffffffff168473ffffffffffffffffffffffffffffffffffffffff16148061281457508373ffffffffffffffffffffffffffffffffffffffff166127fc84610fd0565b73ffffffffffffffffffffffffffffffffffffffff16145b8061282557506128248185612677565b5b91505092915050565b8173ffffffffffffffffffffffffffffffffffffffff1661284e82611827565b73ffffffffffffffffffffffffffffffffffffffff1614151561287057600080fd5b600073ffffffffffffffffffffffffffffffffffffffff16600c600083815260200190815260200160002060009054906101000a900473ffffffffffffffffffffffffffffffffffffffff1673ffffffffffffffffffffffffffffffffffffffff16141515612993576000600c600083815260200190815260200160002060006101000a81548173ffffffffffffffffffffffffffffffffffffffff021916908373ffffffffffffffffffffffffffffffffffffffff160217905550600073ffffffffffffffffffffffffffffffffffffffff168273ffffffffffffffffffffffffffffffffffffffff167f8c5be1e5ebec7d5bd14f71427d1e84f3dd0314c0f7b2291e5b200ac8c7c3b925836040518082815260200191505060405180910390a35b5050565b8173ffffffffffffffffffffffffffffffffffffffff166129b782611827565b73ffffffffffffffffffffffffffffffffffffffff161415156129d957600080fd5b612a2c6001600d60008573ffffffffffffffffffffffffffffffffffffffff1673ffffffffffffffffffffffffffffffffffffffff16815260200190815260200160002054612f0a90919063ffffffff16565b600d60008473ffffffffffffffffffffffffffffffffffffffff1673ffffffffffffffffffffffffffffffffffffffff168152602001908152602001600020819055506000600b600083815260200190815260200160002060006101000a81548173ffffffffffffffffffffffffffffffffffffffff021916908373ffffffffffffffffffffffffffffffffffffffff1602179055505050565b600073ffffffffffffffffffffffffffffffffffffffff16600b600083815260200190815260200160002060009054906101000a900473ffffffffffffffffffffffffffffffffffffffff1673ffffffffffffffffffffffffffffffffffffffff16141515612b3457600080fd5b81600b600083815260200190815260200160002060006101000a81548173ffffffffffffffffffffffffffffffffffffffff021916908373ffffffffffffffffffffffffffffffffffffffff160217905550612bd96001600d60008573ffffffffffffffffffffffffffffffffffffffff1673ffffffffffffffffffffffffffffffffffffffff1681526020019081526020016000205461272490919063ffffffff16565b600d60008473ffffffffffffffffffffffffffffffffffffffff1673ffffffffffffffffffffffffffffffffffffffff168152602001908152602001600020819055505050565b60006040805190810160405280600581526020017f7669736974000000000000000000000000000000000000000000000000000000815250612c6233826111d3565b600060106000858152602001908152602001600020541115612cb45760006010600085815260200190815260200160002081905550612cad6001601154612f0a90919063ffffffff16565b6011819055505b612cbe84846134cd565b600191505092915050565b6000612cd3613a23565b6000806004548e811515612ce357fe5b04148015612cf8575060008b63ffffffff1610155b8015612d0e57506007805490508b63ffffffff16105b8015612d21575060008a63ffffffff1610155b8015612d3757506009805490508a63ffffffff16105b1515612d4257600080fd5b610140604051908101604052808e81526020018d81526020018881526020018c63ffffffff1681526020018b63ffffffff1681526020014263ffffffff1681526020018581526020018681526020018a81526020018981525091506001600f8054806001018281612db39190613a8f565b9160005260206000209060080201600085909190915060008201518160000155602082015181600101556040820151816002019080519060200190612df9929190613ac1565b5060608201518160030160006101000a81548163ffffffff021916908363ffffffff16021790555060808201518160030160046101000a81548163ffffffff021916908363ffffffff16021790555060a08201518160030160086101000a81548163ffffffff021916908363ffffffff16021790555060c0820151816004015560e08201518160050155610100820151816006015561012082015181600701555050039050612ea8868261341d565b8573ffffffffffffffffffffffffffffffffffffffff167f163090350da897fd03497e870bbe993a1948b39328cd37a8fe6b9179e120dd27826040518082815260200191505060405180910390a26001925050509a9950505050505050505050565b6000828211151515612f1857fe5b818303905092915050565b612fa0826000836040518082805190602001908083835b602083101515612f5f5780518252602082019150602081019050602083039250612f3a565b6001836020036101000a038019825116818451168082178552505050505050905001915050908152602001604051809103902061354b90919063ffffffff16565b7fd211483f91fc6eff862467f8de606587a30c8fc9981056f051b897a418df803a8282604051808373ffffffffffffffffffffffffffffffffffffffff1673ffffffffffffffffffffffffffffffffffffffff16815260200180602001828103825283818151815260200191508051906020019080838360005b8381101561303557808201518184015260208101905061301a565b50505050905090810190601f1680156130625780820380516001836020036101000a031916815260200191505b50935050505060405180910390a15050565b6130f1826000836040518082805190602001908083835b6020831015156130b0578051825260208201915060208101905060208303925061308b565b6001836020036101000a03801982511681845116808217855250505050505090500191505090815260200160405180910390206135a990919063ffffffff16565b7fbfec83d64eaa953f2708271a023ab9ee82057f8f3578d548c1a4ba0b5b7004898282604051808373ffffffffffffffffffffffffffffffffffffffff1673ffffffffffffffffffffffffffffffffffffffff16815260200180602001828103825283818151815260200191508051906020019080838360005b8381101561318657808201518184015260208101905061316b565b50505050905090810190601f1680156131b35780820380516001836020036101000a031916815260200191505b50935050505060405180910390a15050565b6000806131e78573ffffffffffffffffffffffffffffffffffffffff16613607565b15156131f65760019150613385565b8473ffffffffffffffffffffffffffffffffffffffff1663f0b9e5ba8786866040518463ffffffff167c0100000000000000000000000000000000000000000000000000000000028152600401808473ffffffffffffffffffffffffffffffffffffffff1673ffffffffffffffffffffffffffffffffffffffff16815260200183815260200180602001828103825283818151815260200191508051906020019080838360005b838110156132b857808201518184015260208101905061329d565b50505050905090810190601f1680156132e55780820380516001836020036101000a031916815260200191505b50945050505050602060405180830381600087803b151561330557600080fd5b5af1151561331257600080fd5b50505060405180519050905063f0b9e5ba7c0100000000000000000000000000000000000000000000000000000000027bffffffffffffffffffffffffffffffffffffffffffffffffffffffff1916817bffffffffffffffffffffffffffffffffffffffffffffffffffffffff19161491505b50949350505050565b613396613a23565b60008060006133a688888861361a565b80935081945082955050505061014060405190810160405280848152602001600281526020018881526020018363ffffffff1681526020018263ffffffff1681526020014263ffffffff16815260200160125481526020018681526020016000815260200160008152509350505050949350505050565b600073ffffffffffffffffffffffffffffffffffffffff168273ffffffffffffffffffffffffffffffffffffffff161415151561345957600080fd5b6134638282612ac6565b8173ffffffffffffffffffffffffffffffffffffffff16600073ffffffffffffffffffffffffffffffffffffffff167fddf252ad1be2c89b69c2b068fc378daa952ba7f163c4a11628f55a4df523b3ef836040518082815260200191505060405180910390a35050565b6134d7828261282e565b6134e18282612997565b600073ffffffffffffffffffffffffffffffffffffffff168273ffffffffffffffffffffffffffffffffffffffff167fddf252ad1be2c89b69c2b068fc378daa952ba7f163c4a11628f55a4df523b3ef836040518082815260200191505060405180910390a35050565b60008260000160008373ffffffffffffffffffffffffffffffffffffffff1673ffffffffffffffffffffffffffffffffffffffff16815260200190815260200160002060006101000a81548160ff0219169083151502179055505050565b60018260000160008373ffffffffffffffffffffffffffffffffffffffff1673ffffffffffffffffffffffffffffffffffffffff16815260200190815260200160002060006101000a81548160ff0219169083151502179055505050565b600080823b905060008111915050919050565b600080600080428587604051808481526020018373ffffffffffffffffffffffffffffffffffffffff1673ffffffffffffffffffffffffffffffffffffffff166c0100000000000000000000000002815260140182805190602001908083835b60208310151561369f578051825260208201915060208101905060208303925061367a565b6001836020036101000a03801982511681845116808217855250505050505090500193505050506040518091039020600190049050600454818115156136e157fe5b06935060006001805403600a0a858115156136f857fe5b04141561370c576001805403600a0a840193505b6006548481151561371957fe5b06925060065460085481151561372b57fe5b046008548581151561373957fe5b0681151561374357fe5b0491506137a083600780548060200260200160405190810160405280929190818152602001828054801561379657602002820191906000526020600020905b815481526020019060010190808311613782575b50505050506137c8565b92506137ac8783613835565b9150600554848115156137bb57fe5b0493505093509350939050565b60008060008060009250600091505b84518210156138245784828151811015156137ee57fe5b9060200190602002015190508083018663ffffffff1610156138125781935061382c565b808301925081806001019250506137d7565b600185510393505b50505092915050565b600061383f6139fb565b600080600080600980548060200260200160405190810160405280929190818152602001828054801561389157602002820191906000526020600020905b81548152602001906001019080831161387d575b5050505050945060009350600092505b87518310156138d65787838151811015156138b857fe5b9060200190602002015160ff168401935082806001019350506138a1565b6001885103600a0291506000841180156138f05750875184105b1561396457600092505b875183101561396357878381518110151561391157fe5b9060200190602002015160ff1688510290508381039050808281151561393357fe5b04858481518110151561394257fe5b906020019060200201818151019150818152505082806001019350506138fa565b5b61396e87866137c8565b9550505050505092915050565b828054600181600116156101000203166002900490600052602060002090601f016020900481019282601f106139bc57805160ff19168380011785556139ea565b828001600101855582156139ea579182015b828111156139e95782518255916020019190600101906139ce565b5b5090506139f79190613b41565b5090565b602060405190810160405280600081525090565b602060405190810160405280600081525090565b610140604051908101604052806000815260200160008152602001613a46613b66565b8152602001600063ffffffff168152602001600063ffffffff168152602001600063ffffffff168152602001600081526020016000815260200160008152602001600081525090565b815481835581811511613abc57600802816008028360005260206000209182019101613abb9190613b7a565b5b505050565b828054600181600116156101000203166002900490600052602060002090601f016020900481019282601f10613b0257805160ff1916838001178555613b30565b82800160010185558215613b30579182015b82811115613b2f578251825591602001919060010190613b14565b5b509050613b3d9190613b41565b5090565b613b6391905b80821115613b5f576000816000905550600101613b47565b5090565b90565b602060405190810160405280600081525090565b613c1b91905b80821115613c17576000808201600090556001820160009055600282016000613ba99190613c1e565b6003820160006101000a81549063ffffffff02191690556003820160046101000a81549063ffffffff02191690556003820160086101000a81549063ffffffff0219169055600482016000905560058201600090556006820160009055600782016000905550600801613b80565b5090565b90565b50805460018160011615610100020316600290046000825580601f10613c445750613c63565b601f016020900490600052602060002090810190613c629190613b41565b5b505600a165627a7a723058201e0c672b76fd7eb8e49ff979a994a51dc7d3d597ef876abddb951a8fa7b570020029",
  "source": "pragma solidity ^0.4.21;\n\nimport './DnaCore.sol';\n\n/* import 'github.com/OpenZeppelin/zeppelin-solidity/contracts/token/ERC721/ERC721BasicToken.sol'; */\n/* import 'github.com/OpenZeppelin/zeppelin-solidity/contracts/ownership/rbac/RBACWithAdmin.sol'; */\n/* import 'github.com/OpenZeppelin/zeppelin-solidity/contracts/math/SafeMath.sol'; */\n\nimport 'openzeppelin-solidity/contracts/token/ERC721/ERC721BasicToken.sol';\nimport 'openzeppelin-solidity/contracts/ownership/rbac/RBACWithAdmin.sol';\nimport 'openzeppelin-solidity/contracts/math/SafeMath.sol';\n\ncontract ToriToken is RBACWithAdmin, DnaCore, ERC721BasicToken {\n\n  using SafeMath for uint256;\n\n  struct Tori {\n    uint256 dna;\n    uint256 level;\n    string name;\n    uint32 proficiency;\n    uint32 personality;\n    uint32 readyTime;\n    uint256 generation;\n    uint256 special;\n    // 0, 0 --> generation 1.\n    uint256 parent1;\n    uint256 parent2;\n  }\n\n  Tori[] toris;\n\n  // toriId to price (in wei)\n  mapping (uint => uint256) toriSale;\n  uint256 toriSaleCount;\n\n  event NewTori(address indexed _address, uint256 toriIdx);\n  uint256 currentGeneration = 0;\n\n\n  function ToriToken () {\n    // 1.\n    uint8[] memory testQuiz = new uint8[](4);\n    testQuiz[0] = 0;\n    testQuiz[1] = 0;\n    testQuiz[2] = 0;\n    testQuiz[3] = 0;\n    Tori memory newTori = _generateRandomTori(testQuiz, \"Toto\", msg.sender, 0);\n    uint256 id = toris.push(newTori) - 1;\n    tokenOwner[id] = msg.sender;\n    ownedTokensCount[msg.sender] = ownedTokensCount[msg.sender].add(1);\n    // 2.\n    testQuiz[1] = 1;\n    newTori = _generateRandomTori(testQuiz, \"Riri\", msg.sender, 0);\n    id = toris.push(newTori) - 1;\n    tokenOwner[id] = msg.sender;\n    ownedTokensCount[msg.sender] = ownedTokensCount[msg.sender].add(1);\n  }\n\n\n  function updateGeneration() onlyAdmin public {\n    currentGeneration = currentGeneration.add(1);\n  }\n\n  /*\n  *   Generate random dna, personality, and proficiency level from\n  *   the given quiz & sender address.\n  */\n  function _generateRandomTori(uint8[] _quizzes,\n                               string _name,\n                               address _owner,\n                               uint256 _special) private view returns (Tori) {\n    uint256 dna;\n    uint32 proficiency;\n    uint32 personality;\n    (dna, proficiency, personality) = _generateRandomTraits(_quizzes, _name, _owner);\n    return Tori(dna, 2, _name, proficiency, personality, uint32(now), currentGeneration, _special, 0, 0);\n  }\n\n  function generateSpecialTori(uint8[] _quizzes,\n                               string _name,\n                               uint256 _special,\n                               address _owner) onlyRole('promo') public returns (bool success) {\n    Tori memory newTori = _generateRandomTori(_quizzes, _name, _owner, _special);\n    // Push to the book keeping array.\n    uint256 id = toris.push(newTori) - 1;\n    _mint(_owner, id);\n\n    emit NewTori(_owner, id);\n    return true;\n  }\n\n  function _generateNewTori(uint256 _dna,\n                            uint256 _level,\n                            uint32 _proficiency,\n                            uint32 _personality,\n                            uint256 _parent1,\n                            uint256 _parent2,\n                            string _name,\n                            address _owner,\n                            uint256 _special,\n                            uint256 _generation) private returns (bool success) {\n    require((_dna / DNA_LIMIT == 0) &&\n            (_proficiency >= 0) &&\n            (_proficiency < PROFICIENCY_THRESHOLD.length) &&\n            (_personality >= 0) &&\n            (_personality < PERSONALITY_THRESHOLD.length));\n    // Generate three new toris.\n    Tori memory newTori = Tori(_dna,\n                               _level,\n                               _name,\n                               _proficiency,\n                               _personality,\n                               uint32(now),\n                               _generation,\n                               _special,\n                               _parent1,\n                               _parent2);\n    // Push to the book keeping array.\n    uint256 id = toris.push(newTori) - 1;\n    _mint(_owner, id);\n    emit NewTori(_owner, id);\n    return true;\n  }\n\n  function generateNewTori(uint256 _dna,\n                           uint256 _level,\n                           uint32 _proficiency,\n                           uint32 _personality,\n                           uint256 _parent1,\n                           uint256 _parent2,\n                           string _name,\n                           address _owner,\n                           uint256 _special,\n                           uint256 _generation) onlyRole('visit') public returns (bool success) {\n    return _generateNewTori(\n      _dna,\n      _level,\n      _proficiency,\n      _personality,\n      _parent1,\n      _parent2,\n      _name,\n      _owner,\n      _special,\n      _generation\n    );\n  }\n\n  function generateNewTori(uint256 _dna,\n                           uint256 _level,\n                           uint32 _proficiency,\n                           uint32 _personality,\n                           uint256 _parent1,\n                           uint256 _parent2,\n                           string _name,\n                           address _owner,\n                           uint256 _special) onlyRole('visit') public returns (bool success) {\n    return _generateNewTori(\n      _dna,\n      _level,\n      _proficiency,\n      _personality,\n      _parent1,\n      _parent2,\n      _name,\n      _owner,\n      _special,\n      currentGeneration\n    );\n  }\n\n  function _burnTori(address _owner, uint256 _tokenId) onlyRole('visit') private returns (bool success) {\n    // Check if for sale\n    // TODO: remove it automatically for now.\n    if (toriSale[_tokenId] > 0) {\n      toriSale[_tokenId] = 0;\n      toriSaleCount = toriSaleCount.sub(1);\n    }\n    _burn(_owner, _tokenId);\n    // TODO: check if burn succeed\n    return true;\n  }\n\n  function burnTori(address _owner, uint256 _tokenId) public returns (bool success) {\n    return _burnTori(_owner, _tokenId);\n  }\n\n  function getTokenIndexes(address _owner) public view returns (uint[]) {\n    uint size = ownedTokensCount[_owner];\n    uint[] memory result = new uint[](size);\n\n    uint idx = 0;\n    for (uint i = 0; i < toris.length; i = i.add(1)) {\n      if (tokenOwner[i] == _owner) {\n        result[idx] = i;\n        idx = idx.add(1);\n      }\n      if (idx >= size) {\n        break;\n      }\n    }\n    return result;\n  }\n\n  function getTokenIndexesWithMaxLevel(address _owner) public view returns (uint[], uint) {\n    uint[] memory indexes = getTokenIndexes(_owner);\n    uint maxLevel = 1;\n    for (uint i = 0; i < indexes.length; i = i.add(1)) {\n      uint currLevel = toris[indexes[i]].level;\n      if (currLevel > maxLevel) {\n        maxLevel = currLevel;\n      }\n    }\n    return (indexes, maxLevel);\n  }\n\n  function getTokenInfo(uint256 _toriId) public view returns\n                    (uint256 toriId,\n                      uint256 toriDna,\n                      uint256 level,\n                      string name,\n                      uint32 proficiency,\n                      uint32 personality,\n                      uint32 readyTime,\n                      uint256 generation,\n                      uint256 special,\n                      uint postingPrice,\n                      address toriOwner) {\n    Tori memory tori = toris[_toriId];\n    toriId = _toriId;\n    level = tori.level;\n    toriDna = tori.dna;\n    name = tori.name;\n    proficiency = tori.proficiency;\n    personality = tori.personality;\n    readyTime = tori.readyTime;\n    generation = tori.generation;\n    special = tori.special;\n    postingPrice = toriSale[_toriId];\n    toriOwner = tokenOwner[_toriId];\n  }\n\n  function getParentIds(uint256 _tokenId) public view returns (uint256 parent1, uint256 parent2) {\n    return (toris[_tokenId].parent1, toris[_tokenId].parent2);\n  }\n\n  function getTokenCount() public view returns (uint256 toriCount) {\n    return ownedTokensCount[msg.sender];\n  }\n\n  function getAllTokensCount() public view returns (uint) {\n    return toris.length;\n  }\n\n\n  // TODO: add functionality for users to change the sale price.\n  function approveForSale(uint256 _tokenId, uint256 _salePrice) public onlyOwnerOf(_tokenId) {\n    require((toriSale[_tokenId] == 0) && (_salePrice > 0));\n    toriSale[_tokenId] = _salePrice;\n    toriSaleCount = toriSaleCount.add(1);\n\n    approve(this, _tokenId);\n  }\n\n  function removeForSale(uint256 _tokenId) public onlyOwnerOf(_tokenId) {\n    require(toriSale[_tokenId] > 0);\n    toriSale[_tokenId] = 0;\n    toriSaleCount = toriSaleCount.sub(1);\n\n    clearApproval(msg.sender, _tokenId);\n  }\n\n  function buyForSale(uint256 _tokenId) public payable {\n    // TODO: does msg.value needs to be exactly equal?\n    require(isApprovedOrOwner(this, _tokenId) &&\n            (toriSale[_tokenId] > 0) &&\n            (msg.value >= toriSale[_tokenId]));\n\n    address _from = ownerOf(_tokenId);\n    // Send the ether.\n    uint256 excess = msg.value.sub(toriSale[_tokenId]);\n    if (excess > 0) {\n      msg.sender.transfer(excess);\n      _from.transfer(toriSale[_tokenId]);\n    } else {\n      _from.transfer(msg.value);\n    }\n\n    // Delete sale entry.\n    toriSale[_tokenId] = 0;\n    toriSaleCount = toriSaleCount.sub(1);\n\n    // We want to call this from this contract.\n    this.safeTransferFrom(_from, msg.sender, _tokenId);\n  }\n\n  function retrieveAllForSales() public view returns (uint[]) {\n    uint[] memory result = new uint[](toriSaleCount);\n    uint idx = 0;\n    for (uint i = 0; i < toris.length; i = i.add(1)) {\n      if (toriSale[i] > 0) {\n        result[idx] = i;\n        idx = idx.add(1);\n      }\n    }\n    return result;\n  }\n\n  modifier minLevel(uint256 _tokenId, uint256 _minLevel) {\n    require(toris[_tokenId].level >= _minLevel);\n    _;\n  }\n\n  function updateName(uint256 _tokenId, string _newName) public onlyOwnerOf(_tokenId) minLevel(_tokenId, 4) returns (bool) {\n    Tori storage tori = toris[_tokenId];\n    tori.name = _newName;\n    return true;\n  }\n\n  function updateTori(uint256 _tokenId,\n                      string _name,\n                      uint32 _proficiency,\n                      uint32 _personality,\n                      uint256 _special,\n                      uint256 _minLevel) onlyRole('update') onlyOwnerOf(_tokenId) minLevel(_tokenId, _minLevel) public returns (bool result) {\n    Tori storage tori = toris[_tokenId];\n    tori.name = _name;\n    tori.proficiency = _proficiency;\n    tori.personality = _personality;\n    tori.special = _special;\n    return true;\n  }\n}\n",
  "sourcePath": "/Users/Cindy/Desktop/cs359b/cs359b-cribtori/contracts/ToriToken.sol",
  "compiler": {
    "name": "solc",
    "version": "0.4.21+commit.dfe3193c.Emscripten.clang"
  },
  "schemaVersion": "2.0.0",
  "updatedAt": "2018-06-11T09:22:07.224Z"
}