{
  "contractName": "ToriOwnership",
  "abi": [
    {
      "constant": true,
      "inputs": [
        {
          "name": "_toriId",
          "type": "uint256"
        }
      ],
      "name": "getToriInfo",
      "outputs": [
        {
          "name": "toriId",
          "type": "uint256"
        },
        {
          "name": "toriDna",
          "type": "uint256"
        },
        {
          "name": "proficiency",
          "type": "uint32"
        },
        {
          "name": "personality",
          "type": "uint32"
        },
        {
          "name": "readyTime",
          "type": "uint32"
        },
        {
          "name": "postingPrice",
          "type": "uint256"
        }
      ],
      "payable": false,
      "stateMutability": "view",
      "type": "function"
    },
    {
      "constant": true,
      "inputs": [],
      "name": "getAllToriCount",
      "outputs": [
        {
          "name": "",
          "type": "uint256"
        }
      ],
      "payable": false,
      "stateMutability": "view",
      "type": "function"
    },
    {
      "constant": true,
      "inputs": [
        {
          "name": "_owner",
          "type": "address"
        }
      ],
      "name": "getToriIndexes",
      "outputs": [
        {
          "name": "",
          "type": "uint256[]"
        }
      ],
      "payable": false,
      "stateMutability": "view",
      "type": "function"
    },
    {
      "constant": true,
      "inputs": [],
      "name": "getToriCount",
      "outputs": [
        {
          "name": "toriCount",
          "type": "uint256"
        }
      ],
      "payable": false,
      "stateMutability": "view",
      "type": "function"
    },
    {
      "constant": false,
      "inputs": [
        {
          "name": "_quiz",
          "type": "string"
        },
        {
          "name": "_name",
          "type": "string"
        }
      ],
      "name": "generateNewTori",
      "outputs": [
        {
          "name": "success",
          "type": "bool"
        }
      ],
      "payable": false,
      "stateMutability": "nonpayable",
      "type": "function"
    },
    {
      "anonymous": false,
      "inputs": [
        {
          "indexed": true,
          "name": "_from",
          "type": "address"
        },
        {
          "indexed": true,
          "name": "_to",
          "type": "address"
        },
        {
          "indexed": false,
          "name": "_tokenId",
          "type": "uint256"
        }
      ],
      "name": "Transfer",
      "type": "event"
    },
    {
      "anonymous": false,
      "inputs": [
        {
          "indexed": true,
          "name": "_owner",
          "type": "address"
        },
        {
          "indexed": true,
          "name": "_approved",
          "type": "address"
        },
        {
          "indexed": false,
          "name": "_tokenId",
          "type": "uint256"
        }
      ],
      "name": "Approval",
      "type": "event"
    },
    {
      "anonymous": false,
      "inputs": [
        {
          "indexed": true,
          "name": "_owner",
          "type": "address"
        },
        {
          "indexed": true,
          "name": "_operator",
          "type": "address"
        },
        {
          "indexed": false,
          "name": "_approved",
          "type": "bool"
        }
      ],
      "name": "ApprovalForAll",
      "type": "event"
    },
    {
      "anonymous": false,
      "inputs": [
        {
          "indexed": true,
          "name": "_address",
          "type": "address"
        },
        {
          "indexed": false,
          "name": "toriIdx",
          "type": "uint256"
        }
      ],
      "name": "NewTori",
      "type": "event"
    },
    {
      "constant": true,
      "inputs": [],
      "name": "name",
      "outputs": [
        {
          "name": "_name",
          "type": "string"
        }
      ],
      "payable": false,
      "stateMutability": "view",
      "type": "function"
    },
    {
      "constant": true,
      "inputs": [],
      "name": "symbol",
      "outputs": [
        {
          "name": "_symbol",
          "type": "string"
        }
      ],
      "payable": false,
      "stateMutability": "view",
      "type": "function"
    },
    {
      "constant": true,
      "inputs": [
        {
          "name": "_owner",
          "type": "address"
        }
      ],
      "name": "balanceOf",
      "outputs": [
        {
          "name": "_balance",
          "type": "uint256"
        }
      ],
      "payable": false,
      "stateMutability": "view",
      "type": "function"
    },
    {
      "constant": true,
      "inputs": [
        {
          "name": "_tokenId",
          "type": "uint256"
        }
      ],
      "name": "ownerOf",
      "outputs": [
        {
          "name": "_owner",
          "type": "address"
        }
      ],
      "payable": false,
      "stateMutability": "view",
      "type": "function"
    },
    {
      "constant": false,
      "inputs": [
        {
          "name": "_from",
          "type": "address"
        },
        {
          "name": "_to",
          "type": "address"
        },
        {
          "name": "_tokenId",
          "type": "uint256"
        }
      ],
      "name": "safeTransferFrom",
      "outputs": [],
      "payable": true,
      "stateMutability": "payable",
      "type": "function"
    },
    {
      "constant": false,
      "inputs": [
        {
          "name": "_from",
          "type": "address"
        },
        {
          "name": "_to",
          "type": "address"
        },
        {
          "name": "_tokenId",
          "type": "uint256"
        },
        {
          "name": "data",
          "type": "bytes"
        }
      ],
      "name": "safeTransferFrom",
      "outputs": [],
      "payable": true,
      "stateMutability": "payable",
      "type": "function"
    },
    {
      "constant": false,
      "inputs": [
        {
          "name": "_from",
          "type": "address"
        },
        {
          "name": "_to",
          "type": "address"
        },
        {
          "name": "_tokenId",
          "type": "uint256"
        }
      ],
      "name": "transferFrom",
      "outputs": [],
      "payable": true,
      "stateMutability": "payable",
      "type": "function"
    },
    {
      "constant": false,
      "inputs": [
        {
          "name": "_to",
          "type": "address"
        },
        {
          "name": "_tokenId",
          "type": "uint256"
        }
      ],
      "name": "approve",
      "outputs": [],
      "payable": true,
      "stateMutability": "payable",
      "type": "function"
    },
    {
      "constant": false,
      "inputs": [
        {
          "name": "_operator",
          "type": "address"
        },
        {
          "name": "_approved",
          "type": "bool"
        }
      ],
      "name": "setApprovalForAll",
      "outputs": [],
      "payable": false,
      "stateMutability": "nonpayable",
      "type": "function"
    },
    {
      "constant": true,
      "inputs": [
        {
          "name": "_tokenId",
          "type": "uint256"
        }
      ],
      "name": "getApproved",
      "outputs": [
        {
          "name": "",
          "type": "address"
        }
      ],
      "payable": false,
      "stateMutability": "view",
      "type": "function"
    },
    {
      "constant": true,
      "inputs": [
        {
          "name": "_owner",
          "type": "address"
        },
        {
          "name": "_operator",
          "type": "address"
        }
      ],
      "name": "isApprovedForAll",
      "outputs": [
        {
          "name": "",
          "type": "bool"
        }
      ],
      "payable": false,
      "stateMutability": "view",
      "type": "function"
    },
    {
      "constant": true,
      "inputs": [
        {
          "name": "interfaceID",
          "type": "bytes4"
        }
      ],
      "name": "supportsInterface",
      "outputs": [
        {
          "name": "",
          "type": "bool"
        }
      ],
      "payable": false,
      "stateMutability": "view",
      "type": "function"
    },
    {
      "constant": false,
      "inputs": [
        {
          "name": "_tokenId",
          "type": "uint256"
        },
        {
          "name": "_salePrice",
          "type": "uint256"
        }
      ],
      "name": "approveForSale",
      "outputs": [],
      "payable": true,
      "stateMutability": "payable",
      "type": "function"
    },
    {
      "constant": false,
      "inputs": [
        {
          "name": "_tokenId",
          "type": "uint256"
        }
      ],
      "name": "removeForSale",
      "outputs": [],
      "payable": true,
      "stateMutability": "payable",
      "type": "function"
    },
    {
      "constant": false,
      "inputs": [
        {
          "name": "_tokenId",
          "type": "uint256"
        }
      ],
      "name": "buyToriForSale",
      "outputs": [],
      "payable": true,
      "stateMutability": "payable",
      "type": "function"
    },
    {
      "constant": true,
      "inputs": [],
      "name": "retrieveAllTorisForSale",
      "outputs": [
        {
          "name": "",
          "type": "uint256[]"
        }
      ],
      "payable": false,
      "stateMutability": "view",
      "type": "function"
    }
  ],
  "bytecode": "0x6060604052600a600055600260015560028055600054600a0a600355600154600a0a600455600254600a0a6005556000806200003a62000401565b600060039350600092505b838310156200023b57620000d96040805190810160405280600681526020017f73616d706c6500000000000000000000000000000000000000000000000000008152506040805190810160405280600681526020017f73616d706c6500000000000000000000000000000000000000000000000000008152503362000270640100000000026200146c176401000000009004565b9150600160068054806001018281620000f391906200043c565b916000526020600020906002020160008590919091506000820151816000015560208201518160010160006101000a81548163ffffffff021916908363ffffffff16021790555060408201518160010160046101000a81548163ffffffff021916908363ffffffff16021790555060608201518160010160086101000a81548163ffffffff021916908363ffffffff1602179055505050039050336007600083815260200190815260200160002060006101000a81548173ffffffffffffffffffffffffffffffffffffffff021916908373ffffffffffffffffffffffffffffffffffffffff1602179055506001600860003373ffffffffffffffffffffffffffffffffffffffff1673ffffffffffffffffffffffffffffffffffffffff16815260200190815260200160002060008282540192505081905550828060010193505062000045565b61271060096000808152602001908152602001600020819055506001600a6000828254019250508190555050505050620004e0565b6200027a62000401565b60008060008042868989604051808581526020018473ffffffffffffffffffffffffffffffffffffffff1673ffffffffffffffffffffffffffffffffffffffff166c0100000000000000000000000002815260140183805190602001908083835b602083101515620003025780518252602082019150602081019050602083039250620002db565b6001836020036101000a03801982511681845116808217855250505050505090500182805190602001908083835b60208310151562000357578051825260208201915060208101905060208303925062000330565b6001836020036101000a0380198251168184511680821785525050505050509050019450505050506040518091039020600190049350600354848115156200039b57fe5b06925060045484811515620003ac57fe5b06915060055484811515620003bd57fe5b0690506080604051908101604052808481526020018363ffffffff1681526020018263ffffffff1681526020014263ffffffff168152509450505050509392505050565b60806040519081016040528060008152602001600063ffffffff168152602001600063ffffffff168152602001600063ffffffff1681525090565b8154818355818115116200046c576002028160020283600052602060002091820191016200046b919062000471565b5b505050565b620004dd91905b80821115620004d9576000808201600090556001820160006101000a81549063ffffffff02191690556001820160046101000a81549063ffffffff02191690556001820160086101000a81549063ffffffff02191690555060020162000478565b5090565b90565b61172180620004f06000396000f30060606040526004361061011d576000357c0100000000000000000000000000000000000000000000000000000000900463ffffffff16806301ffc9a71461012257806306fdde031461017c578063081812fc1461020a578063095ea7b31461026d578063120e22e4146102a45780631f1324b5146102c557806323b872dd14610343578063420f9cec1461039957806342842e0e146104035780636352211e146104595780636b8667f5146104bc57806370a08231146104d4578063926e9ebf1461052157806395d89b411461054a578063a22cb465146105d8578063a3ec75fe1461061c578063b88d4fde146106aa578063be00f00814610714578063d43d9ee61461073d578063e985e9c5146107f5578063f39d711214610865575b600080fd5b341561012d57600080fd5b61016260048080357bffffffffffffffffffffffffffffffffffffffffffffffffffffffff191690602001909190505061087d565b604051808215151515815260200191505060405180910390f35b341561018757600080fd5b61018f610887565b6040518080602001828103825283818151815260200191508051906020019080838360005b838110156101cf5780820151818401526020810190506101b4565b50505050905090810190601f1680156101fc5780820380516001836020036101000a031916815260200191505b509250505060405180910390f35b341561021557600080fd5b61022b60048080359060200190919050506108ca565b604051808273ffffffffffffffffffffffffffffffffffffffff1673ffffffffffffffffffffffffffffffffffffffff16815260200191505060405180910390f35b6102a2600480803573ffffffffffffffffffffffffffffffffffffffff169060200190919080359060200190919050506108d4565b005b6102c360048080359060200190919080359060200190919050506109fe565b005b34156102d057600080fd5b6102e66004808035906020019091905050610ac8565b604051808781526020018681526020018563ffffffff1663ffffffff1681526020018463ffffffff1663ffffffff1681526020018363ffffffff1663ffffffff168152602001828152602001965050505050505060405180910390f35b610397600480803573ffffffffffffffffffffffffffffffffffffffff1690602001909190803573ffffffffffffffffffffffffffffffffffffffff16906020019091908035906020019091905050610bbf565b005b34156103a457600080fd5b6103ac610c3e565b6040518080602001828103825283818151815260200191508051906020019060200280838360005b838110156103ef5780820151818401526020810190506103d4565b505050509050019250505060405180910390f35b610457600480803573ffffffffffffffffffffffffffffffffffffffff1690602001909190803573ffffffffffffffffffffffffffffffffffffffff16906020019091908035906020019091905050610ce0565b005b341561046457600080fd5b61047a6004808035906020019091905050610ce5565b604051808273ffffffffffffffffffffffffffffffffffffffff1673ffffffffffffffffffffffffffffffffffffffff16815260200191505060405180910390f35b6104d26004808035906020019091905050610d22565b005b34156104df57600080fd5b61050b600480803573ffffffffffffffffffffffffffffffffffffffff16906020019091905050610dde565b6040518082815260200191505060405180910390f35b341561052c57600080fd5b610534610e27565b6040518082815260200191505060405180910390f35b341561055557600080fd5b61055d610e34565b6040518080602001828103825283818151815260200191508051906020019080838360005b8381101561059d578082015181840152602081019050610582565b50505050905090810190601f1680156105ca5780820380516001836020036101000a031916815260200191505b509250505060405180910390f35b34156105e357600080fd5b61061a600480803573ffffffffffffffffffffffffffffffffffffffff169060200190919080351515906020019091905050610e77565b005b341561062757600080fd5b610653600480803573ffffffffffffffffffffffffffffffffffffffff16906020019091905050610e7b565b6040518080602001828103825283818151815260200191508051906020019060200280838360005b8381101561069657808201518184015260208101905061067b565b505050509050019250505060405180910390f35b610712600480803573ffffffffffffffffffffffffffffffffffffffff1690602001909190803573ffffffffffffffffffffffffffffffffffffffff169060200190919080359060200190919080359060200190820180359060200191909192905050610fbd565b005b341561071f57600080fd5b610727610fc4565b6040518082815260200191505060405180910390f35b341561074857600080fd5b6107db600480803590602001908201803590602001908080601f0160208091040260200160405190810160405280939291908181526020018383808284378201915050505050509190803590602001908201803590602001908080601f0160208091040260200160405190810160405280939291908181526020018383808284378201915050505050509190505061100b565b604051808215151515815260200191505060405180910390f35b341561080057600080fd5b61084b600480803573ffffffffffffffffffffffffffffffffffffffff1690602001909190803573ffffffffffffffffffffffffffffffffffffffff1690602001909190505061121b565b604051808215151515815260200191505060405180910390f35b61087b6004808035906020019091905050611226565b005b6000809050919050565b61088f6115f4565b6040805190810160405280600a81526020017f546f726920546f6b656e00000000000000000000000000000000000000000000815250905090565b6000339050919050565b803373ffffffffffffffffffffffffffffffffffffffff166007600083815260200190815260200160002060009054906101000a900473ffffffffffffffffffffffffffffffffffffffff1673ffffffffffffffffffffffffffffffffffffffff1614151561094257600080fd5b82600b600084815260200190815260200160002060006101000a81548173ffffffffffffffffffffffffffffffffffffffff021916908373ffffffffffffffffffffffffffffffffffffffff1602179055508273ffffffffffffffffffffffffffffffffffffffff163373ffffffffffffffffffffffffffffffffffffffff167f8c5be1e5ebec7d5bd14f71427d1e84f3dd0314c0f7b2291e5b200ac8c7c3b925846040518082815260200191505060405180910390a3505050565b813373ffffffffffffffffffffffffffffffffffffffff166007600083815260200190815260200160002060009054906101000a900473ffffffffffffffffffffffffffffffffffffffff1673ffffffffffffffffffffffffffffffffffffffff16141515610a6c57600080fd5b60006009600085815260200190815260200160002054148015610a8f5750600082115b1515610a9a57600080fd5b8160096000858152602001908152602001600020819055506001600a60008282540192505081905550505050565b600080600080600080610ad9611608565b600688815481101515610ae857fe5b906000526020600020906002020160806040519081016040529081600082015481526020016001820160009054906101000a900463ffffffff1663ffffffff1663ffffffff1681526020016001820160049054906101000a900463ffffffff1663ffffffff1663ffffffff1681526020016001820160089054906101000a900463ffffffff1663ffffffff1663ffffffff16815250509050878160000151826020015183604001518460600151600960008e8152602001908152602001600020549650965096509650965096505091939550919395565b803373ffffffffffffffffffffffffffffffffffffffff166007600083815260200190815260200160002060009054906101000a900473ffffffffffffffffffffffffffffffffffffffff1673ffffffffffffffffffffffffffffffffffffffff16141515610c2d57600080fd5b610c38848484611314565b50505050565b610c46611643565b610c4e611643565b600080600a54604051805910610c615750595b9080825280602002602001820160405250925060009150600090505b600680549050811015610cd757600060096000838152602001908152602001600020541115610cca57808383815181101515610cb557fe5b90602001906020020181815250506001820191505b8080600101915050610c7d565b82935050505090565b505050565b60006007600083815260200190815260200160002060009054906101000a900473ffffffffffffffffffffffffffffffffffffffff169050919050565b803373ffffffffffffffffffffffffffffffffffffffff166007600083815260200190815260200160002060009054906101000a900473ffffffffffffffffffffffffffffffffffffffff1673ffffffffffffffffffffffffffffffffffffffff16141515610d9057600080fd5b60006009600084815260200190815260200160002054111515610db257600080fd5b60096000838152602001908152602001600020600090556001600a600082825403925050819055505050565b6000600860008373ffffffffffffffffffffffffffffffffffffffff1673ffffffffffffffffffffffffffffffffffffffff168152602001908152602001600020549050919050565b6000600680549050905090565b610e3c6115f4565b6040805190810160405280600481526020017f544f524900000000000000000000000000000000000000000000000000000000815250905090565b5050565b610e83611643565b6000610e8d611643565b600080600860008773ffffffffffffffffffffffffffffffffffffffff1673ffffffffffffffffffffffffffffffffffffffff16815260200190815260200160002054935083604051805910610ee05750595b9080825280602002602001820160405250925060009150600090505b600680549050811015610fb1578573ffffffffffffffffffffffffffffffffffffffff166007600083815260200190815260200160002060009054906101000a900473ffffffffffffffffffffffffffffffffffffffff1673ffffffffffffffffffffffffffffffffffffffff161415610f9657808383815181101515610f7f57fe5b906020019060200201818152505081806001019250505b8382101515610fa457610fb1565b8080600101915050610efc565b82945050505050919050565b5050505050565b6000600860003373ffffffffffffffffffffffffffffffffffffffff1673ffffffffffffffffffffffffffffffffffffffff16815260200190815260200160002054905090565b6000611015611608565b600080600860003373ffffffffffffffffffffffffffffffffffffffff1673ffffffffffffffffffffffffffffffffffffffff1681526020019081526020016000205414151561106457600080fd5b61106f85853361146c565b91506001600680548060010182816110879190611657565b916000526020600020906002020160008590919091506000820151816000015560208201518160010160006101000a81548163ffffffff021916908363ffffffff16021790555060408201518160010160046101000a81548163ffffffff021916908363ffffffff16021790555060608201518160010160086101000a81548163ffffffff021916908363ffffffff1602179055505050039050336007600083815260200190815260200160002060006101000a81548173ffffffffffffffffffffffffffffffffffffffff021916908373ffffffffffffffffffffffffffffffffffffffff1602179055506001600860003373ffffffffffffffffffffffffffffffffffffffff1673ffffffffffffffffffffffffffffffffffffffff168152602001908152602001600020600082825401925050819055503373ffffffffffffffffffffffffffffffffffffffff167f163090350da897fd03497e870bbe993a1948b39328cd37a8fe6b9179e120dd27826040518082815260200191505060405180910390a260019250505092915050565b600080905092915050565b600080600960008481526020019081526020016000205411801561125c5750600960008381526020019081526020016000205434145b151561126757600080fd5b6007600083815260200190815260200160002060009054906101000a900473ffffffffffffffffffffffffffffffffffffffff1690506112a8813384611314565b8073ffffffffffffffffffffffffffffffffffffffff166108fc349081150290604051600060405180830381858888f1935050505015156112e857600080fd5b60096000838152602001908152602001600020600090556001600a600082825403925050819055505050565b6001600860008473ffffffffffffffffffffffffffffffffffffffff1673ffffffffffffffffffffffffffffffffffffffff168152602001908152602001600020600082825401925050819055506001600860003373ffffffffffffffffffffffffffffffffffffffff1673ffffffffffffffffffffffffffffffffffffffff16815260200190815260200160002060008282540392505081905550816007600083815260200190815260200160002060006101000a81548173ffffffffffffffffffffffffffffffffffffffff021916908373ffffffffffffffffffffffffffffffffffffffff1602179055508173ffffffffffffffffffffffffffffffffffffffff168373ffffffffffffffffffffffffffffffffffffffff167fddf252ad1be2c89b69c2b068fc378daa952ba7f163c4a11628f55a4df523b3ef836040518082815260200191505060405180910390a3505050565b611474611608565b60008060008042868989604051808581526020018473ffffffffffffffffffffffffffffffffffffffff1673ffffffffffffffffffffffffffffffffffffffff166c0100000000000000000000000002815260140183805190602001908083835b6020831015156114fa57805182526020820191506020810190506020830392506114d5565b6001836020036101000a03801982511681845116808217855250505050505090500182805190602001908083835b60208310151561154d5780518252602082019150602081019050602083039250611528565b6001836020036101000a03801982511681845116808217855250505050505090500194505050505060405180910390206001900493506003548481151561159057fe5b069250600454848115156115a057fe5b069150600554848115156115b057fe5b0690506080604051908101604052808481526020018363ffffffff1681526020018263ffffffff1681526020014263ffffffff168152509450505050509392505050565b602060405190810160405280600081525090565b60806040519081016040528060008152602001600063ffffffff168152602001600063ffffffff168152602001600063ffffffff1681525090565b602060405190810160405280600081525090565b815481835581811511611684576002028160020283600052602060002091820191016116839190611689565b5b505050565b6116f291905b808211156116ee576000808201600090556001820160006101000a81549063ffffffff02191690556001820160046101000a81549063ffffffff02191690556001820160086101000a81549063ffffffff02191690555060020161168f565b5090565b905600a165627a7a723058205b40daa4ca27aee91007e6f02dd1ef1e7baaab4453829d3b9acc787d3031afb70029",
  "source": "pragma solidity ^0.4.21;\n\nimport './ToriToken.sol';\nimport './ERC721.sol';\n/* import 'openzeppelin-solidity/contracts/token/ERC721/ERC721.sol'; */\n\ncontract ToriOwnership is ToriToken, ERC721 {\n  /*\n  ERC721 compliant functions\n  */\n  mapping (uint => address) toriApprovals;\n\n  modifier onlyOwnerOf(uint256 _tokenId) {\n    require(toriIndexToAddr[_tokenId] == msg.sender);\n    _;\n  }\n\n  function name() public view returns (string _name) {\n    return \"Tori Token\";\n  }\n\n  function symbol() public view returns (string _symbol) {\n    return \"TORI\";\n  }\n\n  function balanceOf(address _owner) external view returns (uint256 _balance) {\n    return addrToToriCount[_owner];\n  }\n\n  function ownerOf(uint256 _tokenId) external view returns (address _owner) {\n    return toriIndexToAddr[_tokenId];\n  }\n\n  function safeTransferFrom(address _from, address _to, uint256 _tokenId, bytes data) external payable {\n    // TODO:\n  }\n\n  function safeTransferFrom(address _from, address _to, uint256 _tokenId) external payable {\n    // TODO:\n  }\n\n\n  function _transfer(address _from, address _to, uint256 _tokenId) private {\n    // Modify the counts.\n    addrToToriCount[_to] += 1;\n    addrToToriCount[msg.sender] -= 1;\n\n    toriIndexToAddr[_tokenId] = _to;\n    emit Transfer(_from, _to, _tokenId);\n  }\n\n  function transferFrom(address _from, address _to, uint256 _tokenId) external payable onlyOwnerOf(_tokenId) {\n    _transfer(_from, _to, _tokenId);\n  }\n\n  function approve(address _to, uint256 _tokenId) external payable onlyOwnerOf(_tokenId) {\n    toriApprovals[_tokenId] = _to;\n    emit Approval(msg.sender, _to, _tokenId);\n  }\n\n  function setApprovalForAll(address _operator, bool _approved) external {\n    // TODO\n  }\n\n  function getApproved(uint256 _tokenId) external view returns (address) {\n    // TODO\n    return msg.sender;\n  }\n\n  function isApprovedForAll(address _owner, address _operator) external view returns (bool) {\n    // TODO\n    return false;\n  }\n\n  function supportsInterface(bytes4 interfaceID) external view returns (bool) {\n    // TODO\n    return false;\n  }\n\n\n  // TODO: add functionality for users to change the sale price.\n  function approveForSale(uint256 _tokenId, uint256 _salePrice) external payable onlyOwnerOf(_tokenId) {\n    require((toriSale[_tokenId] == 0) && (_salePrice > 0));\n    toriSale[_tokenId] = _salePrice;\n    toriSaleCount += 1;\n    // TODO: emit event here.\n  }\n\n  function removeForSale(uint256 _tokenId) external payable onlyOwnerOf(_tokenId) {\n    require(toriSale[_tokenId] > 0);\n    delete toriSale[_tokenId];\n    toriSaleCount -= 1;\n    // TODO: emit event here.\n  }\n\n  function buyToriForSale(uint256 _tokenId) external payable {\n    require((toriSale[_tokenId] > 0) && (msg.value == toriSale[_tokenId]));\n    address _from = toriIndexToAddr[_tokenId];\n    _transfer(_from, msg.sender, _tokenId);\n    // Send the ether.\n    _from.transfer(msg.value);\n    // Delete sale entry.\n    delete toriSale[_tokenId];\n    toriSaleCount -= 1;\n    // TODO: emit event here.\n  }\n\n  function retrieveAllTorisForSale() public view returns (uint[]) {\n    uint[] memory result = new uint[](toriSaleCount);\n    uint idx = 0;\n    for (uint i = 0; i < toris.length; i++) {\n      if (toriSale[i] > 0) {\n        result[idx] = i;\n        idx += 1;\n      }\n    }\n    return result;\n  }\n}\n",
  "sourcePath": "/Users/Cindy/Desktop/cs359b/cs359b-cribtori/contracts/ToriOwnership.sol",
  "compiler": {
    "name": "solc",
    "version": "0.4.21+commit.dfe3193c.Emscripten.clang"
  },
  "schemaVersion": "2.0.0",
  "updatedAt": "2018-04-30T01:42:27.875Z"
}