{
  "contractName": "ToriAccessoriesOwnership",
  "abi": [
    {
      "constant": true,
      "inputs": [],
      "name": "getTokenCount",
      "outputs": [
        {
          "name": "accCount",
          "type": "uint256"
        }
      ],
      "payable": false,
      "stateMutability": "view",
      "type": "function"
    },
    {
      "constant": true,
      "inputs": [
        {
          "name": "_owner",
          "type": "address"
        }
      ],
      "name": "getTokenIndexes",
      "outputs": [
        {
          "name": "",
          "type": "uint256[]"
        }
      ],
      "payable": false,
      "stateMutability": "view",
      "type": "function"
    },
    {
      "constant": true,
      "inputs": [
        {
          "name": "_accId",
          "type": "uint256"
        }
      ],
      "name": "getTokenInfo",
      "outputs": [
        {
          "name": "accId",
          "type": "uint256"
        },
        {
          "name": "variety",
          "type": "uint256"
        },
        {
          "name": "rarity",
          "type": "uint256"
        },
        {
          "name": "space",
          "type": "uint32"
        },
        {
          "name": "postingPrice",
          "type": "uint256"
        }
      ],
      "payable": false,
      "stateMutability": "view",
      "type": "function"
    },
    {
      "constant": true,
      "inputs": [],
      "name": "getAllTokensCount",
      "outputs": [
        {
          "name": "",
          "type": "uint256"
        }
      ],
      "payable": false,
      "stateMutability": "view",
      "type": "function"
    },
    {
      "constant": false,
      "inputs": [],
      "name": "generateNewAccessories",
      "outputs": [
        {
          "name": "success",
          "type": "bool"
        }
      ],
      "payable": false,
      "stateMutability": "nonpayable",
      "type": "function"
    },
    {
      "anonymous": false,
      "inputs": [
        {
          "indexed": true,
          "name": "_from",
          "type": "address"
        },
        {
          "indexed": true,
          "name": "_to",
          "type": "address"
        },
        {
          "indexed": false,
          "name": "_tokenId",
          "type": "uint256"
        }
      ],
      "name": "Transfer",
      "type": "event"
    },
    {
      "anonymous": false,
      "inputs": [
        {
          "indexed": true,
          "name": "_owner",
          "type": "address"
        },
        {
          "indexed": true,
          "name": "_approved",
          "type": "address"
        },
        {
          "indexed": false,
          "name": "_tokenId",
          "type": "uint256"
        }
      ],
      "name": "Approval",
      "type": "event"
    },
    {
      "anonymous": false,
      "inputs": [
        {
          "indexed": true,
          "name": "_owner",
          "type": "address"
        },
        {
          "indexed": true,
          "name": "_operator",
          "type": "address"
        },
        {
          "indexed": false,
          "name": "_approved",
          "type": "bool"
        }
      ],
      "name": "ApprovalForAll",
      "type": "event"
    },
    {
      "anonymous": false,
      "inputs": [
        {
          "indexed": true,
          "name": "_address",
          "type": "address"
        },
        {
          "indexed": false,
          "name": "accIdx",
          "type": "uint256"
        }
      ],
      "name": "NewAccessories",
      "type": "event"
    },
    {
      "constant": true,
      "inputs": [],
      "name": "name",
      "outputs": [
        {
          "name": "_name",
          "type": "string"
        }
      ],
      "payable": false,
      "stateMutability": "view",
      "type": "function"
    },
    {
      "constant": true,
      "inputs": [],
      "name": "symbol",
      "outputs": [
        {
          "name": "_symbol",
          "type": "string"
        }
      ],
      "payable": false,
      "stateMutability": "view",
      "type": "function"
    },
    {
      "constant": true,
      "inputs": [
        {
          "name": "_owner",
          "type": "address"
        }
      ],
      "name": "balanceOf",
      "outputs": [
        {
          "name": "_balance",
          "type": "uint256"
        }
      ],
      "payable": false,
      "stateMutability": "view",
      "type": "function"
    },
    {
      "constant": true,
      "inputs": [
        {
          "name": "_tokenId",
          "type": "uint256"
        }
      ],
      "name": "ownerOf",
      "outputs": [
        {
          "name": "_owner",
          "type": "address"
        }
      ],
      "payable": false,
      "stateMutability": "view",
      "type": "function"
    },
    {
      "constant": false,
      "inputs": [
        {
          "name": "_from",
          "type": "address"
        },
        {
          "name": "_to",
          "type": "address"
        },
        {
          "name": "_tokenId",
          "type": "uint256"
        }
      ],
      "name": "safeTransferFrom",
      "outputs": [],
      "payable": true,
      "stateMutability": "payable",
      "type": "function"
    },
    {
      "constant": false,
      "inputs": [
        {
          "name": "_from",
          "type": "address"
        },
        {
          "name": "_to",
          "type": "address"
        },
        {
          "name": "_tokenId",
          "type": "uint256"
        },
        {
          "name": "data",
          "type": "bytes"
        }
      ],
      "name": "safeTransferFrom",
      "outputs": [],
      "payable": true,
      "stateMutability": "payable",
      "type": "function"
    },
    {
      "constant": false,
      "inputs": [
        {
          "name": "_from",
          "type": "address"
        },
        {
          "name": "_to",
          "type": "address"
        },
        {
          "name": "_tokenId",
          "type": "uint256"
        }
      ],
      "name": "transferFrom",
      "outputs": [],
      "payable": true,
      "stateMutability": "payable",
      "type": "function"
    },
    {
      "constant": false,
      "inputs": [
        {
          "name": "_to",
          "type": "address"
        },
        {
          "name": "_tokenId",
          "type": "uint256"
        }
      ],
      "name": "approve",
      "outputs": [],
      "payable": true,
      "stateMutability": "payable",
      "type": "function"
    },
    {
      "constant": false,
      "inputs": [
        {
          "name": "_operator",
          "type": "address"
        },
        {
          "name": "_approved",
          "type": "bool"
        }
      ],
      "name": "setApprovalForAll",
      "outputs": [],
      "payable": false,
      "stateMutability": "nonpayable",
      "type": "function"
    },
    {
      "constant": true,
      "inputs": [
        {
          "name": "_tokenId",
          "type": "uint256"
        }
      ],
      "name": "getApproved",
      "outputs": [
        {
          "name": "",
          "type": "address"
        }
      ],
      "payable": false,
      "stateMutability": "view",
      "type": "function"
    },
    {
      "constant": true,
      "inputs": [
        {
          "name": "_owner",
          "type": "address"
        },
        {
          "name": "_operator",
          "type": "address"
        }
      ],
      "name": "isApprovedForAll",
      "outputs": [
        {
          "name": "",
          "type": "bool"
        }
      ],
      "payable": false,
      "stateMutability": "view",
      "type": "function"
    },
    {
      "constant": true,
      "inputs": [
        {
          "name": "interfaceID",
          "type": "bytes4"
        }
      ],
      "name": "supportsInterface",
      "outputs": [
        {
          "name": "",
          "type": "bool"
        }
      ],
      "payable": false,
      "stateMutability": "view",
      "type": "function"
    },
    {
      "constant": false,
      "inputs": [
        {
          "name": "_tokenId",
          "type": "uint256"
        },
        {
          "name": "_salePrice",
          "type": "uint256"
        }
      ],
      "name": "approveForSale",
      "outputs": [],
      "payable": true,
      "stateMutability": "payable",
      "type": "function"
    },
    {
      "constant": false,
      "inputs": [
        {
          "name": "_tokenId",
          "type": "uint256"
        }
      ],
      "name": "removeForSale",
      "outputs": [],
      "payable": true,
      "stateMutability": "payable",
      "type": "function"
    },
    {
      "constant": false,
      "inputs": [
        {
          "name": "_tokenId",
          "type": "uint256"
        }
      ],
      "name": "buyForSale",
      "outputs": [],
      "payable": true,
      "stateMutability": "payable",
      "type": "function"
    },
    {
      "constant": true,
      "inputs": [],
      "name": "retrieveAllForSales",
      "outputs": [
        {
          "name": "",
          "type": "uint256[]"
        }
      ],
      "payable": false,
      "stateMutability": "view",
      "type": "function"
    }
  ],
  "bytecode": "0x606060405260046000806101000a81548163ffffffff021916908363ffffffff1602179055506002600060046101000a81548163ffffffff021916908363ffffffff160217905550600a60015560016002556002600355600154600a0a600455600254600a0a600555600354600a0a600655600354600a0a6007556000600d556000806200008c62000436565b600060039350600092505b838310156200020e57620000c233600d54620002486401000000000262001385176401000000009004565b9150600160088054806001018281620000dc919062000464565b916000526020600020906002020160008590919091506000820151816000015560208201518160010160006101000a81548163ffffffff021916908363ffffffff16021790555060408201518160010160046101000a81548163ffffffff021916908363ffffffff1602179055505050039050336009600083815260200190815260200160002060006101000a81548173ffffffffffffffffffffffffffffffffffffffff021916908373ffffffffffffffffffffffffffffffffffffffff1602179055506001600a60003373ffffffffffffffffffffffffffffffffffffffff1673ffffffffffffffffffffffffffffffffffffffff168152602001908152602001600020600082825401925050819055506001600d60008282540192505081905550828060010193505062000097565b66082bd67afbc000600b6000808152602001908152602001600020819055506001600c6000828254019250508190555050505050620004f1565b6200025262000436565b6000806000620002778686620002b664010000000002620013db176401000000009004565b8093508194508295505050506060604051908101604052808481526020018363ffffffff1681526020018263ffffffff16815250935050505092915050565b600080600080600080428888604051808481526020018373ffffffffffffffffffffffffffffffffffffffff1673ffffffffffffffffffffffffffffffffffffffff166c01000000000000000000000000028152601401828152602001935050505060405180910390206001900492504288604051808381526020018273ffffffffffffffffffffffffffffffffffffffff1673ffffffffffffffffffffffffffffffffffffffff166c0100000000000000000000000002815260140192505050604051809103902060019004915082826040518083815260200182815260200192505050604051809103902060019004905060045481811515620003b757fe5b0695506000809054906101000a900463ffffffff1663ffffffff1660055487811515620003e057fe5b06811515620003eb57fe5b069450600654600554600654888115156200040257fe5b068115156200040d57fe5b048115156200041857fe5b069350600754868115156200042957fe5b0495505050509250925092565b60606040519081016040528060008152602001600063ffffffff168152602001600063ffffffff1681525090565b815481835581811511620004945760020281600202836000526020600020918201910162000493919062000499565b5b505050565b620004ee91905b80821115620004ea576000808201600090556001820160006101000a81549063ffffffff02191690556001820160046101000a81549063ffffffff021916905550600201620004a0565b5090565b90565b61165d80620005016000396000f30060606040526004361061011d576000357c0100000000000000000000000000000000000000000000000000000000900463ffffffff16806301ffc9a71461012257806306fdde031461017c578063081812fc1461020a578063095ea7b31461026d578063120e22e4146102a457806323b872dd146102c557806342842e0e1461031b5780636352211e146103715780636b8667f5146103d457806370a08231146103ec57806378a895671461043957806380507b57146104625780638c7a63ae146104f0578063933b54541461054f57806395d89b4114610578578063a22cb46514610606578063b438314f1461064a578063b88d4fde14610662578063be928c92146106cc578063e0e675cd14610736578063e985e9c514610763575b600080fd5b341561012d57600080fd5b61016260048080357bffffffffffffffffffffffffffffffffffffffffffffffffffffffff19169060200190919050506107d3565b604051808215151515815260200191505060405180910390f35b341561018757600080fd5b61018f6107dd565b6040518080602001828103825283818151815260200191508051906020019080838360005b838110156101cf5780820151818401526020810190506101b4565b50505050905090810190601f1680156101fc5780820380516001836020036101000a031916815260200191505b509250505060405180910390f35b341561021557600080fd5b61022b6004808035906020019091905050610820565b604051808273ffffffffffffffffffffffffffffffffffffffff1673ffffffffffffffffffffffffffffffffffffffff16815260200191505060405180910390f35b6102a2600480803573ffffffffffffffffffffffffffffffffffffffff1690602001909190803590602001909190505061082a565b005b6102c36004808035906020019091908035906020019091905050610954565b005b610319600480803573ffffffffffffffffffffffffffffffffffffffff1690602001909190803573ffffffffffffffffffffffffffffffffffffffff16906020019091908035906020019091905050610a1e565b005b61036f600480803573ffffffffffffffffffffffffffffffffffffffff1690602001909190803573ffffffffffffffffffffffffffffffffffffffff16906020019091908035906020019091905050610a9d565b005b341561037c57600080fd5b6103926004808035906020019091905050610aa2565b604051808273ffffffffffffffffffffffffffffffffffffffff1673ffffffffffffffffffffffffffffffffffffffff16815260200191505060405180910390f35b6103ea6004808035906020019091905050610adf565b005b34156103f757600080fd5b610423600480803573ffffffffffffffffffffffffffffffffffffffff16906020019091905050610b9b565b6040518082815260200191505060405180910390f35b341561044457600080fd5b61044c610be4565b6040518082815260200191505060405180910390f35b341561046d57600080fd5b610499600480803573ffffffffffffffffffffffffffffffffffffffff16906020019091905050610c2b565b6040518080602001828103825283818151815260200191508051906020019060200280838360005b838110156104dc5780820151818401526020810190506104c1565b505050509050019250505060405180910390f35b34156104fb57600080fd5b6105116004808035906020019091905050610d6d565b604051808681526020018581526020018481526020018363ffffffff1663ffffffff1681526020018281526020019550505050505060405180910390f35b341561055a57600080fd5b610562610e3f565b6040518082815260200191505060405180910390f35b341561058357600080fd5b61058b610e4c565b6040518080602001828103825283818151815260200191508051906020019080838360005b838110156105cb5780820151818401526020810190506105b0565b50505050905090810190601f1680156105f85780820380516001836020036101000a031916815260200191505b509250505060405180910390f35b341561061157600080fd5b610648600480803573ffffffffffffffffffffffffffffffffffffffff169060200190919080351515906020019091905050610e8f565b005b6106606004808035906020019091905050610e93565b005b6106ca600480803573ffffffffffffffffffffffffffffffffffffffff1690602001909190803573ffffffffffffffffffffffffffffffffffffffff169060200190919080359060200190919080359060200190820180359060200191909192905050610f81565b005b34156106d757600080fd5b6106df610f88565b6040518080602001828103825283818151815260200191508051906020019060200280838360005b83811015610722578082015181840152602081019050610707565b505050509050019250505060405180910390f35b341561074157600080fd5b61074961102a565b604051808215151515815260200191505060405180910390f35b341561076e57600080fd5b6107b9600480803573ffffffffffffffffffffffffffffffffffffffff1690602001909190803573ffffffffffffffffffffffffffffffffffffffff16906020019091905050611222565b604051808215151515815260200191505060405180910390f35b6000809050919050565b6107e5611554565b6040805190810160405280600e81526020017f546f726941636365736f72696573000000000000000000000000000000000000815250905090565b6000339050919050565b803373ffffffffffffffffffffffffffffffffffffffff166009600083815260200190815260200160002060009054906101000a900473ffffffffffffffffffffffffffffffffffffffff1673ffffffffffffffffffffffffffffffffffffffff1614151561089857600080fd5b82600e600084815260200190815260200160002060006101000a81548173ffffffffffffffffffffffffffffffffffffffff021916908373ffffffffffffffffffffffffffffffffffffffff1602179055508273ffffffffffffffffffffffffffffffffffffffff163373ffffffffffffffffffffffffffffffffffffffff167f8c5be1e5ebec7d5bd14f71427d1e84f3dd0314c0f7b2291e5b200ac8c7c3b925846040518082815260200191505060405180910390a3505050565b813373ffffffffffffffffffffffffffffffffffffffff166009600083815260200190815260200160002060009054906101000a900473ffffffffffffffffffffffffffffffffffffffff1673ffffffffffffffffffffffffffffffffffffffff161415156109c257600080fd5b6000600b6000858152602001908152602001600020541480156109e55750600082115b15156109f057600080fd5b81600b6000858152602001908152602001600020819055506001600c60008282540192505081905550505050565b803373ffffffffffffffffffffffffffffffffffffffff166009600083815260200190815260200160002060009054906101000a900473ffffffffffffffffffffffffffffffffffffffff1673ffffffffffffffffffffffffffffffffffffffff16141515610a8c57600080fd5b610a9784848461122d565b50505050565b505050565b60006009600083815260200190815260200160002060009054906101000a900473ffffffffffffffffffffffffffffffffffffffff169050919050565b803373ffffffffffffffffffffffffffffffffffffffff166009600083815260200190815260200160002060009054906101000a900473ffffffffffffffffffffffffffffffffffffffff1673ffffffffffffffffffffffffffffffffffffffff16141515610b4d57600080fd5b6000600b600084815260200190815260200160002054111515610b6f57600080fd5b600b6000838152602001908152602001600020600090556001600c600082825403925050819055505050565b6000600a60008373ffffffffffffffffffffffffffffffffffffffff1673ffffffffffffffffffffffffffffffffffffffff168152602001908152602001600020549050919050565b6000600a60003373ffffffffffffffffffffffffffffffffffffffff1673ffffffffffffffffffffffffffffffffffffffff16815260200190815260200160002054905090565b610c33611568565b6000610c3d611568565b600080600a60008773ffffffffffffffffffffffffffffffffffffffff1673ffffffffffffffffffffffffffffffffffffffff16815260200190815260200160002054935083604051805910610c905750595b9080825280602002602001820160405250925060009150600090505b600880549050811015610d61578573ffffffffffffffffffffffffffffffffffffffff166009600083815260200190815260200160002060009054906101000a900473ffffffffffffffffffffffffffffffffffffffff1673ffffffffffffffffffffffffffffffffffffffff161415610d4657808383815181101515610d2f57fe5b906020019060200201818152505081806001019250505b8382101515610d5457610d61565b8080600101915050610cac565b82945050505050919050565b6000806000806000610d7d61157c565b600887815481101515610d8c57fe5b906000526020600020906002020160606040519081016040529081600082015481526020016001820160009054906101000a900463ffffffff1663ffffffff1663ffffffff1681526020016001820160049054906101000a900463ffffffff1663ffffffff1663ffffffff1681525050905086816000015182602001518360400151600b60008c8152602001908152602001600020548263ffffffff169250955095509550955095505091939590929450565b6000600880549050905090565b610e54611554565b6040805190810160405280600781526020017f544f524941434300000000000000000000000000000000000000000000000000815250905090565b5050565b600080600b600084815260200190815260200160002054118015610ec95750600b60008381526020019081526020016000205434145b1515610ed457600080fd5b6009600083815260200190815260200160002060009054906101000a900473ffffffffffffffffffffffffffffffffffffffff169050610f1581338461122d565b8073ffffffffffffffffffffffffffffffffffffffff166108fc349081150290604051600060405180830381858888f193505050501515610f5557600080fd5b600b6000838152602001908152602001600020600090556001600c600082825403925050819055505050565b5050505050565b610f90611568565b610f98611568565b600080600c54604051805910610fab5750595b9080825280602002602001820160405250925060009150600090505b600880549050811015611021576000600b600083815260200190815260200160002054111561101457808383815181101515610fff57fe5b90602001906020020181815250506001820191505b8080600101915050610fc7565b82935050505090565b600061103461157c565b600080600a60003373ffffffffffffffffffffffffffffffffffffffff1673ffffffffffffffffffffffffffffffffffffffff1681526020019081526020016000205414151561108357600080fd5b61108f33600d54611385565b91506001600880548060010182816110a791906115aa565b916000526020600020906002020160008590919091506000820151816000015560208201518160010160006101000a81548163ffffffff021916908363ffffffff16021790555060408201518160010160046101000a81548163ffffffff021916908363ffffffff1602179055505050039050336009600083815260200190815260200160002060006101000a81548173ffffffffffffffffffffffffffffffffffffffff021916908373ffffffffffffffffffffffffffffffffffffffff1602179055506001600a60003373ffffffffffffffffffffffffffffffffffffffff1673ffffffffffffffffffffffffffffffffffffffff168152602001908152602001600020600082825401925050819055506001600d600082825401925050819055503373ffffffffffffffffffffffffffffffffffffffff167f9fb9d1121de8785167f7aa354b56593da21280049ad43c4e569f6791762a2233826040518082815260200191505060405180910390a260019250505090565b600080905092915050565b6001600a60008473ffffffffffffffffffffffffffffffffffffffff1673ffffffffffffffffffffffffffffffffffffffff168152602001908152602001600020600082825401925050819055506001600a60003373ffffffffffffffffffffffffffffffffffffffff1673ffffffffffffffffffffffffffffffffffffffff16815260200190815260200160002060008282540392505081905550816009600083815260200190815260200160002060006101000a81548173ffffffffffffffffffffffffffffffffffffffff021916908373ffffffffffffffffffffffffffffffffffffffff1602179055508173ffffffffffffffffffffffffffffffffffffffff168373ffffffffffffffffffffffffffffffffffffffff167fddf252ad1be2c89b69c2b068fc378daa952ba7f163c4a11628f55a4df523b3ef836040518082815260200191505060405180910390a3505050565b61138d61157c565b600080600061139c86866113db565b8093508194508295505050506060604051908101604052808481526020018363ffffffff1681526020018263ffffffff16815250935050505092915050565b600080600080600080428888604051808481526020018373ffffffffffffffffffffffffffffffffffffffff1673ffffffffffffffffffffffffffffffffffffffff166c01000000000000000000000000028152601401828152602001935050505060405180910390206001900492504288604051808381526020018273ffffffffffffffffffffffffffffffffffffffff1673ffffffffffffffffffffffffffffffffffffffff166c01000000000000000000000000028152601401925050506040518091039020600190049150828260405180838152602001828152602001925050506040518091039020600190049050600454818115156114db57fe5b0695506000809054906101000a900463ffffffff1663ffffffff166005548781151561150357fe5b0681151561150d57fe5b0694506006546005546006548881151561152357fe5b0681151561152d57fe5b0481151561153757fe5b0693506007548681151561154757fe5b0495505050509250925092565b602060405190810160405280600081525090565b602060405190810160405280600081525090565b60606040519081016040528060008152602001600063ffffffff168152602001600063ffffffff1681525090565b8154818355818115116115d7576002028160020283600052602060002091820191016115d691906115dc565b5b505050565b61162e91905b8082111561162a576000808201600090556001820160006101000a81549063ffffffff02191690556001820160046101000a81549063ffffffff0219169055506002016115e2565b5090565b905600a165627a7a723058201c36c837f0a6c67d8d41a1412c88259d72c9cef5c44765d1950e05df916152a20029",
  "source": "pragma solidity ^0.4.21;\n\nimport './ToriAccessories.sol';\nimport './ERC721.sol';\n/* import 'openzeppelin-solidity/contracts/token/ERC721/ERC721.sol'; */\n\ncontract ToriAccessoriesOwnership is ToriAccessories, ERC721 {\n  /*\n  ERC721 compliant functions\n  */\n  mapping (uint => address) accessoriesApprovals;\n\n  modifier onlyOwnerOf(uint256 _tokenId) {\n    require(accIndexToAddr[_tokenId] == msg.sender);\n    _;\n  }\n\n  function name() public view returns (string _name) {\n    return \"ToriAccesories\";\n  }\n\n  function symbol() public view returns (string _symbol) {\n    return \"TORIACC\";\n  }\n\n  function balanceOf(address _owner) external view returns (uint256 _balance) {\n    return addrToAccCount[_owner];\n  }\n\n  function ownerOf(uint256 _tokenId) external view returns (address _owner) {\n    return accIndexToAddr[_tokenId];\n  }\n\n  function safeTransferFrom(address _from, address _to, uint256 _tokenId, bytes data) external payable {\n    // TODO:\n  }\n\n  function safeTransferFrom(address _from, address _to, uint256 _tokenId) external payable {\n    // TODO:\n  }\n\n\n  function _transfer(address _from, address _to, uint256 _tokenId) private {\n    // Modify the counts.\n    addrToAccCount[_to] += 1;\n    addrToAccCount[msg.sender] -= 1;\n\n    accIndexToAddr[_tokenId] = _to;\n    emit Transfer(_from, _to, _tokenId);\n  }\n\n  function transferFrom(address _from, address _to, uint256 _tokenId) external payable onlyOwnerOf(_tokenId) {\n    _transfer(_from, _to, _tokenId);\n  }\n\n  function approve(address _to, uint256 _tokenId) external payable onlyOwnerOf(_tokenId) {\n    accessoriesApprovals[_tokenId] = _to;\n    emit Approval(msg.sender, _to, _tokenId);\n  }\n\n  function setApprovalForAll(address _operator, bool _approved) external {\n    // TODO\n  }\n\n  function getApproved(uint256 _tokenId) external view returns (address) {\n    // TODO\n    return msg.sender;\n  }\n\n  function isApprovedForAll(address _owner, address _operator) external view returns (bool) {\n    // TODO\n    return false;\n  }\n\n  function supportsInterface(bytes4 interfaceID) external view returns (bool) {\n    // TODO\n    return false;\n  }\n\n\n  // TODO: make this into an interface.\n  // TODO: add functionality for users to change the sale price.\n  function approveForSale(uint256 _tokenId, uint256 _salePrice) external payable onlyOwnerOf(_tokenId) {\n    require((accessoriesSale[_tokenId] == 0) && (_salePrice > 0));\n    accessoriesSale[_tokenId] = _salePrice;\n    accessoriesSaleCount += 1;\n    // TODO: emit event here.\n  }\n\n  function removeForSale(uint256 _tokenId) external payable onlyOwnerOf(_tokenId) {\n    require(accessoriesSale[_tokenId] > 0);\n    delete accessoriesSale[_tokenId];\n    accessoriesSaleCount -= 1;\n    // TODO: emit event here.\n  }\n\n  function buyForSale(uint256 _tokenId) external payable {\n    require((accessoriesSale[_tokenId] > 0) && (msg.value == accessoriesSale[_tokenId]));\n    address _from = accIndexToAddr[_tokenId];\n    _transfer(_from, msg.sender, _tokenId);\n    // Send the ether.\n    _from.transfer(msg.value);\n    // Delete sale entry.\n    delete accessoriesSale[_tokenId];\n    accessoriesSaleCount -= 1;\n    // TODO: emit event here.\n  }\n\n  function retrieveAllForSales() public view returns (uint[]) {\n    uint[] memory result = new uint[](accessoriesSaleCount);\n    uint idx = 0;\n    for (uint i = 0; i < accessories.length; i++) {\n      if (accessoriesSale[i] > 0) {\n        result[idx] = i;\n        idx += 1;\n      }\n    }\n    return result;\n  }\n}\n",
  "sourcePath": "/Users/Cindy/Desktop/cs359b/cs359b-cribtori/contracts/ToriAccessoriesOwnership.sol",
  "compiler": {
    "name": "solc",
    "version": "0.4.21+commit.dfe3193c.Emscripten.clang"
  },
  "schemaVersion": "2.0.0",
  "updatedAt": "2018-05-04T00:46:19.550Z"
}