{
  "contractName": "ToriFactory",
  "abi": [
    {
      "anonymous": false,
      "inputs": [
        {
          "indexed": true,
          "name": "_address",
          "type": "address"
        },
        {
          "indexed": false,
          "name": "_toriDnas",
          "type": "uint256[]"
        }
      ],
      "name": "NewTori",
      "type": "event"
    },
    {
      "constant": false,
      "inputs": [],
      "name": "generateNewTori",
      "outputs": [
        {
          "name": "success",
          "type": "bool"
        }
      ],
      "payable": false,
      "stateMutability": "nonpayable",
      "type": "function"
    },
    {
      "constant": true,
      "inputs": [],
      "name": "getToriIds",
      "outputs": [
        {
          "name": "toriIds",
          "type": "uint256[]"
        }
      ],
      "payable": false,
      "stateMutability": "view",
      "type": "function"
    },
    {
      "constant": true,
      "inputs": [
        {
          "name": "_toriId",
          "type": "uint256"
        }
      ],
      "name": "getToriInfo",
      "outputs": [
        {
          "name": "toriId",
          "type": "uint256"
        },
        {
          "name": "toriDna",
          "type": "uint256"
        }
      ],
      "payable": false,
      "stateMutability": "view",
      "type": "function"
    },
    {
      "constant": true,
      "inputs": [],
      "name": "getToriCount",
      "outputs": [
        {
          "name": "toriCount",
          "type": "uint256"
        }
      ],
      "payable": false,
      "stateMutability": "view",
      "type": "function"
    }
  ],
  "bytecode": "0x606060405260036000556103e8600155341561001a57600080fd5b610690806100296000396000f300606060405260043610610062576000357c0100000000000000000000000000000000000000000000000000000000900463ffffffff1680631f1324b514610067578063be00f008146100a5578063c1cc727d146100ce578063d9f7c472146100fb575b600080fd5b341561007257600080fd5b6100886004808035906020019091905050610165565b604051808381526020018281526020019250505060405180910390f35b34156100b057600080fd5b6100b861021f565b6040518082815260200191505060405180910390f35b34156100d957600080fd5b6100e1610266565b604051808215151515815260200191505060405180910390f35b341561010657600080fd5b61010e610482565b6040518080602001828103825283818151815260200191508051906020019060200280838360005b83811015610151578082015181840152602081019050610136565b505050509050019250505060405180910390f35b600080610170610598565b6004600085815260200190815260200160002060009054906101000a900473ffffffffffffffffffffffffffffffffffffffff1673ffffffffffffffffffffffffffffffffffffffff163373ffffffffffffffffffffffffffffffffffffffff161415156101dd57600080fd5b6002848154811015156101ec57fe5b90600052602060002090016020604051908101604052908160008201548152505090508381600001519250925050915091565b6000600560003373ffffffffffffffffffffffffffffffffffffffff1673ffffffffffffffffffffffffffffffffffffffff16815260200190815260200160002054905090565b60006102706105ac565b600080600080600560003373ffffffffffffffffffffffffffffffffffffffff1673ffffffffffffffffffffffffffffffffffffffff168152602001908152602001600020541415156102c257600080fd5b6000546040518059106102d25750595b90808252806020026020018201604052509350600092505b600054831015610428576102fd8361051d565b915060016002805480600101828161031591906105c0565b91600052602060002090016000602060405190810160405280878152509091909150600082015181600001555050039050600360003373ffffffffffffffffffffffffffffffffffffffff1673ffffffffffffffffffffffffffffffffffffffff168152602001908152602001600020805480600101828161039791906105ec565b916000526020600020900160008390919091505550336004600083815260200190815260200160002060006101000a81548173ffffffffffffffffffffffffffffffffffffffff021916908373ffffffffffffffffffffffffffffffffffffffff16021790555080848481518110151561040d57fe5b906020019060200201818152505082806001019350506102ea565b600054600560003373ffffffffffffffffffffffffffffffffffffffff1673ffffffffffffffffffffffffffffffffffffffff16815260200190815260200160002060008282540192505081905550600194505050505090565b61048a6105ac565b600360003373ffffffffffffffffffffffffffffffffffffffff1673ffffffffffffffffffffffffffffffffffffffff16815260200190815260200160002080548060200260200160405190810160405280929190818152602001828054801561051357602002820191906000526020600020905b8154815260200190600101908083116104ff575b5050505050905090565b6000600154423384604051808481526020018373ffffffffffffffffffffffffffffffffffffffff1673ffffffffffffffffffffffffffffffffffffffff166c01000000000000000000000000028152601401828152602001935050505060405180910390206001900481151561059057fe5b069050919050565b602060405190810160405280600081525090565b602060405190810160405280600081525090565b8154818355818115116105e7578183600052602060002091820191016105e69190610618565b5b505050565b81548183558181151161061357818360005260206000209182019101610612919061063f565b5b505050565b61063c91905b80821115610638576000808201600090555060010161061e565b5090565b90565b61066191905b8082111561065d576000816000905550600101610645565b5090565b905600a165627a7a723058206c25bbfcd41d4e65a03b445882c12597d1eef0fbee0f69937f79cd70fa7505c10029",
  "source": "pragma solidity ^0.4.21;\n\nimport \"./Ownable.sol\";\n\ncontract ToriFactory {\n  uint256 private INIT_TORIS = 3;\n  uint256 private DNA_LIMIT = 10**3;\n\n  struct Tori {\n    uint256 dna;\n    /* string[] words; */\n  }\n\n  Tori[] toris;\n\n  mapping (address => uint256[]) addrToToris;\n  mapping (uint256 => address) toriToAddr;\n  mapping (address => uint256) addrToToriCount;\n\n  event NewTori(address indexed _address, uint256[] _toriDnas);\n\n  function _generateRandomDna(uint i) private view returns (uint256) {\n    return uint(keccak256(now, msg.sender, i)) % DNA_LIMIT;\n  }\n\n  function generateNewTori() public returns (bool success) {\n    // Generate three new toris\n    require (addrToToriCount[msg.sender] == 0);\n    uint256[] memory ids = new uint256[](INIT_TORIS);\n    for (uint i = 0; i < INIT_TORIS; i++) {\n      uint256 dna = _generateRandomDna(i);\n      uint256 id = toris.push(Tori(dna)) - 1;\n      addrToToris[msg.sender].push(id);\n      toriToAddr[id] = msg.sender;\n      ids[i] = id;\n    }\n    addrToToriCount[msg.sender] += INIT_TORIS;\n\n    /* emit NewTori(msg.sender, ids); */\n    return true;\n  }\n\n  function getToriIds() public view returns (uint256[] toriIds){\n    return addrToToris[msg.sender];\n  }\n\n  function getToriInfo(uint256 _toriId) public view returns (uint256 toriId, uint256 toriDna) {\n    require(msg.sender == toriToAddr[_toriId]);\n    Tori memory tori = toris[_toriId];\n    return (_toriId, tori.dna);\n  }\n\n  function getToriCount() public view returns (uint256 toriCount){\n    return addrToToriCount[msg.sender];\n  }\n}\n",
  "sourcePath": "/Users/Cindy/Desktop/cs359b/avatar/contracts/ToriFactory.sol",
  "compiler": {
    "name": "solc",
    "version": "0.4.21+commit.dfe3193c.Emscripten.clang"
  },
  "schemaVersion": "2.0.0",
  "updatedAt": "2018-04-23T06:18:20.445Z"
}