{
  "contractName": "ToriToken",
  "abi": [
    {
      "constant": true,
      "inputs": [
        {
          "name": "_tokenId",
          "type": "uint256"
        }
      ],
      "name": "getApproved",
      "outputs": [
        {
          "name": "",
          "type": "address"
        }
      ],
      "payable": false,
      "stateMutability": "view",
      "type": "function"
    },
    {
      "constant": false,
      "inputs": [
        {
          "name": "_to",
          "type": "address"
        },
        {
          "name": "_tokenId",
          "type": "uint256"
        }
      ],
      "name": "approve",
      "outputs": [],
      "payable": false,
      "stateMutability": "nonpayable",
      "type": "function"
    },
    {
      "constant": false,
      "inputs": [
        {
          "name": "_from",
          "type": "address"
        },
        {
          "name": "_to",
          "type": "address"
        },
        {
          "name": "_tokenId",
          "type": "uint256"
        }
      ],
      "name": "transferFrom",
      "outputs": [],
      "payable": false,
      "stateMutability": "nonpayable",
      "type": "function"
    },
    {
      "constant": false,
      "inputs": [
        {
          "name": "addrs",
          "type": "address[]"
        }
      ],
      "name": "removeAddressesFromWhitelist",
      "outputs": [
        {
          "name": "success",
          "type": "bool"
        }
      ],
      "payable": false,
      "stateMutability": "nonpayable",
      "type": "function"
    },
    {
      "constant": false,
      "inputs": [
        {
          "name": "addr",
          "type": "address"
        }
      ],
      "name": "removeAddressFromWhitelist",
      "outputs": [
        {
          "name": "success",
          "type": "bool"
        }
      ],
      "payable": false,
      "stateMutability": "nonpayable",
      "type": "function"
    },
    {
      "constant": false,
      "inputs": [
        {
          "name": "_from",
          "type": "address"
        },
        {
          "name": "_to",
          "type": "address"
        },
        {
          "name": "_tokenId",
          "type": "uint256"
        }
      ],
      "name": "safeTransferFrom",
      "outputs": [],
      "payable": false,
      "stateMutability": "nonpayable",
      "type": "function"
    },
    {
      "constant": true,
      "inputs": [
        {
          "name": "_tokenId",
          "type": "uint256"
        }
      ],
      "name": "exists",
      "outputs": [
        {
          "name": "",
          "type": "bool"
        }
      ],
      "payable": false,
      "stateMutability": "view",
      "type": "function"
    },
    {
      "constant": true,
      "inputs": [
        {
          "name": "_tokenId",
          "type": "uint256"
        }
      ],
      "name": "ownerOf",
      "outputs": [
        {
          "name": "",
          "type": "address"
        }
      ],
      "payable": false,
      "stateMutability": "view",
      "type": "function"
    },
    {
      "constant": true,
      "inputs": [
        {
          "name": "_owner",
          "type": "address"
        }
      ],
      "name": "balanceOf",
      "outputs": [
        {
          "name": "",
          "type": "uint256"
        }
      ],
      "payable": false,
      "stateMutability": "view",
      "type": "function"
    },
    {
      "constant": false,
      "inputs": [
        {
          "name": "addr",
          "type": "address"
        }
      ],
      "name": "addAddressToWhitelist",
      "outputs": [
        {
          "name": "success",
          "type": "bool"
        }
      ],
      "payable": false,
      "stateMutability": "nonpayable",
      "type": "function"
    },
    {
      "constant": true,
      "inputs": [],
      "name": "owner",
      "outputs": [
        {
          "name": "",
          "type": "address"
        }
      ],
      "payable": false,
      "stateMutability": "view",
      "type": "function"
    },
    {
      "constant": true,
      "inputs": [
        {
          "name": "",
          "type": "address"
        }
      ],
      "name": "whitelist",
      "outputs": [
        {
          "name": "",
          "type": "bool"
        }
      ],
      "payable": false,
      "stateMutability": "view",
      "type": "function"
    },
    {
      "constant": false,
      "inputs": [
        {
          "name": "_to",
          "type": "address"
        },
        {
          "name": "_approved",
          "type": "bool"
        }
      ],
      "name": "setApprovalForAll",
      "outputs": [],
      "payable": false,
      "stateMutability": "nonpayable",
      "type": "function"
    },
    {
      "constant": false,
      "inputs": [
        {
          "name": "_from",
          "type": "address"
        },
        {
          "name": "_to",
          "type": "address"
        },
        {
          "name": "_tokenId",
          "type": "uint256"
        },
        {
          "name": "_data",
          "type": "bytes"
        }
      ],
      "name": "safeTransferFrom",
      "outputs": [],
      "payable": false,
      "stateMutability": "nonpayable",
      "type": "function"
    },
    {
      "constant": false,
      "inputs": [
        {
          "name": "addrs",
          "type": "address[]"
        }
      ],
      "name": "addAddressesToWhitelist",
      "outputs": [
        {
          "name": "success",
          "type": "bool"
        }
      ],
      "payable": false,
      "stateMutability": "nonpayable",
      "type": "function"
    },
    {
      "constant": true,
      "inputs": [
        {
          "name": "_owner",
          "type": "address"
        },
        {
          "name": "_operator",
          "type": "address"
        }
      ],
      "name": "isApprovedForAll",
      "outputs": [
        {
          "name": "",
          "type": "bool"
        }
      ],
      "payable": false,
      "stateMutability": "view",
      "type": "function"
    },
    {
      "constant": false,
      "inputs": [
        {
          "name": "newOwner",
          "type": "address"
        }
      ],
      "name": "transferOwnership",
      "outputs": [],
      "payable": false,
      "stateMutability": "nonpayable",
      "type": "function"
    },
    {
      "inputs": [],
      "payable": false,
      "stateMutability": "nonpayable",
      "type": "constructor"
    },
    {
      "anonymous": false,
      "inputs": [
        {
          "indexed": true,
          "name": "_address",
          "type": "address"
        },
        {
          "indexed": false,
          "name": "toriIdx",
          "type": "uint256"
        }
      ],
      "name": "NewTori",
      "type": "event"
    },
    {
      "anonymous": false,
      "inputs": [
        {
          "indexed": true,
          "name": "_from",
          "type": "address"
        },
        {
          "indexed": true,
          "name": "_to",
          "type": "address"
        },
        {
          "indexed": false,
          "name": "_tokenId",
          "type": "uint256"
        }
      ],
      "name": "Transfer",
      "type": "event"
    },
    {
      "anonymous": false,
      "inputs": [
        {
          "indexed": true,
          "name": "_owner",
          "type": "address"
        },
        {
          "indexed": true,
          "name": "_approved",
          "type": "address"
        },
        {
          "indexed": false,
          "name": "_tokenId",
          "type": "uint256"
        }
      ],
      "name": "Approval",
      "type": "event"
    },
    {
      "anonymous": false,
      "inputs": [
        {
          "indexed": true,
          "name": "_owner",
          "type": "address"
        },
        {
          "indexed": true,
          "name": "_operator",
          "type": "address"
        },
        {
          "indexed": false,
          "name": "_approved",
          "type": "bool"
        }
      ],
      "name": "ApprovalForAll",
      "type": "event"
    },
    {
      "anonymous": false,
      "inputs": [
        {
          "indexed": false,
          "name": "addr",
          "type": "address"
        }
      ],
      "name": "WhitelistedAddressAdded",
      "type": "event"
    },
    {
      "anonymous": false,
      "inputs": [
        {
          "indexed": false,
          "name": "addr",
          "type": "address"
        }
      ],
      "name": "WhitelistedAddressRemoved",
      "type": "event"
    },
    {
      "anonymous": false,
      "inputs": [
        {
          "indexed": true,
          "name": "previousOwner",
          "type": "address"
        },
        {
          "indexed": true,
          "name": "newOwner",
          "type": "address"
        }
      ],
      "name": "OwnershipTransferred",
      "type": "event"
    },
    {
      "constant": false,
      "inputs": [
        {
          "name": "_quizzes",
          "type": "uint8[]"
        },
        {
          "name": "_name",
          "type": "string"
        }
      ],
      "name": "generateInitialTori",
      "outputs": [
        {
          "name": "success",
          "type": "bool"
        }
      ],
      "payable": false,
      "stateMutability": "nonpayable",
      "type": "function"
    },
    {
      "constant": false,
      "inputs": [
        {
          "name": "_dna",
          "type": "uint256"
        },
        {
          "name": "_level",
          "type": "uint256"
        },
        {
          "name": "_proficiency",
          "type": "uint32"
        },
        {
          "name": "_personality",
          "type": "uint32"
        },
        {
          "name": "_parent1",
          "type": "uint256"
        },
        {
          "name": "_parent2",
          "type": "uint256"
        },
        {
          "name": "_name",
          "type": "string"
        },
        {
          "name": "_owner",
          "type": "address"
        }
      ],
      "name": "generateNewTori",
      "outputs": [
        {
          "name": "success",
          "type": "bool"
        }
      ],
      "payable": false,
      "stateMutability": "nonpayable",
      "type": "function"
    },
    {
      "constant": false,
      "inputs": [
        {
          "name": "_owner",
          "type": "address"
        },
        {
          "name": "_tokenId",
          "type": "uint256"
        }
      ],
      "name": "burnTori",
      "outputs": [
        {
          "name": "success",
          "type": "bool"
        }
      ],
      "payable": false,
      "stateMutability": "nonpayable",
      "type": "function"
    },
    {
      "constant": true,
      "inputs": [
        {
          "name": "_owner",
          "type": "address"
        }
      ],
      "name": "getTokenIndexes",
      "outputs": [
        {
          "name": "",
          "type": "uint256[]"
        }
      ],
      "payable": false,
      "stateMutability": "view",
      "type": "function"
    },
    {
      "constant": true,
      "inputs": [
        {
          "name": "_toriId",
          "type": "uint256"
        }
      ],
      "name": "getTokenInfo",
      "outputs": [
        {
          "name": "toriId",
          "type": "uint256"
        },
        {
          "name": "toriDna",
          "type": "uint256"
        },
        {
          "name": "level",
          "type": "uint256"
        },
        {
          "name": "name",
          "type": "string"
        },
        {
          "name": "proficiency",
          "type": "uint32"
        },
        {
          "name": "personality",
          "type": "uint32"
        },
        {
          "name": "readyTime",
          "type": "uint32"
        },
        {
          "name": "postingPrice",
          "type": "uint256"
        },
        {
          "name": "toriOwner",
          "type": "address"
        }
      ],
      "payable": false,
      "stateMutability": "view",
      "type": "function"
    },
    {
      "constant": true,
      "inputs": [
        {
          "name": "_tokenId",
          "type": "uint256"
        }
      ],
      "name": "getParentIds",
      "outputs": [
        {
          "name": "parent1",
          "type": "uint256"
        },
        {
          "name": "parent2",
          "type": "uint256"
        }
      ],
      "payable": false,
      "stateMutability": "view",
      "type": "function"
    },
    {
      "constant": true,
      "inputs": [],
      "name": "getTokenCount",
      "outputs": [
        {
          "name": "toriCount",
          "type": "uint256"
        }
      ],
      "payable": false,
      "stateMutability": "view",
      "type": "function"
    },
    {
      "constant": true,
      "inputs": [],
      "name": "getAllTokensCount",
      "outputs": [
        {
          "name": "",
          "type": "uint256"
        }
      ],
      "payable": false,
      "stateMutability": "view",
      "type": "function"
    },
    {
      "constant": false,
      "inputs": [
        {
          "name": "_tokenId",
          "type": "uint256"
        },
        {
          "name": "_salePrice",
          "type": "uint256"
        }
      ],
      "name": "approveForSale",
      "outputs": [],
      "payable": false,
      "stateMutability": "nonpayable",
      "type": "function"
    },
    {
      "constant": false,
      "inputs": [
        {
          "name": "_tokenId",
          "type": "uint256"
        }
      ],
      "name": "removeForSale",
      "outputs": [],
      "payable": false,
      "stateMutability": "nonpayable",
      "type": "function"
    },
    {
      "constant": false,
      "inputs": [
        {
          "name": "_tokenId",
          "type": "uint256"
        }
      ],
      "name": "buyForSale",
      "outputs": [],
      "payable": true,
      "stateMutability": "payable",
      "type": "function"
    },
    {
      "constant": true,
      "inputs": [],
      "name": "retrieveAllForSales",
      "outputs": [
        {
          "name": "",
          "type": "uint256[]"
        }
      ],
      "payable": false,
      "stateMutability": "view",
      "type": "function"
    }
  ],
  "bytecode": "0x60606040526023600255600380556006600455600254600a0a600555600160045401600a0a600655600354600a0a60075560a060405190810160405280601961ffff168152602001606461ffff16815260200160af61ffff16815260200160c861ffff16815260200161012c61ffff1681525060089060056200008492919062001232565b50600454600a0a600955608060405190810160405280609661ffff16815260200160c861ffff16815260200161012c61ffff16815260200161015e61ffff16815250600a906004620000d89291906200128a565b50604b600b553415620000ea57600080fd5b620000f4620012e2565b620000fe620012f6565b6000336000806101000a81548173ffffffffffffffffffffffffffffffffffffffff021916908373ffffffffffffffffffffffffffffffffffffffff1602179055506004604051805910620001505750595b9080825280602002602001820160405250925060008360008151811015156200017557fe5b9060200190602002019060ff16908160ff168152505060008360018151811015156200019d57fe5b9060200190602002019060ff16908160ff16815250506000836002815181101515620001c557fe5b9060200190602002019060ff16908160ff16815250506000836003815181101515620001ed57fe5b9060200190602002019060ff16908160ff168152505062000259836040805190810160405280600481526020017f546f746f00000000000000000000000000000000000000000000000000000000815250336200096964010000000002620028df176401000000009004565b915060016010805480600101828162000273919062001356565b9160005260206000209060060201600085909190915060008201518160000155602082015181600101556040820151816002019080519060200190620002bb9291906200138b565b5060608201518160030160006101000a81548163ffffffff021916908363ffffffff16021790555060808201518160030160046101000a81548163ffffffff021916908363ffffffff16021790555060a08201518160030160086101000a81548163ffffffff021916908363ffffffff16021790555060c0820151816004015560e08201518160050155505003905033600c600083815260200190815260200160002060006101000a81548173ffffffffffffffffffffffffffffffffffffffff021916908373ffffffffffffffffffffffffffffffffffffffff160217905550620003ff6001600e60003373ffffffffffffffffffffffffffffffffffffffff1673ffffffffffffffffffffffffffffffffffffffff1681526020019081526020016000205462000a01640100000000026200237c179091906401000000009004565b600e60003373ffffffffffffffffffffffffffffffffffffffff1673ffffffffffffffffffffffffffffffffffffffff1681526020019081526020016000208190555060018360018151811015156200045457fe5b9060200190602002019060ff16908160ff1681525050620004c0836040805190810160405280600481526020017f5269726900000000000000000000000000000000000000000000000000000000815250336200096964010000000002620028df176401000000009004565b9150600160108054806001018281620004da919062001356565b9160005260206000209060060201600085909190915060008201518160000155602082015181600101556040820151816002019080519060200190620005229291906200138b565b5060608201518160030160006101000a81548163ffffffff021916908363ffffffff16021790555060808201518160030160046101000a81548163ffffffff021916908363ffffffff16021790555060a08201518160030160086101000a81548163ffffffff021916908363ffffffff16021790555060c0820151816004015560e08201518160050155505003905033600c600083815260200190815260200160002060006101000a81548173ffffffffffffffffffffffffffffffffffffffff021916908373ffffffffffffffffffffffffffffffffffffffff160217905550620006666001600e60003373ffffffffffffffffffffffffffffffffffffffff1673ffffffffffffffffffffffffffffffffffffffff1681526020019081526020016000205462000a01640100000000026200237c179091906401000000009004565b600e60003373ffffffffffffffffffffffffffffffffffffffff1673ffffffffffffffffffffffffffffffffffffffff168152602001908152602001600020819055506001836000815181101515620006bb57fe5b9060200190602002019060ff16908160ff16815250506001836003815181101515620006e357fe5b9060200190602002019060ff16908160ff16815250506200074f836040805190810160405280600481526020017f5269746f00000000000000000000000000000000000000000000000000000000815250336200096964010000000002620028df176401000000009004565b915060016010805480600101828162000769919062001356565b9160005260206000209060060201600085909190915060008201518160000155602082015181600101556040820151816002019080519060200190620007b19291906200138b565b5060608201518160030160006101000a81548163ffffffff021916908363ffffffff16021790555060808201518160030160046101000a81548163ffffffff021916908363ffffffff16021790555060a08201518160030160086101000a81548163ffffffff021916908363ffffffff16021790555060c0820151816004015560e08201518160050155505003905033600c600083815260200190815260200160002060006101000a81548173ffffffffffffffffffffffffffffffffffffffff021916908373ffffffffffffffffffffffffffffffffffffffff160217905550620008f56001600e60003373ffffffffffffffffffffffffffffffffffffffff1673ffffffffffffffffffffffffffffffffffffffff1681526020019081526020016000205462000a01640100000000026200237c179091906401000000009004565b600e60003373ffffffffffffffffffffffffffffffffffffffff1673ffffffffffffffffffffffffffffffffffffffff1681526020019081526020016000208190555062000960600066038d7ea4c6800062000a1e6401000000000262000e84176401000000009004565b50505062001547565b62000973620012f6565b60008060006200099987878762000b116401000000000262002ee5176401000000009004565b80935081945082955050505061010060405190810160405280848152602001600181526020018781526020018363ffffffff1681526020018263ffffffff1681526020014263ffffffff16815260200160008152602001600081525093505050509392505050565b6000818301905082811015151562000a1557fe5b80905092915050565b813373ffffffffffffffffffffffffffffffffffffffff1662000a558262000cf96401000000000262001378176401000000009004565b73ffffffffffffffffffffffffffffffffffffffff1614151562000a7857600080fd5b6000601160008581526020019081526020016000205414801562000a9c5750600082115b151562000aa857600080fd5b81601160008581526020019081526020016000208190555062000ae6600160125462000a01640100000000026200237c179091906401000000009004565b60128190555062000b0c308462000d786401000000000262000cbe176401000000009004565b505050565b600080600080428587604051808481526020018373ffffffffffffffffffffffffffffffffffffffff1673ffffffffffffffffffffffffffffffffffffffff166c0100000000000000000000000002815260140182805190602001908083835b60208310151562000b98578051825260208201915060208101905060208303925062000b71565b6001836020036101000a038019825116818451168082178552505050505050905001935050505060405180910390206001900490506005548181151562000bdb57fe5b0693506000600160025403600a0a8581151562000bf457fe5b04141562000c0a57600160025403600a0a840193505b6007548481151562000c1857fe5b06925060075460095481151562000c2b57fe5b046009548581151562000c3a57fe5b0681151562000c4557fe5b04915062000cba83600880548060200260200160405190810160405280929190818152602001828054801562000c9b57602002820191906000526020600020905b81548152602001906001019080831162000c86575b505050505062000f8564010000000002620030a8176401000000009004565b925062000cdc878362000ff76401000000000262003115176401000000009004565b91506006548481151562000cec57fe5b0493505093509350939050565b600080600c600084815260200190815260200160002060009054906101000a900473ffffffffffffffffffffffffffffffffffffffff169050600073ffffffffffffffffffffffffffffffffffffffff168173ffffffffffffffffffffffffffffffffffffffff161415151562000d6f57600080fd5b80915050919050565b600062000d998262000cf96401000000000262001378176401000000009004565b90508073ffffffffffffffffffffffffffffffffffffffff168373ffffffffffffffffffffffffffffffffffffffff161415151562000dd757600080fd5b8073ffffffffffffffffffffffffffffffffffffffff163373ffffffffffffffffffffffffffffffffffffffff16148062000e2e575062000e2d8133620011616401000000000262002193176401000000009004565b5b151562000e3a57600080fd5b600073ffffffffffffffffffffffffffffffffffffffff1662000e7183620011f56401000000000262000c81176401000000009004565b73ffffffffffffffffffffffffffffffffffffffff1614158062000ec25750600073ffffffffffffffffffffffffffffffffffffffff168373ffffffffffffffffffffffffffffffffffffffff1614155b1562000f805782600d600084815260200190815260200160002060006101000a81548173ffffffffffffffffffffffffffffffffffffffff021916908373ffffffffffffffffffffffffffffffffffffffff1602179055508273ffffffffffffffffffffffffffffffffffffffff168173ffffffffffffffffffffffffffffffffffffffff167f8c5be1e5ebec7d5bd14f71427d1e84f3dd0314c0f7b2291e5b200ac8c7c3b925846040518082815260200191505060405180910390a35b505050565b60008060008060009250600091505b845182101562000fe657848281518110151562000fad57fe5b9060200190602002015190508083018663ffffffff16101562000fd35781935062000fee565b8083019250818060010192505062000f94565b600185510393505b50505092915050565b60006200100362001412565b600080600080600a8054806020026020016040519081016040528092919081815260200182805480156200105757602002820191906000526020600020905b81548152602001906001019080831162001042575b5050505050945060009350600092505b87518310156200109f5787838151811015156200108057fe5b9060200190602002015160ff1684019350828060010193505062001067565b6001885103600a029150600084118015620010ba5750875184105b156200113457600092505b875183101562001133578783815181101515620010de57fe5b9060200190602002015160ff168851029050838103905080828115156200110157fe5b0485848151811015156200111157fe5b90602001906020020181815101915081815250508280600101935050620010c5565b5b62001154878662000f8564010000000002620030a8176401000000009004565b9550505050505092915050565b6000600f60008473ffffffffffffffffffffffffffffffffffffffff1673ffffffffffffffffffffffffffffffffffffffff16815260200190815260200160002060008373ffffffffffffffffffffffffffffffffffffffff1673ffffffffffffffffffffffffffffffffffffffff16815260200190815260200160002060009054906101000a900460ff16905092915050565b6000600d600083815260200190815260200160002060009054906101000a900473ffffffffffffffffffffffffffffffffffffffff169050919050565b82805482825590600052602060002090810192821562001277579160200282015b8281111562001276578251829061ffff1690559160200191906001019062001253565b5b50905062001286919062001426565b5090565b828054828255906000526020600020908101928215620012cf579160200282015b82811115620012ce578251829061ffff16905591602001919060010190620012ab565b5b509050620012de919062001426565b5090565b602060405190810160405280600081525090565b6101006040519081016040528060008152602001600081526020016200131b6200144e565b8152602001600063ffffffff168152602001600063ffffffff168152602001600063ffffffff16815260200160008152602001600081525090565b815481835581811511620013865760060281600602836000526020600020918201910162001385919062001462565b5b505050565b828054600181600116156101000203166002900490600052602060002090601f016020900481019282601f10620013ce57805160ff1916838001178555620013ff565b82800160010185558215620013ff579182015b82811115620013fe578251825591602001919060010190620013e1565b5b5090506200140e919062001426565b5090565b602060405190810160405280600081525090565b6200144b91905b80821115620014475760008160009055506001016200142d565b5090565b90565b602060405190810160405280600081525090565b620014f891905b80821115620014f4576000808201600090556001820160009055600282016000620014959190620014fb565b6003820160006101000a81549063ffffffff02191690556003820160046101000a81549063ffffffff02191690556003820160086101000a81549063ffffffff0219169055600482016000905560058201600090555060060162001469565b5090565b90565b50805460018160011615610100020316600290046000825580601f1062001523575062001544565b601f01602090049060005260206000209081019062001543919062001426565b5b50565b6134d480620015576000396000f300606060405260043610610175576000357c0100000000000000000000000000000000000000000000000000000000900463ffffffff168063081812fc1461017a578063095ea7b3146101dd578063120e22e41461021f57806323b872dd1461024b57806324953eaa146102ac578063286dd3f51461031e57806342842e0e1461036f5780634dac6dcf146103d05780634f558e791461042a5780635178f004146104655780636352211e146104a357806368d39d71146105065780636b8667f5146105bb57806370a08231146105de57806378a895671461062b5780637b9417c81461065457806380507b57146106a55780638c7a63ae146107335780638da5cb5b14610857578063933b5454146108ac5780639b19251a146108d5578063a22cb46514610926578063b438314f1461096a578063b7e98bc914610982578063b88d4fde14610a58578063be928c9214610afc578063e2ec6ec314610b66578063e985e9c514610bd8578063f2fde38b14610c48575b600080fd5b341561018557600080fd5b61019b6004808035906020019091905050610c81565b604051808273ffffffffffffffffffffffffffffffffffffffff1673ffffffffffffffffffffffffffffffffffffffff16815260200191505060405180910390f35b34156101e857600080fd5b61021d600480803573ffffffffffffffffffffffffffffffffffffffff16906020019091908035906020019091905050610cbe565b005b341561022a57600080fd5b6102496004808035906020019091908035906020019091905050610e84565b005b341561025657600080fd5b6102aa600480803573ffffffffffffffffffffffffffffffffffffffff1690602001909190803573ffffffffffffffffffffffffffffffffffffffff16906020019091908035906020019091905050610f38565b005b34156102b757600080fd5b61030460048080359060200190820180359060200190808060200260200160405190810160405280939291908181526020018383602002808284378201915050505050509190505061104f565b604051808215151515815260200191505060405180910390f35b341561032957600080fd5b610355600480803573ffffffffffffffffffffffffffffffffffffffff169060200190919050506110f8565b604051808215151515815260200191505060405180910390f35b341561037a57600080fd5b6103ce600480803573ffffffffffffffffffffffffffffffffffffffff1690602001909190803573ffffffffffffffffffffffffffffffffffffffff1690602001909190803590602001909190505061126c565b005b34156103db57600080fd5b610410600480803573ffffffffffffffffffffffffffffffffffffffff169060200190919080359060200190919050506112a4565b604051808215151515815260200191505060405180910390f35b341561043557600080fd5b61044b60048080359060200190919050506112b8565b604051808215151515815260200191505060405180910390f35b341561047057600080fd5b610486600480803590602001909190505061132a565b604051808381526020018281526020019250505060405180910390f35b34156104ae57600080fd5b6104c46004808035906020019091905050611378565b604051808273ffffffffffffffffffffffffffffffffffffffff1673ffffffffffffffffffffffffffffffffffffffff16815260200191505060405180910390f35b341561051157600080fd5b6105a160048080359060200190820180359060200190808060200260200160405190810160405280939291908181526020018383602002808284378201915050505050509190803590602001908201803590602001908080601f016020809104026020016040519081016040528093929190818152602001838380828437820191505050505050919050506113f6565b604051808215151515815260200191505060405180910390f35b34156105c657600080fd5b6105dc60048080359060200190919050506115ab565b005b34156105e957600080fd5b610615600480803573ffffffffffffffffffffffffffffffffffffffff16906020019091905050611653565b6040518082815260200191505060405180910390f35b341561063657600080fd5b61063e6116d7565b6040518082815260200191505060405180910390f35b341561065f57600080fd5b61068b600480803573ffffffffffffffffffffffffffffffffffffffff1690602001909190505061171e565b604051808215151515815260200191505060405180910390f35b34156106b057600080fd5b6106dc600480803573ffffffffffffffffffffffffffffffffffffffff16906020019091905050611892565b6040518080602001828103825283818151815260200191508051906020019060200280838360005b8381101561071f578082015181840152602081019050610704565b505050509050019250505060405180910390f35b341561073e57600080fd5b61075460048080359060200190919050506119d4565b604051808a8152602001898152602001888152602001806020018763ffffffff1663ffffffff1681526020018663ffffffff1663ffffffff1681526020018563ffffffff1663ffffffff1681526020018481526020018373ffffffffffffffffffffffffffffffffffffffff1673ffffffffffffffffffffffffffffffffffffffff168152602001828103825288818151815260200191508051906020019080838360005b838110156108145780820151818401526020810190506107f9565b50505050905090810190601f1680156108415780820380516001836020036101000a031916815260200191505b509a505050505050505050505060405180910390f35b341561086257600080fd5b61086a611be0565b604051808273ffffffffffffffffffffffffffffffffffffffff1673ffffffffffffffffffffffffffffffffffffffff16815260200191505060405180910390f35b34156108b757600080fd5b6108bf611c05565b6040518082815260200191505060405180910390f35b34156108e057600080fd5b61090c600480803573ffffffffffffffffffffffffffffffffffffffff16906020019091905050611c12565b604051808215151515815260200191505060405180910390f35b341561093157600080fd5b610968600480803573ffffffffffffffffffffffffffffffffffffffff169060200190919080351515906020019091905050611c32565b005b6109806004808035906020019091905050611d6e565b005b341561098d57600080fd5b610a3e600480803590602001909190803590602001909190803563ffffffff1690602001909190803563ffffffff1690602001909190803590602001909190803590602001909190803590602001908201803590602001908080601f0160208091040260200160405190810160405280939291908181526020018383808284378201915050505050509190803573ffffffffffffffffffffffffffffffffffffffff16906020019091905050611fe9565b604051808215151515815260200191505060405180910390f35b3415610a6357600080fd5b610afa600480803573ffffffffffffffffffffffffffffffffffffffff1690602001909190803573ffffffffffffffffffffffffffffffffffffffff1690602001909190803590602001909190803590602001908201803590602001908080601f01602080910402602001604051908101604052809392919081815260200183838082843782019150505050505091905050612009565b005b3415610b0757600080fd5b610b0f612048565b6040518080602001828103825283818151815260200191508051906020019060200280838360005b83811015610b52578082015181840152602081019050610b37565b505050509050019250505060405180910390f35b3415610b7157600080fd5b610bbe6004808035906020019082018035906020019080806020026020016040519081016040528093929190818152602001838360200280828437820191505050505050919050506120ea565b604051808215151515815260200191505060405180910390f35b3415610be357600080fd5b610c2e600480803573ffffffffffffffffffffffffffffffffffffffff1690602001909190803573ffffffffffffffffffffffffffffffffffffffff16906020019091905050612193565b604051808215151515815260200191505060405180910390f35b3415610c5357600080fd5b610c7f600480803573ffffffffffffffffffffffffffffffffffffffff16906020019091905050612227565b005b6000600d600083815260200190815260200160002060009054906101000a900473ffffffffffffffffffffffffffffffffffffffff169050919050565b6000610cc982611378565b90508073ffffffffffffffffffffffffffffffffffffffff168373ffffffffffffffffffffffffffffffffffffffff1614151515610d0657600080fd5b8073ffffffffffffffffffffffffffffffffffffffff163373ffffffffffffffffffffffffffffffffffffffff161480610d465750610d458133612193565b5b1515610d5157600080fd5b600073ffffffffffffffffffffffffffffffffffffffff16610d7283610c81565b73ffffffffffffffffffffffffffffffffffffffff16141580610dc25750600073ffffffffffffffffffffffffffffffffffffffff168373ffffffffffffffffffffffffffffffffffffffff1614155b15610e7f5782600d600084815260200190815260200160002060006101000a81548173ffffffffffffffffffffffffffffffffffffffff021916908373ffffffffffffffffffffffffffffffffffffffff1602179055508273ffffffffffffffffffffffffffffffffffffffff168173ffffffffffffffffffffffffffffffffffffffff167f8c5be1e5ebec7d5bd14f71427d1e84f3dd0314c0f7b2291e5b200ac8c7c3b925846040518082815260200191505060405180910390a35b505050565b813373ffffffffffffffffffffffffffffffffffffffff16610ea582611378565b73ffffffffffffffffffffffffffffffffffffffff16141515610ec757600080fd5b60006011600085815260200190815260200160002054148015610eea5750600082115b1515610ef557600080fd5b816011600085815260200190815260200160002081905550610f23600160125461237c90919063ffffffff16565b601281905550610f333084610cbe565b505050565b80610f433382612398565b1515610f4e57600080fd5b600073ffffffffffffffffffffffffffffffffffffffff168473ffffffffffffffffffffffffffffffffffffffff1614151515610f8a57600080fd5b600073ffffffffffffffffffffffffffffffffffffffff168373ffffffffffffffffffffffffffffffffffffffff1614151515610fc657600080fd5b610fd0848361242d565b610fda8483612596565b610fe483836126c5565b8273ffffffffffffffffffffffffffffffffffffffff168473ffffffffffffffffffffffffffffffffffffffff167fddf252ad1be2c89b69c2b068fc378daa952ba7f163c4a11628f55a4df523b3ef846040518082815260200191505060405180910390a350505050565b6000806000809054906101000a900473ffffffffffffffffffffffffffffffffffffffff1673ffffffffffffffffffffffffffffffffffffffff163373ffffffffffffffffffffffffffffffffffffffff161415156110ad57600080fd5b600090505b82518110156110f2576110db83828151811015156110cc57fe5b906020019060200201516110f8565b156110e557600191505b80806001019150506110b2565b50919050565b60008060009054906101000a900473ffffffffffffffffffffffffffffffffffffffff1673ffffffffffffffffffffffffffffffffffffffff163373ffffffffffffffffffffffffffffffffffffffff1614151561115557600080fd5b600160008373ffffffffffffffffffffffffffffffffffffffff1673ffffffffffffffffffffffffffffffffffffffff16815260200190815260200160002060009054906101000a900460ff1615611267576000600160008473ffffffffffffffffffffffffffffffffffffffff1673ffffffffffffffffffffffffffffffffffffffff16815260200190815260200160002060006101000a81548160ff0219169083151502179055507ff1abf01a1043b7c244d128e8595cf0c1d10743b022b03a02dffd8ca3bf729f5a82604051808273ffffffffffffffffffffffffffffffffffffffff1673ffffffffffffffffffffffffffffffffffffffff16815260200191505060405180910390a1600190505b919050565b806112773382612398565b151561128257600080fd5b61129e8484846020604051908101604052806000815250612009565b50505050565b60006112b0838361281f565b905092915050565b600080600c600084815260200190815260200160002060009054906101000a900473ffffffffffffffffffffffffffffffffffffffff169050600073ffffffffffffffffffffffffffffffffffffffff168173ffffffffffffffffffffffffffffffffffffffff161415915050919050565b60008060108381548110151561133c57fe5b90600052602060002090600602016004015460108481548110151561135d57fe5b90600052602060002090600602016005015491509150915091565b600080600c600084815260200190815260200160002060009054906101000a900473ffffffffffffffffffffffffffffffffffffffff169050600073ffffffffffffffffffffffffffffffffffffffff168173ffffffffffffffffffffffffffffffffffffffff16141515156113ed57600080fd5b80915050919050565b600061140061325b565b600080600e60003373ffffffffffffffffffffffffffffffffffffffff1673ffffffffffffffffffffffffffffffffffffffff1681526020019081526020016000205414151561144f57600080fd5b61145a8585336128df565b915060016010805480600101828161147291906132b9565b91600052602060002090600602016000859091909150600082015181600001556020820151816001015560408201518160020190805190602001906114b89291906132eb565b5060608201518160030160006101000a81548163ffffffff021916908363ffffffff16021790555060808201518160030160046101000a81548163ffffffff021916908363ffffffff16021790555060a08201518160030160086101000a81548163ffffffff021916908363ffffffff16021790555060c0820151816004015560e082015181600501555050039050611551338261295f565b3373ffffffffffffffffffffffffffffffffffffffff167f163090350da897fd03497e870bbe993a1948b39328cd37a8fe6b9179e120dd27826040518082815260200191505060405180910390a260019250505092915050565b803373ffffffffffffffffffffffffffffffffffffffff166115cc82611378565b73ffffffffffffffffffffffffffffffffffffffff161415156115ee57600080fd5b6000601160008481526020019081526020016000205411151561161057600080fd5b6000601160008481526020019081526020016000208190555061163f6001601254612a0f90919063ffffffff16565b60128190555061164f338361242d565b5050565b60008073ffffffffffffffffffffffffffffffffffffffff168273ffffffffffffffffffffffffffffffffffffffff161415151561169057600080fd5b600e60008373ffffffffffffffffffffffffffffffffffffffff1673ffffffffffffffffffffffffffffffffffffffff168152602001908152602001600020549050919050565b6000600e60003373ffffffffffffffffffffffffffffffffffffffff1673ffffffffffffffffffffffffffffffffffffffff16815260200190815260200160002054905090565b60008060009054906101000a900473ffffffffffffffffffffffffffffffffffffffff1673ffffffffffffffffffffffffffffffffffffffff163373ffffffffffffffffffffffffffffffffffffffff1614151561177b57600080fd5b600160008373ffffffffffffffffffffffffffffffffffffffff1673ffffffffffffffffffffffffffffffffffffffff16815260200190815260200160002060009054906101000a900460ff16151561188d5760018060008473ffffffffffffffffffffffffffffffffffffffff1673ffffffffffffffffffffffffffffffffffffffff16815260200190815260200160002060006101000a81548160ff0219169083151502179055507fd1bba68c128cc3f427e5831b3c6f99f480b6efa6b9e80c757768f6124158cc3f82604051808273ffffffffffffffffffffffffffffffffffffffff1673ffffffffffffffffffffffffffffffffffffffff16815260200191505060405180910390a1600190505b919050565b61189a61336b565b60006118a461336b565b600080600e60008773ffffffffffffffffffffffffffffffffffffffff1673ffffffffffffffffffffffffffffffffffffffff168152602001908152602001600020549350836040518059106118f75750595b9080825280602002602001820160405250925060009150600090505b6010805490508110156119c8578573ffffffffffffffffffffffffffffffffffffffff16600c600083815260200190815260200160002060009054906101000a900473ffffffffffffffffffffffffffffffffffffffff1673ffffffffffffffffffffffffffffffffffffffff1614156119ad5780838381518110151561199657fe5b906020019060200201818152505081806001019250505b83821015156119bb576119c8565b8080600101915050611913565b82945050505050919050565b60008060006119e161337f565b60008060008060006119f161325b565b60108b815481101515611a0057fe5b906000526020600020906006020161010060405190810160405290816000820154815260200160018201548152602001600282018054600181600116156101000203166002900480601f016020809104026020016040519081016040528092919081815260200182805460018160011615610100020316600290048015611ac85780601f10611a9d57610100808354040283529160200191611ac8565b820191906000526020600020905b815481529060010190602001808311611aab57829003601f168201915b505050505081526020016003820160009054906101000a900463ffffffff1663ffffffff1663ffffffff1681526020016003820160049054906101000a900463ffffffff1663ffffffff1663ffffffff1681526020016003820160089054906101000a900463ffffffff1663ffffffff1663ffffffff1681526020016004820154815260200160058201548152505090508a995080602001519750806000015198508060400151965080606001519550806080015194508060a001519350601160008c8152602001908152602001600020549250600c60008c815260200190815260200160002060009054906101000a900473ffffffffffffffffffffffffffffffffffffffff169150509193959799909294969850565b6000809054906101000a900473ffffffffffffffffffffffffffffffffffffffff1681565b6000601080549050905090565b60016020528060005260406000206000915054906101000a900460ff1681565b3373ffffffffffffffffffffffffffffffffffffffff168273ffffffffffffffffffffffffffffffffffffffff1614151515611c6d57600080fd5b80600f60003373ffffffffffffffffffffffffffffffffffffffff1673ffffffffffffffffffffffffffffffffffffffff16815260200190815260200160002060008473ffffffffffffffffffffffffffffffffffffffff1673ffffffffffffffffffffffffffffffffffffffff16815260200190815260200160002060006101000a81548160ff0219169083151502179055508173ffffffffffffffffffffffffffffffffffffffff163373ffffffffffffffffffffffffffffffffffffffff167f17307eab39ab6107e8899845ad3d59bd9653f200f220920489ca2b5937696c3183604051808215151515815260200191505060405180910390a35050565b600080611d7b3084612398565b8015611d9a575060006011600085815260200190815260200160002054115b8015611db9575060116000848152602001908152602001600020543410155b1515611dc457600080fd5b611dcd83611378565b91506011600084815260200190815260200160002054340390506000811115611e88573373ffffffffffffffffffffffffffffffffffffffff166108fc829081150290604051600060405180830381858888f193505050501515611e3057600080fd5b8173ffffffffffffffffffffffffffffffffffffffff166108fc60116000868152602001908152602001600020549081150290604051600060405180830381858888f193505050501515611e8357600080fd5b611ec9565b8173ffffffffffffffffffffffffffffffffffffffff166108fc349081150290604051600060405180830381858888f193505050501515611ec857600080fd5b5b60006011600085815260200190815260200160002081905550611ef86001601254612a0f90919063ffffffff16565b6012819055503073ffffffffffffffffffffffffffffffffffffffff166342842e0e8333866040518463ffffffff167c0100000000000000000000000000000000000000000000000000000000028152600401808473ffffffffffffffffffffffffffffffffffffffff1673ffffffffffffffffffffffffffffffffffffffff1681526020018373ffffffffffffffffffffffffffffffffffffffff1673ffffffffffffffffffffffffffffffffffffffff1681526020018281526020019350505050600060405180830381600087803b1515611fd457600080fd5b5af11515611fe157600080fd5b505050505050565b6000611ffb8989898989898989612a28565b905098975050505050505050565b816120143382612398565b151561201f57600080fd5b61202a858585610f38565b61203685858585612c9e565b151561204157600080fd5b5050505050565b61205061336b565b61205861336b565b60008060125460405180591061206b5750595b9080825280602002602001820160405250925060009150600090505b6010805490508110156120e1576000601160008381526020019081526020016000205411156120d4578083838151811015156120bf57fe5b90602001906020020181815250506001820191505b8080600101915050612087565b82935050505090565b6000806000809054906101000a900473ffffffffffffffffffffffffffffffffffffffff1673ffffffffffffffffffffffffffffffffffffffff163373ffffffffffffffffffffffffffffffffffffffff1614151561214857600080fd5b600090505b825181101561218d57612176838281518110151561216757fe5b9060200190602002015161171e565b1561218057600191505b808060010191505061214d565b50919050565b6000600f60008473ffffffffffffffffffffffffffffffffffffffff1673ffffffffffffffffffffffffffffffffffffffff16815260200190815260200160002060008373ffffffffffffffffffffffffffffffffffffffff1673ffffffffffffffffffffffffffffffffffffffff16815260200190815260200160002060009054906101000a900460ff16905092915050565b6000809054906101000a900473ffffffffffffffffffffffffffffffffffffffff1673ffffffffffffffffffffffffffffffffffffffff163373ffffffffffffffffffffffffffffffffffffffff1614151561228257600080fd5b600073ffffffffffffffffffffffffffffffffffffffff168173ffffffffffffffffffffffffffffffffffffffff16141515156122be57600080fd5b8073ffffffffffffffffffffffffffffffffffffffff166000809054906101000a900473ffffffffffffffffffffffffffffffffffffffff1673ffffffffffffffffffffffffffffffffffffffff167f8be0079c531659141344cd1fd0a4f28419497f9722a3daafe3b4186f6b6457e060405160405180910390a3806000806101000a81548173ffffffffffffffffffffffffffffffffffffffff021916908373ffffffffffffffffffffffffffffffffffffffff16021790555050565b6000818301905082811015151561238f57fe5b80905092915050565b6000806123a483611378565b90508073ffffffffffffffffffffffffffffffffffffffff168473ffffffffffffffffffffffffffffffffffffffff16148061241357508373ffffffffffffffffffffffffffffffffffffffff166123fb84610c81565b73ffffffffffffffffffffffffffffffffffffffff16145b8061242457506124238185612193565b5b91505092915050565b8173ffffffffffffffffffffffffffffffffffffffff1661244d82611378565b73ffffffffffffffffffffffffffffffffffffffff1614151561246f57600080fd5b600073ffffffffffffffffffffffffffffffffffffffff16600d600083815260200190815260200160002060009054906101000a900473ffffffffffffffffffffffffffffffffffffffff1673ffffffffffffffffffffffffffffffffffffffff16141515612592576000600d600083815260200190815260200160002060006101000a81548173ffffffffffffffffffffffffffffffffffffffff021916908373ffffffffffffffffffffffffffffffffffffffff160217905550600073ffffffffffffffffffffffffffffffffffffffff168273ffffffffffffffffffffffffffffffffffffffff167f8c5be1e5ebec7d5bd14f71427d1e84f3dd0314c0f7b2291e5b200ac8c7c3b925836040518082815260200191505060405180910390a35b5050565b8173ffffffffffffffffffffffffffffffffffffffff166125b682611378565b73ffffffffffffffffffffffffffffffffffffffff161415156125d857600080fd5b61262b6001600e60008573ffffffffffffffffffffffffffffffffffffffff1673ffffffffffffffffffffffffffffffffffffffff16815260200190815260200160002054612a0f90919063ffffffff16565b600e60008473ffffffffffffffffffffffffffffffffffffffff1673ffffffffffffffffffffffffffffffffffffffff168152602001908152602001600020819055506000600c600083815260200190815260200160002060006101000a81548173ffffffffffffffffffffffffffffffffffffffff021916908373ffffffffffffffffffffffffffffffffffffffff1602179055505050565b600073ffffffffffffffffffffffffffffffffffffffff16600c600083815260200190815260200160002060009054906101000a900473ffffffffffffffffffffffffffffffffffffffff1673ffffffffffffffffffffffffffffffffffffffff1614151561273357600080fd5b81600c600083815260200190815260200160002060006101000a81548173ffffffffffffffffffffffffffffffffffffffff021916908373ffffffffffffffffffffffffffffffffffffffff1602179055506127d86001600e60008573ffffffffffffffffffffffffffffffffffffffff1673ffffffffffffffffffffffffffffffffffffffff1681526020019081526020016000205461237c90919063ffffffff16565b600e60008473ffffffffffffffffffffffffffffffffffffffff1673ffffffffffffffffffffffffffffffffffffffff168152602001908152602001600020819055505050565b6000600160003373ffffffffffffffffffffffffffffffffffffffff1673ffffffffffffffffffffffffffffffffffffffff16815260200190815260200160002060009054906101000a900460ff16151561287957600080fd5b6000601160008481526020019081526020016000205411156128cb57600060116000848152602001908152602001600020819055506128c46001601254612a0f90919063ffffffff16565b6012819055505b6128d58383612e67565b6001905092915050565b6128e761325b565b60008060006128f7878787612ee5565b80935081945082955050505061010060405190810160405280848152602001600181526020018781526020018363ffffffff1681526020018263ffffffff1681526020014263ffffffff16815260200160008152602001600081525093505050509392505050565b600073ffffffffffffffffffffffffffffffffffffffff168273ffffffffffffffffffffffffffffffffffffffff161415151561299b57600080fd5b6129a582826126c5565b8173ffffffffffffffffffffffffffffffffffffffff16600073ffffffffffffffffffffffffffffffffffffffff167fddf252ad1be2c89b69c2b068fc378daa952ba7f163c4a11628f55a4df523b3ef836040518082815260200191505060405180910390a35050565b6000828211151515612a1d57fe5b818303905092915050565b6000612a3261325b565b6000600160003373ffffffffffffffffffffffffffffffffffffffff1673ffffffffffffffffffffffffffffffffffffffff16815260200190815260200160002060009054906101000a900460ff161515612a8c57600080fd5b60006005548c811515612a9b57fe5b04148015612ab0575060008963ffffffff1610155b8015612ac657506008805490508963ffffffff16105b8015612ad9575060008863ffffffff1610155b8015612aef5750600a805490508863ffffffff16105b1515612afa57600080fd5b610100604051908101604052808c81526020018b81526020018681526020018a63ffffffff1681526020018963ffffffff1681526020014263ffffffff168152602001888152602001878152509150600160108054806001018281612b5f91906132b9565b9160005260206000209060060201600085909190915060008201518160000155602082015181600101556040820151816002019080519060200190612ba59291906132eb565b5060608201518160030160006101000a81548163ffffffff021916908363ffffffff16021790555060808201518160030160046101000a81548163ffffffff021916908363ffffffff16021790555060a08201518160030160086101000a81548163ffffffff021916908363ffffffff16021790555060c0820151816004015560e082015181600501555050039050612c3e848261295f565b8373ffffffffffffffffffffffffffffffffffffffff167f163090350da897fd03497e870bbe993a1948b39328cd37a8fe6b9179e120dd27826040518082815260200191505060405180910390a260019250505098975050505050505050565b600080612cc08573ffffffffffffffffffffffffffffffffffffffff16613095565b1515612ccf5760019150612e5e565b8473ffffffffffffffffffffffffffffffffffffffff1663f0b9e5ba8786866040518463ffffffff167c0100000000000000000000000000000000000000000000000000000000028152600401808473ffffffffffffffffffffffffffffffffffffffff1673ffffffffffffffffffffffffffffffffffffffff16815260200183815260200180602001828103825283818151815260200191508051906020019080838360005b83811015612d91578082015181840152602081019050612d76565b50505050905090810190601f168015612dbe5780820380516001836020036101000a031916815260200191505b50945050505050602060405180830381600087803b1515612dde57600080fd5b5af11515612deb57600080fd5b50505060405180519050905063f0b9e5ba7c0100000000000000000000000000000000000000000000000000000000027bffffffffffffffffffffffffffffffffffffffffffffffffffffffff1916817bffffffffffffffffffffffffffffffffffffffffffffffffffffffff19161491505b50949350505050565b612e71828261242d565b612e7b8282612596565b600073ffffffffffffffffffffffffffffffffffffffff168273ffffffffffffffffffffffffffffffffffffffff167fddf252ad1be2c89b69c2b068fc378daa952ba7f163c4a11628f55a4df523b3ef836040518082815260200191505060405180910390a35050565b600080600080428587604051808481526020018373ffffffffffffffffffffffffffffffffffffffff1673ffffffffffffffffffffffffffffffffffffffff166c0100000000000000000000000002815260140182805190602001908083835b602083101515612f6a5780518252602082019150602081019050602083039250612f45565b6001836020036101000a0380198251168184511680821785525050505050509050019350505050604051809103902060019004905060055481811515612fac57fe5b0693506000600160025403600a0a85811515612fc457fe5b041415612fd957600160025403600a0a840193505b60075484811515612fe657fe5b069250600754600954811515612ff857fe5b046009548581151561300657fe5b0681151561301057fe5b04915061306d83600880548060200260200160405190810160405280929190818152602001828054801561306357602002820191906000526020600020905b81548152602001906001019080831161304f575b50505050506130a8565b92506130798783613115565b91506006548481151561308857fe5b0493505093509350939050565b600080823b905060008111915050919050565b60008060008060009250600091505b84518210156131045784828151811015156130ce57fe5b9060200190602002015190508083018663ffffffff1610156130f25781935061310c565b808301925081806001019250506130b7565b600185510393505b50505092915050565b600061311f61336b565b600080600080600a80548060200260200160405190810160405280929190818152602001828054801561317157602002820191906000526020600020905b81548152602001906001019080831161315d575b5050505050945060009350600092505b87518310156131b657878381518110151561319857fe5b9060200190602002015160ff16840193508280600101935050613181565b6001885103600a0291506000841180156131d05750875184105b1561324457600092505b87518310156132435787838151811015156131f157fe5b9060200190602002015160ff1688510290508381039050808281151561321357fe5b04858481518110151561322257fe5b906020019060200201818151019150818152505082806001019350506131da565b5b61324e87866130a8565b9550505050505092915050565b61010060405190810160405280600081526020016000815260200161327e613393565b8152602001600063ffffffff168152602001600063ffffffff168152602001600063ffffffff16815260200160008152602001600081525090565b8154818355818115116132e6576006028160060283600052602060002091820191016132e591906133a7565b5b505050565b828054600181600116156101000203166002900490600052602060002090601f016020900481019282601f1061332c57805160ff191683800117855561335a565b8280016001018555821561335a579182015b8281111561335957825182559160200191906001019061333e565b5b509050613367919061343b565b5090565b602060405190810160405280600081525090565b602060405190810160405280600081525090565b602060405190810160405280600081525090565b61343891905b808211156134345760008082016000905560018201600090556002820160006133d69190613460565b6003820160006101000a81549063ffffffff02191690556003820160046101000a81549063ffffffff02191690556003820160086101000a81549063ffffffff021916905560048201600090556005820160009055506006016133ad565b5090565b90565b61345d91905b80821115613459576000816000905550600101613441565b5090565b90565b50805460018160011615610100020316600290046000825580601f1061348657506134a5565b601f0160209004906000526020600020908101906134a4919061343b565b5b505600a165627a7a72305820551de6b7318f7fe31ae7ee7ec0874b90063dc0b811112f70a09f91c26495db660029",
  "source": "pragma solidity ^0.4.21;\n\nimport './DnaCore.sol';\n/* import 'github.com/OpenZeppelin/zeppelin-solidity/contracts/token/ERC721/ERC721BasicToken.sol'; */\n/* import 'github.com/OpenZeppelin/zeppelin-solidity/contracts/ownership/Whitelist.sol'; */\n\nimport 'openzeppelin-solidity/contracts/token/ERC721/ERC721BasicToken.sol';\nimport 'openzeppelin-solidity/contracts/ownership/Whitelist.sol';\n\ncontract ToriToken is Whitelist, DnaCore, ERC721BasicToken {\n\n  struct Tori {\n    uint256 dna;\n    uint256 level;\n    string name;\n    uint32 proficiency;\n    uint32 personality;\n    uint32 readyTime;\n    // 0, 0 --> generation 1.\n    uint256 parent1;\n    uint256 parent2;\n  }\n\n  Tori[] toris;\n\n  // toriId to price (in wei)\n  mapping (uint => uint256) toriSale;\n  uint256 toriSaleCount;\n\n  event NewTori(address indexed _address, uint256 toriIdx);\n\n\n  /* DEV USE */\n  function ToriToken() {\n    // Generate some Toris for the owner.\n\n    // 1.\n    uint8[] memory testQuiz = new uint8[](4);\n    testQuiz[0] = 0;\n    testQuiz[1] = 0;\n    testQuiz[2] = 0;\n    testQuiz[3] = 0;\n    Tori memory newTori = _generateRandomTori(testQuiz, \"Toto\", msg.sender);\n    uint256 id = toris.push(newTori) - 1;\n    tokenOwner[id] = msg.sender;\n    ownedTokensCount[msg.sender] = ownedTokensCount[msg.sender].add(1);\n    // 2.\n    testQuiz[1] = 1;\n    newTori = _generateRandomTori(testQuiz, \"Riri\", msg.sender);\n    id = toris.push(newTori) - 1;\n    tokenOwner[id] = msg.sender;\n    ownedTokensCount[msg.sender] = ownedTokensCount[msg.sender].add(1);\n\n    // 3.\n    testQuiz[0] = 1;\n    testQuiz[3] = 1;\n    newTori = _generateRandomTori(testQuiz, \"Rito\", msg.sender);\n    id = toris.push(newTori) - 1;\n    tokenOwner[id] = msg.sender;\n    ownedTokensCount[msg.sender] = ownedTokensCount[msg.sender].add(1);\n\n    approveForSale(0, 1000000000000000);\n  }\n\n\n\n  /*\n  *   Generate random dna, personality, and proficiency level from\n  *   the given quiz & sender address.\n  */\n  function _generateRandomTori(uint8[] _quizzes, string _name, address _owner) private view returns (Tori) {\n    uint256 dna;\n    uint32 proficiency;\n    uint32 personality;\n    (dna, proficiency, personality) = _generateRandomTraits(_quizzes, _name, _owner);\n    return Tori(dna, 1, _name, proficiency, personality, uint32(now), 0, 0);\n  }\n\n  function generateInitialTori(uint8[] _quizzes, string _name) public returns (bool success) {\n    // Generate three new toris.\n    require (ownedTokensCount[msg.sender] == 0);\n    Tori memory newTori = _generateRandomTori(_quizzes, _name, msg.sender);\n    // Push to the book keeping array.\n    uint256 id = toris.push(newTori) - 1;\n    _mint(msg.sender, id);\n\n    emit NewTori(msg.sender, id);\n    return true;\n  }\n\n  function _generateNewTori(uint256 _dna,\n                            uint256 _level,\n                            uint32 _proficiency,\n                            uint32 _personality,\n                            uint256 _parent1,\n                            uint256 _parent2,\n                            string _name,\n                            address _owner) onlyWhitelisted private returns (bool success) {\n    require((_dna / DNA_LIMIT == 0) &&\n            (_proficiency >= 0) &&\n            (_proficiency < PROFICIENCY_THRESHOLD.length) &&\n            (_personality >= 0) &&\n            (_personality < PERSONALITY_THRESHOLD.length));\n    // Generate three new toris.\n    Tori memory newTori = Tori(_dna,\n                               _level,\n                               _name,\n                               _proficiency,\n                               _personality,\n                               uint32(now),\n                               _parent1,\n                               _parent2);\n    // Push to the book keeping array.\n    uint256 id = toris.push(newTori) - 1;\n    _mint(_owner, id);\n    emit NewTori(_owner, id);\n    return true;\n  }\n\n  function generateNewTori(uint256 _dna,\n                           uint256 _level,\n                           uint32 _proficiency,\n                           uint32 _personality,\n                           uint256 _parent1,\n                           uint256 _parent2,\n                           string _name,\n                           address _owner) public returns (bool success) {\n    return _generateNewTori(\n      _dna,\n      _level,\n      _proficiency,\n      _personality,\n      _parent1,\n      _parent2,\n      _name,\n      _owner\n    );\n  }\n\n  function _burnTori(address _owner, uint256 _tokenId) onlyWhitelisted private returns (bool success) {\n    // Check if for sale\n    // TODO: remove it automatically for now.\n    if (toriSale[_tokenId] > 0) {\n      toriSale[_tokenId] = 0;\n      toriSaleCount = toriSaleCount.sub(1);\n    }\n    _burn(_owner, _tokenId);\n    // TODO: check if burn succeed\n    return true;\n  }\n\n  function burnTori(address _owner, uint256 _tokenId) public returns (bool success) {\n    return _burnTori(_owner, _tokenId);\n  }\n\n  function getTokenIndexes(address _owner) public view returns (uint[]) {\n    uint size = ownedTokensCount[_owner];\n    uint[] memory result = new uint[](size);\n\n    uint idx = 0;\n    for (uint i = 0; i < toris.length; i++) {\n      if (tokenOwner[i] == _owner) {\n        result[idx] = i;\n        idx++;\n      }\n      if (idx >= size) {\n        break;\n      }\n    }\n    return result;\n  }\n\n  function getTokenInfo(uint256 _toriId) public view returns\n                    (uint256 toriId,\n                      uint256 toriDna,\n                      uint256 level,\n                      string name,\n                      uint32 proficiency,\n                      uint32 personality,\n                      uint32 readyTime,\n                      uint postingPrice,\n                      address toriOwner) {\n    Tori memory tori = toris[_toriId];\n    toriId = _toriId;\n    level = tori.level;\n    toriDna = tori.dna;\n    name = tori.name;\n    proficiency = tori.proficiency;\n    personality = tori.personality;\n    readyTime = tori.readyTime;\n    postingPrice = toriSale[_toriId];\n    toriOwner = tokenOwner[_toriId];\n  }\n\n  function getParentIds(uint256 _tokenId) public view returns (uint256 parent1, uint256 parent2) {\n    return (toris[_tokenId].parent1, toris[_tokenId].parent2);\n  }\n\n  function getTokenCount() public view returns (uint256 toriCount) {\n    return ownedTokensCount[msg.sender];\n  }\n\n  function getAllTokensCount() public view returns (uint) {\n    return toris.length;\n  }\n\n\n  // TODO: add functionality for users to change the sale price.\n  function approveForSale(uint256 _tokenId, uint256 _salePrice) public onlyOwnerOf(_tokenId) {\n    require((toriSale[_tokenId] == 0) && (_salePrice > 0));\n    toriSale[_tokenId] = _salePrice;\n    toriSaleCount = toriSaleCount.add(1);\n\n    approve(this, _tokenId);\n  }\n\n  function removeForSale(uint256 _tokenId) public onlyOwnerOf(_tokenId) {\n    require(toriSale[_tokenId] > 0);\n    toriSale[_tokenId] = 0;\n    toriSaleCount = toriSaleCount.sub(1);\n\n    clearApproval(msg.sender, _tokenId);\n  }\n\n  function buyForSale(uint256 _tokenId) public payable {\n    // TODO: does msg.value needs to be exactly equal?\n    require(isApprovedOrOwner(this, _tokenId) &&\n            (toriSale[_tokenId] > 0) &&\n            (msg.value >= toriSale[_tokenId]));\n\n    address _from = ownerOf(_tokenId);\n    // Send the ether.\n    uint256 excess = msg.value - toriSale[_tokenId];\n    if (excess > 0) {\n      msg.sender.transfer(excess);\n      _from.transfer(toriSale[_tokenId]);\n    } else {\n      _from.transfer(msg.value);\n    }\n\n    // Delete sale entry.\n    toriSale[_tokenId] = 0;\n    toriSaleCount = toriSaleCount.sub(1);\n\n    // We want to call this from this contract.\n    this.safeTransferFrom(_from, msg.sender, _tokenId);\n  }\n\n  function retrieveAllForSales() public view returns (uint[]) {\n    uint[] memory result = new uint[](toriSaleCount);\n    uint idx = 0;\n    for (uint i = 0; i < toris.length; i++) {\n      if (toriSale[i] > 0) {\n        result[idx] = i;\n        idx += 1;\n      }\n    }\n    return result;\n  }\n}\n",
  "sourcePath": "/Users/Cindy/Desktop/cs359b/cs359b-cribtori/contracts/ToriToken.sol",
  "compiler": {
    "name": "solc",
    "version": "0.4.21+commit.dfe3193c.Emscripten.clang"
  },
  "schemaVersion": "2.0.0",
  "updatedAt": "2018-05-25T05:51:14.740Z"
}