{
  "contractName": "ToriOwnership",
  "abi": [
    {
      "constant": true,
      "inputs": [
        {
          "name": "_toriId",
          "type": "uint256"
        }
      ],
      "name": "getToriInfo",
      "outputs": [
        {
          "name": "toriId",
          "type": "uint256"
        },
        {
          "name": "toriDna",
          "type": "uint256"
        },
        {
          "name": "proficiency",
          "type": "uint32"
        },
        {
          "name": "personality",
          "type": "uint32"
        },
        {
          "name": "readyTime",
          "type": "uint32"
        }
      ],
      "payable": false,
      "stateMutability": "view",
      "type": "function"
    },
    {
      "constant": true,
      "inputs": [],
      "name": "getAllToriCount",
      "outputs": [
        {
          "name": "",
          "type": "uint256"
        }
      ],
      "payable": false,
      "stateMutability": "view",
      "type": "function"
    },
    {
      "constant": true,
      "inputs": [
        {
          "name": "_owner",
          "type": "address"
        }
      ],
      "name": "getToriIndexes",
      "outputs": [
        {
          "name": "",
          "type": "uint256[]"
        }
      ],
      "payable": false,
      "stateMutability": "view",
      "type": "function"
    },
    {
      "constant": true,
      "inputs": [],
      "name": "getToriCount",
      "outputs": [
        {
          "name": "toriCount",
          "type": "uint256"
        }
      ],
      "payable": false,
      "stateMutability": "view",
      "type": "function"
    },
    {
      "constant": false,
      "inputs": [
        {
          "name": "_quiz",
          "type": "string"
        },
        {
          "name": "_name",
          "type": "string"
        }
      ],
      "name": "generateNewTori",
      "outputs": [
        {
          "name": "success",
          "type": "bool"
        }
      ],
      "payable": false,
      "stateMutability": "nonpayable",
      "type": "function"
    },
    {
      "anonymous": false,
      "inputs": [
        {
          "indexed": true,
          "name": "_from",
          "type": "address"
        },
        {
          "indexed": true,
          "name": "_to",
          "type": "address"
        },
        {
          "indexed": false,
          "name": "_tokenId",
          "type": "uint256"
        }
      ],
      "name": "Transfer",
      "type": "event"
    },
    {
      "anonymous": false,
      "inputs": [
        {
          "indexed": true,
          "name": "_owner",
          "type": "address"
        },
        {
          "indexed": true,
          "name": "_approved",
          "type": "address"
        },
        {
          "indexed": false,
          "name": "_tokenId",
          "type": "uint256"
        }
      ],
      "name": "Approval",
      "type": "event"
    },
    {
      "anonymous": false,
      "inputs": [
        {
          "indexed": true,
          "name": "_owner",
          "type": "address"
        },
        {
          "indexed": true,
          "name": "_operator",
          "type": "address"
        },
        {
          "indexed": false,
          "name": "_approved",
          "type": "bool"
        }
      ],
      "name": "ApprovalForAll",
      "type": "event"
    },
    {
      "anonymous": false,
      "inputs": [
        {
          "indexed": true,
          "name": "_address",
          "type": "address"
        },
        {
          "indexed": false,
          "name": "toriIdx",
          "type": "uint256"
        }
      ],
      "name": "NewTori",
      "type": "event"
    },
    {
      "constant": true,
      "inputs": [],
      "name": "name",
      "outputs": [
        {
          "name": "_name",
          "type": "string"
        }
      ],
      "payable": false,
      "stateMutability": "view",
      "type": "function"
    },
    {
      "constant": true,
      "inputs": [],
      "name": "symbol",
      "outputs": [
        {
          "name": "_symbol",
          "type": "string"
        }
      ],
      "payable": false,
      "stateMutability": "view",
      "type": "function"
    },
    {
      "constant": true,
      "inputs": [
        {
          "name": "_owner",
          "type": "address"
        }
      ],
      "name": "balanceOf",
      "outputs": [
        {
          "name": "_balance",
          "type": "uint256"
        }
      ],
      "payable": false,
      "stateMutability": "view",
      "type": "function"
    },
    {
      "constant": true,
      "inputs": [
        {
          "name": "_tokenId",
          "type": "uint256"
        }
      ],
      "name": "ownerOf",
      "outputs": [
        {
          "name": "_owner",
          "type": "address"
        }
      ],
      "payable": false,
      "stateMutability": "view",
      "type": "function"
    },
    {
      "constant": false,
      "inputs": [
        {
          "name": "_from",
          "type": "address"
        },
        {
          "name": "_to",
          "type": "address"
        },
        {
          "name": "_tokenId",
          "type": "uint256"
        }
      ],
      "name": "safeTransferFrom",
      "outputs": [],
      "payable": true,
      "stateMutability": "payable",
      "type": "function"
    },
    {
      "constant": false,
      "inputs": [
        {
          "name": "_from",
          "type": "address"
        },
        {
          "name": "_to",
          "type": "address"
        },
        {
          "name": "_tokenId",
          "type": "uint256"
        },
        {
          "name": "data",
          "type": "bytes"
        }
      ],
      "name": "safeTransferFrom",
      "outputs": [],
      "payable": true,
      "stateMutability": "payable",
      "type": "function"
    },
    {
      "constant": false,
      "inputs": [
        {
          "name": "_from",
          "type": "address"
        },
        {
          "name": "_to",
          "type": "address"
        },
        {
          "name": "_tokenId",
          "type": "uint256"
        }
      ],
      "name": "transferFrom",
      "outputs": [],
      "payable": true,
      "stateMutability": "payable",
      "type": "function"
    },
    {
      "constant": false,
      "inputs": [
        {
          "name": "_to",
          "type": "address"
        },
        {
          "name": "_tokenId",
          "type": "uint256"
        }
      ],
      "name": "approve",
      "outputs": [],
      "payable": true,
      "stateMutability": "payable",
      "type": "function"
    },
    {
      "constant": false,
      "inputs": [
        {
          "name": "_operator",
          "type": "address"
        },
        {
          "name": "_approved",
          "type": "bool"
        }
      ],
      "name": "setApprovalForAll",
      "outputs": [],
      "payable": false,
      "stateMutability": "nonpayable",
      "type": "function"
    },
    {
      "constant": true,
      "inputs": [
        {
          "name": "_tokenId",
          "type": "uint256"
        }
      ],
      "name": "getApproved",
      "outputs": [
        {
          "name": "",
          "type": "address"
        }
      ],
      "payable": false,
      "stateMutability": "view",
      "type": "function"
    },
    {
      "constant": true,
      "inputs": [
        {
          "name": "_owner",
          "type": "address"
        },
        {
          "name": "_operator",
          "type": "address"
        }
      ],
      "name": "isApprovedForAll",
      "outputs": [
        {
          "name": "",
          "type": "bool"
        }
      ],
      "payable": false,
      "stateMutability": "view",
      "type": "function"
    },
    {
      "constant": true,
      "inputs": [
        {
          "name": "interfaceID",
          "type": "bytes4"
        }
      ],
      "name": "supportsInterface",
      "outputs": [
        {
          "name": "",
          "type": "bool"
        }
      ],
      "payable": false,
      "stateMutability": "view",
      "type": "function"
    }
  ],
  "bytecode": "0x6060604052600a600055600260015560028055600054600a0a600355600154600a0a600455600254600a0a6005556000806200003a620003d6565b600060039350600092505b838310156200023b57620000d96040805190810160405280600681526020017f73616d706c6500000000000000000000000000000000000000000000000000008152506040805190810160405280600681526020017f73616d706c65000000000000000000000000000000000000000000000000000081525033620002456401000000000262001051176401000000009004565b9150600160068054806001018281620000f3919062000411565b916000526020600020906002020160008590919091506000820151816000015560208201518160010160006101000a81548163ffffffff021916908363ffffffff16021790555060408201518160010160046101000a81548163ffffffff021916908363ffffffff16021790555060608201518160010160086101000a81548163ffffffff021916908363ffffffff1602179055505050039050336007600083815260200190815260200160002060006101000a81548173ffffffffffffffffffffffffffffffffffffffff021916908373ffffffffffffffffffffffffffffffffffffffff1602179055506001600860003373ffffffffffffffffffffffffffffffffffffffff1673ffffffffffffffffffffffffffffffffffffffff16815260200190815260200160002060008282540192505081905550828060010193505062000045565b50505050620004b5565b6200024f620003d6565b60008060008042868989604051808581526020018473ffffffffffffffffffffffffffffffffffffffff1673ffffffffffffffffffffffffffffffffffffffff166c0100000000000000000000000002815260140183805190602001908083835b602083101515620002d75780518252602082019150602081019050602083039250620002b0565b6001836020036101000a03801982511681845116808217855250505050505090500182805190602001908083835b6020831015156200032c578051825260208201915060208101905060208303925062000305565b6001836020036101000a0380198251168184511680821785525050505050509050019450505050506040518091039020600190049350600354848115156200037057fe5b069250600454848115156200038157fe5b069150600554848115156200039257fe5b0690506080604051908101604052808481526020018363ffffffff1681526020018263ffffffff1681526020014263ffffffff168152509450505050509392505050565b60806040519081016040528060008152602001600063ffffffff168152602001600063ffffffff168152602001600063ffffffff1681525090565b815481835581811511620004415760020281600202836000526020600020918201910162000440919062000446565b5b505050565b620004b291905b80821115620004ae576000808201600090556001820160006101000a81549063ffffffff02191690556001820160046101000a81549063ffffffff02191690556001820160086101000a81549063ffffffff0219169055506002016200044d565b5090565b90565b61130680620004c56000396000f3006060604052600436106100f1576000357c0100000000000000000000000000000000000000000000000000000000900463ffffffff16806301ffc9a7146100f657806306fdde0314610150578063081812fc146101de578063095ea7b3146102415780631f1324b51461027857806323b872dd146102ef57806342842e0e146103455780636352211e1461039b57806370a08231146103fe578063926e9ebf1461044b57806395d89b4114610474578063a22cb46514610502578063a3ec75fe14610546578063b88d4fde146105d4578063be00f0081461063e578063d43d9ee614610667578063e985e9c51461071f575b600080fd5b341561010157600080fd5b61013660048080357bffffffffffffffffffffffffffffffffffffffffffffffffffffffff191690602001909190505061078f565b604051808215151515815260200191505060405180910390f35b341561015b57600080fd5b610163610799565b6040518080602001828103825283818151815260200191508051906020019080838360005b838110156101a3578082015181840152602081019050610188565b50505050905090810190601f1680156101d05780820380516001836020036101000a031916815260200191505b509250505060405180910390f35b34156101e957600080fd5b6101ff60048080359060200190919050506107dc565b604051808273ffffffffffffffffffffffffffffffffffffffff1673ffffffffffffffffffffffffffffffffffffffff16815260200191505060405180910390f35b610276600480803573ffffffffffffffffffffffffffffffffffffffff169060200190919080359060200190919050506107e6565b005b341561028357600080fd5b6102996004808035906020019091905050610910565b604051808681526020018581526020018463ffffffff1663ffffffff1681526020018363ffffffff1663ffffffff1681526020018263ffffffff1663ffffffff1681526020019550505050505060405180910390f35b610343600480803573ffffffffffffffffffffffffffffffffffffffff1690602001909190803573ffffffffffffffffffffffffffffffffffffffff169060200190919080359060200190919050506109f0565b005b610399600480803573ffffffffffffffffffffffffffffffffffffffff1690602001909190803573ffffffffffffffffffffffffffffffffffffffff16906020019091908035906020019091905050610a6f565b005b34156103a657600080fd5b6103bc6004808035906020019091905050610a74565b604051808273ffffffffffffffffffffffffffffffffffffffff1673ffffffffffffffffffffffffffffffffffffffff16815260200191505060405180910390f35b341561040957600080fd5b610435600480803573ffffffffffffffffffffffffffffffffffffffff16906020019091905050610ab1565b6040518082815260200191505060405180910390f35b341561045657600080fd5b61045e610afa565b6040518082815260200191505060405180910390f35b341561047f57600080fd5b610487610b07565b6040518080602001828103825283818151815260200191508051906020019080838360005b838110156104c75780820151818401526020810190506104ac565b50505050905090810190601f1680156104f45780820380516001836020036101000a031916815260200191505b509250505060405180910390f35b341561050d57600080fd5b610544600480803573ffffffffffffffffffffffffffffffffffffffff169060200190919080351515906020019091905050610b4a565b005b341561055157600080fd5b61057d600480803573ffffffffffffffffffffffffffffffffffffffff16906020019091905050610b4e565b6040518080602001828103825283818151815260200191508051906020019060200280838360005b838110156105c05780820151818401526020810190506105a5565b505050509050019250505060405180910390f35b61063c600480803573ffffffffffffffffffffffffffffffffffffffff1690602001909190803573ffffffffffffffffffffffffffffffffffffffff169060200190919080359060200190919080359060200190820180359060200191909192905050610c90565b005b341561064957600080fd5b610651610c97565b6040518082815260200191505060405180910390f35b341561067257600080fd5b610705600480803590602001908201803590602001908080601f0160208091040260200160405190810160405280939291908181526020018383808284378201915050505050509190803590602001908201803590602001908080601f01602080910402602001604051908101604052809392919081815260200183838082843782019150505050505091905050610cde565b604051808215151515815260200191505060405180910390f35b341561072a57600080fd5b610775600480803573ffffffffffffffffffffffffffffffffffffffff1690602001909190803573ffffffffffffffffffffffffffffffffffffffff16906020019091905050610eee565b604051808215151515815260200191505060405180910390f35b6000809050919050565b6107a16111d9565b6040805190810160405280600a81526020017f546f726920546f6b656e00000000000000000000000000000000000000000000815250905090565b6000339050919050565b803373ffffffffffffffffffffffffffffffffffffffff166007600083815260200190815260200160002060009054906101000a900473ffffffffffffffffffffffffffffffffffffffff1673ffffffffffffffffffffffffffffffffffffffff1614151561085457600080fd5b826009600084815260200190815260200160002060006101000a81548173ffffffffffffffffffffffffffffffffffffffff021916908373ffffffffffffffffffffffffffffffffffffffff1602179055508273ffffffffffffffffffffffffffffffffffffffff163373ffffffffffffffffffffffffffffffffffffffff167f8c5be1e5ebec7d5bd14f71427d1e84f3dd0314c0f7b2291e5b200ac8c7c3b925846040518082815260200191505060405180910390a3505050565b60008060008060006109206111ed565b60068781548110151561092f57fe5b906000526020600020906002020160806040519081016040529081600082015481526020016001820160009054906101000a900463ffffffff1663ffffffff1663ffffffff1681526020016001820160049054906101000a900463ffffffff1663ffffffff1663ffffffff1681526020016001820160089054906101000a900463ffffffff1663ffffffff1663ffffffff16815250509050868160000151826020015183604001518460600151955095509550955095505091939590929450565b803373ffffffffffffffffffffffffffffffffffffffff166007600083815260200190815260200160002060009054906101000a900473ffffffffffffffffffffffffffffffffffffffff1673ffffffffffffffffffffffffffffffffffffffff16141515610a5e57600080fd5b610a69848484610ef9565b50505050565b505050565b60006007600083815260200190815260200160002060009054906101000a900473ffffffffffffffffffffffffffffffffffffffff169050919050565b6000600860008373ffffffffffffffffffffffffffffffffffffffff1673ffffffffffffffffffffffffffffffffffffffff168152602001908152602001600020549050919050565b6000600680549050905090565b610b0f6111d9565b6040805190810160405280600481526020017f544f524900000000000000000000000000000000000000000000000000000000815250905090565b5050565b610b56611228565b6000610b60611228565b600080600860008773ffffffffffffffffffffffffffffffffffffffff1673ffffffffffffffffffffffffffffffffffffffff16815260200190815260200160002054935083604051805910610bb35750595b9080825280602002602001820160405250925060009150600090505b600680549050811015610c84578573ffffffffffffffffffffffffffffffffffffffff166007600083815260200190815260200160002060009054906101000a900473ffffffffffffffffffffffffffffffffffffffff1673ffffffffffffffffffffffffffffffffffffffff161415610c6957808383815181101515610c5257fe5b906020019060200201818152505081806001019250505b8382101515610c7757610c84565b8080600101915050610bcf565b82945050505050919050565b5050505050565b6000600860003373ffffffffffffffffffffffffffffffffffffffff1673ffffffffffffffffffffffffffffffffffffffff16815260200190815260200160002054905090565b6000610ce86111ed565b600080600860003373ffffffffffffffffffffffffffffffffffffffff1673ffffffffffffffffffffffffffffffffffffffff16815260200190815260200160002054141515610d3757600080fd5b610d42858533611051565b9150600160068054806001018281610d5a919061123c565b916000526020600020906002020160008590919091506000820151816000015560208201518160010160006101000a81548163ffffffff021916908363ffffffff16021790555060408201518160010160046101000a81548163ffffffff021916908363ffffffff16021790555060608201518160010160086101000a81548163ffffffff021916908363ffffffff1602179055505050039050336007600083815260200190815260200160002060006101000a81548173ffffffffffffffffffffffffffffffffffffffff021916908373ffffffffffffffffffffffffffffffffffffffff1602179055506001600860003373ffffffffffffffffffffffffffffffffffffffff1673ffffffffffffffffffffffffffffffffffffffff168152602001908152602001600020600082825401925050819055503373ffffffffffffffffffffffffffffffffffffffff167f163090350da897fd03497e870bbe993a1948b39328cd37a8fe6b9179e120dd27826040518082815260200191505060405180910390a260019250505092915050565b600080905092915050565b6001600860008473ffffffffffffffffffffffffffffffffffffffff1673ffffffffffffffffffffffffffffffffffffffff168152602001908152602001600020600082825401925050819055506001600860003373ffffffffffffffffffffffffffffffffffffffff1673ffffffffffffffffffffffffffffffffffffffff16815260200190815260200160002060008282540392505081905550816007600083815260200190815260200160002060006101000a81548173ffffffffffffffffffffffffffffffffffffffff021916908373ffffffffffffffffffffffffffffffffffffffff1602179055508173ffffffffffffffffffffffffffffffffffffffff168373ffffffffffffffffffffffffffffffffffffffff167fddf252ad1be2c89b69c2b068fc378daa952ba7f163c4a11628f55a4df523b3ef836040518082815260200191505060405180910390a3505050565b6110596111ed565b60008060008042868989604051808581526020018473ffffffffffffffffffffffffffffffffffffffff1673ffffffffffffffffffffffffffffffffffffffff166c0100000000000000000000000002815260140183805190602001908083835b6020831015156110df57805182526020820191506020810190506020830392506110ba565b6001836020036101000a03801982511681845116808217855250505050505090500182805190602001908083835b602083101515611132578051825260208201915060208101905060208303925061110d565b6001836020036101000a03801982511681845116808217855250505050505090500194505050505060405180910390206001900493506003548481151561117557fe5b0692506004548481151561118557fe5b0691506005548481151561119557fe5b0690506080604051908101604052808481526020018363ffffffff1681526020018263ffffffff1681526020014263ffffffff168152509450505050509392505050565b602060405190810160405280600081525090565b60806040519081016040528060008152602001600063ffffffff168152602001600063ffffffff168152602001600063ffffffff1681525090565b602060405190810160405280600081525090565b81548183558181151161126957600202816002028360005260206000209182019101611268919061126e565b5b505050565b6112d791905b808211156112d3576000808201600090556001820160006101000a81549063ffffffff02191690556001820160046101000a81549063ffffffff02191690556001820160086101000a81549063ffffffff021916905550600201611274565b5090565b905600a165627a7a723058203da26bf916530aa8c8aea279ef1d69d36361174ead50ced51b6fe3a30254af710029",
  "source": "pragma solidity ^0.4.21;\n\nimport './ToriToken.sol';\nimport './ERC721.sol';\n/* import 'openzeppelin-solidity/contracts/token/ERC721/ERC721.sol'; */\n\ncontract ToriOwnership is ToriToken, ERC721 {\n  /*\n  ERC721 compliant functions\n  */\n  mapping (uint => address) toriApprovals;\n\n  modifier onlyOwnerOf(uint256 _tokenId) {\n    require(toriIndexToAddr[_tokenId] == msg.sender);\n    _;\n  }\n\n  function name() public view returns (string _name) {\n    return \"Tori Token\";\n  }\n\n  function symbol() public view returns (string _symbol) {\n    return \"TORI\";\n  }\n\n  function balanceOf(address _owner) external view returns (uint256 _balance) {\n    return addrToToriCount[_owner];\n  }\n\n  function ownerOf(uint256 _tokenId) external view returns (address _owner) {\n    return toriIndexToAddr[_tokenId];\n  }\n\n  function safeTransferFrom(address _from, address _to, uint256 _tokenId, bytes data) external payable {\n    // TODO:\n  }\n\n  function safeTransferFrom(address _from, address _to, uint256 _tokenId) external payable {\n    // TODO:\n  }\n\n\n  function _transfer(address _from, address _to, uint256 _tokenId) private {\n    // Modify the counts.\n    addrToToriCount[_to] += 1;\n    addrToToriCount[msg.sender] -= 1;\n\n    toriIndexToAddr[_tokenId] = _to;\n    emit Transfer(_from, _to, _tokenId);\n  }\n\n  function transferFrom(address _from, address _to, uint256 _tokenId) external payable onlyOwnerOf(_tokenId) {\n    _transfer(_from, _to, _tokenId);\n  }\n\n  function approve(address _to, uint256 _tokenId) external payable onlyOwnerOf(_tokenId) {\n    toriApprovals[_tokenId] = _to;\n    emit Approval(msg.sender, _to, _tokenId);\n  }\n\n  function setApprovalForAll(address _operator, bool _approved) external {\n    // TODO\n  }\n\n  function getApproved(uint256 _tokenId) external view returns (address) {\n    // TODO\n    return msg.sender;\n  }\n\n  function isApprovedForAll(address _owner, address _operator) external view returns (bool) {\n    // TODO\n    return false;\n  }\n\n\n  function supportsInterface(bytes4 interfaceID) external view returns (bool) {\n    // TODO\n    return false;\n  }\n}\n",
  "sourcePath": "/Users/Cindy/Desktop/cs359b/cs359b-cribtori/contracts/ToriOwnership.sol",
  "compiler": {
    "name": "solc",
    "version": "0.4.21+commit.dfe3193c.Emscripten.clang"
  },
  "schemaVersion": "2.0.0",
  "updatedAt": "2018-04-29T21:13:46.662Z"
}