{
  "contractName": "ToriAccessoriesOwnership",
  "abi": [
    {
      "constant": true,
      "inputs": [],
      "name": "getTokenCount",
      "outputs": [
        {
          "name": "accCount",
          "type": "uint256"
        }
      ],
      "payable": false,
      "stateMutability": "view",
      "type": "function"
    },
    {
      "constant": true,
      "inputs": [
        {
          "name": "_owner",
          "type": "address"
        }
      ],
      "name": "getTokenIndexes",
      "outputs": [
        {
          "name": "",
          "type": "uint256[]"
        }
      ],
      "payable": false,
      "stateMutability": "view",
      "type": "function"
    },
    {
      "constant": true,
      "inputs": [
        {
          "name": "_accId",
          "type": "uint256"
        }
      ],
      "name": "getTokenInfo",
      "outputs": [
        {
          "name": "accId",
          "type": "uint256"
        },
        {
          "name": "variety",
          "type": "uint256"
        },
        {
          "name": "rarity",
          "type": "uint256"
        },
        {
          "name": "space",
          "type": "uint32"
        },
        {
          "name": "postingPrice",
          "type": "uint256"
        }
      ],
      "payable": false,
      "stateMutability": "view",
      "type": "function"
    },
    {
      "constant": true,
      "inputs": [],
      "name": "getAllTokensCount",
      "outputs": [
        {
          "name": "",
          "type": "uint256"
        }
      ],
      "payable": false,
      "stateMutability": "view",
      "type": "function"
    },
    {
      "constant": false,
      "inputs": [
        {
          "name": "_quiz",
          "type": "string"
        }
      ],
      "name": "generateNewAccessories",
      "outputs": [
        {
          "name": "success",
          "type": "bool"
        }
      ],
      "payable": false,
      "stateMutability": "nonpayable",
      "type": "function"
    },
    {
      "anonymous": false,
      "inputs": [
        {
          "indexed": true,
          "name": "_from",
          "type": "address"
        },
        {
          "indexed": true,
          "name": "_to",
          "type": "address"
        },
        {
          "indexed": false,
          "name": "_tokenId",
          "type": "uint256"
        }
      ],
      "name": "Transfer",
      "type": "event"
    },
    {
      "anonymous": false,
      "inputs": [
        {
          "indexed": true,
          "name": "_owner",
          "type": "address"
        },
        {
          "indexed": true,
          "name": "_approved",
          "type": "address"
        },
        {
          "indexed": false,
          "name": "_tokenId",
          "type": "uint256"
        }
      ],
      "name": "Approval",
      "type": "event"
    },
    {
      "anonymous": false,
      "inputs": [
        {
          "indexed": true,
          "name": "_owner",
          "type": "address"
        },
        {
          "indexed": true,
          "name": "_operator",
          "type": "address"
        },
        {
          "indexed": false,
          "name": "_approved",
          "type": "bool"
        }
      ],
      "name": "ApprovalForAll",
      "type": "event"
    },
    {
      "anonymous": false,
      "inputs": [
        {
          "indexed": true,
          "name": "_address",
          "type": "address"
        },
        {
          "indexed": false,
          "name": "accIdx",
          "type": "uint256"
        }
      ],
      "name": "NewAccessories",
      "type": "event"
    },
    {
      "constant": true,
      "inputs": [],
      "name": "name",
      "outputs": [
        {
          "name": "_name",
          "type": "string"
        }
      ],
      "payable": false,
      "stateMutability": "view",
      "type": "function"
    },
    {
      "constant": true,
      "inputs": [],
      "name": "symbol",
      "outputs": [
        {
          "name": "_symbol",
          "type": "string"
        }
      ],
      "payable": false,
      "stateMutability": "view",
      "type": "function"
    },
    {
      "constant": true,
      "inputs": [
        {
          "name": "_owner",
          "type": "address"
        }
      ],
      "name": "balanceOf",
      "outputs": [
        {
          "name": "_balance",
          "type": "uint256"
        }
      ],
      "payable": false,
      "stateMutability": "view",
      "type": "function"
    },
    {
      "constant": true,
      "inputs": [
        {
          "name": "_tokenId",
          "type": "uint256"
        }
      ],
      "name": "ownerOf",
      "outputs": [
        {
          "name": "_owner",
          "type": "address"
        }
      ],
      "payable": false,
      "stateMutability": "view",
      "type": "function"
    },
    {
      "constant": false,
      "inputs": [
        {
          "name": "_from",
          "type": "address"
        },
        {
          "name": "_to",
          "type": "address"
        },
        {
          "name": "_tokenId",
          "type": "uint256"
        }
      ],
      "name": "safeTransferFrom",
      "outputs": [],
      "payable": true,
      "stateMutability": "payable",
      "type": "function"
    },
    {
      "constant": false,
      "inputs": [
        {
          "name": "_from",
          "type": "address"
        },
        {
          "name": "_to",
          "type": "address"
        },
        {
          "name": "_tokenId",
          "type": "uint256"
        },
        {
          "name": "data",
          "type": "bytes"
        }
      ],
      "name": "safeTransferFrom",
      "outputs": [],
      "payable": true,
      "stateMutability": "payable",
      "type": "function"
    },
    {
      "constant": false,
      "inputs": [
        {
          "name": "_from",
          "type": "address"
        },
        {
          "name": "_to",
          "type": "address"
        },
        {
          "name": "_tokenId",
          "type": "uint256"
        }
      ],
      "name": "transferFrom",
      "outputs": [],
      "payable": true,
      "stateMutability": "payable",
      "type": "function"
    },
    {
      "constant": false,
      "inputs": [
        {
          "name": "_to",
          "type": "address"
        },
        {
          "name": "_tokenId",
          "type": "uint256"
        }
      ],
      "name": "approve",
      "outputs": [],
      "payable": true,
      "stateMutability": "payable",
      "type": "function"
    },
    {
      "constant": false,
      "inputs": [
        {
          "name": "_operator",
          "type": "address"
        },
        {
          "name": "_approved",
          "type": "bool"
        }
      ],
      "name": "setApprovalForAll",
      "outputs": [],
      "payable": false,
      "stateMutability": "nonpayable",
      "type": "function"
    },
    {
      "constant": true,
      "inputs": [
        {
          "name": "_tokenId",
          "type": "uint256"
        }
      ],
      "name": "getApproved",
      "outputs": [
        {
          "name": "",
          "type": "address"
        }
      ],
      "payable": false,
      "stateMutability": "view",
      "type": "function"
    },
    {
      "constant": true,
      "inputs": [
        {
          "name": "_owner",
          "type": "address"
        },
        {
          "name": "_operator",
          "type": "address"
        }
      ],
      "name": "isApprovedForAll",
      "outputs": [
        {
          "name": "",
          "type": "bool"
        }
      ],
      "payable": false,
      "stateMutability": "view",
      "type": "function"
    },
    {
      "constant": true,
      "inputs": [
        {
          "name": "interfaceID",
          "type": "bytes4"
        }
      ],
      "name": "supportsInterface",
      "outputs": [
        {
          "name": "",
          "type": "bool"
        }
      ],
      "payable": false,
      "stateMutability": "view",
      "type": "function"
    },
    {
      "constant": false,
      "inputs": [
        {
          "name": "_tokenId",
          "type": "uint256"
        },
        {
          "name": "_salePrice",
          "type": "uint256"
        }
      ],
      "name": "approveForSale",
      "outputs": [],
      "payable": true,
      "stateMutability": "payable",
      "type": "function"
    },
    {
      "constant": false,
      "inputs": [
        {
          "name": "_tokenId",
          "type": "uint256"
        }
      ],
      "name": "removeForSale",
      "outputs": [],
      "payable": true,
      "stateMutability": "payable",
      "type": "function"
    },
    {
      "constant": false,
      "inputs": [
        {
          "name": "_tokenId",
          "type": "uint256"
        }
      ],
      "name": "buyForSale",
      "outputs": [],
      "payable": true,
      "stateMutability": "payable",
      "type": "function"
    },
    {
      "constant": true,
      "inputs": [],
      "name": "retrieveAllForSales",
      "outputs": [
        {
          "name": "",
          "type": "uint256[]"
        }
      ],
      "payable": false,
      "stateMutability": "view",
      "type": "function"
    }
  ],
  "bytecode": "0x6060604052600a60005560026001556001600255600054600a0a600355600154600a0a600455600254600a0a6005556000806200003b62000366565b600060039350600092505b83831015620001f957620000a46040805190810160405280600681526020017f73616d706c650000000000000000000000000000000000000000000000000000815250336200023364010000000002620013f8176401000000009004565b9150600160068054806001018281620000be91906200039a565b9160005260206000209001600085909190915060008201518160000160006101000a81548163ffffffff021916908363ffffffff16021790555060208201518160000160046101000a81548163ffffffff021916908363ffffffff16021790555060408201518160000160086101000a81548163ffffffff021916908363ffffffff1602179055505050039050336007600083815260200190815260200160002060006101000a81548173ffffffffffffffffffffffffffffffffffffffff021916908373ffffffffffffffffffffffffffffffffffffffff1602179055506001600860003373ffffffffffffffffffffffffffffffffffffffff1673ffffffffffffffffffffffffffffffffffffffff16815260200190815260200160002060008282540192505081905550828060010193505062000046565b66082bd67afbc00060096000808152602001908152602001600020819055506001600a600082825401925050819055505050505062000430565b6200023d62000366565b600080600080428688604051808481526020018373ffffffffffffffffffffffffffffffffffffffff1673ffffffffffffffffffffffffffffffffffffffff166c0100000000000000000000000002815260140182805190602001908083835b602083101515620002c457805182526020820191506020810190506020830392506200029d565b6001836020036101000a03801982511681845116808217855250505050505090500193505050506040518091039020600190049350600354848115156200030757fe5b069250600454848115156200031857fe5b069150600554848115156200032957fe5b0690506060604051908101604052808463ffffffff1681526020018363ffffffff1681526020018263ffffffff1681525094505050505092915050565b606060405190810160405280600063ffffffff168152602001600063ffffffff168152602001600063ffffffff1681525090565b815481835581811511620003c457818360005260206000209182019101620003c39190620003c9565b5b505050565b6200042d91905b808211156200042957600080820160006101000a81549063ffffffff02191690556000820160046101000a81549063ffffffff02191690556000820160086101000a81549063ffffffff021916905550600101620003d0565b5090565b90565b61163c80620004406000396000f30060606040526004361061011d576000357c0100000000000000000000000000000000000000000000000000000000900463ffffffff16806301ffc9a71461012257806306fdde031461017c578063081812fc1461020a578063095ea7b31461026d578063120e22e4146102a457806323b872dd146102c557806342842e0e1461031b5780636352211e146103715780636b8667f5146103d457806370a08231146103ec57806378a895671461043957806380507b57146104625780638c7a63ae146104f0578063933b54541461054f57806395d89b4114610578578063a22cb46514610606578063b438314f1461064a578063b88d4fde14610662578063be928c92146106cc578063e985e9c514610736578063f355d5fb146107a6575b600080fd5b341561012d57600080fd5b61016260048080357bffffffffffffffffffffffffffffffffffffffffffffffffffffffff191690602001909190505061081b565b604051808215151515815260200191505060405180910390f35b341561018757600080fd5b61018f610825565b6040518080602001828103825283818151815260200191508051906020019080838360005b838110156101cf5780820151818401526020810190506101b4565b50505050905090810190601f1680156101fc5780820380516001836020036101000a031916815260200191505b509250505060405180910390f35b341561021557600080fd5b61022b6004808035906020019091905050610868565b604051808273ffffffffffffffffffffffffffffffffffffffff1673ffffffffffffffffffffffffffffffffffffffff16815260200191505060405180910390f35b6102a2600480803573ffffffffffffffffffffffffffffffffffffffff16906020019091908035906020019091905050610872565b005b6102c3600480803590602001909190803590602001909190505061099c565b005b610319600480803573ffffffffffffffffffffffffffffffffffffffff1690602001909190803573ffffffffffffffffffffffffffffffffffffffff16906020019091908035906020019091905050610a66565b005b61036f600480803573ffffffffffffffffffffffffffffffffffffffff1690602001909190803573ffffffffffffffffffffffffffffffffffffffff16906020019091908035906020019091905050610ae5565b005b341561037c57600080fd5b6103926004808035906020019091905050610aea565b604051808273ffffffffffffffffffffffffffffffffffffffff1673ffffffffffffffffffffffffffffffffffffffff16815260200191505060405180910390f35b6103ea6004808035906020019091905050610b27565b005b34156103f757600080fd5b610423600480803573ffffffffffffffffffffffffffffffffffffffff16906020019091905050610be3565b6040518082815260200191505060405180910390f35b341561044457600080fd5b61044c610c2c565b6040518082815260200191505060405180910390f35b341561046d57600080fd5b610499600480803573ffffffffffffffffffffffffffffffffffffffff16906020019091905050610c73565b6040518080602001828103825283818151815260200191508051906020019060200280838360005b838110156104dc5780820151818401526020810190506104c1565b505050509050019250505060405180910390f35b34156104fb57600080fd5b6105116004808035906020019091905050610db5565b604051808681526020018581526020018481526020018363ffffffff1663ffffffff1681526020018281526020019550505050505060405180910390f35b341561055a57600080fd5b610562610ea9565b6040518082815260200191505060405180910390f35b341561058357600080fd5b61058b610eb6565b6040518080602001828103825283818151815260200191508051906020019080838360005b838110156105cb5780820151818401526020810190506105b0565b50505050905090810190601f1680156105f85780820380516001836020036101000a031916815260200191505b509250505060405180910390f35b341561061157600080fd5b610648600480803573ffffffffffffffffffffffffffffffffffffffff169060200190919080351515906020019091905050610ef9565b005b6106606004808035906020019091905050610efd565b005b6106ca600480803573ffffffffffffffffffffffffffffffffffffffff1690602001909190803573ffffffffffffffffffffffffffffffffffffffff169060200190919080359060200190919080359060200190820180359060200191909192905050610feb565b005b34156106d757600080fd5b6106df610ff2565b6040518080602001828103825283818151815260200191508051906020019060200280838360005b83811015610722578082015181840152602081019050610707565b505050509050019250505060405180910390f35b341561074157600080fd5b61078c600480803573ffffffffffffffffffffffffffffffffffffffff1690602001909190803573ffffffffffffffffffffffffffffffffffffffff16906020019091905050611094565b604051808215151515815260200191505060405180910390f35b34156107b157600080fd5b610801600480803590602001908201803590602001908080601f0160208091040260200160405190810160405280939291908181526020018383808284378201915050505050509190505061109f565b604051808215151515815260200191505060405180910390f35b6000809050919050565b61082d611524565b6040805190810160405280600e81526020017f546f726941636365736f72696573000000000000000000000000000000000000815250905090565b6000339050919050565b803373ffffffffffffffffffffffffffffffffffffffff166007600083815260200190815260200160002060009054906101000a900473ffffffffffffffffffffffffffffffffffffffff1673ffffffffffffffffffffffffffffffffffffffff161415156108e057600080fd5b82600b600084815260200190815260200160002060006101000a81548173ffffffffffffffffffffffffffffffffffffffff021916908373ffffffffffffffffffffffffffffffffffffffff1602179055508273ffffffffffffffffffffffffffffffffffffffff163373ffffffffffffffffffffffffffffffffffffffff167f8c5be1e5ebec7d5bd14f71427d1e84f3dd0314c0f7b2291e5b200ac8c7c3b925846040518082815260200191505060405180910390a3505050565b813373ffffffffffffffffffffffffffffffffffffffff166007600083815260200190815260200160002060009054906101000a900473ffffffffffffffffffffffffffffffffffffffff1673ffffffffffffffffffffffffffffffffffffffff16141515610a0a57600080fd5b60006009600085815260200190815260200160002054148015610a2d5750600082115b1515610a3857600080fd5b8160096000858152602001908152602001600020819055506001600a60008282540192505081905550505050565b803373ffffffffffffffffffffffffffffffffffffffff166007600083815260200190815260200160002060009054906101000a900473ffffffffffffffffffffffffffffffffffffffff1673ffffffffffffffffffffffffffffffffffffffff16141515610ad457600080fd5b610adf8484846112a0565b50505050565b505050565b60006007600083815260200190815260200160002060009054906101000a900473ffffffffffffffffffffffffffffffffffffffff169050919050565b803373ffffffffffffffffffffffffffffffffffffffff166007600083815260200190815260200160002060009054906101000a900473ffffffffffffffffffffffffffffffffffffffff1673ffffffffffffffffffffffffffffffffffffffff16141515610b9557600080fd5b60006009600084815260200190815260200160002054111515610bb757600080fd5b60096000838152602001908152602001600020600090556001600a600082825403925050819055505050565b6000600860008373ffffffffffffffffffffffffffffffffffffffff1673ffffffffffffffffffffffffffffffffffffffff168152602001908152602001600020549050919050565b6000600860003373ffffffffffffffffffffffffffffffffffffffff1673ffffffffffffffffffffffffffffffffffffffff16815260200190815260200160002054905090565b610c7b611538565b6000610c85611538565b600080600860008773ffffffffffffffffffffffffffffffffffffffff1673ffffffffffffffffffffffffffffffffffffffff16815260200190815260200160002054935083604051805910610cd85750595b9080825280602002602001820160405250925060009150600090505b600680549050811015610da9578573ffffffffffffffffffffffffffffffffffffffff166007600083815260200190815260200160002060009054906101000a900473ffffffffffffffffffffffffffffffffffffffff1673ffffffffffffffffffffffffffffffffffffffff161415610d8e57808383815181101515610d7757fe5b906020019060200201818152505081806001019250505b8382101515610d9c57610da9565b8080600101915050610cf4565b82945050505050919050565b6000806000806000610dc561154c565b600687815481101515610dd457fe5b9060005260206000209001606060405190810160405290816000820160009054906101000a900463ffffffff1663ffffffff1663ffffffff1681526020016000820160049054906101000a900463ffffffff1663ffffffff1663ffffffff1681526020016000820160089054906101000a900463ffffffff1663ffffffff1663ffffffff1681525050905086816000015182602001518360400151600960008c8152602001908152602001600020548363ffffffff1693508263ffffffff169250955095509550955095505091939590929450565b6000600680549050905090565b610ebe611524565b6040805190810160405280600781526020017f544f524941434300000000000000000000000000000000000000000000000000815250905090565b5050565b6000806009600084815260200190815260200160002054118015610f335750600960008381526020019081526020016000205434145b1515610f3e57600080fd5b6007600083815260200190815260200160002060009054906101000a900473ffffffffffffffffffffffffffffffffffffffff169050610f7f8133846112a0565b8073ffffffffffffffffffffffffffffffffffffffff166108fc349081150290604051600060405180830381858888f193505050501515610fbf57600080fd5b60096000838152602001908152602001600020600090556001600a600082825403925050819055505050565b5050505050565b610ffa611538565b611002611538565b600080600a546040518059106110155750595b9080825280602002602001820160405250925060009150600090505b60068054905081101561108b5760006009600083815260200190815260200160002054111561107e5780838381518110151561106957fe5b90602001906020020181815250506001820191505b8080600101915050611031565b82935050505090565b600080905092915050565b60006110a961154c565b600080600860003373ffffffffffffffffffffffffffffffffffffffff1673ffffffffffffffffffffffffffffffffffffffff168152602001908152602001600020541415156110f857600080fd5b61110284336113f8565b915060016006805480600101828161111a9190611580565b9160005260206000209001600085909190915060008201518160000160006101000a81548163ffffffff021916908363ffffffff16021790555060208201518160000160046101000a81548163ffffffff021916908363ffffffff16021790555060408201518160000160086101000a81548163ffffffff021916908363ffffffff1602179055505050039050336007600083815260200190815260200160002060006101000a81548173ffffffffffffffffffffffffffffffffffffffff021916908373ffffffffffffffffffffffffffffffffffffffff1602179055506001600860003373ffffffffffffffffffffffffffffffffffffffff1673ffffffffffffffffffffffffffffffffffffffff168152602001908152602001600020600082825401925050819055503373ffffffffffffffffffffffffffffffffffffffff167f9fb9d1121de8785167f7aa354b56593da21280049ad43c4e569f6791762a2233826040518082815260200191505060405180910390a2600192505050919050565b6001600860008473ffffffffffffffffffffffffffffffffffffffff1673ffffffffffffffffffffffffffffffffffffffff168152602001908152602001600020600082825401925050819055506001600860003373ffffffffffffffffffffffffffffffffffffffff1673ffffffffffffffffffffffffffffffffffffffff16815260200190815260200160002060008282540392505081905550816007600083815260200190815260200160002060006101000a81548173ffffffffffffffffffffffffffffffffffffffff021916908373ffffffffffffffffffffffffffffffffffffffff1602179055508173ffffffffffffffffffffffffffffffffffffffff168373ffffffffffffffffffffffffffffffffffffffff167fddf252ad1be2c89b69c2b068fc378daa952ba7f163c4a11628f55a4df523b3ef836040518082815260200191505060405180910390a3505050565b61140061154c565b600080600080428688604051808481526020018373ffffffffffffffffffffffffffffffffffffffff1673ffffffffffffffffffffffffffffffffffffffff166c0100000000000000000000000002815260140182805190602001908083835b6020831015156114855780518252602082019150602081019050602083039250611460565b6001836020036101000a03801982511681845116808217855250505050505090500193505050506040518091039020600190049350600354848115156114c757fe5b069250600454848115156114d757fe5b069150600554848115156114e757fe5b0690506060604051908101604052808463ffffffff1681526020018363ffffffff1681526020018263ffffffff1681525094505050505092915050565b602060405190810160405280600081525090565b602060405190810160405280600081525090565b606060405190810160405280600063ffffffff168152602001600063ffffffff168152602001600063ffffffff1681525090565b8154818355818115116115a7578183600052602060002091820191016115a691906115ac565b5b505050565b61160d91905b8082111561160957600080820160006101000a81549063ffffffff02191690556000820160046101000a81549063ffffffff02191690556000820160086101000a81549063ffffffff0219169055506001016115b2565b5090565b905600a165627a7a723058201dbc395e14a39f7faeef8262eba02c85b9c6b49a5a8f9570f9c7feed241542fe0029",
  "source": "pragma solidity ^0.4.21;\n\nimport './ToriAccessories.sol';\nimport './ERC721.sol';\n/* import 'openzeppelin-solidity/contracts/token/ERC721/ERC721.sol'; */\n\ncontract ToriAccessoriesOwnership is ToriAccessories, ERC721 {\n  /*\n  ERC721 compliant functions\n  */\n  mapping (uint => address) accessoriesApprovals;\n\n  modifier onlyOwnerOf(uint256 _tokenId) {\n    require(accIndexToAddr[_tokenId] == msg.sender);\n    _;\n  }\n\n  function name() public view returns (string _name) {\n    return \"ToriAccesories\";\n  }\n\n  function symbol() public view returns (string _symbol) {\n    return \"TORIACC\";\n  }\n\n  function balanceOf(address _owner) external view returns (uint256 _balance) {\n    return addrToAccCount[_owner];\n  }\n\n  function ownerOf(uint256 _tokenId) external view returns (address _owner) {\n    return accIndexToAddr[_tokenId];\n  }\n\n  function safeTransferFrom(address _from, address _to, uint256 _tokenId, bytes data) external payable {\n    // TODO:\n  }\n\n  function safeTransferFrom(address _from, address _to, uint256 _tokenId) external payable {\n    // TODO:\n  }\n\n\n  function _transfer(address _from, address _to, uint256 _tokenId) private {\n    // Modify the counts.\n    addrToAccCount[_to] += 1;\n    addrToAccCount[msg.sender] -= 1;\n\n    accIndexToAddr[_tokenId] = _to;\n    emit Transfer(_from, _to, _tokenId);\n  }\n\n  function transferFrom(address _from, address _to, uint256 _tokenId) external payable onlyOwnerOf(_tokenId) {\n    _transfer(_from, _to, _tokenId);\n  }\n\n  function approve(address _to, uint256 _tokenId) external payable onlyOwnerOf(_tokenId) {\n    accessoriesApprovals[_tokenId] = _to;\n    emit Approval(msg.sender, _to, _tokenId);\n  }\n\n  function setApprovalForAll(address _operator, bool _approved) external {\n    // TODO\n  }\n\n  function getApproved(uint256 _tokenId) external view returns (address) {\n    // TODO\n    return msg.sender;\n  }\n\n  function isApprovedForAll(address _owner, address _operator) external view returns (bool) {\n    // TODO\n    return false;\n  }\n\n  function supportsInterface(bytes4 interfaceID) external view returns (bool) {\n    // TODO\n    return false;\n  }\n\n\n  // TODO: make this into an interface.\n  // TODO: add functionality for users to change the sale price.\n  function approveForSale(uint256 _tokenId, uint256 _salePrice) external payable onlyOwnerOf(_tokenId) {\n    require((accessoriesSale[_tokenId] == 0) && (_salePrice > 0));\n    accessoriesSale[_tokenId] = _salePrice;\n    accessoriesSaleCount += 1;\n    // TODO: emit event here.\n  }\n\n  function removeForSale(uint256 _tokenId) external payable onlyOwnerOf(_tokenId) {\n    require(accessoriesSale[_tokenId] > 0);\n    delete accessoriesSale[_tokenId];\n    accessoriesSaleCount -= 1;\n    // TODO: emit event here.\n  }\n\n  function buyForSale(uint256 _tokenId) external payable {\n    require((accessoriesSale[_tokenId] > 0) && (msg.value == accessoriesSale[_tokenId]));\n    address _from = accIndexToAddr[_tokenId];\n    _transfer(_from, msg.sender, _tokenId);\n    // Send the ether.\n    _from.transfer(msg.value);\n    // Delete sale entry.\n    delete accessoriesSale[_tokenId];\n    accessoriesSaleCount -= 1;\n    // TODO: emit event here.\n  }\n\n  function retrieveAllForSales() public view returns (uint[]) {\n    uint[] memory result = new uint[](accessoriesSaleCount);\n    uint idx = 0;\n    for (uint i = 0; i < accessories.length; i++) {\n      if (accessoriesSale[i] > 0) {\n        result[idx] = i;\n        idx += 1;\n      }\n    }\n    return result;\n  }\n}\n",
  "sourcePath": "/Users/Cindy/Desktop/cs359b/cs359b-cribtori/contracts/ToriAccessoriesOwnership.sol",
  "compiler": {
    "name": "solc",
    "version": "0.4.21+commit.dfe3193c.Emscripten.clang"
  },
  "schemaVersion": "2.0.0",
  "updatedAt": "2018-05-02T22:02:35.107Z"
}