{
  "contractName": "ToriToken",
  "abi": [
    {
      "constant": true,
      "inputs": [
        {
          "name": "_tokenId",
          "type": "uint256"
        }
      ],
      "name": "getApproved",
      "outputs": [
        {
          "name": "",
          "type": "address"
        }
      ],
      "payable": false,
      "stateMutability": "view",
      "type": "function"
    },
    {
      "constant": false,
      "inputs": [
        {
          "name": "_to",
          "type": "address"
        },
        {
          "name": "_tokenId",
          "type": "uint256"
        }
      ],
      "name": "approve",
      "outputs": [],
      "payable": false,
      "stateMutability": "nonpayable",
      "type": "function"
    },
    {
      "constant": false,
      "inputs": [
        {
          "name": "_from",
          "type": "address"
        },
        {
          "name": "_to",
          "type": "address"
        },
        {
          "name": "_tokenId",
          "type": "uint256"
        }
      ],
      "name": "transferFrom",
      "outputs": [],
      "payable": false,
      "stateMutability": "nonpayable",
      "type": "function"
    },
    {
      "constant": false,
      "inputs": [
        {
          "name": "addrs",
          "type": "address[]"
        }
      ],
      "name": "removeAddressesFromWhitelist",
      "outputs": [
        {
          "name": "success",
          "type": "bool"
        }
      ],
      "payable": false,
      "stateMutability": "nonpayable",
      "type": "function"
    },
    {
      "constant": false,
      "inputs": [
        {
          "name": "addr",
          "type": "address"
        }
      ],
      "name": "removeAddressFromWhitelist",
      "outputs": [
        {
          "name": "success",
          "type": "bool"
        }
      ],
      "payable": false,
      "stateMutability": "nonpayable",
      "type": "function"
    },
    {
      "constant": false,
      "inputs": [
        {
          "name": "_from",
          "type": "address"
        },
        {
          "name": "_to",
          "type": "address"
        },
        {
          "name": "_tokenId",
          "type": "uint256"
        }
      ],
      "name": "safeTransferFrom",
      "outputs": [],
      "payable": false,
      "stateMutability": "nonpayable",
      "type": "function"
    },
    {
      "constant": true,
      "inputs": [
        {
          "name": "_tokenId",
          "type": "uint256"
        }
      ],
      "name": "exists",
      "outputs": [
        {
          "name": "",
          "type": "bool"
        }
      ],
      "payable": false,
      "stateMutability": "view",
      "type": "function"
    },
    {
      "constant": true,
      "inputs": [
        {
          "name": "_tokenId",
          "type": "uint256"
        }
      ],
      "name": "ownerOf",
      "outputs": [
        {
          "name": "",
          "type": "address"
        }
      ],
      "payable": false,
      "stateMutability": "view",
      "type": "function"
    },
    {
      "constant": true,
      "inputs": [
        {
          "name": "_owner",
          "type": "address"
        }
      ],
      "name": "balanceOf",
      "outputs": [
        {
          "name": "",
          "type": "uint256"
        }
      ],
      "payable": false,
      "stateMutability": "view",
      "type": "function"
    },
    {
      "constant": false,
      "inputs": [
        {
          "name": "addr",
          "type": "address"
        }
      ],
      "name": "addAddressToWhitelist",
      "outputs": [
        {
          "name": "success",
          "type": "bool"
        }
      ],
      "payable": false,
      "stateMutability": "nonpayable",
      "type": "function"
    },
    {
      "constant": true,
      "inputs": [],
      "name": "owner",
      "outputs": [
        {
          "name": "",
          "type": "address"
        }
      ],
      "payable": false,
      "stateMutability": "view",
      "type": "function"
    },
    {
      "constant": true,
      "inputs": [
        {
          "name": "",
          "type": "address"
        }
      ],
      "name": "whitelist",
      "outputs": [
        {
          "name": "",
          "type": "bool"
        }
      ],
      "payable": false,
      "stateMutability": "view",
      "type": "function"
    },
    {
      "constant": false,
      "inputs": [
        {
          "name": "_to",
          "type": "address"
        },
        {
          "name": "_approved",
          "type": "bool"
        }
      ],
      "name": "setApprovalForAll",
      "outputs": [],
      "payable": false,
      "stateMutability": "nonpayable",
      "type": "function"
    },
    {
      "constant": false,
      "inputs": [
        {
          "name": "_from",
          "type": "address"
        },
        {
          "name": "_to",
          "type": "address"
        },
        {
          "name": "_tokenId",
          "type": "uint256"
        },
        {
          "name": "_data",
          "type": "bytes"
        }
      ],
      "name": "safeTransferFrom",
      "outputs": [],
      "payable": false,
      "stateMutability": "nonpayable",
      "type": "function"
    },
    {
      "constant": false,
      "inputs": [
        {
          "name": "addrs",
          "type": "address[]"
        }
      ],
      "name": "addAddressesToWhitelist",
      "outputs": [
        {
          "name": "success",
          "type": "bool"
        }
      ],
      "payable": false,
      "stateMutability": "nonpayable",
      "type": "function"
    },
    {
      "constant": true,
      "inputs": [
        {
          "name": "_owner",
          "type": "address"
        },
        {
          "name": "_operator",
          "type": "address"
        }
      ],
      "name": "isApprovedForAll",
      "outputs": [
        {
          "name": "",
          "type": "bool"
        }
      ],
      "payable": false,
      "stateMutability": "view",
      "type": "function"
    },
    {
      "constant": false,
      "inputs": [
        {
          "name": "newOwner",
          "type": "address"
        }
      ],
      "name": "transferOwnership",
      "outputs": [],
      "payable": false,
      "stateMutability": "nonpayable",
      "type": "function"
    },
    {
      "inputs": [],
      "payable": false,
      "stateMutability": "nonpayable",
      "type": "constructor"
    },
    {
      "anonymous": false,
      "inputs": [
        {
          "indexed": true,
          "name": "_address",
          "type": "address"
        },
        {
          "indexed": false,
          "name": "toriIdx",
          "type": "uint256"
        }
      ],
      "name": "NewTori",
      "type": "event"
    },
    {
      "anonymous": false,
      "inputs": [
        {
          "indexed": true,
          "name": "_from",
          "type": "address"
        },
        {
          "indexed": true,
          "name": "_to",
          "type": "address"
        },
        {
          "indexed": false,
          "name": "_tokenId",
          "type": "uint256"
        }
      ],
      "name": "Transfer",
      "type": "event"
    },
    {
      "anonymous": false,
      "inputs": [
        {
          "indexed": true,
          "name": "_owner",
          "type": "address"
        },
        {
          "indexed": true,
          "name": "_approved",
          "type": "address"
        },
        {
          "indexed": false,
          "name": "_tokenId",
          "type": "uint256"
        }
      ],
      "name": "Approval",
      "type": "event"
    },
    {
      "anonymous": false,
      "inputs": [
        {
          "indexed": true,
          "name": "_owner",
          "type": "address"
        },
        {
          "indexed": true,
          "name": "_operator",
          "type": "address"
        },
        {
          "indexed": false,
          "name": "_approved",
          "type": "bool"
        }
      ],
      "name": "ApprovalForAll",
      "type": "event"
    },
    {
      "anonymous": false,
      "inputs": [
        {
          "indexed": false,
          "name": "addr",
          "type": "address"
        }
      ],
      "name": "WhitelistedAddressAdded",
      "type": "event"
    },
    {
      "anonymous": false,
      "inputs": [
        {
          "indexed": false,
          "name": "addr",
          "type": "address"
        }
      ],
      "name": "WhitelistedAddressRemoved",
      "type": "event"
    },
    {
      "anonymous": false,
      "inputs": [
        {
          "indexed": true,
          "name": "previousOwner",
          "type": "address"
        },
        {
          "indexed": true,
          "name": "newOwner",
          "type": "address"
        }
      ],
      "name": "OwnershipTransferred",
      "type": "event"
    },
    {
      "constant": false,
      "inputs": [
        {
          "name": "_quizzes",
          "type": "uint8[]"
        },
        {
          "name": "_name",
          "type": "string"
        }
      ],
      "name": "generateInitialTori",
      "outputs": [
        {
          "name": "success",
          "type": "bool"
        }
      ],
      "payable": false,
      "stateMutability": "nonpayable",
      "type": "function"
    },
    {
      "constant": false,
      "inputs": [
        {
          "name": "_dna",
          "type": "uint256"
        },
        {
          "name": "_proficiency",
          "type": "uint32"
        },
        {
          "name": "_personality",
          "type": "uint32"
        },
        {
          "name": "_name",
          "type": "string"
        },
        {
          "name": "_owner",
          "type": "address"
        }
      ],
      "name": "generateNewTori",
      "outputs": [
        {
          "name": "success",
          "type": "bool"
        }
      ],
      "payable": false,
      "stateMutability": "nonpayable",
      "type": "function"
    },
    {
      "constant": true,
      "inputs": [
        {
          "name": "_owner",
          "type": "address"
        }
      ],
      "name": "getTokenIndexes",
      "outputs": [
        {
          "name": "",
          "type": "uint256[]"
        }
      ],
      "payable": false,
      "stateMutability": "view",
      "type": "function"
    },
    {
      "constant": true,
      "inputs": [
        {
          "name": "_toriId",
          "type": "uint256"
        }
      ],
      "name": "getTokenInfo",
      "outputs": [
        {
          "name": "toriId",
          "type": "uint256"
        },
        {
          "name": "toriDna",
          "type": "uint256"
        },
        {
          "name": "name",
          "type": "string"
        },
        {
          "name": "proficiency",
          "type": "uint32"
        },
        {
          "name": "personality",
          "type": "uint32"
        },
        {
          "name": "readyTime",
          "type": "uint32"
        },
        {
          "name": "postingPrice",
          "type": "uint256"
        },
        {
          "name": "toriOwner",
          "type": "address"
        }
      ],
      "payable": false,
      "stateMutability": "view",
      "type": "function"
    },
    {
      "constant": true,
      "inputs": [],
      "name": "getTokenCount",
      "outputs": [
        {
          "name": "toriCount",
          "type": "uint256"
        }
      ],
      "payable": false,
      "stateMutability": "view",
      "type": "function"
    },
    {
      "constant": true,
      "inputs": [],
      "name": "getAllTokensCount",
      "outputs": [
        {
          "name": "",
          "type": "uint256"
        }
      ],
      "payable": false,
      "stateMutability": "view",
      "type": "function"
    },
    {
      "constant": false,
      "inputs": [
        {
          "name": "_tokenId",
          "type": "uint256"
        },
        {
          "name": "_salePrice",
          "type": "uint256"
        }
      ],
      "name": "approveForSale",
      "outputs": [],
      "payable": false,
      "stateMutability": "nonpayable",
      "type": "function"
    },
    {
      "constant": false,
      "inputs": [
        {
          "name": "_tokenId",
          "type": "uint256"
        }
      ],
      "name": "removeForSale",
      "outputs": [],
      "payable": false,
      "stateMutability": "nonpayable",
      "type": "function"
    },
    {
      "constant": false,
      "inputs": [
        {
          "name": "_tokenId",
          "type": "uint256"
        }
      ],
      "name": "buyForSale",
      "outputs": [],
      "payable": true,
      "stateMutability": "payable",
      "type": "function"
    },
    {
      "constant": true,
      "inputs": [],
      "name": "retrieveAllForSales",
      "outputs": [
        {
          "name": "",
          "type": "uint256[]"
        }
      ],
      "payable": false,
      "stateMutability": "view",
      "type": "function"
    }
  ],
  "bytecode": "0x60606040526016600255600380556006600455600254600a0a600555600160045401600a0a600655600354600a0a60075560a060405190810160405280601961ffff168152602001606461ffff16815260200160af61ffff16815260200160c861ffff16815260200161012c61ffff1681525060089060056200008492919062000e18565b50600454600a0a600955608060405190810160405280609661ffff16815260200160c861ffff16815260200161012c61ffff16815260200161015e61ffff16815250600a906004620000d892919062000e70565b503415620000e557600080fd5b620000ef62000ec8565b620000f962000edc565b6000336000806101000a81548173ffffffffffffffffffffffffffffffffffffffff021916908373ffffffffffffffffffffffffffffffffffffffff16021790555060046040518059106200014b5750595b9080825280602002602001820160405250925060008360008151811015156200017057fe5b9060200190602002019060ff16908160ff168152505060008360018151811015156200019857fe5b9060200190602002019060ff16908160ff16815250506000836002815181101515620001c057fe5b9060200190602002019060ff16908160ff16815250506000836003815181101515620001e857fe5b9060200190602002019060ff16908160ff168152505062000254836040805190810160405280600481526020017f546f746f00000000000000000000000000000000000000000000000000000000815250336200092d6401000000000262002767176401000000009004565b91506001600f80548060010182816200026e919062000f26565b91600052602060002090600302016000859091909150600082015181600001556020820151816001019080519060200190620002ac92919062000f5b565b5060408201518160020160006101000a81548163ffffffff021916908363ffffffff16021790555060608201518160020160046101000a81548163ffffffff021916908363ffffffff16021790555060808201518160020160086101000a81548163ffffffff021916908363ffffffff160217905550505003905033600b600083815260200190815260200160002060006101000a81548173ffffffffffffffffffffffffffffffffffffffff021916908373ffffffffffffffffffffffffffffffffffffffff160217905550620003dc6001600d60003373ffffffffffffffffffffffffffffffffffffffff1673ffffffffffffffffffffffffffffffffffffffff16815260200190815260200160002054620009af64010000000002620022c4179091906401000000009004565b600d60003373ffffffffffffffffffffffffffffffffffffffff1673ffffffffffffffffffffffffffffffffffffffff1681526020019081526020016000208190555060018360018151811015156200043157fe5b9060200190602002019060ff16908160ff16815250506200049d836040805190810160405280600481526020017f5269726900000000000000000000000000000000000000000000000000000000815250336200092d6401000000000262002767176401000000009004565b91506001600f8054806001018281620004b7919062000f26565b91600052602060002090600302016000859091909150600082015181600001556020820151816001019080519060200190620004f592919062000f5b565b5060408201518160020160006101000a81548163ffffffff021916908363ffffffff16021790555060608201518160020160046101000a81548163ffffffff021916908363ffffffff16021790555060808201518160020160086101000a81548163ffffffff021916908363ffffffff160217905550505003905033600b600083815260200190815260200160002060006101000a81548173ffffffffffffffffffffffffffffffffffffffff021916908373ffffffffffffffffffffffffffffffffffffffff160217905550620006256001600d60003373ffffffffffffffffffffffffffffffffffffffff1673ffffffffffffffffffffffffffffffffffffffff16815260200190815260200160002054620009af64010000000002620022c4179091906401000000009004565b600d60003373ffffffffffffffffffffffffffffffffffffffff1673ffffffffffffffffffffffffffffffffffffffff1681526020019081526020016000208190555060018360008151811015156200067a57fe5b9060200190602002019060ff16908160ff16815250506001836003815181101515620006a257fe5b9060200190602002019060ff16908160ff16815250506200070e836040805190810160405280600481526020017f5269746f00000000000000000000000000000000000000000000000000000000815250336200092d6401000000000262002767176401000000009004565b91506001600f805480600101828162000728919062000f26565b916000526020600020906003020160008590919091506000820151816000015560208201518160010190805190602001906200076692919062000f5b565b5060408201518160020160006101000a81548163ffffffff021916908363ffffffff16021790555060608201518160020160046101000a81548163ffffffff021916908363ffffffff16021790555060808201518160020160086101000a81548163ffffffff021916908363ffffffff160217905550505003905033600b600083815260200190815260200160002060006101000a81548173ffffffffffffffffffffffffffffffffffffffff021916908373ffffffffffffffffffffffffffffffffffffffff160217905550620008966001600d60003373ffffffffffffffffffffffffffffffffffffffff1673ffffffffffffffffffffffffffffffffffffffff16815260200190815260200160002054620009af64010000000002620022c4179091906401000000009004565b600d60003373ffffffffffffffffffffffffffffffffffffffff1673ffffffffffffffffffffffffffffffffffffffff1681526020019081526020016000208190555066038d7ea4c6800060106000808152602001908152602001600020819055506200091e6001601154620009af64010000000002620022c4179091906401000000009004565b601181905550505050620010ff565b6200093762000edc565b60008060006200095d878787620009cc64010000000002620029b3176401000000009004565b80935081945082955050505060a0604051908101604052808481526020018781526020018363ffffffff1681526020018263ffffffff1681526020014263ffffffff1681525093505050509392505050565b60008183019050828110151515620009c357fe5b80905092915050565b600080600080600080428789604051808481526020018373ffffffffffffffffffffffffffffffffffffffff1673ffffffffffffffffffffffffffffffffffffffff166c0100000000000000000000000002815260140182805190602001908083835b60208310151562000a56578051825260208201915060208101905060208303925062000a2f565b6001836020036101000a038019825116818451168082178552505050505050905001935050505060405180910390206001900492504287604051808381526020018273ffffffffffffffffffffffffffffffffffffffff1673ffffffffffffffffffffffffffffffffffffffff166c010000000000000000000000000281526014019250505060405180910390206001900491508282604051808381526020018281526020019250505060405180910390206001900490506005548181151562000b1c57fe5b0695506000600160025403600a0a8781151562000b3557fe5b04141562000b4b57600160025403600a0a860195505b6007548681151562000b5957fe5b06945060075460095481151562000b6c57fe5b046009548781151562000b7b57fe5b0681151562000b8657fe5b04935062000bfb85600880548060200260200160405190810160405280929190818152602001828054801562000bdc57602002820191906000526020600020905b81548152602001906001019080831162000bc7575b505050505062000c3c6401000000000262002bfe176401000000009004565b945062000c1d898562000cae6401000000000262002c6b176401000000009004565b93506006548681151562000c2d57fe5b04955050505093509350939050565b60008060008060009250600091505b845182101562000c9d57848281518110151562000c6457fe5b9060200190602002015190508083018663ffffffff16101562000c8a5781935062000ca5565b8083019250818060010192505062000c4b565b600185510393505b50505092915050565b600062000cba62000fe2565b600080600080600a80548060200260200160405190810160405280929190818152602001828054801562000d0e57602002820191906000526020600020905b81548152602001906001019080831162000cf9575b5050505050945060009350600092505b875183101562000d5657878381518110151562000d3757fe5b9060200190602002015160ff1684019350828060010193505062000d1e565b6001885103600a02915060008411801562000d715750875184105b1562000deb57600092505b875183101562000dea57878381518110151562000d9557fe5b9060200190602002015160ff1688510290508381039050808281151562000db857fe5b04858481518110151562000dc857fe5b9060200190602002018181510191508181525050828060010193505062000d7c565b5b62000e0b878662000c3c6401000000000262002bfe176401000000009004565b9550505050505092915050565b82805482825590600052602060002090810192821562000e5d579160200282015b8281111562000e5c578251829061ffff1690559160200191906001019062000e39565b5b50905062000e6c919062000ff6565b5090565b82805482825590600052602060002090810192821562000eb5579160200282015b8281111562000eb4578251829061ffff1690559160200191906001019062000e91565b5b50905062000ec4919062000ff6565b5090565b602060405190810160405280600081525090565b60a0604051908101604052806000815260200162000ef96200101e565b8152602001600063ffffffff168152602001600063ffffffff168152602001600063ffffffff1681525090565b81548183558181151162000f565760030281600302836000526020600020918201910162000f55919062001032565b5b505050565b828054600181600116156101000203166002900490600052602060002090601f016020900481019282601f1062000f9e57805160ff191683800117855562000fcf565b8280016001018555821562000fcf579182015b8281111562000fce57825182559160200191906001019062000fb1565b5b50905062000fde919062000ff6565b5090565b602060405190810160405280600081525090565b6200101b91905b808211156200101757600081600090555060010162000ffd565b5090565b90565b602060405190810160405280600081525090565b620010b091905b80821115620010ac576000808201600090556001820160006200105d9190620010b3565b6002820160006101000a81549063ffffffff02191690556002820160046101000a81549063ffffffff02191690556002820160086101000a81549063ffffffff02191690555060030162001039565b5090565b90565b50805460018160011615610100020316600290046000825580601f10620010db5750620010fc565b601f016020900490600052602060002090810190620010fb919062000ff6565b5b50565b612ffc806200110f6000396000f30060606040526004361061015f576000357c0100000000000000000000000000000000000000000000000000000000900463ffffffff168063081812fc14610164578063095ea7b3146101c7578063120e22e41461020957806323b872dd1461023557806324953eaa14610296578063286dd3f51461030857806342842e0e146103595780634f558e79146103ba5780636352211e146103f557806368d39d71146104585780636b8667f51461050d57806370a082311461053057806378a895671461057d5780637b9417c8146105a657806380507b57146105f75780638c7a63ae146106855780638da5cb5b146107a2578063933b5454146107f75780639b19251a14610820578063a22cb46514610871578063a9bd5d73146108b5578063b438314f14610970578063b88d4fde14610988578063be928c9214610a2c578063e2ec6ec314610a96578063e985e9c514610b08578063f2fde38b14610b78575b600080fd5b341561016f57600080fd5b6101856004808035906020019091905050610bb1565b604051808273ffffffffffffffffffffffffffffffffffffffff1673ffffffffffffffffffffffffffffffffffffffff16815260200191505060405180910390f35b34156101d257600080fd5b610207600480803573ffffffffffffffffffffffffffffffffffffffff16906020019091908035906020019091905050610bee565b005b341561021457600080fd5b6102336004808035906020019091908035906020019091905050610db4565b005b341561024057600080fd5b610294600480803573ffffffffffffffffffffffffffffffffffffffff1690602001909190803573ffffffffffffffffffffffffffffffffffffffff16906020019091908035906020019091905050610e68565b005b34156102a157600080fd5b6102ee600480803590602001908201803590602001908080602002602001604051908101604052809392919081815260200183836020028082843782019150505050505091905050610f7f565b604051808215151515815260200191505060405180910390f35b341561031357600080fd5b61033f600480803573ffffffffffffffffffffffffffffffffffffffff16906020019091905050611028565b604051808215151515815260200191505060405180910390f35b341561036457600080fd5b6103b8600480803573ffffffffffffffffffffffffffffffffffffffff1690602001909190803573ffffffffffffffffffffffffffffffffffffffff1690602001909190803590602001909190505061119c565b005b34156103c557600080fd5b6103db60048080359060200190919050506111d4565b604051808215151515815260200191505060405180910390f35b341561040057600080fd5b6104166004808035906020019091905050611246565b604051808273ffffffffffffffffffffffffffffffffffffffff1673ffffffffffffffffffffffffffffffffffffffff16815260200191505060405180910390f35b341561046357600080fd5b6104f360048080359060200190820180359060200190808060200260200160405190810160405280939291908181526020018383602002808284378201915050505050509190803590602001908201803590602001908080601f016020809104026020016040519081016040528093929190818152602001838380828437820191505050505050919050506112c4565b604051808215151515815260200191505060405180910390f35b341561051857600080fd5b61052e6004808035906020019091905050611539565b005b341561053b57600080fd5b610567600480803573ffffffffffffffffffffffffffffffffffffffff169060200190919050506115df565b6040518082815260200191505060405180910390f35b341561058857600080fd5b610590611663565b6040518082815260200191505060405180910390f35b34156105b157600080fd5b6105dd600480803573ffffffffffffffffffffffffffffffffffffffff169060200190919050506116aa565b604051808215151515815260200191505060405180910390f35b341561060257600080fd5b61062e600480803573ffffffffffffffffffffffffffffffffffffffff1690602001909190505061181e565b6040518080602001828103825283818151815260200191508051906020019060200280838360005b83811015610671578082015181840152602081019050610656565b505050509050019250505060405180910390f35b341561069057600080fd5b6106a66004808035906020019091905050611960565b60405180898152602001888152602001806020018763ffffffff1663ffffffff1681526020018663ffffffff1663ffffffff1681526020018563ffffffff1663ffffffff1681526020018481526020018373ffffffffffffffffffffffffffffffffffffffff1673ffffffffffffffffffffffffffffffffffffffff168152602001828103825288818151815260200191508051906020019080838360005b83811015610760578082015181840152602081019050610745565b50505050905090810190601f16801561078d5780820380516001836020036101000a031916815260200191505b50995050505050505050505060405180910390f35b34156107ad57600080fd5b6107b5611b42565b604051808273ffffffffffffffffffffffffffffffffffffffff1673ffffffffffffffffffffffffffffffffffffffff16815260200191505060405180910390f35b341561080257600080fd5b61080a611b67565b6040518082815260200191505060405180910390f35b341561082b57600080fd5b610857600480803573ffffffffffffffffffffffffffffffffffffffff16906020019091905050611b74565b604051808215151515815260200191505060405180910390f35b341561087c57600080fd5b6108b3600480803573ffffffffffffffffffffffffffffffffffffffff169060200190919080351515906020019091905050611b94565b005b34156108c057600080fd5b610956600480803590602001909190803563ffffffff1690602001909190803563ffffffff1690602001909190803590602001908201803590602001908080601f0160208091040260200160405190810160405280939291908181526020018383808284378201915050505050509190803573ffffffffffffffffffffffffffffffffffffffff16906020019091905050611cd0565b604051808215151515815260200191505060405180910390f35b6109866004808035906020019091905050611cea565b005b341561099357600080fd5b610a2a600480803573ffffffffffffffffffffffffffffffffffffffff1690602001909190803573ffffffffffffffffffffffffffffffffffffffff1690602001909190803590602001909190803590602001908201803590602001908080601f01602080910402602001604051908101604052809392919081815260200183838082843782019150505050505091905050611f51565b005b3415610a3757600080fd5b610a3f611f90565b6040518080602001828103825283818151815260200191508051906020019060200280838360005b83811015610a82578082015181840152602081019050610a67565b505050509050019250505060405180910390f35b3415610aa157600080fd5b610aee600480803590602001908201803590602001908080602002602001604051908101604052809392919081815260200183836020028082843782019150505050505091905050612032565b604051808215151515815260200191505060405180910390f35b3415610b1357600080fd5b610b5e600480803573ffffffffffffffffffffffffffffffffffffffff1690602001909190803573ffffffffffffffffffffffffffffffffffffffff169060200190919050506120db565b604051808215151515815260200191505060405180910390f35b3415610b8357600080fd5b610baf600480803573ffffffffffffffffffffffffffffffffffffffff1690602001909190505061216f565b005b6000600c600083815260200190815260200160002060009054906101000a900473ffffffffffffffffffffffffffffffffffffffff169050919050565b6000610bf982611246565b90508073ffffffffffffffffffffffffffffffffffffffff168373ffffffffffffffffffffffffffffffffffffffff1614151515610c3657600080fd5b8073ffffffffffffffffffffffffffffffffffffffff163373ffffffffffffffffffffffffffffffffffffffff161480610c765750610c7581336120db565b5b1515610c8157600080fd5b600073ffffffffffffffffffffffffffffffffffffffff16610ca283610bb1565b73ffffffffffffffffffffffffffffffffffffffff16141580610cf25750600073ffffffffffffffffffffffffffffffffffffffff168373ffffffffffffffffffffffffffffffffffffffff1614155b15610daf5782600c600084815260200190815260200160002060006101000a81548173ffffffffffffffffffffffffffffffffffffffff021916908373ffffffffffffffffffffffffffffffffffffffff1602179055508273ffffffffffffffffffffffffffffffffffffffff168173ffffffffffffffffffffffffffffffffffffffff167f8c5be1e5ebec7d5bd14f71427d1e84f3dd0314c0f7b2291e5b200ac8c7c3b925846040518082815260200191505060405180910390a35b505050565b813373ffffffffffffffffffffffffffffffffffffffff16610dd582611246565b73ffffffffffffffffffffffffffffffffffffffff16141515610df757600080fd5b60006010600085815260200190815260200160002054148015610e1a5750600082115b1515610e2557600080fd5b816010600085815260200190815260200160002081905550610e5360016011546122c490919063ffffffff16565b601181905550610e633084610bee565b505050565b80610e7333826122e0565b1515610e7e57600080fd5b600073ffffffffffffffffffffffffffffffffffffffff168473ffffffffffffffffffffffffffffffffffffffff1614151515610eba57600080fd5b600073ffffffffffffffffffffffffffffffffffffffff168373ffffffffffffffffffffffffffffffffffffffff1614151515610ef657600080fd5b610f008483612375565b610f0a84836124de565b610f14838361260d565b8273ffffffffffffffffffffffffffffffffffffffff168473ffffffffffffffffffffffffffffffffffffffff167fddf252ad1be2c89b69c2b068fc378daa952ba7f163c4a11628f55a4df523b3ef846040518082815260200191505060405180910390a350505050565b6000806000809054906101000a900473ffffffffffffffffffffffffffffffffffffffff1673ffffffffffffffffffffffffffffffffffffffff163373ffffffffffffffffffffffffffffffffffffffff16141515610fdd57600080fd5b600090505b82518110156110225761100b8382815181101515610ffc57fe5b90602001906020020151611028565b1561101557600191505b8080600101915050610fe2565b50919050565b60008060009054906101000a900473ffffffffffffffffffffffffffffffffffffffff1673ffffffffffffffffffffffffffffffffffffffff163373ffffffffffffffffffffffffffffffffffffffff1614151561108557600080fd5b600160008373ffffffffffffffffffffffffffffffffffffffff1673ffffffffffffffffffffffffffffffffffffffff16815260200190815260200160002060009054906101000a900460ff1615611197576000600160008473ffffffffffffffffffffffffffffffffffffffff1673ffffffffffffffffffffffffffffffffffffffff16815260200190815260200160002060006101000a81548160ff0219169083151502179055507ff1abf01a1043b7c244d128e8595cf0c1d10743b022b03a02dffd8ca3bf729f5a82604051808273ffffffffffffffffffffffffffffffffffffffff1673ffffffffffffffffffffffffffffffffffffffff16815260200191505060405180910390a1600190505b919050565b806111a733826122e0565b15156111b257600080fd5b6111ce8484846020604051908101604052806000815250611f51565b50505050565b600080600b600084815260200190815260200160002060009054906101000a900473ffffffffffffffffffffffffffffffffffffffff169050600073ffffffffffffffffffffffffffffffffffffffff168173ffffffffffffffffffffffffffffffffffffffff161415915050919050565b600080600b600084815260200190815260200160002060009054906101000a900473ffffffffffffffffffffffffffffffffffffffff169050600073ffffffffffffffffffffffffffffffffffffffff168173ffffffffffffffffffffffffffffffffffffffff16141515156112bb57600080fd5b80915050919050565b60006112ce612db1565b600080600d60003373ffffffffffffffffffffffffffffffffffffffff1673ffffffffffffffffffffffffffffffffffffffff1681526020019081526020016000205414151561131d57600080fd5b611328858533612767565b91506001600f80548060010182816113409190612df9565b9160005260206000209060030201600085909190915060008201518160000155602082015181600101908051906020019061137c929190612e2b565b5060408201518160020160006101000a81548163ffffffff021916908363ffffffff16021790555060608201518160020160046101000a81548163ffffffff021916908363ffffffff16021790555060808201518160020160086101000a81548163ffffffff021916908363ffffffff160217905550505003905033600b600083815260200190815260200160002060006101000a81548173ffffffffffffffffffffffffffffffffffffffff021916908373ffffffffffffffffffffffffffffffffffffffff16021790555061149c6001600d60003373ffffffffffffffffffffffffffffffffffffffff1673ffffffffffffffffffffffffffffffffffffffff168152602001908152602001600020546122c490919063ffffffff16565b600d60003373ffffffffffffffffffffffffffffffffffffffff1673ffffffffffffffffffffffffffffffffffffffff168152602001908152602001600020819055503373ffffffffffffffffffffffffffffffffffffffff167f163090350da897fd03497e870bbe993a1948b39328cd37a8fe6b9179e120dd27826040518082815260200191505060405180910390a260019250505092915050565b803373ffffffffffffffffffffffffffffffffffffffff1661155a82611246565b73ffffffffffffffffffffffffffffffffffffffff1614151561157c57600080fd5b6000601060008481526020019081526020016000205411151561159e57600080fd5b60106000838152602001908152602001600020600090556115cb60016011546127d190919063ffffffff16565b6011819055506115db3383612375565b5050565b60008073ffffffffffffffffffffffffffffffffffffffff168273ffffffffffffffffffffffffffffffffffffffff161415151561161c57600080fd5b600d60008373ffffffffffffffffffffffffffffffffffffffff1673ffffffffffffffffffffffffffffffffffffffff168152602001908152602001600020549050919050565b6000600d60003373ffffffffffffffffffffffffffffffffffffffff1673ffffffffffffffffffffffffffffffffffffffff16815260200190815260200160002054905090565b60008060009054906101000a900473ffffffffffffffffffffffffffffffffffffffff1673ffffffffffffffffffffffffffffffffffffffff163373ffffffffffffffffffffffffffffffffffffffff1614151561170757600080fd5b600160008373ffffffffffffffffffffffffffffffffffffffff1673ffffffffffffffffffffffffffffffffffffffff16815260200190815260200160002060009054906101000a900460ff1615156118195760018060008473ffffffffffffffffffffffffffffffffffffffff1673ffffffffffffffffffffffffffffffffffffffff16815260200190815260200160002060006101000a81548160ff0219169083151502179055507fd1bba68c128cc3f427e5831b3c6f99f480b6efa6b9e80c757768f6124158cc3f82604051808273ffffffffffffffffffffffffffffffffffffffff1673ffffffffffffffffffffffffffffffffffffffff16815260200191505060405180910390a1600190505b919050565b611826612eab565b6000611830612eab565b600080600d60008773ffffffffffffffffffffffffffffffffffffffff1673ffffffffffffffffffffffffffffffffffffffff168152602001908152602001600020549350836040518059106118835750595b9080825280602002602001820160405250925060009150600090505b600f80549050811015611954578573ffffffffffffffffffffffffffffffffffffffff16600b600083815260200190815260200160002060009054906101000a900473ffffffffffffffffffffffffffffffffffffffff1673ffffffffffffffffffffffffffffffffffffffff1614156119395780838381518110151561192257fe5b906020019060200201818152505081806001019250505b838210151561194757611954565b808060010191505061189f565b82945050505050919050565b60008061196b612ebf565b600080600080600061197b612db1565b600f8a81548110151561198a57fe5b906000526020600020906003020160a0604051908101604052908160008201548152602001600182018054600181600116156101000203166002900480601f016020809104026020016040519081016040528092919081815260200182805460018160011615610100020316600290048015611a475780601f10611a1c57610100808354040283529160200191611a47565b820191906000526020600020905b815481529060010190602001808311611a2a57829003601f168201915b505050505081526020016002820160009054906101000a900463ffffffff1663ffffffff1663ffffffff1681526020016002820160049054906101000a900463ffffffff1663ffffffff1663ffffffff1681526020016002820160089054906101000a900463ffffffff1663ffffffff1663ffffffff168152505090508998508060000151975080602001519650806040015195508060600151945080608001519350601060008b8152602001908152602001600020549250600b60008b815260200190815260200160002060009054906101000a900473ffffffffffffffffffffffffffffffffffffffff16915050919395975091939597565b6000809054906101000a900473ffffffffffffffffffffffffffffffffffffffff1681565b6000600f80549050905090565b60016020528060005260406000206000915054906101000a900460ff1681565b3373ffffffffffffffffffffffffffffffffffffffff168273ffffffffffffffffffffffffffffffffffffffff1614151515611bcf57600080fd5b80600e60003373ffffffffffffffffffffffffffffffffffffffff1673ffffffffffffffffffffffffffffffffffffffff16815260200190815260200160002060008473ffffffffffffffffffffffffffffffffffffffff1673ffffffffffffffffffffffffffffffffffffffff16815260200190815260200160002060006101000a81548160ff0219169083151502179055508173ffffffffffffffffffffffffffffffffffffffff163373ffffffffffffffffffffffffffffffffffffffff167f17307eab39ab6107e8899845ad3d59bd9653f200f220920489ca2b5937696c3183604051808215151515815260200191505060405180910390a35050565b6000611cdf8686868686611cd0565b905095945050505050565b60008060006010600085815260200190815260200160002054118015611d23575060106000848152602001908152602001600020543410155b1515611d2e57600080fd5b611d3783611246565b91506010600084815260200190815260200160002054340390506000811115611df2573373ffffffffffffffffffffffffffffffffffffffff166108fc829081150290604051600060405180830381858888f193505050501515611d9a57600080fd5b8173ffffffffffffffffffffffffffffffffffffffff166108fc60106000868152602001908152602001600020549081150290604051600060405180830381858888f193505050501515611ded57600080fd5b611e33565b8173ffffffffffffffffffffffffffffffffffffffff166108fc349081150290604051600060405180830381858888f193505050501515611e3257600080fd5b5b3073ffffffffffffffffffffffffffffffffffffffff166342842e0e8333866040518463ffffffff167c0100000000000000000000000000000000000000000000000000000000028152600401808473ffffffffffffffffffffffffffffffffffffffff1673ffffffffffffffffffffffffffffffffffffffff1681526020018373ffffffffffffffffffffffffffffffffffffffff1673ffffffffffffffffffffffffffffffffffffffff1681526020018281526020019350505050600060405180830381600087803b1515611f0957600080fd5b5af11515611f1657600080fd5b5050506010600084815260200190815260200160002060009055611f4660016011546127d190919063ffffffff16565b601181905550505050565b81611f5c33826122e0565b1515611f6757600080fd5b611f72858585610e68565b611f7e858585856127ea565b1515611f8957600080fd5b5050505050565b611f98612eab565b611fa0612eab565b600080601154604051805910611fb35750595b9080825280602002602001820160405250925060009150600090505b600f805490508110156120295760006010600083815260200190815260200160002054111561201c5780838381518110151561200757fe5b90602001906020020181815250506001820191505b8080600101915050611fcf565b82935050505090565b6000806000809054906101000a900473ffffffffffffffffffffffffffffffffffffffff1673ffffffffffffffffffffffffffffffffffffffff163373ffffffffffffffffffffffffffffffffffffffff1614151561209057600080fd5b600090505b82518110156120d5576120be83828151811015156120af57fe5b906020019060200201516116aa565b156120c857600191505b8080600101915050612095565b50919050565b6000600e60008473ffffffffffffffffffffffffffffffffffffffff1673ffffffffffffffffffffffffffffffffffffffff16815260200190815260200160002060008373ffffffffffffffffffffffffffffffffffffffff1673ffffffffffffffffffffffffffffffffffffffff16815260200190815260200160002060009054906101000a900460ff16905092915050565b6000809054906101000a900473ffffffffffffffffffffffffffffffffffffffff1673ffffffffffffffffffffffffffffffffffffffff163373ffffffffffffffffffffffffffffffffffffffff161415156121ca57600080fd5b600073ffffffffffffffffffffffffffffffffffffffff168173ffffffffffffffffffffffffffffffffffffffff161415151561220657600080fd5b8073ffffffffffffffffffffffffffffffffffffffff166000809054906101000a900473ffffffffffffffffffffffffffffffffffffffff1673ffffffffffffffffffffffffffffffffffffffff167f8be0079c531659141344cd1fd0a4f28419497f9722a3daafe3b4186f6b6457e060405160405180910390a3806000806101000a81548173ffffffffffffffffffffffffffffffffffffffff021916908373ffffffffffffffffffffffffffffffffffffffff16021790555050565b600081830190508281101515156122d757fe5b80905092915050565b6000806122ec83611246565b90508073ffffffffffffffffffffffffffffffffffffffff168473ffffffffffffffffffffffffffffffffffffffff16148061235b57508373ffffffffffffffffffffffffffffffffffffffff1661234384610bb1565b73ffffffffffffffffffffffffffffffffffffffff16145b8061236c575061236b81856120db565b5b91505092915050565b8173ffffffffffffffffffffffffffffffffffffffff1661239582611246565b73ffffffffffffffffffffffffffffffffffffffff161415156123b757600080fd5b600073ffffffffffffffffffffffffffffffffffffffff16600c600083815260200190815260200160002060009054906101000a900473ffffffffffffffffffffffffffffffffffffffff1673ffffffffffffffffffffffffffffffffffffffff161415156124da576000600c600083815260200190815260200160002060006101000a81548173ffffffffffffffffffffffffffffffffffffffff021916908373ffffffffffffffffffffffffffffffffffffffff160217905550600073ffffffffffffffffffffffffffffffffffffffff168273ffffffffffffffffffffffffffffffffffffffff167f8c5be1e5ebec7d5bd14f71427d1e84f3dd0314c0f7b2291e5b200ac8c7c3b925836040518082815260200191505060405180910390a35b5050565b8173ffffffffffffffffffffffffffffffffffffffff166124fe82611246565b73ffffffffffffffffffffffffffffffffffffffff1614151561252057600080fd5b6125736001600d60008573ffffffffffffffffffffffffffffffffffffffff1673ffffffffffffffffffffffffffffffffffffffff168152602001908152602001600020546127d190919063ffffffff16565b600d60008473ffffffffffffffffffffffffffffffffffffffff1673ffffffffffffffffffffffffffffffffffffffff168152602001908152602001600020819055506000600b600083815260200190815260200160002060006101000a81548173ffffffffffffffffffffffffffffffffffffffff021916908373ffffffffffffffffffffffffffffffffffffffff1602179055505050565b600073ffffffffffffffffffffffffffffffffffffffff16600b600083815260200190815260200160002060009054906101000a900473ffffffffffffffffffffffffffffffffffffffff1673ffffffffffffffffffffffffffffffffffffffff1614151561267b57600080fd5b81600b600083815260200190815260200160002060006101000a81548173ffffffffffffffffffffffffffffffffffffffff021916908373ffffffffffffffffffffffffffffffffffffffff1602179055506127206001600d60008573ffffffffffffffffffffffffffffffffffffffff1673ffffffffffffffffffffffffffffffffffffffff168152602001908152602001600020546122c490919063ffffffff16565b600d60008473ffffffffffffffffffffffffffffffffffffffff1673ffffffffffffffffffffffffffffffffffffffff168152602001908152602001600020819055505050565b61276f612db1565b600080600061277f8787876129b3565b80935081945082955050505060a0604051908101604052808481526020018781526020018363ffffffff1681526020018263ffffffff1681526020014263ffffffff1681525093505050509392505050565b60008282111515156127df57fe5b818303905092915050565b60008061280c8573ffffffffffffffffffffffffffffffffffffffff16612beb565b151561281b57600191506129aa565b8473ffffffffffffffffffffffffffffffffffffffff1663f0b9e5ba8786866040518463ffffffff167c0100000000000000000000000000000000000000000000000000000000028152600401808473ffffffffffffffffffffffffffffffffffffffff1673ffffffffffffffffffffffffffffffffffffffff16815260200183815260200180602001828103825283818151815260200191508051906020019080838360005b838110156128dd5780820151818401526020810190506128c2565b50505050905090810190601f16801561290a5780820380516001836020036101000a031916815260200191505b50945050505050602060405180830381600087803b151561292a57600080fd5b5af1151561293757600080fd5b50505060405180519050905063f0b9e5ba7c0100000000000000000000000000000000000000000000000000000000027bffffffffffffffffffffffffffffffffffffffffffffffffffffffff1916817bffffffffffffffffffffffffffffffffffffffffffffffffffffffff19161491505b50949350505050565b600080600080600080428789604051808481526020018373ffffffffffffffffffffffffffffffffffffffff1673ffffffffffffffffffffffffffffffffffffffff166c0100000000000000000000000002815260140182805190602001908083835b602083101515612a3b5780518252602082019150602081019050602083039250612a16565b6001836020036101000a038019825116818451168082178552505050505050905001935050505060405180910390206001900492504287604051808381526020018273ffffffffffffffffffffffffffffffffffffffff1673ffffffffffffffffffffffffffffffffffffffff166c0100000000000000000000000002815260140192505050604051809103902060019004915082826040518083815260200182815260200192505050604051809103902060019004905060055481811515612b0057fe5b0695506000600160025403600a0a87811515612b1857fe5b041415612b2d57600160025403600a0a860195505b60075486811515612b3a57fe5b069450600754600954811515612b4c57fe5b0460095487811515612b5a57fe5b06811515612b6457fe5b049350612bc1856008805480602002602001604051908101604052809291908181526020018280548015612bb757602002820191906000526020600020905b815481526020019060010190808311612ba3575b5050505050612bfe565b9450612bcd8985612c6b565b935060065486811515612bdc57fe5b04955050505093509350939050565b600080823b905060008111915050919050565b60008060008060009250600091505b8451821015612c5a578482815181101515612c2457fe5b9060200190602002015190508083018663ffffffff161015612c4857819350612c62565b80830192508180600101925050612c0d565b600185510393505b50505092915050565b6000612c75612eab565b600080600080600a805480602002602001604051908101604052809291908181526020018280548015612cc757602002820191906000526020600020905b815481526020019060010190808311612cb3575b5050505050945060009350600092505b8751831015612d0c578783815181101515612cee57fe5b9060200190602002015160ff16840193508280600101935050612cd7565b6001885103600a029150600084118015612d265750875184105b15612d9a57600092505b8751831015612d99578783815181101515612d4757fe5b9060200190602002015160ff16885102905083810390508082811515612d6957fe5b048584815181101515612d7857fe5b90602001906020020181815101915081815250508280600101935050612d30565b5b612da48786612bfe565b9550505050505092915050565b60a06040519081016040528060008152602001612dcc612ed3565b8152602001600063ffffffff168152602001600063ffffffff168152602001600063ffffffff1681525090565b815481835581811511612e2657600302816003028360005260206000209182019101612e259190612ee7565b5b505050565b828054600181600116156101000203166002900490600052602060002090601f016020900481019282601f10612e6c57805160ff1916838001178555612e9a565b82800160010185558215612e9a579182015b82811115612e99578251825591602001919060010190612e7e565b5b509050612ea79190612f63565b5090565b602060405190810160405280600081525090565b602060405190810160405280600081525090565b602060405190810160405280600081525090565b612f6091905b80821115612f5c57600080820160009055600182016000612f0e9190612f88565b6002820160006101000a81549063ffffffff02191690556002820160046101000a81549063ffffffff02191690556002820160086101000a81549063ffffffff021916905550600301612eed565b5090565b90565b612f8591905b80821115612f81576000816000905550600101612f69565b5090565b90565b50805460018160011615610100020316600290046000825580601f10612fae5750612fcd565b601f016020900490600052602060002090810190612fcc9190612f63565b5b505600a165627a7a72305820b39389d1b44ae569fbbdaf3c2f57a2a4feb47f20f5f0f4c8b7eac7c770279e1d0029",
  "source": "pragma solidity ^0.4.21;\n\nimport './DnaCore.sol';\nimport 'openzeppelin-solidity/contracts/token/ERC721/ERC721BasicToken.sol';\nimport 'openzeppelin-solidity/contracts/ownership/Whitelist.sol';\n\ncontract ToriToken is Whitelist, DnaCore, ERC721BasicToken {\n\n  struct Tori {\n    uint256 dna;\n    string name;\n    uint32 proficiency;\n    uint32 personality;\n    uint32 readyTime;\n  }\n\n  Tori[] toris;\n\n  // toriId to price (in wei)\n  mapping (uint => uint256) toriSale;\n  uint256 toriSaleCount;\n\n  event NewTori(address indexed _address, uint256 toriIdx);\n\n\n  /* DEV USE */\n  function ToriToken() {\n    // Generate some Toris for the owner.\n\n    // 1.\n    uint8[] memory testQuiz = new uint8[](4);\n    testQuiz[0] = 0;\n    testQuiz[1] = 0;\n    testQuiz[2] = 0;\n    testQuiz[3] = 0;\n    Tori memory newTori = _generateRandomTori(testQuiz, \"Toto\", msg.sender);\n    uint256 id = toris.push(newTori) - 1;\n    tokenOwner[id] = msg.sender;\n    ownedTokensCount[msg.sender] = ownedTokensCount[msg.sender].add(1);\n    // 2.\n    testQuiz[1] = 1;\n    newTori = _generateRandomTori(testQuiz, \"Riri\", msg.sender);\n    id = toris.push(newTori) - 1;\n    tokenOwner[id] = msg.sender;\n    ownedTokensCount[msg.sender] = ownedTokensCount[msg.sender].add(1);\n\n    // 3.\n    testQuiz[0] = 1;\n    testQuiz[3] = 1;\n    newTori = _generateRandomTori(testQuiz, \"Rito\", msg.sender);\n    id = toris.push(newTori) - 1;\n    tokenOwner[id] = msg.sender;\n    ownedTokensCount[msg.sender] = ownedTokensCount[msg.sender].add(1);\n\n    toriSale[0] = 1000000000000000;\n    toriSaleCount = toriSaleCount.add(1);\n  }\n\n\n\n  /*\n  *   Generate random dna, personality, and proficiency level from\n  *   the given quiz & sender address.\n  */\n  function _generateRandomTori(uint8[] _quizzes, string _name, address _owner) private view returns (Tori) {\n    uint256 dna;\n    uint32 proficiency;\n    uint32 personality;\n    (dna, proficiency, personality) = _generateRandomTraits(_quizzes, _name, _owner);\n    return Tori(dna, _name, proficiency, personality, uint32(now));\n  }\n\n  function generateInitialTori(uint8[] _quizzes, string _name) public returns (bool success) {\n    // Generate three new toris.\n    require (ownedTokensCount[msg.sender] == 0);\n    Tori memory newTori = _generateRandomTori(_quizzes, _name, msg.sender);\n    // Push to the book keeping array.\n    uint256 id = toris.push(newTori) - 1;\n    tokenOwner[id] = msg.sender;\n    ownedTokensCount[msg.sender] = ownedTokensCount[msg.sender].add(1);\n\n    emit NewTori(msg.sender, id);\n    return true;\n  }\n\n  function _generateNewTori(uint256 _dna,\n                            uint32 _proficiency,\n                            uint32 _personality,\n                            string _name,\n                            address _owner) onlyWhitelisted private returns (bool success) {\n    require((_dna / DNA_LIMIT == 0) &&\n            (_proficiency >= 0) &&\n            (_proficiency < PROFICIENCY_THRESHOLD.length) &&\n            (_personality >= 0) &&\n            (_personality < PERSONALITY_THRESHOLD.length));\n    // Generate three new toris.\n    Tori memory newTori = Tori(_dna, _name, _proficiency, _personality, uint32(now));\n    // Push to the book keeping array.\n    uint256 id = toris.push(newTori) - 1;\n    tokenOwner[id] = _owner;\n    ownedTokensCount[_owner] = ownedTokensCount[_owner].add(1);\n    emit NewTori(_owner, id);\n    return true;\n  }\n\n  function generateNewTori(uint256 _dna,\n                            uint32 _proficiency,\n                            uint32 _personality,\n                            string _name,\n                            address _owner) public returns (bool success) {\n    return generateNewTori(_dna, _proficiency, _personality, _name, _owner);\n  }\n\n  function getTokenIndexes(address _owner) public view returns (uint[]) {\n    uint size = ownedTokensCount[_owner];\n    uint[] memory result = new uint[](size);\n\n    uint idx = 0;\n    for (uint i = 0; i < toris.length; i++) {\n      if (tokenOwner[i] == _owner) {\n        result[idx] = i;\n        idx++;\n      }\n      if (idx >= size) {\n        break;\n      }\n    }\n    return result;\n  }\n\n  function getTokenInfo(uint256 _toriId) public view returns\n                    (uint256 toriId,\n                      uint256 toriDna,\n                      string name,\n                      uint32 proficiency,\n                      uint32 personality,\n                      uint32 readyTime,\n                      uint postingPrice,\n                      address toriOwner) {\n    Tori memory tori = toris[_toriId];\n    toriId = _toriId;\n    toriDna = tori.dna;\n    name = tori.name;\n    proficiency = tori.proficiency;\n    personality = tori.personality;\n    readyTime = tori.readyTime;\n    postingPrice = toriSale[_toriId];\n    toriOwner = tokenOwner[_toriId];\n  }\n\n  function getTokenCount() public view returns (uint256 toriCount) {\n    return ownedTokensCount[msg.sender];\n  }\n\n  function getAllTokensCount() public view returns (uint) {\n    return toris.length;\n  }\n\n\n  // TODO: add functionality for users to change the sale price.\n  function approveForSale(uint256 _tokenId, uint256 _salePrice) public onlyOwnerOf(_tokenId) {\n    require((toriSale[_tokenId] == 0) && (_salePrice > 0));\n    toriSale[_tokenId] = _salePrice;\n    toriSaleCount = toriSaleCount.add(1);\n\n    approve(this, _tokenId);\n  }\n\n  function removeForSale(uint256 _tokenId) public onlyOwnerOf(_tokenId) {\n    require(toriSale[_tokenId] > 0);\n    delete toriSale[_tokenId];\n    toriSaleCount = toriSaleCount.sub(1);\n\n    clearApproval(msg.sender, _tokenId);\n  }\n\n  function buyForSale(uint256 _tokenId) public payable {\n    // TODO: does msg.value needs to be exactly equal?\n    require((toriSale[_tokenId] > 0) && (msg.value >= toriSale[_tokenId]));\n    address _from = ownerOf(_tokenId);\n    // Send the ether.\n    uint256 excess = msg.value - toriSale[_tokenId];\n    if (excess > 0) {\n      msg.sender.transfer(excess);\n      _from.transfer(toriSale[_tokenId]);\n    } else {\n      _from.transfer(msg.value);\n    }\n    // We want to call this from this contract.\n    this.safeTransferFrom(_from, msg.sender, _tokenId);\n    // Delete sale entry.\n    delete toriSale[_tokenId];\n    toriSaleCount = toriSaleCount.sub(1);\n  }\n\n  function retrieveAllForSales() public view returns (uint[]) {\n    uint[] memory result = new uint[](toriSaleCount);\n    uint idx = 0;\n    for (uint i = 0; i < toris.length; i++) {\n      if (toriSale[i] > 0) {\n        result[idx] = i;\n        idx += 1;\n      }\n    }\n    return result;\n  }\n}\n",
  "sourcePath": "/Users/Cindy/Desktop/cs359b/cs359b-cribtori/contracts/ToriToken.sol",
  "compiler": {
    "name": "solc",
    "version": "0.4.21+commit.dfe3193c.Emscripten.clang"
  },
  "schemaVersion": "2.0.0",
  "updatedAt": "2018-05-07T05:08:22.681Z"
}