{
  "contractName": "ToriAccessories",
  "abi": [
    {
      "inputs": [],
      "payable": false,
      "stateMutability": "nonpayable",
      "type": "constructor"
    },
    {
      "anonymous": false,
      "inputs": [
        {
          "indexed": true,
          "name": "_address",
          "type": "address"
        },
        {
          "indexed": false,
          "name": "accIdx",
          "type": "uint256"
        }
      ],
      "name": "NewAccessories",
      "type": "event"
    },
    {
      "constant": false,
      "inputs": [],
      "name": "generateNewAccessories",
      "outputs": [
        {
          "name": "success",
          "type": "bool"
        }
      ],
      "payable": false,
      "stateMutability": "nonpayable",
      "type": "function"
    },
    {
      "constant": true,
      "inputs": [
        {
          "name": "_owner",
          "type": "address"
        }
      ],
      "name": "getTokenIndexes",
      "outputs": [
        {
          "name": "",
          "type": "uint256[]"
        }
      ],
      "payable": false,
      "stateMutability": "view",
      "type": "function"
    },
    {
      "constant": true,
      "inputs": [
        {
          "name": "_accId",
          "type": "uint256"
        }
      ],
      "name": "getTokenInfo",
      "outputs": [
        {
          "name": "accId",
          "type": "uint256"
        },
        {
          "name": "variety",
          "type": "uint256"
        },
        {
          "name": "rarity",
          "type": "uint256"
        },
        {
          "name": "space",
          "type": "uint32"
        },
        {
          "name": "postingPrice",
          "type": "uint256"
        }
      ],
      "payable": false,
      "stateMutability": "view",
      "type": "function"
    },
    {
      "constant": true,
      "inputs": [],
      "name": "getTokenCount",
      "outputs": [
        {
          "name": "accCount",
          "type": "uint256"
        }
      ],
      "payable": false,
      "stateMutability": "view",
      "type": "function"
    },
    {
      "constant": true,
      "inputs": [],
      "name": "getAllTokensCount",
      "outputs": [
        {
          "name": "",
          "type": "uint256"
        }
      ],
      "payable": false,
      "stateMutability": "view",
      "type": "function"
    }
  ],
  "bytecode": "0x606060405260046000806101000a81548163ffffffff021916908363ffffffff1602179055506002600060046101000a81548163ffffffff021916908363ffffffff160217905550600a60015560016002556002600355600154600a0a600455600254600a0a600555600354600a0a600655600354600a0a6007556000600d5534156200008b57600080fd5b6000806200009862000442565b600060039350600092505b838310156200021a57620000ce33600d5462000254640100000000026200063e176401000000009004565b9150600160088054806001018281620000e8919062000470565b916000526020600020906002020160008590919091506000820151816000015560208201518160010160006101000a81548163ffffffff021916908363ffffffff16021790555060408201518160010160046101000a81548163ffffffff021916908363ffffffff1602179055505050039050336009600083815260200190815260200160002060006101000a81548173ffffffffffffffffffffffffffffffffffffffff021916908373ffffffffffffffffffffffffffffffffffffffff1602179055506001600a60003373ffffffffffffffffffffffffffffffffffffffff1673ffffffffffffffffffffffffffffffffffffffff168152602001908152602001600020600082825401925050819055506001600d600082825401925050819055508280600101935050620000a3565b66082bd67afbc000600b6000808152602001908152602001600020819055506001600c6000828254019250508190555050505050620004fd565b6200025e62000442565b6000806000620002838686620002c26401000000000262000694176401000000009004565b8093508194508295505050506060604051908101604052808481526020018363ffffffff1681526020018263ffffffff16815250935050505092915050565b600080600080600080428888604051808481526020018373ffffffffffffffffffffffffffffffffffffffff1673ffffffffffffffffffffffffffffffffffffffff166c01000000000000000000000000028152601401828152602001935050505060405180910390206001900492504288604051808381526020018273ffffffffffffffffffffffffffffffffffffffff1673ffffffffffffffffffffffffffffffffffffffff166c0100000000000000000000000002815260140192505050604051809103902060019004915082826040518083815260200182815260200192505050604051809103902060019004905060045481811515620003c357fe5b0695506000809054906101000a900463ffffffff1663ffffffff1660055487811515620003ec57fe5b06811515620003f757fe5b069450600654600554600654888115156200040e57fe5b068115156200041957fe5b048115156200042457fe5b069350600754868115156200043557fe5b0495505050509250925092565b60606040519081016040528060008152602001600063ffffffff168152602001600063ffffffff1681525090565b815481835581811511620004a0576002028160020283600052602060002091820191016200049f9190620004a5565b5b505050565b620004fa91905b80821115620004f6576000808201600090556001820160006101000a81549063ffffffff02191690556001820160046101000a81549063ffffffff021916905550600201620004ac565b5090565b90565b610902806200050d6000396000f30060606040526004361061006d576000357c0100000000000000000000000000000000000000000000000000000000900463ffffffff16806378a895671461007257806380507b571461009b5780638c7a63ae14610129578063933b545414610188578063e0e675cd146101b1575b600080fd5b341561007d57600080fd5b6100856101de565b6040518082815260200191505060405180910390f35b34156100a657600080fd5b6100d2600480803573ffffffffffffffffffffffffffffffffffffffff16906020019091905050610225565b6040518080602001828103825283818151815260200191508051906020019060200280838360005b838110156101155780820151818401526020810190506100fa565b505050509050019250505060405180910390f35b341561013457600080fd5b61014a6004808035906020019091905050610367565b604051808681526020018581526020018481526020018363ffffffff1663ffffffff1681526020018281526020019550505050505060405180910390f35b341561019357600080fd5b61019b610439565b6040518082815260200191505060405180910390f35b34156101bc57600080fd5b6101c4610446565b604051808215151515815260200191505060405180910390f35b6000600a60003373ffffffffffffffffffffffffffffffffffffffff1673ffffffffffffffffffffffffffffffffffffffff16815260200190815260200160002054905090565b61022d61080d565b600061023761080d565b600080600a60008773ffffffffffffffffffffffffffffffffffffffff1673ffffffffffffffffffffffffffffffffffffffff1681526020019081526020016000205493508360405180591061028a5750595b9080825280602002602001820160405250925060009150600090505b60088054905081101561035b578573ffffffffffffffffffffffffffffffffffffffff166009600083815260200190815260200160002060009054906101000a900473ffffffffffffffffffffffffffffffffffffffff1673ffffffffffffffffffffffffffffffffffffffff1614156103405780838381518110151561032957fe5b906020019060200201818152505081806001019250505b838210151561034e5761035b565b80806001019150506102a6565b82945050505050919050565b6000806000806000610377610821565b60088781548110151561038657fe5b906000526020600020906002020160606040519081016040529081600082015481526020016001820160009054906101000a900463ffffffff1663ffffffff1663ffffffff1681526020016001820160049054906101000a900463ffffffff1663ffffffff1663ffffffff1681525050905086816000015182602001518360400151600b60008c8152602001908152602001600020548263ffffffff169250955095509550955095505091939590929450565b6000600880549050905090565b6000610450610821565b600080600a60003373ffffffffffffffffffffffffffffffffffffffff1673ffffffffffffffffffffffffffffffffffffffff1681526020019081526020016000205414151561049f57600080fd5b6104ab33600d5461063e565b91506001600880548060010182816104c3919061084f565b916000526020600020906002020160008590919091506000820151816000015560208201518160010160006101000a81548163ffffffff021916908363ffffffff16021790555060408201518160010160046101000a81548163ffffffff021916908363ffffffff1602179055505050039050336009600083815260200190815260200160002060006101000a81548173ffffffffffffffffffffffffffffffffffffffff021916908373ffffffffffffffffffffffffffffffffffffffff1602179055506001600a60003373ffffffffffffffffffffffffffffffffffffffff1673ffffffffffffffffffffffffffffffffffffffff168152602001908152602001600020600082825401925050819055506001600d600082825401925050819055503373ffffffffffffffffffffffffffffffffffffffff167f9fb9d1121de8785167f7aa354b56593da21280049ad43c4e569f6791762a2233826040518082815260200191505060405180910390a260019250505090565b610646610821565b60008060006106558686610694565b8093508194508295505050506060604051908101604052808481526020018363ffffffff1681526020018263ffffffff16815250935050505092915050565b600080600080600080428888604051808481526020018373ffffffffffffffffffffffffffffffffffffffff1673ffffffffffffffffffffffffffffffffffffffff166c01000000000000000000000000028152601401828152602001935050505060405180910390206001900492504288604051808381526020018273ffffffffffffffffffffffffffffffffffffffff1673ffffffffffffffffffffffffffffffffffffffff166c010000000000000000000000000281526014019250505060405180910390206001900491508282604051808381526020018281526020019250505060405180910390206001900490506004548181151561079457fe5b0695506000809054906101000a900463ffffffff1663ffffffff16600554878115156107bc57fe5b068115156107c657fe5b069450600654600554600654888115156107dc57fe5b068115156107e657fe5b048115156107f057fe5b0693506007548681151561080057fe5b0495505050509250925092565b602060405190810160405280600081525090565b60606040519081016040528060008152602001600063ffffffff168152602001600063ffffffff1681525090565b81548183558181151161087c5760020281600202836000526020600020918201910161087b9190610881565b5b505050565b6108d391905b808211156108cf576000808201600090556001820160006101000a81549063ffffffff02191690556001820160046101000a81549063ffffffff021916905550600201610887565b5090565b905600a165627a7a723058207226cee6f06e0e77300eb4cfdb972b091313d82ffc876b01c1d34fa3e06611910029",
  "source": "pragma solidity ^0.4.21;\n\n/* import 'openzeppelin-solidity/contracts/ownership/Ownable.sol'; */\nimport './VarietyCore.sol';\n\ncontract ToriAccessories is VarietyCore {\n\n  struct Accessories {\n    uint256 variety;\n    uint32 material;\n    uint32 space;\n  }\n\n  Accessories[] accessories;\n\n  mapping (uint256 => address) accIndexToAddr;\n  mapping (address => uint256) addrToAccCount;\n\n  // accId to price (in wei)\n  mapping (uint => uint256) accessoriesSale;\n  uint256 accessoriesSaleCount;\n\n  event NewAccessories(address indexed _address, uint256 accIdx);\n\n  uint256 private nonce = 0;\n\n\n  /* DEV USE */\n  function ToriAccessories() {\n    // Generate some Toris for the owner.\n    uint n = 3;\n    for (uint i = 0; i < n; i++) {\n      Accessories memory newAcc = _generateRandomAccessories(msg.sender, nonce);\n      // Push to the book keeping array.\n      uint256 id = accessories.push(newAcc) - 1;\n      accIndexToAddr[id] = msg.sender;\n      addrToAccCount[msg.sender] += 1;\n\n      nonce += 1;\n    }\n\n    accessoriesSale[0] = 2300000000000000;\n    accessoriesSaleCount += 1;\n  }\n\n\n\n  function _generateRandomAccessories(address _owner, uint256 _nonce) private view returns (Accessories) {\n    uint256 variety;\n    uint32 material;\n    uint32 space;\n    (variety, material, space) = _generateRandomVariety(_owner, _nonce);\n    return Accessories(variety, material, space);\n  }\n\n  function generateNewAccessories() public returns (bool success) {\n    // Generate three new toris.\n    require (addrToAccCount[msg.sender] == 0);\n    Accessories memory newAcc = _generateRandomAccessories(msg.sender, nonce);\n    // Push to the book keeping array.\n    uint256 id = accessories.push(newAcc) - 1;\n    accIndexToAddr[id] = msg.sender;\n    addrToAccCount[msg.sender] += 1;\n\n    nonce += 1;\n\n    emit NewAccessories(msg.sender, id);\n    return true;\n  }\n\n  function getTokenIndexes(address _owner) public view returns (uint[]) {\n    uint size = addrToAccCount[_owner];\n    uint[] memory result = new uint[](size);\n\n    uint idx = 0;\n    for (uint i = 0; i < accessories.length; i++) {\n      if (accIndexToAddr[i] == _owner) {\n        result[idx] = i;\n        idx++;\n      }\n      if (idx >= size) {\n        break;\n      }\n    }\n    return result;\n  }\n\n  function getTokenInfo(uint256 _accId) public view returns\n                    (uint256 accId, uint256 variety, uint256 rarity,\n                      uint32 space, uint postingPrice) {\n    Accessories memory acc = accessories[_accId];\n    return (_accId, acc.variety, acc.material, acc.space, accessoriesSale[_accId]);\n  }\n\n  function getTokenCount() public view returns (uint256 accCount) {\n    return addrToAccCount[msg.sender];\n  }\n\n  function getAllTokensCount() public view returns (uint) {\n    return accessories.length;\n  }\n}\n",
  "sourcePath": "/Users/Cindy/Desktop/cs359b/cs359b-cribtori/contracts/ToriAccessories.sol",
  "compiler": {
    "name": "solc",
    "version": "0.4.21+commit.dfe3193c.Emscripten.clang"
  },
  "schemaVersion": "2.0.0",
  "updatedAt": "2018-05-04T00:10:38.807Z"
}