{
  "contractName": "ToriToken",
  "abi": [
    {
      "constant": true,
      "inputs": [
        {
          "name": "_interfaceId",
          "type": "bytes4"
        }
      ],
      "name": "supportsInterface",
      "outputs": [
        {
          "name": "",
          "type": "bool"
        }
      ],
      "payable": false,
      "stateMutability": "view",
      "type": "function"
    },
    {
      "constant": true,
      "inputs": [
        {
          "name": "_tokenId",
          "type": "uint256"
        }
      ],
      "name": "getApproved",
      "outputs": [
        {
          "name": "",
          "type": "address"
        }
      ],
      "payable": false,
      "stateMutability": "view",
      "type": "function"
    },
    {
      "constant": false,
      "inputs": [
        {
          "name": "_to",
          "type": "address"
        },
        {
          "name": "_tokenId",
          "type": "uint256"
        }
      ],
      "name": "approve",
      "outputs": [],
      "payable": false,
      "stateMutability": "nonpayable",
      "type": "function"
    },
    {
      "constant": true,
      "inputs": [
        {
          "name": "_operator",
          "type": "address"
        },
        {
          "name": "_role",
          "type": "string"
        }
      ],
      "name": "checkRole",
      "outputs": [],
      "payable": false,
      "stateMutability": "view",
      "type": "function"
    },
    {
      "constant": true,
      "inputs": [],
      "name": "InterfaceId_ERC165",
      "outputs": [
        {
          "name": "",
          "type": "bytes4"
        }
      ],
      "payable": false,
      "stateMutability": "view",
      "type": "function"
    },
    {
      "constant": true,
      "inputs": [
        {
          "name": "_level",
          "type": "uint256"
        }
      ],
      "name": "checkLevelCapacity",
      "outputs": [
        {
          "name": "",
          "type": "uint256"
        }
      ],
      "payable": false,
      "stateMutability": "view",
      "type": "function"
    },
    {
      "constant": true,
      "inputs": [
        {
          "name": "_operator",
          "type": "address"
        },
        {
          "name": "_role",
          "type": "string"
        }
      ],
      "name": "hasRole",
      "outputs": [
        {
          "name": "",
          "type": "bool"
        }
      ],
      "payable": false,
      "stateMutability": "view",
      "type": "function"
    },
    {
      "constant": false,
      "inputs": [
        {
          "name": "_from",
          "type": "address"
        },
        {
          "name": "_to",
          "type": "address"
        },
        {
          "name": "_tokenId",
          "type": "uint256"
        }
      ],
      "name": "transferFrom",
      "outputs": [],
      "payable": false,
      "stateMutability": "nonpayable",
      "type": "function"
    },
    {
      "constant": true,
      "inputs": [],
      "name": "ROLE_VISIT",
      "outputs": [
        {
          "name": "",
          "type": "string"
        }
      ],
      "payable": false,
      "stateMutability": "view",
      "type": "function"
    },
    {
      "constant": false,
      "inputs": [
        {
          "name": "_from",
          "type": "address"
        },
        {
          "name": "_to",
          "type": "address"
        },
        {
          "name": "_tokenId",
          "type": "uint256"
        }
      ],
      "name": "safeTransferFrom",
      "outputs": [],
      "payable": false,
      "stateMutability": "nonpayable",
      "type": "function"
    },
    {
      "constant": true,
      "inputs": [
        {
          "name": "_tokenId",
          "type": "uint256"
        }
      ],
      "name": "exists",
      "outputs": [
        {
          "name": "",
          "type": "bool"
        }
      ],
      "payable": false,
      "stateMutability": "view",
      "type": "function"
    },
    {
      "constant": true,
      "inputs": [
        {
          "name": "_tokenId",
          "type": "uint256"
        }
      ],
      "name": "ownerOf",
      "outputs": [
        {
          "name": "",
          "type": "address"
        }
      ],
      "payable": false,
      "stateMutability": "view",
      "type": "function"
    },
    {
      "constant": true,
      "inputs": [
        {
          "name": "_owner",
          "type": "address"
        }
      ],
      "name": "balanceOf",
      "outputs": [
        {
          "name": "",
          "type": "uint256"
        }
      ],
      "payable": false,
      "stateMutability": "view",
      "type": "function"
    },
    {
      "constant": false,
      "inputs": [
        {
          "name": "addr",
          "type": "address"
        },
        {
          "name": "roleName",
          "type": "string"
        }
      ],
      "name": "adminRemoveRole",
      "outputs": [],
      "payable": false,
      "stateMutability": "nonpayable",
      "type": "function"
    },
    {
      "constant": true,
      "inputs": [],
      "name": "ROLE_PROMO",
      "outputs": [
        {
          "name": "",
          "type": "string"
        }
      ],
      "payable": false,
      "stateMutability": "view",
      "type": "function"
    },
    {
      "constant": false,
      "inputs": [
        {
          "name": "_minLevel",
          "type": "uint256"
        },
        {
          "name": "_capacity",
          "type": "uint256"
        }
      ],
      "name": "addLevelCapacity",
      "outputs": [],
      "payable": false,
      "stateMutability": "nonpayable",
      "type": "function"
    },
    {
      "constant": false,
      "inputs": [
        {
          "name": "_to",
          "type": "address"
        },
        {
          "name": "_approved",
          "type": "bool"
        }
      ],
      "name": "setApprovalForAll",
      "outputs": [],
      "payable": false,
      "stateMutability": "nonpayable",
      "type": "function"
    },
    {
      "constant": false,
      "inputs": [
        {
          "name": "addr",
          "type": "address"
        },
        {
          "name": "roleName",
          "type": "string"
        }
      ],
      "name": "adminAddRole",
      "outputs": [],
      "payable": false,
      "stateMutability": "nonpayable",
      "type": "function"
    },
    {
      "constant": false,
      "inputs": [
        {
          "name": "_from",
          "type": "address"
        },
        {
          "name": "_to",
          "type": "address"
        },
        {
          "name": "_tokenId",
          "type": "uint256"
        },
        {
          "name": "_data",
          "type": "bytes"
        }
      ],
      "name": "safeTransferFrom",
      "outputs": [],
      "payable": false,
      "stateMutability": "nonpayable",
      "type": "function"
    },
    {
      "constant": true,
      "inputs": [],
      "name": "ROLE_ADMIN",
      "outputs": [
        {
          "name": "",
          "type": "string"
        }
      ],
      "payable": false,
      "stateMutability": "view",
      "type": "function"
    },
    {
      "constant": true,
      "inputs": [
        {
          "name": "_owner",
          "type": "address"
        }
      ],
      "name": "getMaxCapacity",
      "outputs": [
        {
          "name": "maxCapacity",
          "type": "uint256"
        }
      ],
      "payable": false,
      "stateMutability": "view",
      "type": "function"
    },
    {
      "constant": true,
      "inputs": [
        {
          "name": "_owner",
          "type": "address"
        },
        {
          "name": "_operator",
          "type": "address"
        }
      ],
      "name": "isApprovedForAll",
      "outputs": [
        {
          "name": "",
          "type": "bool"
        }
      ],
      "payable": false,
      "stateMutability": "view",
      "type": "function"
    },
    {
      "constant": true,
      "inputs": [],
      "name": "ROLE_UPDATE",
      "outputs": [
        {
          "name": "",
          "type": "string"
        }
      ],
      "payable": false,
      "stateMutability": "view",
      "type": "function"
    },
    {
      "anonymous": false,
      "inputs": [
        {
          "indexed": true,
          "name": "_address",
          "type": "address"
        },
        {
          "indexed": false,
          "name": "toriIdx",
          "type": "uint256"
        }
      ],
      "name": "NewTori",
      "type": "event"
    },
    {
      "anonymous": false,
      "inputs": [
        {
          "indexed": true,
          "name": "_from",
          "type": "address"
        },
        {
          "indexed": true,
          "name": "_to",
          "type": "address"
        },
        {
          "indexed": true,
          "name": "_tokenId",
          "type": "uint256"
        }
      ],
      "name": "Transfer",
      "type": "event"
    },
    {
      "anonymous": false,
      "inputs": [
        {
          "indexed": true,
          "name": "_owner",
          "type": "address"
        },
        {
          "indexed": true,
          "name": "_approved",
          "type": "address"
        },
        {
          "indexed": true,
          "name": "_tokenId",
          "type": "uint256"
        }
      ],
      "name": "Approval",
      "type": "event"
    },
    {
      "anonymous": false,
      "inputs": [
        {
          "indexed": true,
          "name": "_owner",
          "type": "address"
        },
        {
          "indexed": true,
          "name": "_operator",
          "type": "address"
        },
        {
          "indexed": false,
          "name": "_approved",
          "type": "bool"
        }
      ],
      "name": "ApprovalForAll",
      "type": "event"
    },
    {
      "anonymous": false,
      "inputs": [
        {
          "indexed": true,
          "name": "operator",
          "type": "address"
        },
        {
          "indexed": false,
          "name": "role",
          "type": "string"
        }
      ],
      "name": "RoleAdded",
      "type": "event"
    },
    {
      "anonymous": false,
      "inputs": [
        {
          "indexed": true,
          "name": "operator",
          "type": "address"
        },
        {
          "indexed": false,
          "name": "role",
          "type": "string"
        }
      ],
      "name": "RoleRemoved",
      "type": "event"
    },
    {
      "constant": false,
      "inputs": [],
      "name": "updateGeneration",
      "outputs": [],
      "payable": false,
      "stateMutability": "nonpayable",
      "type": "function"
    },
    {
      "constant": false,
      "inputs": [
        {
          "name": "_quizzes",
          "type": "uint8[]"
        },
        {
          "name": "_name",
          "type": "string"
        },
        {
          "name": "_special",
          "type": "uint256"
        },
        {
          "name": "_owner",
          "type": "address"
        }
      ],
      "name": "generateSpecialTori",
      "outputs": [
        {
          "name": "success",
          "type": "bool"
        }
      ],
      "payable": false,
      "stateMutability": "nonpayable",
      "type": "function"
    },
    {
      "constant": false,
      "inputs": [
        {
          "name": "_dna",
          "type": "uint256"
        },
        {
          "name": "_level",
          "type": "uint256"
        },
        {
          "name": "_proficiency",
          "type": "uint32"
        },
        {
          "name": "_personality",
          "type": "uint32"
        },
        {
          "name": "_parent1",
          "type": "uint256"
        },
        {
          "name": "_parent2",
          "type": "uint256"
        },
        {
          "name": "_name",
          "type": "string"
        },
        {
          "name": "_owner",
          "type": "address"
        },
        {
          "name": "_special",
          "type": "uint256"
        }
      ],
      "name": "generateNewTori",
      "outputs": [
        {
          "name": "success",
          "type": "bool"
        }
      ],
      "payable": false,
      "stateMutability": "nonpayable",
      "type": "function"
    },
    {
      "constant": false,
      "inputs": [
        {
          "name": "_dna",
          "type": "uint256"
        },
        {
          "name": "_level",
          "type": "uint256"
        },
        {
          "name": "_proficiency",
          "type": "uint32"
        },
        {
          "name": "_personality",
          "type": "uint32"
        },
        {
          "name": "_parent1",
          "type": "uint256"
        },
        {
          "name": "_parent2",
          "type": "uint256"
        },
        {
          "name": "_name",
          "type": "string"
        },
        {
          "name": "_owner",
          "type": "address"
        },
        {
          "name": "_special",
          "type": "uint256"
        },
        {
          "name": "_generation",
          "type": "uint256"
        }
      ],
      "name": "generateNewTori",
      "outputs": [
        {
          "name": "success",
          "type": "bool"
        }
      ],
      "payable": false,
      "stateMutability": "nonpayable",
      "type": "function"
    },
    {
      "constant": false,
      "inputs": [
        {
          "name": "_owner",
          "type": "address"
        },
        {
          "name": "_tokenId",
          "type": "uint256"
        }
      ],
      "name": "burnTori",
      "outputs": [
        {
          "name": "success",
          "type": "bool"
        }
      ],
      "payable": false,
      "stateMutability": "nonpayable",
      "type": "function"
    },
    {
      "constant": true,
      "inputs": [
        {
          "name": "_owner",
          "type": "address"
        }
      ],
      "name": "getTokenIndexes",
      "outputs": [
        {
          "name": "",
          "type": "uint256[]"
        }
      ],
      "payable": false,
      "stateMutability": "view",
      "type": "function"
    },
    {
      "constant": true,
      "inputs": [
        {
          "name": "_owner",
          "type": "address"
        }
      ],
      "name": "getTokenIndexesWithMaxLevel",
      "outputs": [
        {
          "name": "",
          "type": "uint256[]"
        },
        {
          "name": "",
          "type": "uint256"
        }
      ],
      "payable": false,
      "stateMutability": "view",
      "type": "function"
    },
    {
      "constant": true,
      "inputs": [
        {
          "name": "_toriId",
          "type": "uint256"
        }
      ],
      "name": "getTokenInfo",
      "outputs": [
        {
          "name": "toriId",
          "type": "uint256"
        },
        {
          "name": "toriDna",
          "type": "uint256"
        },
        {
          "name": "level",
          "type": "uint256"
        },
        {
          "name": "name",
          "type": "string"
        },
        {
          "name": "proficiency",
          "type": "uint32"
        },
        {
          "name": "personality",
          "type": "uint32"
        },
        {
          "name": "readyTime",
          "type": "uint32"
        },
        {
          "name": "generation",
          "type": "uint256"
        },
        {
          "name": "special",
          "type": "uint256"
        },
        {
          "name": "postingPrice",
          "type": "uint256"
        },
        {
          "name": "toriOwner",
          "type": "address"
        }
      ],
      "payable": false,
      "stateMutability": "view",
      "type": "function"
    },
    {
      "constant": true,
      "inputs": [
        {
          "name": "_tokenId",
          "type": "uint256"
        }
      ],
      "name": "getParentIds",
      "outputs": [
        {
          "name": "parent1",
          "type": "uint256"
        },
        {
          "name": "parent2",
          "type": "uint256"
        }
      ],
      "payable": false,
      "stateMutability": "view",
      "type": "function"
    },
    {
      "constant": true,
      "inputs": [],
      "name": "getTokenCount",
      "outputs": [
        {
          "name": "toriCount",
          "type": "uint256"
        }
      ],
      "payable": false,
      "stateMutability": "view",
      "type": "function"
    },
    {
      "constant": true,
      "inputs": [],
      "name": "getAllTokensCount",
      "outputs": [
        {
          "name": "",
          "type": "uint256"
        }
      ],
      "payable": false,
      "stateMutability": "view",
      "type": "function"
    },
    {
      "constant": false,
      "inputs": [
        {
          "name": "_tokenId",
          "type": "uint256"
        },
        {
          "name": "_salePrice",
          "type": "uint256"
        }
      ],
      "name": "approveForSale",
      "outputs": [],
      "payable": false,
      "stateMutability": "nonpayable",
      "type": "function"
    },
    {
      "constant": false,
      "inputs": [
        {
          "name": "_tokenId",
          "type": "uint256"
        }
      ],
      "name": "removeForSale",
      "outputs": [],
      "payable": false,
      "stateMutability": "nonpayable",
      "type": "function"
    },
    {
      "constant": false,
      "inputs": [
        {
          "name": "_tokenId",
          "type": "uint256"
        }
      ],
      "name": "buyForSale",
      "outputs": [],
      "payable": true,
      "stateMutability": "payable",
      "type": "function"
    },
    {
      "constant": true,
      "inputs": [],
      "name": "retrieveAllForSales",
      "outputs": [
        {
          "name": "",
          "type": "uint256[]"
        }
      ],
      "payable": false,
      "stateMutability": "view",
      "type": "function"
    },
    {
      "constant": false,
      "inputs": [
        {
          "name": "_tokenId",
          "type": "uint256"
        },
        {
          "name": "_newName",
          "type": "string"
        }
      ],
      "name": "updateName",
      "outputs": [
        {
          "name": "",
          "type": "bool"
        }
      ],
      "payable": false,
      "stateMutability": "nonpayable",
      "type": "function"
    },
    {
      "constant": false,
      "inputs": [
        {
          "name": "_tokenId",
          "type": "uint256"
        },
        {
          "name": "_name",
          "type": "string"
        },
        {
          "name": "_proficiency",
          "type": "uint32"
        },
        {
          "name": "_personality",
          "type": "uint32"
        },
        {
          "name": "_special",
          "type": "uint256"
        },
        {
          "name": "_minLevel",
          "type": "uint256"
        }
      ],
      "name": "updateTori",
      "outputs": [
        {
          "name": "result",
          "type": "bool"
        }
      ],
      "payable": false,
      "stateMutability": "nonpayable",
      "type": "function"
    }
  ],
  "bytecode": "0x6080604052602360005560036001556006600255600054600a0a600355600160025401600a0a600455600154600a0a60055560a060405190810160405280601961ffff168152602001606461ffff16815260200160af61ffff16815260200160c861ffff16815260200161012c61ffff1681525060069060056200008592919062000680565b50600254600a0a600755608060405190810160405280609661ffff16815260200160c861ffff16815260200161012c61ffff16815260200161015e61ffff168152506008906004620000d9929190620006d8565b50604b600955600060165562000134336040805190810160405280600581526020017f61646d696e00000000000000000000000000000000000000000000000000000081525062000248640100000000026401000000009004565b620001516001600662000391640100000000026401000000009004565b6200016e6004601062000391640100000000026401000000009004565b6200018b6008601962000391640100000000026401000000009004565b620001c86301ffc9a77c0100000000000000000000000000000000000000000000000000000000026200044c640100000000026401000000009004565b620002056380ac58cd7c0100000000000000000000000000000000000000000000000000000000026200044c640100000000026401000000009004565b62000242634f558e797c0100000000000000000000000000000000000000000000000000000000026200044c640100000000026401000000009004565b62000758565b620002d782600a836040518082805190602001908083835b60208310151562000287578051825260208201915060208101905060208303925062000260565b6001836020036101000a03801982511681845116808217855250505050505090500191505090815260200160405180910390206200050b64010000000002620041c3179091906401000000009004565b8173ffffffffffffffffffffffffffffffffffffffff167fbfec83d64eaa953f2708271a023ab9ee82057f8f3578d548c1a4ba0b5b700489826040518080602001828103825283818151815260200191508051906020019080838360005b838110156200035257808201518184015260208101905062000335565b50505050905090810190601f168015620003805780820380516001836020036101000a031916815260200191505b509250505060405180910390a25050565b620003e1336040805190810160405280600581526020017f61646d696e00000000000000000000000000000000000000000000000000000081525062000569640100000000026401000000009004565b6000600c6000848152602001908152602001600020541415156200040457600080fd5b80600c600084815260200190815260200160002081905550600d8290806001815401808255809150509060018203906000526020600020016000909192909190915055505050565b63ffffffff7c010000000000000000000000000000000000000000000000000000000002817bffffffffffffffffffffffffffffffffffffffffffffffffffffffff1916141515156200049e57600080fd5b6001600e6000837bffffffffffffffffffffffffffffffffffffffffffffffffffffffff19167bffffffffffffffffffffffffffffffffffffffffffffffffffffffff1916815260200190815260200160002060006101000a81548160ff02191690831515021790555050565b60018260000160008373ffffffffffffffffffffffffffffffffffffffff1673ffffffffffffffffffffffffffffffffffffffff16815260200190815260200160002060006101000a81548160ff0219169083151502179055505050565b620005f882600a836040518082805190602001908083835b602083101515620005a8578051825260208201915060208101905060208303925062000581565b6001836020036101000a0380198251168184511680821785525050505050509050019150509081526020016040518091039020620005fc640100000000026200324b179091906401000000009004565b5050565b62000617828262000627640100000000026401000000009004565b15156200062357600080fd5b5050565b60008260000160008373ffffffffffffffffffffffffffffffffffffffff1673ffffffffffffffffffffffffffffffffffffffff16815260200190815260200160002060009054906101000a900460ff16905092915050565b828054828255906000526020600020908101928215620006c5579160200282015b82811115620006c4578251829061ffff16905591602001919060010190620006a1565b5b509050620006d4919062000730565b5090565b8280548282559060005260206000209081019282156200071d579160200282015b828111156200071c578251829061ffff16905591602001919060010190620006f9565b5b5090506200072c919062000730565b5090565b6200075591905b808211156200075157600081600090555060010162000737565b5090565b90565b61474880620007686000396000f3006080604052600436106101ee576000357c0100000000000000000000000000000000000000000000000000000000900463ffffffff16806301ffc9a7146101f3578063081812fc14610257578063095ea7b3146102c45780630988ca8c14610311578063120e22e41461039a57806319fa8f50146103d15780631c7dc6091461043a578063217fe6c61461047b57806323b872dd1461051c5780633b1203d71461058957806342842e0e14610619578063444c9293146106865780634dac6dcf146107455780634f558e79146107aa5780634f8e2a42146107ef5780635178f004146108e257806353e76f2c1461092a5780636352211e146109b55780636b8667f514610a2257806370a0823114610a4f57806378a8956714610aa657806380507b5714610ad157806388cee87e14610b695780638c7a63ae14610bf257806391f8548d14610d2e578063933b545414610dbe57806394b1e1cb14610de9578063a22cb46514610e20578063b25fa92c14610e6f578063b32805c314610ef8578063b438314f14610f0f578063b88d4fde14610f2f578063bc53c17a14610fe2578063be928c92146110df578063d391014b1461114b578063dd204314146111db578063e3ce225714611232578063e728ce90146112d1578063e985e9c5146113bf578063feb3a68a1461143a575b600080fd5b3480156101ff57600080fd5b5061023d60048036038101908080357bffffffffffffffffffffffffffffffffffffffffffffffffffffffff191690602001909291905050506114ca565b604051808215151515815260200191505060405180910390f35b34801561026357600080fd5b5061028260048036038101908080359060200190929190505050611532565b604051808273ffffffffffffffffffffffffffffffffffffffff1673ffffffffffffffffffffffffffffffffffffffff16815260200191505060405180910390f35b3480156102d057600080fd5b5061030f600480360381019080803573ffffffffffffffffffffffffffffffffffffffff1690602001909291908035906020019092919050505061156f565b005b34801561031d57600080fd5b50610398600480360381019080803573ffffffffffffffffffffffffffffffffffffffff169060200190929190803590602001908201803590602001908080601f01602080910402602001604051908101604052809392919081815260200183838082843782019150505050505091929192905050506116b4565b005b3480156103a657600080fd5b506103cf6004803603810190808035906020019092919080359060200190929190505050611735565b005b3480156103dd57600080fd5b506103e66117e9565b60405180827bffffffffffffffffffffffffffffffffffffffffffffffffffffffff19167bffffffffffffffffffffffffffffffffffffffffffffffffffffffff1916815260200191505060405180910390f35b34801561044657600080fd5b5061046560048036038101908080359060200190929190505050611810565b6040518082815260200191505060405180910390f35b34801561048757600080fd5b50610502600480360381019080803573ffffffffffffffffffffffffffffffffffffffff169060200190929190803590602001908201803590602001908080601f01602080910402602001604051908101604052809392919081815260200183838082843782019150505050505091929192905050506118aa565b604051808215151515815260200191505060405180910390f35b34801561052857600080fd5b50610587600480360381019080803573ffffffffffffffffffffffffffffffffffffffff169060200190929190803573ffffffffffffffffffffffffffffffffffffffff16906020019092919080359060200190929190505050611931565b005b34801561059557600080fd5b5061059e611a3e565b6040518080602001828103825283818151815260200191508051906020019080838360005b838110156105de5780820151818401526020810190506105c3565b50505050905090810190601f16801561060b5780820380516001836020036101000a031916815260200191505b509250505060405180910390f35b34801561062557600080fd5b50610684600480360381019080803573ffffffffffffffffffffffffffffffffffffffff169060200190929190803573ffffffffffffffffffffffffffffffffffffffff16906020019092919080359060200190929190505050611a77565b005b34801561069257600080fd5b5061072b60048036038101908080359060200190929190803590602001908201803590602001908080601f0160208091040260200160405190810160405280939291908181526020018383808284378201915050505050509192919290803563ffffffff169060200190929190803563ffffffff1690602001909291908035906020019092919080359060200190929190505050611aaf565b604051808215151515815260200191505060405180910390f35b34801561075157600080fd5b50610790600480360381019080803573ffffffffffffffffffffffffffffffffffffffff16906020019092919080359060200190929190505050611c00565b604051808215151515815260200191505060405180910390f35b3480156107b657600080fd5b506107d560048036038101908080359060200190929190505050611c14565b604051808215151515815260200191505060405180910390f35b3480156107fb57600080fd5b506108c86004803603810190808035906020019092919080359060200190929190803563ffffffff169060200190929190803563ffffffff1690602001909291908035906020019092919080359060200190929190803590602001908201803590602001908080601f0160208091040260200160405190810160405280939291908181526020018383808284378201915050505050509192919290803573ffffffffffffffffffffffffffffffffffffffff16906020019092919080359060200190929190505050611c86565b604051808215151515815260200191505060405180910390f35b3480156108ee57600080fd5b5061090d60048036038101908080359060200190929190505050611daa565b604051808381526020018281526020019250505060405180910390f35b34801561093657600080fd5b5061099b60048036038101908080359060200190929190803590602001908201803590602001908080601f0160208091040260200160405190810160405280939291908181526020018383808284378201915050505050509192919290505050611df8565b604051808215151515815260200191505060405180910390f35b3480156109c157600080fd5b506109e060048036038101908080359060200190929190505050611eb6565b604051808273ffffffffffffffffffffffffffffffffffffffff1673ffffffffffffffffffffffffffffffffffffffff16815260200191505060405180910390f35b348015610a2e57600080fd5b50610a4d60048036038101908080359060200190929190505050611f34565b005b348015610a5b57600080fd5b50610a90600480360381019080803573ffffffffffffffffffffffffffffffffffffffff169060200190929190505050611fdc565b6040518082815260200191505060405180910390f35b348015610ab257600080fd5b50610abb612060565b6040518082815260200191505060405180910390f35b348015610add57600080fd5b50610b12600480360381019080803573ffffffffffffffffffffffffffffffffffffffff1690602001909291905050506120a7565b6040518080602001828103825283818151815260200191508051906020019060200280838360005b83811015610b55578082015181840152602081019050610b3a565b505050509050019250505060405180910390f35b348015610b7557600080fd5b50610bf0600480360381019080803573ffffffffffffffffffffffffffffffffffffffff169060200190929190803590602001908201803590602001908080601f016020809104026020016040519081016040528093929190818152602001838380828437820191505050505050919291929050505061220a565b005b348015610bfe57600080fd5b50610c1d60048036038101908080359060200190929190505050612257565b604051808c81526020018b81526020018a8152602001806020018963ffffffff1663ffffffff1681526020018863ffffffff1663ffffffff1681526020018763ffffffff1663ffffffff1681526020018681526020018581526020018481526020018373ffffffffffffffffffffffffffffffffffffffff1673ffffffffffffffffffffffffffffffffffffffff16815260200182810382528a818151815260200191508051906020019080838360005b83811015610ce9578082015181840152602081019050610cce565b50505050905090810190601f168015610d165780820380516001836020036101000a031916815260200191505b509c5050505050505050505050505060405180910390f35b348015610d3a57600080fd5b50610d43612484565b6040518080602001828103825283818151815260200191508051906020019080838360005b83811015610d83578082015181840152602081019050610d68565b50505050905090810190601f168015610db05780820380516001836020036101000a031916815260200191505b509250505060405180910390f35b348015610dca57600080fd5b50610dd36124bd565b6040518082815260200191505060405180910390f35b348015610df557600080fd5b50610e1e60048036038101908080359060200190929190803590602001909291905050506124ca565b005b348015610e2c57600080fd5b50610e6d600480360381019080803573ffffffffffffffffffffffffffffffffffffffff169060200190929190803515159060200190929190505050612573565b005b348015610e7b57600080fd5b50610ef6600480360381019080803573ffffffffffffffffffffffffffffffffffffffff169060200190929190803590602001908201803590602001908080601f01602080910402602001604051908101604052809392919081815260200183838082843782019150505050505091929192905050506126af565b005b348015610f0457600080fd5b50610f0d6126fc565b005b610f2d60048036038101908080359060200190929190505050612759565b005b348015610f3b57600080fd5b50610fe0600480360381019080803573ffffffffffffffffffffffffffffffffffffffff169060200190929190803573ffffffffffffffffffffffffffffffffffffffff16906020019092919080359060200190929190803590602001908201803590602001908080601f0160208091040260200160405190810160405280939291908181526020018383808284378201915050505050509192919290505050612a2c565b005b348015610fee57600080fd5b506110c56004803603810190808035906020019092919080359060200190929190803563ffffffff169060200190929190803563ffffffff1690602001909291908035906020019092919080359060200190929190803590602001908201803590602001908080601f0160208091040260200160405190810160405280939291908181526020018383808284378201915050505050509192919290803573ffffffffffffffffffffffffffffffffffffffff1690602001909291908035906020019092919080359060200190929190505050612a6b565b604051808215151515815260200191505060405180910390f35b3480156110eb57600080fd5b506110f4612b8c565b6040518080602001828103825283818151815260200191508051906020019060200280838360005b8381101561113757808201518184015260208101905061111c565b505050509050019250505060405180910390f35b34801561115757600080fd5b50611160612c50565b6040518080602001828103825283818151815260200191508051906020019080838360005b838110156111a0578082015181840152602081019050611185565b50505050905090810190601f1680156111cd5780820380516001836020036101000a031916815260200191505b509250505060405180910390f35b3480156111e757600080fd5b5061121c600480360381019080803573ffffffffffffffffffffffffffffffffffffffff169060200190929190505050612c89565b6040518082815260200191505060405180910390f35b34801561123e57600080fd5b50611273600480360381019080803573ffffffffffffffffffffffffffffffffffffffff169060200190929190505050612ced565b6040518080602001838152602001828103825284818151815260200191508051906020019060200280838360005b838110156112bc5780820151818401526020810190506112a1565b50505050905001935050505060405180910390f35b3480156112dd57600080fd5b506113a560048036038101908080359060200190820180359060200190808060200260200160405190810160405280939291908181526020018383602002808284378201915050505050509192919290803590602001908201803590602001908080601f016020809104026020016040519081016040528093929190818152602001838380828437820191505050505050919291929080359060200190929190803573ffffffffffffffffffffffffffffffffffffffff169060200190929190505050612d85565b604051808215151515815260200191505060405180910390f35b3480156113cb57600080fd5b50611420600480360381019080803573ffffffffffffffffffffffffffffffffffffffff169060200190929190803573ffffffffffffffffffffffffffffffffffffffff16906020019092919050505061317e565b604051808215151515815260200191505060405180910390f35b34801561144657600080fd5b5061144f613212565b6040518080602001828103825283818151815260200191508051906020019080838360005b8381101561148f578082015181840152602081019050611474565b50505050905090810190601f1680156114bc5780820380516001836020036101000a031916815260200191505b509250505060405180910390f35b6000600e6000837bffffffffffffffffffffffffffffffffffffffffffffffffffffffff19167bffffffffffffffffffffffffffffffffffffffffffffffffffffffff1916815260200190815260200160002060009054906101000a900460ff169050919050565b60006010600083815260200190815260200160002060009054906101000a900473ffffffffffffffffffffffffffffffffffffffff169050919050565b600061157a82611eb6565b90508073ffffffffffffffffffffffffffffffffffffffff168373ffffffffffffffffffffffffffffffffffffffff16141515156115b757600080fd5b8073ffffffffffffffffffffffffffffffffffffffff163373ffffffffffffffffffffffffffffffffffffffff1614806115f757506115f6813361317e565b5b151561160257600080fd5b826010600084815260200190815260200160002060006101000a81548173ffffffffffffffffffffffffffffffffffffffff021916908373ffffffffffffffffffffffffffffffffffffffff160217905550818373ffffffffffffffffffffffffffffffffffffffff168273ffffffffffffffffffffffffffffffffffffffff167f8c5be1e5ebec7d5bd14f71427d1e84f3dd0314c0f7b2291e5b200ac8c7c3b92560405160405180910390a4505050565b61173182600a836040518082805190602001908083835b6020831015156116f057805182526020820191506020810190506020830392506116cb565b6001836020036101000a038019825116818451168082178552505050505050905001915050908152602001604051809103902061324b90919063ffffffff16565b5050565b813373ffffffffffffffffffffffffffffffffffffffff1661175682611eb6565b73ffffffffffffffffffffffffffffffffffffffff1614151561177857600080fd5b6000601460008581526020019081526020016000205414801561179b5750600082115b15156117a657600080fd5b8160146000858152602001908152602001600020819055506117d4600160155461326490919063ffffffff16565b6015819055506117e4308461156f565b505050565b6301ffc9a77c01000000000000000000000000000000000000000000000000000000000281565b60008060008091505b600d8054905082101561188b57600d600183600d80549050030381548110151561183f57fe5b90600052602060002001549050838111151561187057600c60008281526020019081526020016000205492506118a3565b61188460018361326490919063ffffffff16565b9150611819565b600c6000600181526020019081526020016000205492505b5050919050565b600061192983600a846040518082805190602001908083835b6020831015156118e857805182526020820191506020810190506020830392506118c3565b6001836020036101000a038019825116818451168082178552505050505050905001915050908152602001604051809103902061328090919063ffffffff16565b905092915050565b8061193c33826132d9565b151561194757600080fd5b600073ffffffffffffffffffffffffffffffffffffffff168473ffffffffffffffffffffffffffffffffffffffff161415151561198357600080fd5b600073ffffffffffffffffffffffffffffffffffffffff168373ffffffffffffffffffffffffffffffffffffffff16141515156119bf57600080fd5b6119c9848361336e565b6119d38483613471565b6119dd83836135a0565b818373ffffffffffffffffffffffffffffffffffffffff168573ffffffffffffffffffffffffffffffffffffffff167fddf252ad1be2c89b69c2b068fc378daa952ba7f163c4a11628f55a4df523b3ef60405160405180910390a450505050565b6040805190810160405280600581526020017f766973697400000000000000000000000000000000000000000000000000000081525081565b80611a8233826132d9565b1515611a8d57600080fd5b611aa98484846020604051908101604052806000815250612a2c565b50505050565b6000806040805190810160405280600681526020017f7570646174650000000000000000000000000000000000000000000000000000815250611af233826116b4565b883373ffffffffffffffffffffffffffffffffffffffff16611b1382611eb6565b73ffffffffffffffffffffffffffffffffffffffff16141515611b3557600080fd5b898580601383815481101515611b4757fe5b90600052602060002090600802016001015410151515611b6657600080fd5b60138c815481101515611b7557fe5b906000526020600020906008020194508a856002019080519060200190611b9d929190614591565b50898560030160006101000a81548163ffffffff021916908363ffffffff160217905550888560030160046101000a81548163ffffffff021916908363ffffffff1602179055508785600501819055506001955050505050509695505050505050565b6000611c0c83836136fa565b905092915050565b600080600f600084815260200190815260200160002060009054906101000a900473ffffffffffffffffffffffffffffffffffffffff169050600073ffffffffffffffffffffffffffffffffffffffff168173ffffffffffffffffffffffffffffffffffffffff161415915050919050565b60006040805190810160405280600581526020017f7669736974000000000000000000000000000000000000000000000000000000815250611cc833826116b4565b8360008073ffffffffffffffffffffffffffffffffffffffff168273ffffffffffffffffffffffffffffffffffffffff16148015611d415750611d40336040805190810160405280600581526020017f76697369740000000000000000000000000000000000000000000000000000008152506118aa565b5b15611d6157611d5a8d8d8d8d8d8d8d8d8d6016546137a3565b9350611d9a565b611d6a82612c89565b9050611d7582611fdc565b8110151515611d8357600080fd5b611d978d8d8d8d8d8d8d8d8d6016546137a3565b93505b5050509998505050505050505050565b600080601383815481101515611dbc57fe5b906000526020600020906008020160060154601384815481101515611ddd57fe5b90600052602060002090600802016007015491509150915091565b600080833373ffffffffffffffffffffffffffffffffffffffff16611e1c82611eb6565b73ffffffffffffffffffffffffffffffffffffffff16141515611e3e57600080fd5b84600480601383815481101515611e5157fe5b90600052602060002090600802016001015410151515611e7057600080fd5b601387815481101515611e7f57fe5b9060005260206000209060080201935085846002019080519060200190611ea7929190614591565b50600194505050505092915050565b600080600f600084815260200190815260200160002060009054906101000a900473ffffffffffffffffffffffffffffffffffffffff169050600073ffffffffffffffffffffffffffffffffffffffff168173ffffffffffffffffffffffffffffffffffffffff1614151515611f2b57600080fd5b80915050919050565b803373ffffffffffffffffffffffffffffffffffffffff16611f5582611eb6565b73ffffffffffffffffffffffffffffffffffffffff16141515611f7757600080fd5b60006014600084815260200190815260200160002054111515611f9957600080fd5b60006014600084815260200190815260200160002081905550611fc86001601554613a8390919063ffffffff16565b601581905550611fd8338361336e565b5050565b60008073ffffffffffffffffffffffffffffffffffffffff168273ffffffffffffffffffffffffffffffffffffffff161415151561201957600080fd5b601160008373ffffffffffffffffffffffffffffffffffffffff1673ffffffffffffffffffffffffffffffffffffffff168152602001908152602001600020549050919050565b6000601160003373ffffffffffffffffffffffffffffffffffffffff1673ffffffffffffffffffffffffffffffffffffffff16815260200190815260200160002054905090565b606060006060600080601160008773ffffffffffffffffffffffffffffffffffffffff1673ffffffffffffffffffffffffffffffffffffffff168152602001908152602001600020549350836040519080825280602002602001820160405280156121215781602001602082028038833980820191505090505b50925060009150600090505b6013805490508110156121fe578573ffffffffffffffffffffffffffffffffffffffff16600f600083815260200190815260200160002060009054906101000a900473ffffffffffffffffffffffffffffffffffffffff1673ffffffffffffffffffffffffffffffffffffffff1614156121d5578083838151811015156121b057fe5b90602001906020020181815250506121d260018361326490919063ffffffff16565b91505b83821015156121e3576121fe565b6121f760018261326490919063ffffffff16565b905061212d565b82945050505050919050565b612249336040805190810160405280600581526020017f61646d696e0000000000000000000000000000000000000000000000000000008152506116b4565b6122538282613a9c565b5050565b600080600060606000806000806000806000612271614611565b60138d81548110151561228057fe5b906000526020600020906008020161014060405190810160405290816000820154815260200160018201548152602001600282018054600181600116156101000203166002900480601f0160208091040260200160405190810160405280929190818152602001828054600181600116156101000203166002900480156123485780601f1061231d57610100808354040283529160200191612348565b820191906000526020600020905b81548152906001019060200180831161232b57829003601f168201915b505050505081526020016003820160009054906101000a900463ffffffff1663ffffffff1663ffffffff1681526020016003820160049054906101000a900463ffffffff1663ffffffff1663ffffffff1681526020016003820160089054906101000a900463ffffffff1663ffffffff1663ffffffff16815260200160048201548152602001600582015481526020016006820154815260200160078201548152505090508c9b508060200151995080600001519a508060400151985080606001519750806080015196508060a0015195508060c0015194508060e001519350601460008e8152602001908152602001600020549250600f60008e815260200190815260200160002060009054906101000a900473ffffffffffffffffffffffffffffffffffffffff1691505091939597999b90929496989a50565b6040805190810160405280600581526020017f70726f6d6f00000000000000000000000000000000000000000000000000000081525081565b6000601380549050905090565b612509336040805190810160405280600581526020017f61646d696e0000000000000000000000000000000000000000000000000000008152506116b4565b6000600c60008481526020019081526020016000205414151561252b57600080fd5b80600c600084815260200190815260200160002081905550600d8290806001815401808255809150509060018203906000526020600020016000909192909190915055505050565b3373ffffffffffffffffffffffffffffffffffffffff168273ffffffffffffffffffffffffffffffffffffffff16141515156125ae57600080fd5b80601260003373ffffffffffffffffffffffffffffffffffffffff1673ffffffffffffffffffffffffffffffffffffffff16815260200190815260200160002060008473ffffffffffffffffffffffffffffffffffffffff1673ffffffffffffffffffffffffffffffffffffffff16815260200190815260200160002060006101000a81548160ff0219169083151502179055508173ffffffffffffffffffffffffffffffffffffffff163373ffffffffffffffffffffffffffffffffffffffff167f17307eab39ab6107e8899845ad3d59bd9653f200f220920489ca2b5937696c3183604051808215151515815260200191505060405180910390a35050565b6126ee336040805190810160405280600581526020017f61646d696e0000000000000000000000000000000000000000000000000000008152506116b4565b6126f88282613bd0565b5050565b61273b336040805190810160405280600581526020017f61646d696e0000000000000000000000000000000000000000000000000000008152506116b4565b612751600160165461326490919063ffffffff16565b601681905550565b60008061276630846132d9565b8015612785575060006014600085815260200190815260200160002054115b80156127a4575060146000848152602001908152602001600020543410155b15156127af57600080fd5b6127b883611eb6565b91506127e0601460008581526020019081526020016000205434613a8390919063ffffffff16565b90506000811115612891573373ffffffffffffffffffffffffffffffffffffffff166108fc829081150290604051600060405180830381858888f19350505050158015612831573d6000803e3d6000fd5b508173ffffffffffffffffffffffffffffffffffffffff166108fc60146000868152602001908152602001600020549081150290604051600060405180830381858888f1935050505015801561288b573d6000803e3d6000fd5b506128d9565b8173ffffffffffffffffffffffffffffffffffffffff166108fc349081150290604051600060405180830381858888f193505050501580156128d7573d6000803e3d6000fd5b505b600060146000858152602001908152602001600020819055506129086001601554613a8390919063ffffffff16565b6015819055506129383360138581548110151561292157fe5b906000526020600020906008020160010154613d04565b3073ffffffffffffffffffffffffffffffffffffffff166342842e0e8333866040518463ffffffff167c0100000000000000000000000000000000000000000000000000000000028152600401808473ffffffffffffffffffffffffffffffffffffffff1673ffffffffffffffffffffffffffffffffffffffff1681526020018373ffffffffffffffffffffffffffffffffffffffff1673ffffffffffffffffffffffffffffffffffffffff1681526020018281526020019350505050600060405180830381600087803b158015612a0f57600080fd5b505af1158015612a23573d6000803e3d6000fd5b50505050505050565b81612a3733826132d9565b1515612a4257600080fd5b612a4d858585611931565b612a5985858585613d9a565b1515612a6457600080fd5b5050505050565b60006040805190810160405280600581526020017f7669736974000000000000000000000000000000000000000000000000000000815250612aad33826116b4565b8460008073ffffffffffffffffffffffffffffffffffffffff168273ffffffffffffffffffffffffffffffffffffffff16148015612b265750612b25336040805190810160405280600581526020017f76697369740000000000000000000000000000000000000000000000000000008152506118aa565b5b15612b4457612b3d8e8e8e8e8e8e8e8e8e8e6137a3565b9350612b7b565b612b4d82612c89565b9050612b5882611fdc565b8110151515612b6657600080fd5b612b788e8e8e8e8e8e8e8e8e8e6137a3565b93505b5050509a9950505050505050505050565b606080600080601554604051908082528060200260200182016040528015612bc35781602001602082028038833980820191505090505b50925060009150600090505b601380549050811015612c4757600060146000838152602001908152602001600020541115612c2c57808383815181101515612c0757fe5b9060200190602002018181525050612c2960018361326490919063ffffffff16565b91505b612c4060018261326490919063ffffffff16565b9050612bcf565b82935050505090565b6040805190810160405280600581526020017f61646d696e00000000000000000000000000000000000000000000000000000081525081565b600080600b60008473ffffffffffffffffffffffffffffffffffffffff1673ffffffffffffffffffffffffffffffffffffffff1681526020019081526020016000205490506000811415612cdc57600190505b612ce581611810565b915050919050565b6060600060606000806000612d01876120a7565b935060019250600091505b8351821015612d765760138483815181101515612d2557fe5b90602001906020020151815481101515612d3b57fe5b906000526020600020906008020160010154905082811115612d5b578092505b612d6f60018361326490919063ffffffff16565b9150612d0c565b83839550955050505050915091565b6000612d8f614611565b60006040805190810160405280600581526020017f70726f6d6f000000000000000000000000000000000000000000000000000000815250612dd133826116b4565b8460008073ffffffffffffffffffffffffffffffffffffffff168273ffffffffffffffffffffffffffffffffffffffff16148015612e4a5750612e49336040805190810160405280600581526020017f76697369740000000000000000000000000000000000000000000000000000008152506118aa565b5b15612fd157612e5b8a8a898b613fbc565b945060016013869080600181540180825580915050906001820390600052602060002090600802016000909192909190915060008201518160000155602082015181600101556040820151816002019080519060200190612ebd929190614677565b5060608201518160030160006101000a81548163ffffffff021916908363ffffffff16021790555060808201518160030160046101000a81548163ffffffff021916908363ffffffff16021790555060a08201518160030160086101000a81548163ffffffff021916908363ffffffff16021790555060c0820151816004015560e08201518160050155610100820151816006015561012082015181600701555050039350612f6c878561404b565b612f7a878660200151613d04565b8673ffffffffffffffffffffffffffffffffffffffff167f163090350da897fd03497e870bbe993a1948b39328cd37a8fe6b9179e120dd27856040518082815260200191505060405180910390a260019550613171565b612fda82612c89565b9050612fe582611fdc565b8110151515612ff357600080fd5b612fff8a8a898b613fbc565b945060016013869080600181540180825580915050906001820390600052602060002090600802016000909192909190915060008201518160000155602082015181600101556040820151816002019080519060200190613061929190614677565b5060608201518160030160006101000a81548163ffffffff021916908363ffffffff16021790555060808201518160030160046101000a81548163ffffffff021916908363ffffffff16021790555060a08201518160030160086101000a81548163ffffffff021916908363ffffffff16021790555060c0820151816004015560e08201518160050155610100820151816006015561012082015181600701555050039350613110878561404b565b61311e878660200151613d04565b8673ffffffffffffffffffffffffffffffffffffffff167f163090350da897fd03497e870bbe993a1948b39328cd37a8fe6b9179e120dd27856040518082815260200191505060405180910390a2600195505b5050505050949350505050565b6000601260008473ffffffffffffffffffffffffffffffffffffffff1673ffffffffffffffffffffffffffffffffffffffff16815260200190815260200160002060008373ffffffffffffffffffffffffffffffffffffffff1673ffffffffffffffffffffffffffffffffffffffff16815260200190815260200160002060009054906101000a900460ff16905092915050565b6040805190810160405280600681526020017f757064617465000000000000000000000000000000000000000000000000000081525081565b6132558282613280565b151561326057600080fd5b5050565b6000818301905082811015151561327757fe5b80905092915050565b60008260000160008373ffffffffffffffffffffffffffffffffffffffff1673ffffffffffffffffffffffffffffffffffffffff16815260200190815260200160002060009054906101000a900460ff16905092915050565b6000806132e583611eb6565b90508073ffffffffffffffffffffffffffffffffffffffff168473ffffffffffffffffffffffffffffffffffffffff16148061335457508373ffffffffffffffffffffffffffffffffffffffff1661333c84611532565b73ffffffffffffffffffffffffffffffffffffffff16145b806133655750613364818561317e565b5b91505092915050565b8173ffffffffffffffffffffffffffffffffffffffff1661338e82611eb6565b73ffffffffffffffffffffffffffffffffffffffff161415156133b057600080fd5b600073ffffffffffffffffffffffffffffffffffffffff166010600083815260200190815260200160002060009054906101000a900473ffffffffffffffffffffffffffffffffffffffff1673ffffffffffffffffffffffffffffffffffffffff1614151561346d5760006010600083815260200190815260200160002060006101000a81548173ffffffffffffffffffffffffffffffffffffffff021916908373ffffffffffffffffffffffffffffffffffffffff1602179055505b5050565b8173ffffffffffffffffffffffffffffffffffffffff1661349182611eb6565b73ffffffffffffffffffffffffffffffffffffffff161415156134b357600080fd5b6135066001601160008573ffffffffffffffffffffffffffffffffffffffff1673ffffffffffffffffffffffffffffffffffffffff16815260200190815260200160002054613a8390919063ffffffff16565b601160008473ffffffffffffffffffffffffffffffffffffffff1673ffffffffffffffffffffffffffffffffffffffff168152602001908152602001600020819055506000600f600083815260200190815260200160002060006101000a81548173ffffffffffffffffffffffffffffffffffffffff021916908373ffffffffffffffffffffffffffffffffffffffff1602179055505050565b600073ffffffffffffffffffffffffffffffffffffffff16600f600083815260200190815260200160002060009054906101000a900473ffffffffffffffffffffffffffffffffffffffff1673ffffffffffffffffffffffffffffffffffffffff1614151561360e57600080fd5b81600f600083815260200190815260200160002060006101000a81548173ffffffffffffffffffffffffffffffffffffffff021916908373ffffffffffffffffffffffffffffffffffffffff1602179055506136b36001601160008573ffffffffffffffffffffffffffffffffffffffff1673ffffffffffffffffffffffffffffffffffffffff1681526020019081526020016000205461326490919063ffffffff16565b601160008473ffffffffffffffffffffffffffffffffffffffff1673ffffffffffffffffffffffffffffffffffffffff168152602001908152602001600020819055505050565b60006040805190810160405280600581526020017f766973697400000000000000000000000000000000000000000000000000000081525061373c33826116b4565b60006014600085815260200190815260200160002054111561378e57600060146000858152602001908152602001600020819055506137876001601554613a8390919063ffffffff16565b6015819055505b61379884846140f1565b600191505092915050565b60006137ad614611565b6000806003548e8115156137bd57fe5b041480156137d2575060008b63ffffffff1610155b80156137e857506006805490508b63ffffffff16105b80156137fb575060008a63ffffffff1610155b801561381157506008805490508a63ffffffff16105b151561381c57600080fd5b610140604051908101604052808e81526020018d81526020018881526020018c63ffffffff1681526020018b63ffffffff1681526020014263ffffffff1681526020018581526020018681526020018a8152602001898152509150600160138390806001815401808255809150509060018203906000526020600020906008020160009091929091909150600082015181600001556020820151816001015560408201518160020190805190602001906138d7929190614677565b5060608201518160030160006101000a81548163ffffffff021916908363ffffffff16021790555060808201518160030160046101000a81548163ffffffff021916908363ffffffff16021790555060a08201518160030160086101000a81548163ffffffff021916908363ffffffff16021790555060c0820151816004015560e08201518160050155610100820151816006015561012082015181600701555050039050600073ffffffffffffffffffffffffffffffffffffffff168673ffffffffffffffffffffffffffffffffffffffff161415613a085785600f600083815260200190815260200160002060006101000a81548173ffffffffffffffffffffffffffffffffffffffff021916908373ffffffffffffffffffffffffffffffffffffffff160217905550613a6f565b613a12868261404b565b613a20868360200151613d04565b8573ffffffffffffffffffffffffffffffffffffffff167f163090350da897fd03497e870bbe993a1948b39328cd37a8fe6b9179e120dd27826040518082815260200191505060405180910390a25b6001925050509a9950505050505050505050565b6000828211151515613a9157fe5b818303905092915050565b613b1982600a836040518082805190602001908083835b602083101515613ad85780518252602082019150602081019050602083039250613ab3565b6001836020036101000a038019825116818451168082178552505050505050905001915050908152602001604051809103902061416590919063ffffffff16565b8173ffffffffffffffffffffffffffffffffffffffff167fd211483f91fc6eff862467f8de606587a30c8fc9981056f051b897a418df803a826040518080602001828103825283818151815260200191508051906020019080838360005b83811015613b92578082015181840152602081019050613b77565b50505050905090810190601f168015613bbf5780820380516001836020036101000a031916815260200191505b509250505060405180910390a25050565b613c4d82600a836040518082805190602001908083835b602083101515613c0c5780518252602082019150602081019050602083039250613be7565b6001836020036101000a03801982511681845116808217855250505050505090500191505090815260200160405180910390206141c390919063ffffffff16565b8173ffffffffffffffffffffffffffffffffffffffff167fbfec83d64eaa953f2708271a023ab9ee82057f8f3578d548c1a4ba0b5b700489826040518080602001828103825283818151815260200191508051906020019080838360005b83811015613cc6578082015181840152602081019050613cab565b50505050905090810190601f168015613cf35780820380516001836020036101000a031916815260200191505b509250505060405180910390a25050565b6000600b60008473ffffffffffffffffffffffffffffffffffffffff1673ffffffffffffffffffffffffffffffffffffffff16815260200190815260200160002054905081811015613d955781600b60008573ffffffffffffffffffffffffffffffffffffffff1673ffffffffffffffffffffffffffffffffffffffff168152602001908152602001600020819055505b505050565b600080613dbc8573ffffffffffffffffffffffffffffffffffffffff16614221565b1515613dcb5760019150613fb3565b8473ffffffffffffffffffffffffffffffffffffffff1663150b7a02338887876040518563ffffffff167c0100000000000000000000000000000000000000000000000000000000028152600401808573ffffffffffffffffffffffffffffffffffffffff1673ffffffffffffffffffffffffffffffffffffffff1681526020018473ffffffffffffffffffffffffffffffffffffffff1673ffffffffffffffffffffffffffffffffffffffff16815260200183815260200180602001828103825283818151815260200191508051906020019080838360005b83811015613ec0578082015181840152602081019050613ea5565b50505050905090810190601f168015613eed5780820380516001836020036101000a031916815260200191505b5095505050505050602060405180830381600087803b158015613f0f57600080fd5b505af1158015613f23573d6000803e3d6000fd5b505050506040513d6020811015613f3957600080fd5b8101908080519060200190929190505050905063150b7a027c0100000000000000000000000000000000000000000000000000000000027bffffffffffffffffffffffffffffffffffffffffffffffffffffffff1916817bffffffffffffffffffffffffffffffffffffffffffffffffffffffff19161491505b50949350505050565b613fc4614611565b6000806000613fd4888888614234565b80935081945082955050505061014060405190810160405280848152602001600181526020018881526020018363ffffffff1681526020018263ffffffff1681526020014263ffffffff16815260200160165481526020018681526020016000815260200160008152509350505050949350505050565b600073ffffffffffffffffffffffffffffffffffffffff168273ffffffffffffffffffffffffffffffffffffffff161415151561408757600080fd5b61409182826135a0565b808273ffffffffffffffffffffffffffffffffffffffff16600073ffffffffffffffffffffffffffffffffffffffff167fddf252ad1be2c89b69c2b068fc378daa952ba7f163c4a11628f55a4df523b3ef60405160405180910390a45050565b6140fb828261336e565b6141058282613471565b80600073ffffffffffffffffffffffffffffffffffffffff168373ffffffffffffffffffffffffffffffffffffffff167fddf252ad1be2c89b69c2b068fc378daa952ba7f163c4a11628f55a4df523b3ef60405160405180910390a45050565b60008260000160008373ffffffffffffffffffffffffffffffffffffffff1673ffffffffffffffffffffffffffffffffffffffff16815260200190815260200160002060006101000a81548160ff0219169083151502179055505050565b60018260000160008373ffffffffffffffffffffffffffffffffffffffff1673ffffffffffffffffffffffffffffffffffffffff16815260200190815260200160002060006101000a81548160ff0219169083151502179055505050565b600080823b905060008111915050919050565b600080600080428587604051808481526020018373ffffffffffffffffffffffffffffffffffffffff1673ffffffffffffffffffffffffffffffffffffffff166c0100000000000000000000000002815260140182805190602001908083835b6020831015156142b95780518252602082019150602081019050602083039250614294565b6001836020036101000a03801982511681845116808217855250505050505090500193505050506040518091039020600190049050600354818115156142fb57fe5b0693506000600160005403600a0a8581151561431357fe5b04141561432857600160005403600a0a840193505b6005548481151561433557fe5b06925060055460075481151561434757fe5b046007548581151561435557fe5b0681151561435f57fe5b0491506143bc8360068054806020026020016040519081016040528092919081815260200182805480156143b257602002820191906000526020600020905b81548152602001906001019080831161439e575b50505050506143e4565b92506143c88783614451565b9150600454848115156143d757fe5b0493505093509350939050565b60008060008060009250600091505b845182101561444057848281518110151561440a57fe5b9060200190602002015190508083018663ffffffff16101561442e57819350614448565b808301925081806001019250506143f3565b600185510393505b50505092915050565b6000606060008060008060088054806020026020016040519081016040528092919081815260200182805480156144a757602002820191906000526020600020905b815481526020019060010190808311614493575b5050505050945060009350600092505b87518310156144ec5787838151811015156144ce57fe5b9060200190602002015160ff168401935082806001019350506144b7565b6001885103600a0291506000841180156145065750875184105b1561457a57600092505b875183101561457957878381518110151561452757fe5b9060200190602002015160ff1688510290508381039050808281151561454957fe5b04858481518110151561455857fe5b90602001906020020181815101915081815250508280600101935050614510565b5b61458487866143e4565b9550505050505092915050565b828054600181600116156101000203166002900490600052602060002090601f016020900481019282601f106145d257805160ff1916838001178555614600565b82800160010185558215614600579182015b828111156145ff5782518255916020019190600101906145e4565b5b50905061460d91906146f7565b5090565b61014060405190810160405280600081526020016000815260200160608152602001600063ffffffff168152602001600063ffffffff168152602001600063ffffffff168152602001600081526020016000815260200160008152602001600081525090565b828054600181600116156101000203166002900490600052602060002090601f016020900481019282601f106146b857805160ff19168380011785556146e6565b828001600101855582156146e6579182015b828111156146e55782518255916020019190600101906146ca565b5b5090506146f391906146f7565b5090565b61471991905b808211156147155760008160009055506001016146fd565b5090565b905600a165627a7a72305820921fa3b9e101f0de0dc03a9b550581ef2fec3ae5982e5caaf5d00dc2cfa58e1e0029",
  "source": "pragma solidity ^0.4.21;\n\nimport './DnaCore.sol';\nimport './ToriCapacity.sol';\n\n//import 'github.com/OpenZeppelin/zeppelin-solidity/contracts/token/ERC721/ERC721BasicToken.sol';\n//import 'github.com/OpenZeppelin/zeppelin-solidity/contracts/math/SafeMath.sol';\n\nimport 'openzeppelin-solidity/contracts/token/ERC721/ERC721BasicToken.sol';\nimport 'openzeppelin-solidity/contracts/math/SafeMath.sol';\n\ncontract ToriToken is DnaCore, ToriCapacity, ERC721BasicToken {\n\n  using SafeMath for uint256;\n\n  struct Tori {\n    uint256 dna;\n    uint256 level;\n    string name;\n    uint32 proficiency;\n    uint32 personality;\n    uint32 readyTime;\n    uint256 generation;\n    uint256 special;\n    // 0, 0 --> generation 1.\n    uint256 parent1;\n    uint256 parent2;\n  }\n\n  Tori[] toris;\n\n  // toriId to price (in wei)\n  mapping (uint => uint256) toriSale;\n  uint256 toriSaleCount;\n\n  event NewTori(address indexed _address, uint256 toriIdx);\n  uint256 currentGeneration = 0;\n\n  // ROLES\n  string public constant ROLE_VISIT = \"visit\";\n  string public constant ROLE_PROMO = \"promo\";\n  string public constant ROLE_UPDATE = \"update\";\n\n\n  function updateGeneration() onlyAdmin public {\n    currentGeneration = currentGeneration.add(1);\n  }\n\n  modifier capacityNotFull(address _owner) {\n    if ((_owner == address(0)) && (hasRole(msg.sender, ROLE_VISIT))) {\n      // Bypass capacity check for transfer\n      _;\n    } else {\n      uint maxCapacity = getMaxCapacity(_owner);\n      require(maxCapacity >= balanceOf(_owner));\n      _;\n    }\n  }\n\n  /*\n  *   Generate random dna, personality, and proficiency level from\n  *   the given quiz & sender address.\n  */\n  function _generateRandomTori(uint8[] _quizzes,\n                               string _name,\n                               address _owner,\n                               uint256 _special) private view returns (Tori) {\n    uint256 dna;\n    uint32 proficiency;\n    uint32 personality;\n    (dna, proficiency, personality) = _generateRandomTraits(_quizzes, _name, _owner);\n    return Tori(dna, 1, _name, proficiency, personality, uint32(now), currentGeneration, _special, 0, 0);\n  }\n\n  function generateSpecialTori(uint8[] _quizzes,\n                               string _name,\n                               uint256 _special,\n                               address _owner) onlyRole(ROLE_PROMO) capacityNotFull(_owner) public returns (bool success) {\n    Tori memory newTori = _generateRandomTori(_quizzes, _name, _owner, _special);\n    // Push to the book keeping array.\n    uint256 id = toris.push(newTori) - 1;\n    _mint(_owner, id);\n    updateMaxLevel(_owner, newTori.level);\n    emit NewTori(_owner, id);\n    return true;\n  }\n\n  function _generateNewTori(uint256 _dna,\n                            uint256 _level,\n                            uint32 _proficiency,\n                            uint32 _personality,\n                            uint256 _parent1,\n                            uint256 _parent2,\n                            string _name,\n                            address _owner,\n                            uint256 _special,\n                            uint256 _generation) private returns (bool success) {\n    require((_dna / DNA_LIMIT == 0) &&\n            (_proficiency >= 0) &&\n            (_proficiency < PROFICIENCY_THRESHOLD.length) &&\n            (_personality >= 0) &&\n            (_personality < PERSONALITY_THRESHOLD.length));\n    // Generate three new toris.\n    Tori memory newTori = Tori(_dna,\n                               _level,\n                               _name,\n                               _proficiency,\n                               _personality,\n                               uint32(now),\n                               _generation,\n                               _special,\n                               _parent1,\n                               _parent2);\n    // Push to the book keeping array.\n    uint256 id = toris.push(newTori) - 1;\n\n    if (_owner == address(0)) {\n      tokenOwner[id] = _owner;\n    } else {\n      _mint(_owner, id);\n      updateMaxLevel(_owner, newTori.level);\n      emit NewTori(_owner, id);\n    }\n    return true;\n  }\n\n  function generateNewTori(uint256 _dna,\n                           uint256 _level,\n                           uint32 _proficiency,\n                           uint32 _personality,\n                           uint256 _parent1,\n                           uint256 _parent2,\n                           string _name,\n                           address _owner,\n                           uint256 _special,\n                           uint256 _generation) onlyRole(ROLE_VISIT) capacityNotFull(_owner) public returns (bool success) {\n    return _generateNewTori(\n      _dna,\n      _level,\n      _proficiency,\n      _personality,\n      _parent1,\n      _parent2,\n      _name,\n      _owner,\n      _special,\n      _generation\n    );\n  }\n\n  function generateNewTori(uint256 _dna,\n                           uint256 _level,\n                           uint32 _proficiency,\n                           uint32 _personality,\n                           uint256 _parent1,\n                           uint256 _parent2,\n                           string _name,\n                           address _owner,\n                           uint256 _special) onlyRole(ROLE_VISIT) capacityNotFull(_owner) public returns (bool success) {\n    return _generateNewTori(\n      _dna,\n      _level,\n      _proficiency,\n      _personality,\n      _parent1,\n      _parent2,\n      _name,\n      _owner,\n      _special,\n      currentGeneration\n    );\n  }\n\n  function _burnTori(address _owner, uint256 _tokenId) onlyRole(ROLE_VISIT) private returns (bool success) {\n    // Check if for sale\n    // TODO: remove it automatically for now.\n    if (toriSale[_tokenId] > 0) {\n      toriSale[_tokenId] = 0;\n      toriSaleCount = toriSaleCount.sub(1);\n    }\n    _burn(_owner, _tokenId);\n    // TODO: check if burn succeed\n    return true;\n  }\n\n  function burnTori(address _owner, uint256 _tokenId) public returns (bool success) {\n    return _burnTori(_owner, _tokenId);\n  }\n\n  function getTokenIndexes(address _owner) public view returns (uint[]) {\n    uint size = ownedTokensCount[_owner];\n    uint[] memory result = new uint[](size);\n\n    uint idx = 0;\n    for (uint i = 0; i < toris.length; i = i.add(1)) {\n      if (tokenOwner[i] == _owner) {\n        result[idx] = i;\n        idx = idx.add(1);\n      }\n      if (idx >= size) {\n        break;\n      }\n    }\n    return result;\n  }\n\n  function getTokenIndexesWithMaxLevel(address _owner) public view returns (uint[], uint) {\n    uint[] memory indexes = getTokenIndexes(_owner);\n    uint maxLevel = 1;\n    for (uint i = 0; i < indexes.length; i = i.add(1)) {\n      uint currLevel = toris[indexes[i]].level;\n      if (currLevel > maxLevel) {\n        maxLevel = currLevel;\n      }\n    }\n    return (indexes, maxLevel);\n  }\n\n  function getTokenInfo(uint256 _toriId) public view returns\n                    (uint256 toriId,\n                      uint256 toriDna,\n                      uint256 level,\n                      string name,\n                      uint32 proficiency,\n                      uint32 personality,\n                      uint32 readyTime,\n                      uint256 generation,\n                      uint256 special,\n                      uint postingPrice,\n                      address toriOwner) {\n    Tori memory tori = toris[_toriId];\n    toriId = _toriId;\n    level = tori.level;\n    toriDna = tori.dna;\n    name = tori.name;\n    proficiency = tori.proficiency;\n    personality = tori.personality;\n    readyTime = tori.readyTime;\n    generation = tori.generation;\n    special = tori.special;\n    postingPrice = toriSale[_toriId];\n    toriOwner = tokenOwner[_toriId];\n  }\n\n  function getParentIds(uint256 _tokenId) public view returns (uint256 parent1, uint256 parent2) {\n    return (toris[_tokenId].parent1, toris[_tokenId].parent2);\n  }\n\n  function getTokenCount() public view returns (uint256 toriCount) {\n    return ownedTokensCount[msg.sender];\n  }\n\n  function getAllTokensCount() public view returns (uint) {\n    return toris.length;\n  }\n\n\n  // TODO: add functionality for users to change the sale price.\n  function approveForSale(uint256 _tokenId, uint256 _salePrice) public onlyOwnerOf(_tokenId) {\n    require((toriSale[_tokenId] == 0) && (_salePrice > 0));\n    toriSale[_tokenId] = _salePrice;\n    toriSaleCount = toriSaleCount.add(1);\n\n    approve(this, _tokenId);\n  }\n\n  function removeForSale(uint256 _tokenId) public onlyOwnerOf(_tokenId) {\n    require(toriSale[_tokenId] > 0);\n    toriSale[_tokenId] = 0;\n    toriSaleCount = toriSaleCount.sub(1);\n\n    clearApproval(msg.sender, _tokenId);\n  }\n\n  function buyForSale(uint256 _tokenId) public payable {\n    // TODO: does msg.value needs to be exactly equal?\n    require(isApprovedOrOwner(this, _tokenId) &&\n            (toriSale[_tokenId] > 0) &&\n            (msg.value >= toriSale[_tokenId]));\n\n    address _from = ownerOf(_tokenId);\n    // Send the ether.\n    uint256 excess = msg.value.sub(toriSale[_tokenId]);\n    if (excess > 0) {\n      msg.sender.transfer(excess);\n      _from.transfer(toriSale[_tokenId]);\n    } else {\n      _from.transfer(msg.value);\n    }\n\n    // Delete sale entry.\n    toriSale[_tokenId] = 0;\n    toriSaleCount = toriSaleCount.sub(1);\n\n    // Update max level\n    updateMaxLevel(msg.sender, toris[_tokenId].level);\n\n    // We want to call this from this contract.\n    this.safeTransferFrom(_from, msg.sender, _tokenId);\n  }\n\n  function retrieveAllForSales() public view returns (uint[]) {\n    uint[] memory result = new uint[](toriSaleCount);\n    uint idx = 0;\n    for (uint i = 0; i < toris.length; i = i.add(1)) {\n      if (toriSale[i] > 0) {\n        result[idx] = i;\n        idx = idx.add(1);\n      }\n    }\n    return result;\n  }\n\n  modifier minLevel(uint256 _tokenId, uint256 _minLevel) {\n    require(toris[_tokenId].level >= _minLevel);\n    _;\n  }\n\n  function updateName(uint256 _tokenId, string _newName) public onlyOwnerOf(_tokenId) minLevel(_tokenId, 4) returns (bool) {\n    Tori storage tori = toris[_tokenId];\n    tori.name = _newName;\n    return true;\n  }\n\n  function updateTori(uint256 _tokenId,\n                      string _name,\n                      uint32 _proficiency,\n                      uint32 _personality,\n                      uint256 _special,\n                      uint256 _minLevel) onlyRole(ROLE_UPDATE) onlyOwnerOf(_tokenId) minLevel(_tokenId, _minLevel) public returns (bool result) {\n    Tori storage tori = toris[_tokenId];\n    tori.name = _name;\n    tori.proficiency = _proficiency;\n    tori.personality = _personality;\n    tori.special = _special;\n    return true;\n  }\n}\n",
  "sourcePath": "/Users/Cindy/Desktop/cs359b/cs359b-cribtori/contracts/ToriToken.sol",
  "compiler": {
    "name": "solc",
    "version": "0.4.24+commit.e67f0147.Emscripten.clang"
  },
  "schemaVersion": "2.0.1",
  "updatedAt": "2018-07-25T02:45:48.010Z"
}