{
  "contractName": "ToriToken",
  "abi": [
    {
      "constant": true,
      "inputs": [
        {
          "name": "_tokenId",
          "type": "uint256"
        }
      ],
      "name": "getApproved",
      "outputs": [
        {
          "name": "",
          "type": "address"
        }
      ],
      "payable": false,
      "stateMutability": "view",
      "type": "function"
    },
    {
      "constant": false,
      "inputs": [
        {
          "name": "_to",
          "type": "address"
        },
        {
          "name": "_tokenId",
          "type": "uint256"
        }
      ],
      "name": "approve",
      "outputs": [],
      "payable": false,
      "stateMutability": "nonpayable",
      "type": "function"
    },
    {
      "constant": true,
      "inputs": [
        {
          "name": "addr",
          "type": "address"
        },
        {
          "name": "roleName",
          "type": "string"
        }
      ],
      "name": "checkRole",
      "outputs": [],
      "payable": false,
      "stateMutability": "view",
      "type": "function"
    },
    {
      "constant": true,
      "inputs": [
        {
          "name": "_level",
          "type": "uint256"
        }
      ],
      "name": "checkLevelCapacity",
      "outputs": [
        {
          "name": "",
          "type": "uint256"
        }
      ],
      "payable": false,
      "stateMutability": "view",
      "type": "function"
    },
    {
      "constant": true,
      "inputs": [
        {
          "name": "addr",
          "type": "address"
        },
        {
          "name": "roleName",
          "type": "string"
        }
      ],
      "name": "hasRole",
      "outputs": [
        {
          "name": "",
          "type": "bool"
        }
      ],
      "payable": false,
      "stateMutability": "view",
      "type": "function"
    },
    {
      "constant": false,
      "inputs": [
        {
          "name": "_from",
          "type": "address"
        },
        {
          "name": "_to",
          "type": "address"
        },
        {
          "name": "_tokenId",
          "type": "uint256"
        }
      ],
      "name": "transferFrom",
      "outputs": [],
      "payable": false,
      "stateMutability": "nonpayable",
      "type": "function"
    },
    {
      "constant": true,
      "inputs": [],
      "name": "ROLE_VISIT",
      "outputs": [
        {
          "name": "",
          "type": "string"
        }
      ],
      "payable": false,
      "stateMutability": "view",
      "type": "function"
    },
    {
      "constant": false,
      "inputs": [
        {
          "name": "_from",
          "type": "address"
        },
        {
          "name": "_to",
          "type": "address"
        },
        {
          "name": "_tokenId",
          "type": "uint256"
        }
      ],
      "name": "safeTransferFrom",
      "outputs": [],
      "payable": false,
      "stateMutability": "nonpayable",
      "type": "function"
    },
    {
      "constant": true,
      "inputs": [
        {
          "name": "_tokenId",
          "type": "uint256"
        }
      ],
      "name": "exists",
      "outputs": [
        {
          "name": "",
          "type": "bool"
        }
      ],
      "payable": false,
      "stateMutability": "view",
      "type": "function"
    },
    {
      "constant": true,
      "inputs": [
        {
          "name": "_tokenId",
          "type": "uint256"
        }
      ],
      "name": "ownerOf",
      "outputs": [
        {
          "name": "",
          "type": "address"
        }
      ],
      "payable": false,
      "stateMutability": "view",
      "type": "function"
    },
    {
      "constant": true,
      "inputs": [
        {
          "name": "_owner",
          "type": "address"
        }
      ],
      "name": "balanceOf",
      "outputs": [
        {
          "name": "",
          "type": "uint256"
        }
      ],
      "payable": false,
      "stateMutability": "view",
      "type": "function"
    },
    {
      "constant": false,
      "inputs": [
        {
          "name": "addr",
          "type": "address"
        },
        {
          "name": "roleName",
          "type": "string"
        }
      ],
      "name": "adminRemoveRole",
      "outputs": [],
      "payable": false,
      "stateMutability": "nonpayable",
      "type": "function"
    },
    {
      "constant": true,
      "inputs": [],
      "name": "ROLE_PROMO",
      "outputs": [
        {
          "name": "",
          "type": "string"
        }
      ],
      "payable": false,
      "stateMutability": "view",
      "type": "function"
    },
    {
      "constant": false,
      "inputs": [
        {
          "name": "_minLevel",
          "type": "uint256"
        },
        {
          "name": "_capacity",
          "type": "uint256"
        }
      ],
      "name": "addLevelCapacity",
      "outputs": [],
      "payable": false,
      "stateMutability": "nonpayable",
      "type": "function"
    },
    {
      "constant": false,
      "inputs": [
        {
          "name": "_to",
          "type": "address"
        },
        {
          "name": "_approved",
          "type": "bool"
        }
      ],
      "name": "setApprovalForAll",
      "outputs": [],
      "payable": false,
      "stateMutability": "nonpayable",
      "type": "function"
    },
    {
      "constant": false,
      "inputs": [
        {
          "name": "addr",
          "type": "address"
        },
        {
          "name": "roleName",
          "type": "string"
        }
      ],
      "name": "adminAddRole",
      "outputs": [],
      "payable": false,
      "stateMutability": "nonpayable",
      "type": "function"
    },
    {
      "constant": false,
      "inputs": [
        {
          "name": "_from",
          "type": "address"
        },
        {
          "name": "_to",
          "type": "address"
        },
        {
          "name": "_tokenId",
          "type": "uint256"
        },
        {
          "name": "_data",
          "type": "bytes"
        }
      ],
      "name": "safeTransferFrom",
      "outputs": [],
      "payable": false,
      "stateMutability": "nonpayable",
      "type": "function"
    },
    {
      "constant": true,
      "inputs": [],
      "name": "ROLE_ADMIN",
      "outputs": [
        {
          "name": "",
          "type": "string"
        }
      ],
      "payable": false,
      "stateMutability": "view",
      "type": "function"
    },
    {
      "constant": true,
      "inputs": [
        {
          "name": "_owner",
          "type": "address"
        }
      ],
      "name": "getMaxCapacity",
      "outputs": [
        {
          "name": "maxCapacity",
          "type": "uint256"
        }
      ],
      "payable": false,
      "stateMutability": "view",
      "type": "function"
    },
    {
      "constant": true,
      "inputs": [
        {
          "name": "_owner",
          "type": "address"
        },
        {
          "name": "_operator",
          "type": "address"
        }
      ],
      "name": "isApprovedForAll",
      "outputs": [
        {
          "name": "",
          "type": "bool"
        }
      ],
      "payable": false,
      "stateMutability": "view",
      "type": "function"
    },
    {
      "constant": true,
      "inputs": [],
      "name": "ROLE_UPDATE",
      "outputs": [
        {
          "name": "",
          "type": "string"
        }
      ],
      "payable": false,
      "stateMutability": "view",
      "type": "function"
    },
    {
      "anonymous": false,
      "inputs": [
        {
          "indexed": true,
          "name": "_address",
          "type": "address"
        },
        {
          "indexed": false,
          "name": "toriIdx",
          "type": "uint256"
        }
      ],
      "name": "NewTori",
      "type": "event"
    },
    {
      "anonymous": false,
      "inputs": [
        {
          "indexed": true,
          "name": "_from",
          "type": "address"
        },
        {
          "indexed": true,
          "name": "_to",
          "type": "address"
        },
        {
          "indexed": false,
          "name": "_tokenId",
          "type": "uint256"
        }
      ],
      "name": "Transfer",
      "type": "event"
    },
    {
      "anonymous": false,
      "inputs": [
        {
          "indexed": true,
          "name": "_owner",
          "type": "address"
        },
        {
          "indexed": true,
          "name": "_approved",
          "type": "address"
        },
        {
          "indexed": false,
          "name": "_tokenId",
          "type": "uint256"
        }
      ],
      "name": "Approval",
      "type": "event"
    },
    {
      "anonymous": false,
      "inputs": [
        {
          "indexed": true,
          "name": "_owner",
          "type": "address"
        },
        {
          "indexed": true,
          "name": "_operator",
          "type": "address"
        },
        {
          "indexed": false,
          "name": "_approved",
          "type": "bool"
        }
      ],
      "name": "ApprovalForAll",
      "type": "event"
    },
    {
      "anonymous": false,
      "inputs": [
        {
          "indexed": false,
          "name": "addr",
          "type": "address"
        },
        {
          "indexed": false,
          "name": "roleName",
          "type": "string"
        }
      ],
      "name": "RoleAdded",
      "type": "event"
    },
    {
      "anonymous": false,
      "inputs": [
        {
          "indexed": false,
          "name": "addr",
          "type": "address"
        },
        {
          "indexed": false,
          "name": "roleName",
          "type": "string"
        }
      ],
      "name": "RoleRemoved",
      "type": "event"
    },
    {
      "constant": false,
      "inputs": [],
      "name": "updateGeneration",
      "outputs": [],
      "payable": false,
      "stateMutability": "nonpayable",
      "type": "function"
    },
    {
      "constant": false,
      "inputs": [
        {
          "name": "_quizzes",
          "type": "uint8[]"
        },
        {
          "name": "_name",
          "type": "string"
        },
        {
          "name": "_special",
          "type": "uint256"
        },
        {
          "name": "_owner",
          "type": "address"
        }
      ],
      "name": "generateSpecialTori",
      "outputs": [
        {
          "name": "success",
          "type": "bool"
        }
      ],
      "payable": false,
      "stateMutability": "nonpayable",
      "type": "function"
    },
    {
      "constant": false,
      "inputs": [
        {
          "name": "_dna",
          "type": "uint256"
        },
        {
          "name": "_level",
          "type": "uint256"
        },
        {
          "name": "_proficiency",
          "type": "uint32"
        },
        {
          "name": "_personality",
          "type": "uint32"
        },
        {
          "name": "_parent1",
          "type": "uint256"
        },
        {
          "name": "_parent2",
          "type": "uint256"
        },
        {
          "name": "_name",
          "type": "string"
        },
        {
          "name": "_owner",
          "type": "address"
        },
        {
          "name": "_special",
          "type": "uint256"
        }
      ],
      "name": "generateNewTori",
      "outputs": [
        {
          "name": "success",
          "type": "bool"
        }
      ],
      "payable": false,
      "stateMutability": "nonpayable",
      "type": "function"
    },
    {
      "constant": false,
      "inputs": [
        {
          "name": "_dna",
          "type": "uint256"
        },
        {
          "name": "_level",
          "type": "uint256"
        },
        {
          "name": "_proficiency",
          "type": "uint32"
        },
        {
          "name": "_personality",
          "type": "uint32"
        },
        {
          "name": "_parent1",
          "type": "uint256"
        },
        {
          "name": "_parent2",
          "type": "uint256"
        },
        {
          "name": "_name",
          "type": "string"
        },
        {
          "name": "_owner",
          "type": "address"
        },
        {
          "name": "_special",
          "type": "uint256"
        },
        {
          "name": "_generation",
          "type": "uint256"
        }
      ],
      "name": "generateNewTori",
      "outputs": [
        {
          "name": "success",
          "type": "bool"
        }
      ],
      "payable": false,
      "stateMutability": "nonpayable",
      "type": "function"
    },
    {
      "constant": false,
      "inputs": [
        {
          "name": "_owner",
          "type": "address"
        },
        {
          "name": "_tokenId",
          "type": "uint256"
        }
      ],
      "name": "burnTori",
      "outputs": [
        {
          "name": "success",
          "type": "bool"
        }
      ],
      "payable": false,
      "stateMutability": "nonpayable",
      "type": "function"
    },
    {
      "constant": true,
      "inputs": [
        {
          "name": "_owner",
          "type": "address"
        }
      ],
      "name": "getTokenIndexes",
      "outputs": [
        {
          "name": "",
          "type": "uint256[]"
        }
      ],
      "payable": false,
      "stateMutability": "view",
      "type": "function"
    },
    {
      "constant": true,
      "inputs": [
        {
          "name": "_owner",
          "type": "address"
        }
      ],
      "name": "getTokenIndexesWithMaxLevel",
      "outputs": [
        {
          "name": "",
          "type": "uint256[]"
        },
        {
          "name": "",
          "type": "uint256"
        }
      ],
      "payable": false,
      "stateMutability": "view",
      "type": "function"
    },
    {
      "constant": true,
      "inputs": [
        {
          "name": "_toriId",
          "type": "uint256"
        }
      ],
      "name": "getTokenInfo",
      "outputs": [
        {
          "name": "toriId",
          "type": "uint256"
        },
        {
          "name": "toriDna",
          "type": "uint256"
        },
        {
          "name": "level",
          "type": "uint256"
        },
        {
          "name": "name",
          "type": "string"
        },
        {
          "name": "proficiency",
          "type": "uint32"
        },
        {
          "name": "personality",
          "type": "uint32"
        },
        {
          "name": "readyTime",
          "type": "uint32"
        },
        {
          "name": "generation",
          "type": "uint256"
        },
        {
          "name": "special",
          "type": "uint256"
        },
        {
          "name": "postingPrice",
          "type": "uint256"
        },
        {
          "name": "toriOwner",
          "type": "address"
        }
      ],
      "payable": false,
      "stateMutability": "view",
      "type": "function"
    },
    {
      "constant": true,
      "inputs": [
        {
          "name": "_tokenId",
          "type": "uint256"
        }
      ],
      "name": "getParentIds",
      "outputs": [
        {
          "name": "parent1",
          "type": "uint256"
        },
        {
          "name": "parent2",
          "type": "uint256"
        }
      ],
      "payable": false,
      "stateMutability": "view",
      "type": "function"
    },
    {
      "constant": true,
      "inputs": [],
      "name": "getTokenCount",
      "outputs": [
        {
          "name": "toriCount",
          "type": "uint256"
        }
      ],
      "payable": false,
      "stateMutability": "view",
      "type": "function"
    },
    {
      "constant": true,
      "inputs": [],
      "name": "getAllTokensCount",
      "outputs": [
        {
          "name": "",
          "type": "uint256"
        }
      ],
      "payable": false,
      "stateMutability": "view",
      "type": "function"
    },
    {
      "constant": false,
      "inputs": [
        {
          "name": "_tokenId",
          "type": "uint256"
        },
        {
          "name": "_salePrice",
          "type": "uint256"
        }
      ],
      "name": "approveForSale",
      "outputs": [],
      "payable": false,
      "stateMutability": "nonpayable",
      "type": "function"
    },
    {
      "constant": false,
      "inputs": [
        {
          "name": "_tokenId",
          "type": "uint256"
        }
      ],
      "name": "removeForSale",
      "outputs": [],
      "payable": false,
      "stateMutability": "nonpayable",
      "type": "function"
    },
    {
      "constant": false,
      "inputs": [
        {
          "name": "_tokenId",
          "type": "uint256"
        }
      ],
      "name": "buyForSale",
      "outputs": [],
      "payable": true,
      "stateMutability": "payable",
      "type": "function"
    },
    {
      "constant": true,
      "inputs": [],
      "name": "retrieveAllForSales",
      "outputs": [
        {
          "name": "",
          "type": "uint256[]"
        }
      ],
      "payable": false,
      "stateMutability": "view",
      "type": "function"
    },
    {
      "constant": false,
      "inputs": [
        {
          "name": "_tokenId",
          "type": "uint256"
        },
        {
          "name": "_newName",
          "type": "string"
        }
      ],
      "name": "updateName",
      "outputs": [
        {
          "name": "",
          "type": "bool"
        }
      ],
      "payable": false,
      "stateMutability": "nonpayable",
      "type": "function"
    },
    {
      "constant": false,
      "inputs": [
        {
          "name": "_tokenId",
          "type": "uint256"
        },
        {
          "name": "_name",
          "type": "string"
        },
        {
          "name": "_proficiency",
          "type": "uint32"
        },
        {
          "name": "_personality",
          "type": "uint32"
        },
        {
          "name": "_special",
          "type": "uint256"
        },
        {
          "name": "_minLevel",
          "type": "uint256"
        }
      ],
      "name": "updateTori",
      "outputs": [
        {
          "name": "result",
          "type": "bool"
        }
      ],
      "payable": false,
      "stateMutability": "nonpayable",
      "type": "function"
    }
  ],
  "bytecode": "0x6080604052602360005560036001556006600255600054600a0a600355600160025401600a0a600455600154600a0a60055560a060405190810160405280601961ffff168152602001606461ffff16815260200160af61ffff16815260200160c861ffff16815260200161012c61ffff1681525060069060056200008592919062000527565b50600254600a0a600755608060405190810160405280609661ffff16815260200160c861ffff16815260200161012c61ffff16815260200161015e61ffff168152506008906004620000d99291906200057f565b50604b600955600060155562000134336040805190810160405280600581526020017f61646d696e00000000000000000000000000000000000000000000000000000081525062000191640100000000026401000000009004565b6200015160016006620002f7640100000000026401000000009004565b6200016e60046010620002f7640100000000026401000000009004565b6200018b60086019620002f7640100000000026401000000009004565b620005ff565b6200022082600a836040518082805190602001908083835b602083101515620001d05780518252602082019150602081019050602083039250620001a9565b6001836020036101000a0380198251168184511680821785525050505050509050019150509081526020016040518091039020620003b2640100000000026200415c179091906401000000009004565b7fbfec83d64eaa953f2708271a023ab9ee82057f8f3578d548c1a4ba0b5b7004898282604051808373ffffffffffffffffffffffffffffffffffffffff1673ffffffffffffffffffffffffffffffffffffffff16815260200180602001828103825283818151815260200191508051906020019080838360005b83811015620002b75780820151818401526020810190506200029a565b50505050905090810190601f168015620002e55780820380516001836020036101000a031916815260200191505b50935050505060405180910390a15050565b62000347336040805190810160405280600581526020017f61646d696e00000000000000000000000000000000000000000000000000000081525062000410640100000000026401000000009004565b6000600c6000848152602001908152602001600020541415156200036a57600080fd5b80600c600084815260200190815260200160002081905550600d8290806001815401808255809150509060018203906000526020600020016000909192909190915055505050565b60018260000160008373ffffffffffffffffffffffffffffffffffffffff1673ffffffffffffffffffffffffffffffffffffffff16815260200190815260200160002060006101000a81548160ff0219169083151502179055505050565b6200049f82600a836040518082805190602001908083835b6020831015156200044f578051825260208201915060208101905060208303925062000428565b6001836020036101000a0380198251168184511680821785525050505050509050019150509081526020016040518091039020620004a36401000000000262003164179091906401000000009004565b5050565b620004be8282620004ce640100000000026401000000009004565b1515620004ca57600080fd5b5050565b60008260000160008373ffffffffffffffffffffffffffffffffffffffff1673ffffffffffffffffffffffffffffffffffffffff16815260200190815260200160002060009054906101000a900460ff16905092915050565b8280548282559060005260206000209081019282156200056c579160200282015b828111156200056b578251829061ffff1690559160200191906001019062000548565b5b5090506200057b9190620005d7565b5090565b828054828255906000526020600020908101928215620005c4579160200282015b82811115620005c3578251829061ffff16905591602001919060010190620005a0565b5b509050620005d39190620005d7565b5090565b620005fc91905b80821115620005f8576000816000905550600101620005de565b5090565b90565b6146e1806200060f6000396000f3006080604052600436106101d8576000357c0100000000000000000000000000000000000000000000000000000000900463ffffffff168063081812fc146101dd578063095ea7b31461024a5780630988ca8c14610297578063120e22e4146103205780631c7dc60914610357578063217fe6c61461039857806323b872dd146104395780633b1203d7146104a657806342842e0e14610536578063444c9293146105a35780634dac6dcf146106625780634f558e79146106c75780634f8e2a421461070c5780635178f004146107ff57806353e76f2c146108475780636352211e146108d25780636b8667f51461093f57806370a082311461096c57806378a89567146109c357806380507b57146109ee57806388cee87e14610a865780638c7a63ae14610b0f57806391f8548d14610c4b578063933b545414610cdb57806394b1e1cb14610d06578063a22cb46514610d3d578063b25fa92c14610d8c578063b32805c314610e15578063b438314f14610e2c578063b88d4fde14610e4c578063bc53c17a14610eff578063be928c9214610ffc578063d391014b14611068578063dd204314146110f8578063e3ce22571461114f578063e728ce90146111ee578063e985e9c5146112dc578063feb3a68a14611357575b600080fd5b3480156101e957600080fd5b50610208600480360381019080803590602001909291905050506113e7565b604051808273ffffffffffffffffffffffffffffffffffffffff1673ffffffffffffffffffffffffffffffffffffffff16815260200191505060405180910390f35b34801561025657600080fd5b50610295600480360381019080803573ffffffffffffffffffffffffffffffffffffffff16906020019092919080359060200190929190505050611424565b005b3480156102a357600080fd5b5061031e600480360381019080803573ffffffffffffffffffffffffffffffffffffffff169060200190929190803590602001908201803590602001908080601f01602080910402602001604051908101604052809392919081815260200183838082843782019150505050505091929192905050506115ea565b005b34801561032c57600080fd5b50610355600480360381019080803590602001909291908035906020019092919050505061166b565b005b34801561036357600080fd5b506103826004803603810190808035906020019092919050505061171f565b6040518082815260200191505060405180910390f35b3480156103a457600080fd5b5061041f600480360381019080803573ffffffffffffffffffffffffffffffffffffffff169060200190929190803590602001908201803590602001908080601f01602080910402602001604051908101604052809392919081815260200183838082843782019150505050505091929192905050506117b9565b604051808215151515815260200191505060405180910390f35b34801561044557600080fd5b506104a4600480360381019080803573ffffffffffffffffffffffffffffffffffffffff169060200190929190803573ffffffffffffffffffffffffffffffffffffffff16906020019092919080359060200190929190505050611840565b005b3480156104b257600080fd5b506104bb611957565b6040518080602001828103825283818151815260200191508051906020019080838360005b838110156104fb5780820151818401526020810190506104e0565b50505050905090810190601f1680156105285780820380516001836020036101000a031916815260200191505b509250505060405180910390f35b34801561054257600080fd5b506105a1600480360381019080803573ffffffffffffffffffffffffffffffffffffffff169060200190929190803573ffffffffffffffffffffffffffffffffffffffff16906020019092919080359060200190929190505050611990565b005b3480156105af57600080fd5b5061064860048036038101908080359060200190929190803590602001908201803590602001908080601f0160208091040260200160405190810160405280939291908181526020018383808284378201915050505050509192919290803563ffffffff169060200190929190803563ffffffff16906020019092919080359060200190929190803590602001909291905050506119c8565b604051808215151515815260200191505060405180910390f35b34801561066e57600080fd5b506106ad600480360381019080803573ffffffffffffffffffffffffffffffffffffffff16906020019092919080359060200190929190505050611b19565b604051808215151515815260200191505060405180910390f35b3480156106d357600080fd5b506106f260048036038101908080359060200190929190505050611b2d565b604051808215151515815260200191505060405180910390f35b34801561071857600080fd5b506107e56004803603810190808035906020019092919080359060200190929190803563ffffffff169060200190929190803563ffffffff1690602001909291908035906020019092919080359060200190929190803590602001908201803590602001908080601f0160208091040260200160405190810160405280939291908181526020018383808284378201915050505050509192919290803573ffffffffffffffffffffffffffffffffffffffff16906020019092919080359060200190929190505050611b9f565b604051808215151515815260200191505060405180910390f35b34801561080b57600080fd5b5061082a60048036038101908080359060200190929190505050611cc3565b604051808381526020018281526020019250505060405180910390f35b34801561085357600080fd5b506108b860048036038101908080359060200190929190803590602001908201803590602001908080601f0160208091040260200160405190810160405280939291908181526020018383808284378201915050505050509192919290505050611d11565b604051808215151515815260200191505060405180910390f35b3480156108de57600080fd5b506108fd60048036038101908080359060200190929190505050611dcf565b604051808273ffffffffffffffffffffffffffffffffffffffff1673ffffffffffffffffffffffffffffffffffffffff16815260200191505060405180910390f35b34801561094b57600080fd5b5061096a60048036038101908080359060200190929190505050611e4d565b005b34801561097857600080fd5b506109ad600480360381019080803573ffffffffffffffffffffffffffffffffffffffff169060200190929190505050611ef5565b6040518082815260200191505060405180910390f35b3480156109cf57600080fd5b506109d8611f79565b6040518082815260200191505060405180910390f35b3480156109fa57600080fd5b50610a2f600480360381019080803573ffffffffffffffffffffffffffffffffffffffff169060200190929190505050611fc0565b6040518080602001828103825283818151815260200191508051906020019060200280838360005b83811015610a72578082015181840152602081019050610a57565b505050509050019250505060405180910390f35b348015610a9257600080fd5b50610b0d600480360381019080803573ffffffffffffffffffffffffffffffffffffffff169060200190929190803590602001908201803590602001908080601f0160208091040260200160405190810160405280939291908181526020018383808284378201915050505050509192919290505050612123565b005b348015610b1b57600080fd5b50610b3a60048036038101908080359060200190929190505050612170565b604051808c81526020018b81526020018a8152602001806020018963ffffffff1663ffffffff1681526020018863ffffffff1663ffffffff1681526020018763ffffffff1663ffffffff1681526020018681526020018581526020018481526020018373ffffffffffffffffffffffffffffffffffffffff1673ffffffffffffffffffffffffffffffffffffffff16815260200182810382528a818151815260200191508051906020019080838360005b83811015610c06578082015181840152602081019050610beb565b50505050905090810190601f168015610c335780820380516001836020036101000a031916815260200191505b509c5050505050505050505050505060405180910390f35b348015610c5757600080fd5b50610c6061239d565b6040518080602001828103825283818151815260200191508051906020019080838360005b83811015610ca0578082015181840152602081019050610c85565b50505050905090810190601f168015610ccd5780820380516001836020036101000a031916815260200191505b509250505060405180910390f35b348015610ce757600080fd5b50610cf06123d6565b6040518082815260200191505060405180910390f35b348015610d1257600080fd5b50610d3b60048036038101908080359060200190929190803590602001909291905050506123e3565b005b348015610d4957600080fd5b50610d8a600480360381019080803573ffffffffffffffffffffffffffffffffffffffff16906020019092919080351515906020019092919050505061248c565b005b348015610d9857600080fd5b50610e13600480360381019080803573ffffffffffffffffffffffffffffffffffffffff169060200190929190803590602001908201803590602001908080601f01602080910402602001604051908101604052809392919081815260200183838082843782019150505050505091929192905050506125c8565b005b348015610e2157600080fd5b50610e2a612615565b005b610e4a60048036038101908080359060200190929190505050612672565b005b348015610e5857600080fd5b50610efd600480360381019080803573ffffffffffffffffffffffffffffffffffffffff169060200190929190803573ffffffffffffffffffffffffffffffffffffffff16906020019092919080359060200190929190803590602001908201803590602001908080601f0160208091040260200160405190810160405280939291908181526020018383808284378201915050505050509192919290505050612945565b005b348015610f0b57600080fd5b50610fe26004803603810190808035906020019092919080359060200190929190803563ffffffff169060200190929190803563ffffffff1690602001909291908035906020019092919080359060200190929190803590602001908201803590602001908080601f0160208091040260200160405190810160405280939291908181526020018383808284378201915050505050509192919290803573ffffffffffffffffffffffffffffffffffffffff1690602001909291908035906020019092919080359060200190929190505050612984565b604051808215151515815260200191505060405180910390f35b34801561100857600080fd5b50611011612aa5565b6040518080602001828103825283818151815260200191508051906020019060200280838360005b83811015611054578082015181840152602081019050611039565b505050509050019250505060405180910390f35b34801561107457600080fd5b5061107d612b69565b6040518080602001828103825283818151815260200191508051906020019080838360005b838110156110bd5780820151818401526020810190506110a2565b50505050905090810190601f1680156110ea5780820380516001836020036101000a031916815260200191505b509250505060405180910390f35b34801561110457600080fd5b50611139600480360381019080803573ffffffffffffffffffffffffffffffffffffffff169060200190929190505050612ba2565b6040518082815260200191505060405180910390f35b34801561115b57600080fd5b50611190600480360381019080803573ffffffffffffffffffffffffffffffffffffffff169060200190929190505050612c06565b6040518080602001838152602001828103825284818151815260200191508051906020019060200280838360005b838110156111d95780820151818401526020810190506111be565b50505050905001935050505060405180910390f35b3480156111fa57600080fd5b506112c260048036038101908080359060200190820180359060200190808060200260200160405190810160405280939291908181526020018383602002808284378201915050505050509192919290803590602001908201803590602001908080601f016020809104026020016040519081016040528093929190818152602001838380828437820191505050505050919291929080359060200190929190803573ffffffffffffffffffffffffffffffffffffffff169060200190929190505050612c9e565b604051808215151515815260200191505060405180910390f35b3480156112e857600080fd5b5061133d600480360381019080803573ffffffffffffffffffffffffffffffffffffffff169060200190929190803573ffffffffffffffffffffffffffffffffffffffff169060200190929190505050613097565b604051808215151515815260200191505060405180910390f35b34801561136357600080fd5b5061136c61312b565b6040518080602001828103825283818151815260200191508051906020019080838360005b838110156113ac578082015181840152602081019050611391565b50505050905090810190601f1680156113d95780820380516001836020036101000a031916815260200191505b509250505060405180910390f35b6000600f600083815260200190815260200160002060009054906101000a900473ffffffffffffffffffffffffffffffffffffffff169050919050565b600061142f82611dcf565b90508073ffffffffffffffffffffffffffffffffffffffff168373ffffffffffffffffffffffffffffffffffffffff161415151561146c57600080fd5b8073ffffffffffffffffffffffffffffffffffffffff163373ffffffffffffffffffffffffffffffffffffffff1614806114ac57506114ab8133613097565b5b15156114b757600080fd5b600073ffffffffffffffffffffffffffffffffffffffff166114d8836113e7565b73ffffffffffffffffffffffffffffffffffffffff161415806115285750600073ffffffffffffffffffffffffffffffffffffffff168373ffffffffffffffffffffffffffffffffffffffff1614155b156115e55782600f600084815260200190815260200160002060006101000a81548173ffffffffffffffffffffffffffffffffffffffff021916908373ffffffffffffffffffffffffffffffffffffffff1602179055508273ffffffffffffffffffffffffffffffffffffffff168173ffffffffffffffffffffffffffffffffffffffff167f8c5be1e5ebec7d5bd14f71427d1e84f3dd0314c0f7b2291e5b200ac8c7c3b925846040518082815260200191505060405180910390a35b505050565b61166782600a836040518082805190602001908083835b6020831015156116265780518252602082019150602081019050602083039250611601565b6001836020036101000a038019825116818451168082178552505050505050905001915050908152602001604051809103902061316490919063ffffffff16565b5050565b813373ffffffffffffffffffffffffffffffffffffffff1661168c82611dcf565b73ffffffffffffffffffffffffffffffffffffffff161415156116ae57600080fd5b600060136000858152602001908152602001600020541480156116d15750600082115b15156116dc57600080fd5b81601360008581526020019081526020016000208190555061170a600160145461317d90919063ffffffff16565b60148190555061171a3084611424565b505050565b60008060008091505b600d8054905082101561179a57600d600183600d80549050030381548110151561174e57fe5b90600052602060002001549050838111151561177f57600c60008281526020019081526020016000205492506117b2565b61179360018361317d90919063ffffffff16565b9150611728565b600c6000600181526020019081526020016000205492505b5050919050565b600061183883600a846040518082805190602001908083835b6020831015156117f757805182526020820191506020810190506020830392506117d2565b6001836020036101000a038019825116818451168082178552505050505050905001915050908152602001604051809103902061319990919063ffffffff16565b905092915050565b8061184b33826131f2565b151561185657600080fd5b600073ffffffffffffffffffffffffffffffffffffffff168473ffffffffffffffffffffffffffffffffffffffff161415151561189257600080fd5b600073ffffffffffffffffffffffffffffffffffffffff168373ffffffffffffffffffffffffffffffffffffffff16141515156118ce57600080fd5b6118d88483613287565b6118e284836133f0565b6118ec838361351f565b8273ffffffffffffffffffffffffffffffffffffffff168473ffffffffffffffffffffffffffffffffffffffff167fddf252ad1be2c89b69c2b068fc378daa952ba7f163c4a11628f55a4df523b3ef846040518082815260200191505060405180910390a350505050565b6040805190810160405280600581526020017f766973697400000000000000000000000000000000000000000000000000000081525081565b8061199b33826131f2565b15156119a657600080fd5b6119c28484846020604051908101604052806000815250612945565b50505050565b6000806040805190810160405280600681526020017f7570646174650000000000000000000000000000000000000000000000000000815250611a0b33826115ea565b883373ffffffffffffffffffffffffffffffffffffffff16611a2c82611dcf565b73ffffffffffffffffffffffffffffffffffffffff16141515611a4e57600080fd5b898580601283815481101515611a6057fe5b90600052602060002090600802016001015410151515611a7f57600080fd5b60128c815481101515611a8e57fe5b906000526020600020906008020194508a856002019080519060200190611ab692919061452a565b50898560030160006101000a81548163ffffffff021916908363ffffffff160217905550888560030160046101000a81548163ffffffff021916908363ffffffff1602179055508785600501819055506001955050505050509695505050505050565b6000611b258383613679565b905092915050565b600080600e600084815260200190815260200160002060009054906101000a900473ffffffffffffffffffffffffffffffffffffffff169050600073ffffffffffffffffffffffffffffffffffffffff168173ffffffffffffffffffffffffffffffffffffffff161415915050919050565b60006040805190810160405280600581526020017f7669736974000000000000000000000000000000000000000000000000000000815250611be133826115ea565b8360008073ffffffffffffffffffffffffffffffffffffffff168273ffffffffffffffffffffffffffffffffffffffff16148015611c5a5750611c59336040805190810160405280600581526020017f76697369740000000000000000000000000000000000000000000000000000008152506117b9565b5b15611c7a57611c738d8d8d8d8d8d8d8d8d601554613722565b9350611cb3565b611c8382612ba2565b9050611c8e82611ef5565b8110151515611c9c57600080fd5b611cb08d8d8d8d8d8d8d8d8d601554613722565b93505b5050509998505050505050505050565b600080601283815481101515611cd557fe5b906000526020600020906008020160060154601284815481101515611cf657fe5b90600052602060002090600802016007015491509150915091565b600080833373ffffffffffffffffffffffffffffffffffffffff16611d3582611dcf565b73ffffffffffffffffffffffffffffffffffffffff16141515611d5757600080fd5b84600480601283815481101515611d6a57fe5b90600052602060002090600802016001015410151515611d8957600080fd5b601287815481101515611d9857fe5b9060005260206000209060080201935085846002019080519060200190611dc092919061452a565b50600194505050505092915050565b600080600e600084815260200190815260200160002060009054906101000a900473ffffffffffffffffffffffffffffffffffffffff169050600073ffffffffffffffffffffffffffffffffffffffff168173ffffffffffffffffffffffffffffffffffffffff1614151515611e4457600080fd5b80915050919050565b803373ffffffffffffffffffffffffffffffffffffffff16611e6e82611dcf565b73ffffffffffffffffffffffffffffffffffffffff16141515611e9057600080fd5b60006013600084815260200190815260200160002054111515611eb257600080fd5b60006013600084815260200190815260200160002081905550611ee16001601454613a0290919063ffffffff16565b601481905550611ef13383613287565b5050565b60008073ffffffffffffffffffffffffffffffffffffffff168273ffffffffffffffffffffffffffffffffffffffff1614151515611f3257600080fd5b601060008373ffffffffffffffffffffffffffffffffffffffff1673ffffffffffffffffffffffffffffffffffffffff168152602001908152602001600020549050919050565b6000601060003373ffffffffffffffffffffffffffffffffffffffff1673ffffffffffffffffffffffffffffffffffffffff16815260200190815260200160002054905090565b606060006060600080601060008773ffffffffffffffffffffffffffffffffffffffff1673ffffffffffffffffffffffffffffffffffffffff1681526020019081526020016000205493508360405190808252806020026020018201604052801561203a5781602001602082028038833980820191505090505b50925060009150600090505b601280549050811015612117578573ffffffffffffffffffffffffffffffffffffffff16600e600083815260200190815260200160002060009054906101000a900473ffffffffffffffffffffffffffffffffffffffff1673ffffffffffffffffffffffffffffffffffffffff1614156120ee578083838151811015156120c957fe5b90602001906020020181815250506120eb60018361317d90919063ffffffff16565b91505b83821015156120fc57612117565b61211060018261317d90919063ffffffff16565b9050612046565b82945050505050919050565b612162336040805190810160405280600581526020017f61646d696e0000000000000000000000000000000000000000000000000000008152506115ea565b61216c8282613a1b565b5050565b60008060006060600080600080600080600061218a6145aa565b60128d81548110151561219957fe5b906000526020600020906008020161014060405190810160405290816000820154815260200160018201548152602001600282018054600181600116156101000203166002900480601f0160208091040260200160405190810160405280929190818152602001828054600181600116156101000203166002900480156122615780601f1061223657610100808354040283529160200191612261565b820191906000526020600020905b81548152906001019060200180831161224457829003601f168201915b505050505081526020016003820160009054906101000a900463ffffffff1663ffffffff1663ffffffff1681526020016003820160049054906101000a900463ffffffff1663ffffffff1663ffffffff1681526020016003820160089054906101000a900463ffffffff1663ffffffff1663ffffffff16815260200160048201548152602001600582015481526020016006820154815260200160078201548152505090508c9b508060200151995080600001519a508060400151985080606001519750806080015196508060a0015195508060c0015194508060e001519350601360008e8152602001908152602001600020549250600e60008e815260200190815260200160002060009054906101000a900473ffffffffffffffffffffffffffffffffffffffff1691505091939597999b90929496989a50565b6040805190810160405280600581526020017f70726f6d6f00000000000000000000000000000000000000000000000000000081525081565b6000601280549050905090565b612422336040805190810160405280600581526020017f61646d696e0000000000000000000000000000000000000000000000000000008152506115ea565b6000600c60008481526020019081526020016000205414151561244457600080fd5b80600c600084815260200190815260200160002081905550600d8290806001815401808255809150509060018203906000526020600020016000909192909190915055505050565b3373ffffffffffffffffffffffffffffffffffffffff168273ffffffffffffffffffffffffffffffffffffffff16141515156124c757600080fd5b80601160003373ffffffffffffffffffffffffffffffffffffffff1673ffffffffffffffffffffffffffffffffffffffff16815260200190815260200160002060008473ffffffffffffffffffffffffffffffffffffffff1673ffffffffffffffffffffffffffffffffffffffff16815260200190815260200160002060006101000a81548160ff0219169083151502179055508173ffffffffffffffffffffffffffffffffffffffff163373ffffffffffffffffffffffffffffffffffffffff167f17307eab39ab6107e8899845ad3d59bd9653f200f220920489ca2b5937696c3183604051808215151515815260200191505060405180910390a35050565b612607336040805190810160405280600581526020017f61646d696e0000000000000000000000000000000000000000000000000000008152506115ea565b6126118282613b6c565b5050565b612654336040805190810160405280600581526020017f61646d696e0000000000000000000000000000000000000000000000000000008152506115ea565b61266a600160155461317d90919063ffffffff16565b601581905550565b60008061267f30846131f2565b801561269e575060006013600085815260200190815260200160002054115b80156126bd575060136000848152602001908152602001600020543410155b15156126c857600080fd5b6126d183611dcf565b91506126f9601360008581526020019081526020016000205434613a0290919063ffffffff16565b905060008111156127aa573373ffffffffffffffffffffffffffffffffffffffff166108fc829081150290604051600060405180830381858888f1935050505015801561274a573d6000803e3d6000fd5b508173ffffffffffffffffffffffffffffffffffffffff166108fc60136000868152602001908152602001600020549081150290604051600060405180830381858888f193505050501580156127a4573d6000803e3d6000fd5b506127f2565b8173ffffffffffffffffffffffffffffffffffffffff166108fc349081150290604051600060405180830381858888f193505050501580156127f0573d6000803e3d6000fd5b505b600060136000858152602001908152602001600020819055506128216001601454613a0290919063ffffffff16565b6014819055506128513360128581548110151561283a57fe5b906000526020600020906008020160010154613cbd565b3073ffffffffffffffffffffffffffffffffffffffff166342842e0e8333866040518463ffffffff167c0100000000000000000000000000000000000000000000000000000000028152600401808473ffffffffffffffffffffffffffffffffffffffff1673ffffffffffffffffffffffffffffffffffffffff1681526020018373ffffffffffffffffffffffffffffffffffffffff1673ffffffffffffffffffffffffffffffffffffffff1681526020018281526020019350505050600060405180830381600087803b15801561292857600080fd5b505af115801561293c573d6000803e3d6000fd5b50505050505050565b8161295033826131f2565b151561295b57600080fd5b612966858585611840565b61297285858585613d53565b151561297d57600080fd5b5050505050565b60006040805190810160405280600581526020017f76697369740000000000000000000000000000000000000000000000000000008152506129c633826115ea565b8460008073ffffffffffffffffffffffffffffffffffffffff168273ffffffffffffffffffffffffffffffffffffffff16148015612a3f5750612a3e336040805190810160405280600581526020017f76697369740000000000000000000000000000000000000000000000000000008152506117b9565b5b15612a5d57612a568e8e8e8e8e8e8e8e8e8e613722565b9350612a94565b612a6682612ba2565b9050612a7182611ef5565b8110151515612a7f57600080fd5b612a918e8e8e8e8e8e8e8e8e8e613722565b93505b5050509a9950505050505050505050565b606080600080601454604051908082528060200260200182016040528015612adc5781602001602082028038833980820191505090505b50925060009150600090505b601280549050811015612b6057600060136000838152602001908152602001600020541115612b4557808383815181101515612b2057fe5b9060200190602002018181525050612b4260018361317d90919063ffffffff16565b91505b612b5960018261317d90919063ffffffff16565b9050612ae8565b82935050505090565b6040805190810160405280600581526020017f61646d696e00000000000000000000000000000000000000000000000000000081525081565b600080600b60008473ffffffffffffffffffffffffffffffffffffffff1673ffffffffffffffffffffffffffffffffffffffff1681526020019081526020016000205490506000811415612bf557600190505b612bfe8161171f565b915050919050565b6060600060606000806000612c1a87611fc0565b935060019250600091505b8351821015612c8f5760128483815181101515612c3e57fe5b90602001906020020151815481101515612c5457fe5b906000526020600020906008020160010154905082811115612c74578092505b612c8860018361317d90919063ffffffff16565b9150612c25565b83839550955050505050915091565b6000612ca86145aa565b60006040805190810160405280600581526020017f70726f6d6f000000000000000000000000000000000000000000000000000000815250612cea33826115ea565b8460008073ffffffffffffffffffffffffffffffffffffffff168273ffffffffffffffffffffffffffffffffffffffff16148015612d635750612d62336040805190810160405280600581526020017f76697369740000000000000000000000000000000000000000000000000000008152506117b9565b5b15612eea57612d748a8a898b613f41565b945060016012869080600181540180825580915050906001820390600052602060002090600802016000909192909190915060008201518160000155602082015181600101556040820151816002019080519060200190612dd6929190614610565b5060608201518160030160006101000a81548163ffffffff021916908363ffffffff16021790555060808201518160030160046101000a81548163ffffffff021916908363ffffffff16021790555060a08201518160030160086101000a81548163ffffffff021916908363ffffffff16021790555060c0820151816004015560e08201518160050155610100820151816006015561012082015181600701555050039350612e858785613fd0565b612e93878660200151613cbd565b8673ffffffffffffffffffffffffffffffffffffffff167f163090350da897fd03497e870bbe993a1948b39328cd37a8fe6b9179e120dd27856040518082815260200191505060405180910390a26001955061308a565b612ef382612ba2565b9050612efe82611ef5565b8110151515612f0c57600080fd5b612f188a8a898b613f41565b945060016012869080600181540180825580915050906001820390600052602060002090600802016000909192909190915060008201518160000155602082015181600101556040820151816002019080519060200190612f7a929190614610565b5060608201518160030160006101000a81548163ffffffff021916908363ffffffff16021790555060808201518160030160046101000a81548163ffffffff021916908363ffffffff16021790555060a08201518160030160086101000a81548163ffffffff021916908363ffffffff16021790555060c0820151816004015560e082015181600501556101008201518160060155610120820151816007015550500393506130298785613fd0565b613037878660200151613cbd565b8673ffffffffffffffffffffffffffffffffffffffff167f163090350da897fd03497e870bbe993a1948b39328cd37a8fe6b9179e120dd27856040518082815260200191505060405180910390a2600195505b5050505050949350505050565b6000601160008473ffffffffffffffffffffffffffffffffffffffff1673ffffffffffffffffffffffffffffffffffffffff16815260200190815260200160002060008373ffffffffffffffffffffffffffffffffffffffff1673ffffffffffffffffffffffffffffffffffffffff16815260200190815260200160002060009054906101000a900460ff16905092915050565b6040805190810160405280600681526020017f757064617465000000000000000000000000000000000000000000000000000081525081565b61316e8282613199565b151561317957600080fd5b5050565b6000818301905082811015151561319057fe5b80905092915050565b60008260000160008373ffffffffffffffffffffffffffffffffffffffff1673ffffffffffffffffffffffffffffffffffffffff16815260200190815260200160002060009054906101000a900460ff16905092915050565b6000806131fe83611dcf565b90508073ffffffffffffffffffffffffffffffffffffffff168473ffffffffffffffffffffffffffffffffffffffff16148061326d57508373ffffffffffffffffffffffffffffffffffffffff16613255846113e7565b73ffffffffffffffffffffffffffffffffffffffff16145b8061327e575061327d8185613097565b5b91505092915050565b8173ffffffffffffffffffffffffffffffffffffffff166132a782611dcf565b73ffffffffffffffffffffffffffffffffffffffff161415156132c957600080fd5b600073ffffffffffffffffffffffffffffffffffffffff16600f600083815260200190815260200160002060009054906101000a900473ffffffffffffffffffffffffffffffffffffffff1673ffffffffffffffffffffffffffffffffffffffff161415156133ec576000600f600083815260200190815260200160002060006101000a81548173ffffffffffffffffffffffffffffffffffffffff021916908373ffffffffffffffffffffffffffffffffffffffff160217905550600073ffffffffffffffffffffffffffffffffffffffff168273ffffffffffffffffffffffffffffffffffffffff167f8c5be1e5ebec7d5bd14f71427d1e84f3dd0314c0f7b2291e5b200ac8c7c3b925836040518082815260200191505060405180910390a35b5050565b8173ffffffffffffffffffffffffffffffffffffffff1661341082611dcf565b73ffffffffffffffffffffffffffffffffffffffff1614151561343257600080fd5b6134856001601060008573ffffffffffffffffffffffffffffffffffffffff1673ffffffffffffffffffffffffffffffffffffffff16815260200190815260200160002054613a0290919063ffffffff16565b601060008473ffffffffffffffffffffffffffffffffffffffff1673ffffffffffffffffffffffffffffffffffffffff168152602001908152602001600020819055506000600e600083815260200190815260200160002060006101000a81548173ffffffffffffffffffffffffffffffffffffffff021916908373ffffffffffffffffffffffffffffffffffffffff1602179055505050565b600073ffffffffffffffffffffffffffffffffffffffff16600e600083815260200190815260200160002060009054906101000a900473ffffffffffffffffffffffffffffffffffffffff1673ffffffffffffffffffffffffffffffffffffffff1614151561358d57600080fd5b81600e600083815260200190815260200160002060006101000a81548173ffffffffffffffffffffffffffffffffffffffff021916908373ffffffffffffffffffffffffffffffffffffffff1602179055506136326001601060008573ffffffffffffffffffffffffffffffffffffffff1673ffffffffffffffffffffffffffffffffffffffff1681526020019081526020016000205461317d90919063ffffffff16565b601060008473ffffffffffffffffffffffffffffffffffffffff1673ffffffffffffffffffffffffffffffffffffffff168152602001908152602001600020819055505050565b60006040805190810160405280600581526020017f76697369740000000000000000000000000000000000000000000000000000008152506136bb33826115ea565b60006013600085815260200190815260200160002054111561370d57600060136000858152602001908152602001600020819055506137066001601454613a0290919063ffffffff16565b6014819055505b6137178484614080565b600191505092915050565b600061372c6145aa565b6000806003548e81151561373c57fe5b04148015613751575060008b63ffffffff1610155b801561376757506006805490508b63ffffffff16105b801561377a575060008a63ffffffff1610155b801561379057506008805490508a63ffffffff16105b151561379b57600080fd5b610140604051908101604052808e81526020018d81526020018881526020018c63ffffffff1681526020018b63ffffffff1681526020014263ffffffff1681526020018581526020018681526020018a815260200189815250915060016012839080600181540180825580915050906001820390600052602060002090600802016000909192909190915060008201518160000155602082015181600101556040820151816002019080519060200190613856929190614610565b5060608201518160030160006101000a81548163ffffffff021916908363ffffffff16021790555060808201518160030160046101000a81548163ffffffff021916908363ffffffff16021790555060a08201518160030160086101000a81548163ffffffff021916908363ffffffff16021790555060c0820151816004015560e08201518160050155610100820151816006015561012082015181600701555050039050600073ffffffffffffffffffffffffffffffffffffffff168673ffffffffffffffffffffffffffffffffffffffff1614156139875785600e600083815260200190815260200160002060006101000a81548173ffffffffffffffffffffffffffffffffffffffff021916908373ffffffffffffffffffffffffffffffffffffffff1602179055506139ee565b6139918682613fd0565b61399f868360200151613cbd565b8573ffffffffffffffffffffffffffffffffffffffff167f163090350da897fd03497e870bbe993a1948b39328cd37a8fe6b9179e120dd27826040518082815260200191505060405180910390a25b6001925050509a9950505050505050505050565b6000828211151515613a1057fe5b818303905092915050565b613a9882600a836040518082805190602001908083835b602083101515613a575780518252602082019150602081019050602083039250613a32565b6001836020036101000a03801982511681845116808217855250505050505090500191505090815260200160405180910390206140fe90919063ffffffff16565b7fd211483f91fc6eff862467f8de606587a30c8fc9981056f051b897a418df803a8282604051808373ffffffffffffffffffffffffffffffffffffffff1673ffffffffffffffffffffffffffffffffffffffff16815260200180602001828103825283818151815260200191508051906020019080838360005b83811015613b2d578082015181840152602081019050613b12565b50505050905090810190601f168015613b5a5780820380516001836020036101000a031916815260200191505b50935050505060405180910390a15050565b613be982600a836040518082805190602001908083835b602083101515613ba85780518252602082019150602081019050602083039250613b83565b6001836020036101000a038019825116818451168082178552505050505050905001915050908152602001604051809103902061415c90919063ffffffff16565b7fbfec83d64eaa953f2708271a023ab9ee82057f8f3578d548c1a4ba0b5b7004898282604051808373ffffffffffffffffffffffffffffffffffffffff1673ffffffffffffffffffffffffffffffffffffffff16815260200180602001828103825283818151815260200191508051906020019080838360005b83811015613c7e578082015181840152602081019050613c63565b50505050905090810190601f168015613cab5780820380516001836020036101000a031916815260200191505b50935050505060405180910390a15050565b6000600b60008473ffffffffffffffffffffffffffffffffffffffff1673ffffffffffffffffffffffffffffffffffffffff16815260200190815260200160002054905081811015613d4e5781600b60008573ffffffffffffffffffffffffffffffffffffffff1673ffffffffffffffffffffffffffffffffffffffff168152602001908152602001600020819055505b505050565b600080613d758573ffffffffffffffffffffffffffffffffffffffff166141ba565b1515613d845760019150613f38565b8473ffffffffffffffffffffffffffffffffffffffff1663f0b9e5ba8786866040518463ffffffff167c0100000000000000000000000000000000000000000000000000000000028152600401808473ffffffffffffffffffffffffffffffffffffffff1673ffffffffffffffffffffffffffffffffffffffff16815260200183815260200180602001828103825283818151815260200191508051906020019080838360005b83811015613e46578082015181840152602081019050613e2b565b50505050905090810190601f168015613e735780820380516001836020036101000a031916815260200191505b50945050505050602060405180830381600087803b158015613e9457600080fd5b505af1158015613ea8573d6000803e3d6000fd5b505050506040513d6020811015613ebe57600080fd5b8101908080519060200190929190505050905063f0b9e5ba7c0100000000000000000000000000000000000000000000000000000000027bffffffffffffffffffffffffffffffffffffffffffffffffffffffff1916817bffffffffffffffffffffffffffffffffffffffffffffffffffffffff19161491505b50949350505050565b613f496145aa565b6000806000613f598888886141cd565b80935081945082955050505061014060405190810160405280848152602001600181526020018881526020018363ffffffff1681526020018263ffffffff1681526020014263ffffffff16815260200160155481526020018681526020016000815260200160008152509350505050949350505050565b600073ffffffffffffffffffffffffffffffffffffffff168273ffffffffffffffffffffffffffffffffffffffff161415151561400c57600080fd5b614016828261351f565b8173ffffffffffffffffffffffffffffffffffffffff16600073ffffffffffffffffffffffffffffffffffffffff167fddf252ad1be2c89b69c2b068fc378daa952ba7f163c4a11628f55a4df523b3ef836040518082815260200191505060405180910390a35050565b61408a8282613287565b61409482826133f0565b600073ffffffffffffffffffffffffffffffffffffffff168273ffffffffffffffffffffffffffffffffffffffff167fddf252ad1be2c89b69c2b068fc378daa952ba7f163c4a11628f55a4df523b3ef836040518082815260200191505060405180910390a35050565b60008260000160008373ffffffffffffffffffffffffffffffffffffffff1673ffffffffffffffffffffffffffffffffffffffff16815260200190815260200160002060006101000a81548160ff0219169083151502179055505050565b60018260000160008373ffffffffffffffffffffffffffffffffffffffff1673ffffffffffffffffffffffffffffffffffffffff16815260200190815260200160002060006101000a81548160ff0219169083151502179055505050565b600080823b905060008111915050919050565b600080600080428587604051808481526020018373ffffffffffffffffffffffffffffffffffffffff1673ffffffffffffffffffffffffffffffffffffffff166c0100000000000000000000000002815260140182805190602001908083835b602083101515614252578051825260208201915060208101905060208303925061422d565b6001836020036101000a038019825116818451168082178552505050505050905001935050505060405180910390206001900490506003548181151561429457fe5b0693506000600160005403600a0a858115156142ac57fe5b0414156142c157600160005403600a0a840193505b600554848115156142ce57fe5b0692506005546007548115156142e057fe5b04600754858115156142ee57fe5b068115156142f857fe5b04915061435583600680548060200260200160405190810160405280929190818152602001828054801561434b57602002820191906000526020600020905b815481526020019060010190808311614337575b505050505061437d565b925061436187836143ea565b91506004548481151561437057fe5b0493505093509350939050565b60008060008060009250600091505b84518210156143d95784828151811015156143a357fe5b9060200190602002015190508083018663ffffffff1610156143c7578193506143e1565b8083019250818060010192505061438c565b600185510393505b50505092915050565b60006060600080600080600880548060200260200160405190810160405280929190818152602001828054801561444057602002820191906000526020600020905b81548152602001906001019080831161442c575b5050505050945060009350600092505b875183101561448557878381518110151561446757fe5b9060200190602002015160ff16840193508280600101935050614450565b6001885103600a02915060008411801561449f5750875184105b1561451357600092505b87518310156145125787838151811015156144c057fe5b9060200190602002015160ff168851029050838103905080828115156144e257fe5b0485848151811015156144f157fe5b906020019060200201818151019150818152505082806001019350506144a9565b5b61451d878661437d565b9550505050505092915050565b828054600181600116156101000203166002900490600052602060002090601f016020900481019282601f1061456b57805160ff1916838001178555614599565b82800160010185558215614599579182015b8281111561459857825182559160200191906001019061457d565b5b5090506145a69190614690565b5090565b61014060405190810160405280600081526020016000815260200160608152602001600063ffffffff168152602001600063ffffffff168152602001600063ffffffff168152602001600081526020016000815260200160008152602001600081525090565b828054600181600116156101000203166002900490600052602060002090601f016020900481019282601f1061465157805160ff191683800117855561467f565b8280016001018555821561467f579182015b8281111561467e578251825591602001919060010190614663565b5b50905061468c9190614690565b5090565b6146b291905b808211156146ae576000816000905550600101614696565b5090565b905600a165627a7a723058203cf03afd7642aedbd53bf6c5c1057486fc7cbedb3ecfe2c1f2d1dcb1cd104b030029",
  "source": "pragma solidity ^0.4.21;\n\nimport './DnaCore.sol';\nimport './ToriCapacity.sol';\n\n//import 'github.com/OpenZeppelin/zeppelin-solidity/contracts/token/ERC721/ERC721BasicToken.sol';\n//import 'github.com/OpenZeppelin/zeppelin-solidity/contracts/math/SafeMath.sol';\n\nimport 'openzeppelin-solidity/contracts/token/ERC721/ERC721BasicToken.sol';\nimport 'openzeppelin-solidity/contracts/math/SafeMath.sol';\n\ncontract ToriToken is DnaCore, ToriCapacity, ERC721BasicToken {\n\n  using SafeMath for uint256;\n\n  struct Tori {\n    uint256 dna;\n    uint256 level;\n    string name;\n    uint32 proficiency;\n    uint32 personality;\n    uint32 readyTime;\n    uint256 generation;\n    uint256 special;\n    // 0, 0 --> generation 1.\n    uint256 parent1;\n    uint256 parent2;\n  }\n\n  Tori[] toris;\n\n  // toriId to price (in wei)\n  mapping (uint => uint256) toriSale;\n  uint256 toriSaleCount;\n\n  event NewTori(address indexed _address, uint256 toriIdx);\n  uint256 currentGeneration = 0;\n\n  // ROLES\n  string public constant ROLE_VISIT = \"visit\";\n  string public constant ROLE_PROMO = \"promo\";\n  string public constant ROLE_UPDATE = \"update\";\n\n\n  function updateGeneration() onlyAdmin public {\n    currentGeneration = currentGeneration.add(1);\n  }\n\n  modifier capacityNotFull(address _owner) {\n    if ((_owner == address(0)) && (hasRole(msg.sender, ROLE_VISIT))) {\n      // Bypass capacity check for transfer\n      _;\n    } else {\n      uint maxCapacity = getMaxCapacity(_owner);\n      require(maxCapacity >= balanceOf(_owner));\n      _;\n    }\n  }\n\n  /*\n  *   Generate random dna, personality, and proficiency level from\n  *   the given quiz & sender address.\n  */\n  function _generateRandomTori(uint8[] _quizzes,\n                               string _name,\n                               address _owner,\n                               uint256 _special) private view returns (Tori) {\n    uint256 dna;\n    uint32 proficiency;\n    uint32 personality;\n    (dna, proficiency, personality) = _generateRandomTraits(_quizzes, _name, _owner);\n    return Tori(dna, 1, _name, proficiency, personality, uint32(now), currentGeneration, _special, 0, 0);\n  }\n\n  function generateSpecialTori(uint8[] _quizzes,\n                               string _name,\n                               uint256 _special,\n                               address _owner) onlyRole(ROLE_PROMO) capacityNotFull(_owner) public returns (bool success) {\n    Tori memory newTori = _generateRandomTori(_quizzes, _name, _owner, _special);\n    // Push to the book keeping array.\n    uint256 id = toris.push(newTori) - 1;\n    _mint(_owner, id);\n    updateMaxLevel(_owner, newTori.level);\n    emit NewTori(_owner, id);\n    return true;\n  }\n\n  function _generateNewTori(uint256 _dna,\n                            uint256 _level,\n                            uint32 _proficiency,\n                            uint32 _personality,\n                            uint256 _parent1,\n                            uint256 _parent2,\n                            string _name,\n                            address _owner,\n                            uint256 _special,\n                            uint256 _generation) private returns (bool success) {\n    require((_dna / DNA_LIMIT == 0) &&\n            (_proficiency >= 0) &&\n            (_proficiency < PROFICIENCY_THRESHOLD.length) &&\n            (_personality >= 0) &&\n            (_personality < PERSONALITY_THRESHOLD.length));\n    // Generate three new toris.\n    Tori memory newTori = Tori(_dna,\n                               _level,\n                               _name,\n                               _proficiency,\n                               _personality,\n                               uint32(now),\n                               _generation,\n                               _special,\n                               _parent1,\n                               _parent2);\n    // Push to the book keeping array.\n    uint256 id = toris.push(newTori) - 1;\n\n    if (_owner == address(0)) {\n      tokenOwner[id] = _owner;\n    } else {\n      _mint(_owner, id);\n      updateMaxLevel(_owner, newTori.level);\n      emit NewTori(_owner, id);\n    }\n    return true;\n  }\n\n  function generateNewTori(uint256 _dna,\n                           uint256 _level,\n                           uint32 _proficiency,\n                           uint32 _personality,\n                           uint256 _parent1,\n                           uint256 _parent2,\n                           string _name,\n                           address _owner,\n                           uint256 _special,\n                           uint256 _generation) onlyRole(ROLE_VISIT) capacityNotFull(_owner) public returns (bool success) {\n    return _generateNewTori(\n      _dna,\n      _level,\n      _proficiency,\n      _personality,\n      _parent1,\n      _parent2,\n      _name,\n      _owner,\n      _special,\n      _generation\n    );\n  }\n\n  function generateNewTori(uint256 _dna,\n                           uint256 _level,\n                           uint32 _proficiency,\n                           uint32 _personality,\n                           uint256 _parent1,\n                           uint256 _parent2,\n                           string _name,\n                           address _owner,\n                           uint256 _special) onlyRole(ROLE_VISIT) capacityNotFull(_owner) public returns (bool success) {\n    return _generateNewTori(\n      _dna,\n      _level,\n      _proficiency,\n      _personality,\n      _parent1,\n      _parent2,\n      _name,\n      _owner,\n      _special,\n      currentGeneration\n    );\n  }\n\n  function _burnTori(address _owner, uint256 _tokenId) onlyRole(ROLE_VISIT) private returns (bool success) {\n    // Check if for sale\n    // TODO: remove it automatically for now.\n    if (toriSale[_tokenId] > 0) {\n      toriSale[_tokenId] = 0;\n      toriSaleCount = toriSaleCount.sub(1);\n    }\n    _burn(_owner, _tokenId);\n    // TODO: check if burn succeed\n    return true;\n  }\n\n  function burnTori(address _owner, uint256 _tokenId) public returns (bool success) {\n    return _burnTori(_owner, _tokenId);\n  }\n\n  function getTokenIndexes(address _owner) public view returns (uint[]) {\n    uint size = ownedTokensCount[_owner];\n    uint[] memory result = new uint[](size);\n\n    uint idx = 0;\n    for (uint i = 0; i < toris.length; i = i.add(1)) {\n      if (tokenOwner[i] == _owner) {\n        result[idx] = i;\n        idx = idx.add(1);\n      }\n      if (idx >= size) {\n        break;\n      }\n    }\n    return result;\n  }\n\n  function getTokenIndexesWithMaxLevel(address _owner) public view returns (uint[], uint) {\n    uint[] memory indexes = getTokenIndexes(_owner);\n    uint maxLevel = 1;\n    for (uint i = 0; i < indexes.length; i = i.add(1)) {\n      uint currLevel = toris[indexes[i]].level;\n      if (currLevel > maxLevel) {\n        maxLevel = currLevel;\n      }\n    }\n    return (indexes, maxLevel);\n  }\n\n  function getTokenInfo(uint256 _toriId) public view returns\n                    (uint256 toriId,\n                      uint256 toriDna,\n                      uint256 level,\n                      string name,\n                      uint32 proficiency,\n                      uint32 personality,\n                      uint32 readyTime,\n                      uint256 generation,\n                      uint256 special,\n                      uint postingPrice,\n                      address toriOwner) {\n    Tori memory tori = toris[_toriId];\n    toriId = _toriId;\n    level = tori.level;\n    toriDna = tori.dna;\n    name = tori.name;\n    proficiency = tori.proficiency;\n    personality = tori.personality;\n    readyTime = tori.readyTime;\n    generation = tori.generation;\n    special = tori.special;\n    postingPrice = toriSale[_toriId];\n    toriOwner = tokenOwner[_toriId];\n  }\n\n  function getParentIds(uint256 _tokenId) public view returns (uint256 parent1, uint256 parent2) {\n    return (toris[_tokenId].parent1, toris[_tokenId].parent2);\n  }\n\n  function getTokenCount() public view returns (uint256 toriCount) {\n    return ownedTokensCount[msg.sender];\n  }\n\n  function getAllTokensCount() public view returns (uint) {\n    return toris.length;\n  }\n\n\n  // TODO: add functionality for users to change the sale price.\n  function approveForSale(uint256 _tokenId, uint256 _salePrice) public onlyOwnerOf(_tokenId) {\n    require((toriSale[_tokenId] == 0) && (_salePrice > 0));\n    toriSale[_tokenId] = _salePrice;\n    toriSaleCount = toriSaleCount.add(1);\n\n    approve(this, _tokenId);\n  }\n\n  function removeForSale(uint256 _tokenId) public onlyOwnerOf(_tokenId) {\n    require(toriSale[_tokenId] > 0);\n    toriSale[_tokenId] = 0;\n    toriSaleCount = toriSaleCount.sub(1);\n\n    clearApproval(msg.sender, _tokenId);\n  }\n\n  function buyForSale(uint256 _tokenId) public payable {\n    // TODO: does msg.value needs to be exactly equal?\n    require(isApprovedOrOwner(this, _tokenId) &&\n            (toriSale[_tokenId] > 0) &&\n            (msg.value >= toriSale[_tokenId]));\n\n    address _from = ownerOf(_tokenId);\n    // Send the ether.\n    uint256 excess = msg.value.sub(toriSale[_tokenId]);\n    if (excess > 0) {\n      msg.sender.transfer(excess);\n      _from.transfer(toriSale[_tokenId]);\n    } else {\n      _from.transfer(msg.value);\n    }\n\n    // Delete sale entry.\n    toriSale[_tokenId] = 0;\n    toriSaleCount = toriSaleCount.sub(1);\n\n    // Update max level\n    updateMaxLevel(msg.sender, toris[_tokenId].level);\n\n    // We want to call this from this contract.\n    this.safeTransferFrom(_from, msg.sender, _tokenId);\n  }\n\n  function retrieveAllForSales() public view returns (uint[]) {\n    uint[] memory result = new uint[](toriSaleCount);\n    uint idx = 0;\n    for (uint i = 0; i < toris.length; i = i.add(1)) {\n      if (toriSale[i] > 0) {\n        result[idx] = i;\n        idx = idx.add(1);\n      }\n    }\n    return result;\n  }\n\n  modifier minLevel(uint256 _tokenId, uint256 _minLevel) {\n    require(toris[_tokenId].level >= _minLevel);\n    _;\n  }\n\n  function updateName(uint256 _tokenId, string _newName) public onlyOwnerOf(_tokenId) minLevel(_tokenId, 4) returns (bool) {\n    Tori storage tori = toris[_tokenId];\n    tori.name = _newName;\n    return true;\n  }\n\n  function updateTori(uint256 _tokenId,\n                      string _name,\n                      uint32 _proficiency,\n                      uint32 _personality,\n                      uint256 _special,\n                      uint256 _minLevel) onlyRole(ROLE_UPDATE) onlyOwnerOf(_tokenId) minLevel(_tokenId, _minLevel) public returns (bool result) {\n    Tori storage tori = toris[_tokenId];\n    tori.name = _name;\n    tori.proficiency = _proficiency;\n    tori.personality = _personality;\n    tori.special = _special;\n    return true;\n  }\n}\n",
  "sourcePath": "/Users/Cindy/Desktop/cs359b/cs359b-cribtori/contracts/ToriToken.sol",
  "compiler": {
    "name": "solc",
    "version": "0.4.24+commit.e67f0147.Emscripten.clang"
  },
  "schemaVersion": "2.0.1",
  "updatedAt": "2018-07-19T06:42:56.345Z"
}