{
  "contractName": "ToriAccessories",
  "abi": [
    {
      "inputs": [],
      "payable": false,
      "stateMutability": "nonpayable",
      "type": "constructor"
    },
    {
      "anonymous": false,
      "inputs": [
        {
          "indexed": true,
          "name": "_address",
          "type": "address"
        },
        {
          "indexed": false,
          "name": "accIdx",
          "type": "uint256"
        }
      ],
      "name": "NewAccessories",
      "type": "event"
    },
    {
      "constant": false,
      "inputs": [
        {
          "name": "_quiz",
          "type": "string"
        }
      ],
      "name": "generateNewAccessories",
      "outputs": [
        {
          "name": "success",
          "type": "bool"
        }
      ],
      "payable": false,
      "stateMutability": "nonpayable",
      "type": "function"
    },
    {
      "constant": true,
      "inputs": [
        {
          "name": "_owner",
          "type": "address"
        }
      ],
      "name": "getAccessoriesIndexes",
      "outputs": [
        {
          "name": "",
          "type": "uint256[]"
        }
      ],
      "payable": false,
      "stateMutability": "view",
      "type": "function"
    },
    {
      "constant": true,
      "inputs": [
        {
          "name": "_accId",
          "type": "uint256"
        }
      ],
      "name": "getAccessoriesInfo",
      "outputs": [
        {
          "name": "accId",
          "type": "uint256"
        },
        {
          "name": "variety",
          "type": "uint256"
        },
        {
          "name": "rarity",
          "type": "uint256"
        },
        {
          "name": "space",
          "type": "uint32"
        }
      ],
      "payable": false,
      "stateMutability": "view",
      "type": "function"
    },
    {
      "constant": true,
      "inputs": [],
      "name": "getAccessoriesCount",
      "outputs": [
        {
          "name": "accCount",
          "type": "uint256"
        }
      ],
      "payable": false,
      "stateMutability": "view",
      "type": "function"
    },
    {
      "constant": true,
      "inputs": [],
      "name": "getAllAccessoriesCount",
      "outputs": [
        {
          "name": "",
          "type": "uint256"
        }
      ],
      "payable": false,
      "stateMutability": "view",
      "type": "function"
    }
  ],
  "bytecode": "0x6060604052600a60005560026001556001600255600054600a0a600355600154600a0a600455600254600a0a600555341561003957600080fd5b600080610044610330565b600060039350600092505b838310156101fb576100a96040805190810160405280600681526020017f73616d706c6500000000000000000000000000000000000000000000000000008152503361020464010000000002610690176401000000009004565b91506001600680548060010182816100c19190610364565b9160005260206000209001600085909190915060008201518160000160006101000a81548163ffffffff021916908363ffffffff16021790555060208201518160000160046101000a81548163ffffffff021916908363ffffffff16021790555060408201518160000160086101000a81548163ffffffff021916908363ffffffff1602179055505050039050336007600083815260200190815260200160002060006101000a81548173ffffffffffffffffffffffffffffffffffffffff021916908373ffffffffffffffffffffffffffffffffffffffff1602179055506001600860003373ffffffffffffffffffffffffffffffffffffffff1673ffffffffffffffffffffffffffffffffffffffff16815260200190815260200160002060008282540192505081905550828060010193505061004f565b505050506103f4565b61020c610330565b600080600080428688604051808481526020018373ffffffffffffffffffffffffffffffffffffffff1673ffffffffffffffffffffffffffffffffffffffff166c0100000000000000000000000002815260140182805190602001908083835b602083101515610291578051825260208201915060208101905060208303925061026c565b6001836020036101000a03801982511681845116808217855250505050505090500193505050506040518091039020600190049350600354848115156102d357fe5b069250600454848115156102e357fe5b069150600554848115156102f357fe5b0690506060604051908101604052808463ffffffff1681526020018363ffffffff1681526020018263ffffffff1681525094505050505092915050565b606060405190810160405280600063ffffffff168152602001600063ffffffff168152602001600063ffffffff1681525090565b81548183558181151161038b5781836000526020600020918201910161038a9190610390565b5b505050565b6103f191905b808211156103ed57600080820160006101000a81549063ffffffff02191690556000820160046101000a81549063ffffffff02191690556000820160086101000a81549063ffffffff021916905550600101610396565b5090565b90565b6108c0806104036000396000f30060606040526004361061006d576000357c0100000000000000000000000000000000000000000000000000000000900463ffffffff1680639a1bfb5514610072578063b8ea48141461009b578063cb294d03146100c4578063e5a2889814610152578063f355d5fb146101aa575b600080fd5b341561007d57600080fd5b61008561021f565b6040518082815260200191505060405180910390f35b34156100a657600080fd5b6100ae61022c565b6040518082815260200191505060405180910390f35b34156100cf57600080fd5b6100fb600480803573ffffffffffffffffffffffffffffffffffffffff16906020019091905050610273565b6040518080602001828103825283818151815260200191508051906020019060200280838360005b8381101561013e578082015181840152602081019050610123565b505050509050019250505060405180910390f35b341561015d57600080fd5b61017360048080359060200190919050506103b5565b604051808581526020018481526020018381526020018263ffffffff1663ffffffff16815260200194505050505060405180910390f35b34156101b557600080fd5b610205600480803590602001908201803590602001908080601f0160208091040260200160405190810160405280939291908181526020018383808284378201915050505050509190505061048f565b604051808215151515815260200191505060405180910390f35b6000600680549050905090565b6000600860003373ffffffffffffffffffffffffffffffffffffffff1673ffffffffffffffffffffffffffffffffffffffff16815260200190815260200160002054905090565b61027b6107bc565b60006102856107bc565b600080600860008773ffffffffffffffffffffffffffffffffffffffff1673ffffffffffffffffffffffffffffffffffffffff168152602001908152602001600020549350836040518059106102d85750595b9080825280602002602001820160405250925060009150600090505b6006805490508110156103a9578573ffffffffffffffffffffffffffffffffffffffff166007600083815260200190815260200160002060009054906101000a900473ffffffffffffffffffffffffffffffffffffffff1673ffffffffffffffffffffffffffffffffffffffff16141561038e5780838381518110151561037757fe5b906020019060200201818152505081806001019250505b838210151561039c576103a9565b80806001019150506102f4565b82945050505050919050565b6000806000806103c36107d0565b6006868154811015156103d257fe5b9060005260206000209001606060405190810160405290816000820160009054906101000a900463ffffffff1663ffffffff1663ffffffff1681526020016000820160049054906101000a900463ffffffff1663ffffffff1663ffffffff1681526020016000820160089054906101000a900463ffffffff1663ffffffff1663ffffffff16815250509050858160000151826020015183604001518263ffffffff1692508163ffffffff1691509450945094509450509193509193565b60006104996107d0565b600080600860003373ffffffffffffffffffffffffffffffffffffffff1673ffffffffffffffffffffffffffffffffffffffff168152602001908152602001600020541415156104e857600080fd5b6104f28433610690565b915060016006805480600101828161050a9190610804565b9160005260206000209001600085909190915060008201518160000160006101000a81548163ffffffff021916908363ffffffff16021790555060208201518160000160046101000a81548163ffffffff021916908363ffffffff16021790555060408201518160000160086101000a81548163ffffffff021916908363ffffffff1602179055505050039050336007600083815260200190815260200160002060006101000a81548173ffffffffffffffffffffffffffffffffffffffff021916908373ffffffffffffffffffffffffffffffffffffffff1602179055506001600860003373ffffffffffffffffffffffffffffffffffffffff1673ffffffffffffffffffffffffffffffffffffffff168152602001908152602001600020600082825401925050819055503373ffffffffffffffffffffffffffffffffffffffff167f9fb9d1121de8785167f7aa354b56593da21280049ad43c4e569f6791762a2233826040518082815260200191505060405180910390a2600192505050919050565b6106986107d0565b600080600080428688604051808481526020018373ffffffffffffffffffffffffffffffffffffffff1673ffffffffffffffffffffffffffffffffffffffff166c0100000000000000000000000002815260140182805190602001908083835b60208310151561071d57805182526020820191506020810190506020830392506106f8565b6001836020036101000a038019825116818451168082178552505050505050905001935050505060405180910390206001900493506003548481151561075f57fe5b0692506004548481151561076f57fe5b0691506005548481151561077f57fe5b0690506060604051908101604052808463ffffffff1681526020018363ffffffff1681526020018263ffffffff1681525094505050505092915050565b602060405190810160405280600081525090565b606060405190810160405280600063ffffffff168152602001600063ffffffff168152602001600063ffffffff1681525090565b81548183558181151161082b5781836000526020600020918201910161082a9190610830565b5b505050565b61089191905b8082111561088d57600080820160006101000a81549063ffffffff02191690556000820160046101000a81549063ffffffff02191690556000820160086101000a81549063ffffffff021916905550600101610836565b5090565b905600a165627a7a72305820134dd79c9753a9c0f8cdd5b6a1c9c41d9d605234152bd3d8b6e65b6a04359fd30029",
  "source": "pragma solidity ^0.4.21;\n\n/* import 'openzeppelin-solidity/contracts/ownership/Ownable.sol'; */\n\ncontract ToriAccessories {\n\n  uint256 private VARIETY_DIGIT = 10;\n  uint256 private RARITY_DIGIT = 2;\n  uint256 private SPACE_DIGIT = 1;\n\n  uint256 private VARIETY_LIMIT = 10**VARIETY_DIGIT;\n  uint256 private RARITY_LIMIT = 10**RARITY_DIGIT;\n  uint256 private SPACE_LIMIT = 10**SPACE_DIGIT;\n\n  struct Accessories {\n    uint32 variety;\n    uint32 rarity;\n    uint32 space;\n  }\n\n  Accessories[] accessories;\n\n  mapping (uint256 => address) accIndexToAddr;\n  mapping (address => uint256) addrToAccCount;\n\n  event NewAccessories(address indexed _address, uint256 accIdx);\n\n\n  /* DEV USE */\n  function ToriAccessories() {\n    // Generate some Toris for the owner.\n    uint n = 3;\n    for (uint i = 0; i < n; i++) {\n      Accessories memory newAcc = _generateRandomAccessories(\"sample\", msg.sender);\n      // Push to the book keeping array.\n      uint256 id = accessories.push(newAcc) - 1;\n      accIndexToAddr[id] = msg.sender;\n      addrToAccCount[msg.sender] += 1;\n    }\n  }\n\n\n\n  function _generateRandomAccessories(string _quiz, address _owner) private view returns (Accessories) {\n    // TODO: implement a more detailed Accessories generation.\n    uint256 generatedRandomness = uint(keccak256(now, _owner, _quiz));\n    uint32 variety = uint32(generatedRandomness % VARIETY_LIMIT);\n    uint32 rarity = uint32(generatedRandomness % RARITY_LIMIT);\n    uint32 space = uint32(generatedRandomness % SPACE_LIMIT);\n    return Accessories(variety, rarity, space);\n  }\n\n  function generateNewAccessories(string _quiz) public returns (bool success) {\n    // Generate three new toris.\n    require (addrToAccCount[msg.sender] == 0);\n    Accessories memory newAcc = _generateRandomAccessories(_quiz, msg.sender);\n    // Push to the book keeping array.\n    uint256 id = accessories.push(newAcc) - 1;\n    accIndexToAddr[id] = msg.sender;\n    addrToAccCount[msg.sender] += 1;\n\n    emit NewAccessories(msg.sender, id);\n    return true;\n  }\n\n  function getAccessoriesIndexes(address _owner) public view returns (uint[]) {\n    uint size = addrToAccCount[_owner];\n    uint[] memory result = new uint[](size);\n\n    uint idx = 0;\n    for (uint i = 0; i < accessories.length; i++) {\n      if (accIndexToAddr[i] == _owner) {\n        result[idx] = i;\n        idx++;\n      }\n      if (idx >= size) {\n        break;\n      }\n    }\n    return result;\n  }\n\n  function getAccessoriesInfo(uint256 _accId) public view returns\n                    (uint256 accId, uint256 variety, uint256 rarity, uint32 space) {\n    Accessories memory acc = accessories[_accId];\n    return (_accId, acc.variety, acc.rarity, acc.space);\n  }\n\n  function getAccessoriesCount() public view returns (uint256 accCount) {\n    return addrToAccCount[msg.sender];\n  }\n\n  function getAllAccessoriesCount() public view returns (uint) {\n    return accessories.length;\n  }\n}\n",
  "sourcePath": "/Users/Cindy/Desktop/cs359b/cs359b-cribtori/contracts/ToriAccessories.sol",
  "compiler": {
    "name": "solc",
    "version": "0.4.21+commit.dfe3193c.Emscripten.clang"
  },
  "schemaVersion": "2.0.0",
  "updatedAt": "2018-04-29T21:13:29.413Z"
}