{
  "contractName": "ToriToken",
  "abi": [
    {
      "constant": true,
      "inputs": [
        {
          "name": "_tokenId",
          "type": "uint256"
        }
      ],
      "name": "getApproved",
      "outputs": [
        {
          "name": "",
          "type": "address"
        }
      ],
      "payable": false,
      "stateMutability": "view",
      "type": "function"
    },
    {
      "constant": false,
      "inputs": [
        {
          "name": "_to",
          "type": "address"
        },
        {
          "name": "_tokenId",
          "type": "uint256"
        }
      ],
      "name": "approve",
      "outputs": [],
      "payable": false,
      "stateMutability": "nonpayable",
      "type": "function"
    },
    {
      "constant": false,
      "inputs": [
        {
          "name": "_from",
          "type": "address"
        },
        {
          "name": "_to",
          "type": "address"
        },
        {
          "name": "_tokenId",
          "type": "uint256"
        }
      ],
      "name": "transferFrom",
      "outputs": [],
      "payable": false,
      "stateMutability": "nonpayable",
      "type": "function"
    },
    {
      "constant": false,
      "inputs": [
        {
          "name": "_from",
          "type": "address"
        },
        {
          "name": "_to",
          "type": "address"
        },
        {
          "name": "_tokenId",
          "type": "uint256"
        }
      ],
      "name": "safeTransferFrom",
      "outputs": [],
      "payable": false,
      "stateMutability": "nonpayable",
      "type": "function"
    },
    {
      "constant": true,
      "inputs": [
        {
          "name": "_tokenId",
          "type": "uint256"
        }
      ],
      "name": "exists",
      "outputs": [
        {
          "name": "",
          "type": "bool"
        }
      ],
      "payable": false,
      "stateMutability": "view",
      "type": "function"
    },
    {
      "constant": true,
      "inputs": [
        {
          "name": "_tokenId",
          "type": "uint256"
        }
      ],
      "name": "ownerOf",
      "outputs": [
        {
          "name": "",
          "type": "address"
        }
      ],
      "payable": false,
      "stateMutability": "view",
      "type": "function"
    },
    {
      "constant": true,
      "inputs": [
        {
          "name": "_owner",
          "type": "address"
        }
      ],
      "name": "balanceOf",
      "outputs": [
        {
          "name": "",
          "type": "uint256"
        }
      ],
      "payable": false,
      "stateMutability": "view",
      "type": "function"
    },
    {
      "constant": false,
      "inputs": [
        {
          "name": "_to",
          "type": "address"
        },
        {
          "name": "_approved",
          "type": "bool"
        }
      ],
      "name": "setApprovalForAll",
      "outputs": [],
      "payable": false,
      "stateMutability": "nonpayable",
      "type": "function"
    },
    {
      "constant": false,
      "inputs": [
        {
          "name": "_from",
          "type": "address"
        },
        {
          "name": "_to",
          "type": "address"
        },
        {
          "name": "_tokenId",
          "type": "uint256"
        },
        {
          "name": "_data",
          "type": "bytes"
        }
      ],
      "name": "safeTransferFrom",
      "outputs": [],
      "payable": false,
      "stateMutability": "nonpayable",
      "type": "function"
    },
    {
      "constant": true,
      "inputs": [
        {
          "name": "_owner",
          "type": "address"
        },
        {
          "name": "_operator",
          "type": "address"
        }
      ],
      "name": "isApprovedForAll",
      "outputs": [
        {
          "name": "",
          "type": "bool"
        }
      ],
      "payable": false,
      "stateMutability": "view",
      "type": "function"
    },
    {
      "inputs": [],
      "payable": false,
      "stateMutability": "nonpayable",
      "type": "constructor"
    },
    {
      "anonymous": false,
      "inputs": [
        {
          "indexed": true,
          "name": "_address",
          "type": "address"
        },
        {
          "indexed": false,
          "name": "toriIdx",
          "type": "uint256"
        }
      ],
      "name": "NewTori",
      "type": "event"
    },
    {
      "anonymous": false,
      "inputs": [
        {
          "indexed": true,
          "name": "_from",
          "type": "address"
        },
        {
          "indexed": true,
          "name": "_to",
          "type": "address"
        },
        {
          "indexed": false,
          "name": "_tokenId",
          "type": "uint256"
        }
      ],
      "name": "Transfer",
      "type": "event"
    },
    {
      "anonymous": false,
      "inputs": [
        {
          "indexed": true,
          "name": "_owner",
          "type": "address"
        },
        {
          "indexed": true,
          "name": "_approved",
          "type": "address"
        },
        {
          "indexed": false,
          "name": "_tokenId",
          "type": "uint256"
        }
      ],
      "name": "Approval",
      "type": "event"
    },
    {
      "anonymous": false,
      "inputs": [
        {
          "indexed": true,
          "name": "_owner",
          "type": "address"
        },
        {
          "indexed": true,
          "name": "_operator",
          "type": "address"
        },
        {
          "indexed": false,
          "name": "_approved",
          "type": "bool"
        }
      ],
      "name": "ApprovalForAll",
      "type": "event"
    },
    {
      "constant": false,
      "inputs": [
        {
          "name": "_quizzes",
          "type": "uint8[]"
        },
        {
          "name": "_name",
          "type": "string"
        }
      ],
      "name": "generateNewTori",
      "outputs": [
        {
          "name": "success",
          "type": "bool"
        }
      ],
      "payable": false,
      "stateMutability": "nonpayable",
      "type": "function"
    },
    {
      "constant": true,
      "inputs": [
        {
          "name": "_owner",
          "type": "address"
        }
      ],
      "name": "getTokenIndexes",
      "outputs": [
        {
          "name": "",
          "type": "uint256[]"
        }
      ],
      "payable": false,
      "stateMutability": "view",
      "type": "function"
    },
    {
      "constant": true,
      "inputs": [
        {
          "name": "_toriId",
          "type": "uint256"
        }
      ],
      "name": "getTokenInfo",
      "outputs": [
        {
          "name": "toriId",
          "type": "uint256"
        },
        {
          "name": "toriDna",
          "type": "uint256"
        },
        {
          "name": "name",
          "type": "string"
        },
        {
          "name": "proficiency",
          "type": "uint32"
        },
        {
          "name": "personality",
          "type": "uint32"
        },
        {
          "name": "readyTime",
          "type": "uint32"
        },
        {
          "name": "postingPrice",
          "type": "uint256"
        }
      ],
      "payable": false,
      "stateMutability": "view",
      "type": "function"
    },
    {
      "constant": true,
      "inputs": [],
      "name": "getTokenCount",
      "outputs": [
        {
          "name": "toriCount",
          "type": "uint256"
        }
      ],
      "payable": false,
      "stateMutability": "view",
      "type": "function"
    },
    {
      "constant": true,
      "inputs": [],
      "name": "getAllTokensCount",
      "outputs": [
        {
          "name": "",
          "type": "uint256"
        }
      ],
      "payable": false,
      "stateMutability": "view",
      "type": "function"
    },
    {
      "constant": false,
      "inputs": [
        {
          "name": "_tokenId",
          "type": "uint256"
        },
        {
          "name": "_salePrice",
          "type": "uint256"
        }
      ],
      "name": "approveForSale",
      "outputs": [],
      "payable": false,
      "stateMutability": "nonpayable",
      "type": "function"
    },
    {
      "constant": false,
      "inputs": [
        {
          "name": "_tokenId",
          "type": "uint256"
        }
      ],
      "name": "removeForSale",
      "outputs": [],
      "payable": false,
      "stateMutability": "nonpayable",
      "type": "function"
    },
    {
      "constant": false,
      "inputs": [
        {
          "name": "_tokenId",
          "type": "uint256"
        }
      ],
      "name": "buyForSale",
      "outputs": [],
      "payable": true,
      "stateMutability": "payable",
      "type": "function"
    },
    {
      "constant": true,
      "inputs": [],
      "name": "retrieveAllForSales",
      "outputs": [
        {
          "name": "",
          "type": "uint256[]"
        }
      ],
      "payable": false,
      "stateMutability": "view",
      "type": "function"
    }
  ],
  "bytecode": "0x6060604052601660005560036001556006600255600054600a0a600355600160025401600a0a600455600154600a0a60055560a060405190810160405280601961ffff168152602001606461ffff16815260200160af61ffff16815260200160c861ffff16815260200161012c61ffff1681525060069060056200008592919062000dad565b50600254600a0a600755608060405190810160405280609661ffff16815260200160c861ffff16815260200161012c61ffff16815260200161015e61ffff168152506008906004620000d992919062000e05565b503415620000e657600080fd5b620000f062000e5d565b620000fa62000e71565b600060046040518059106200010c5750595b9080825280602002602001820160405250925060008360008151811015156200013157fe5b9060200190602002019060ff16908160ff168152505060008360018151811015156200015957fe5b9060200190602002019060ff16908160ff168152505060008360028151811015156200018157fe5b9060200190602002019060ff16908160ff16815250506000836003815181101515620001a957fe5b9060200190602002019060ff16908160ff168152505062000215836040805190810160405280600481526020017f546f746f0000000000000000000000000000000000000000000000000000000081525033620008ee6401000000000262001eba176401000000009004565b91506001600d80548060010182816200022f919062000ebb565b916000526020600020906003020160008590919091506000820151816000015560208201518160010190805190602001906200026d92919062000ef0565b5060408201518160020160006101000a81548163ffffffff021916908363ffffffff16021790555060608201518160020160046101000a81548163ffffffff021916908363ffffffff16021790555060808201518160020160086101000a81548163ffffffff021916908363ffffffff1602179055505050039050336009600083815260200190815260200160002060006101000a81548173ffffffffffffffffffffffffffffffffffffffff021916908373ffffffffffffffffffffffffffffffffffffffff1602179055506200039d6001600b60003373ffffffffffffffffffffffffffffffffffffffff1673ffffffffffffffffffffffffffffffffffffffff16815260200190815260200160002054620009706401000000000262001835179091906401000000009004565b600b60003373ffffffffffffffffffffffffffffffffffffffff1673ffffffffffffffffffffffffffffffffffffffff168152602001908152602001600020819055506001836001815181101515620003f257fe5b9060200190602002019060ff16908160ff16815250506200045e836040805190810160405280600481526020017f526972690000000000000000000000000000000000000000000000000000000081525033620008ee6401000000000262001eba176401000000009004565b91506001600d805480600101828162000478919062000ebb565b91600052602060002090600302016000859091909150600082015181600001556020820151816001019080519060200190620004b692919062000ef0565b5060408201518160020160006101000a81548163ffffffff021916908363ffffffff16021790555060608201518160020160046101000a81548163ffffffff021916908363ffffffff16021790555060808201518160020160086101000a81548163ffffffff021916908363ffffffff1602179055505050039050336009600083815260200190815260200160002060006101000a81548173ffffffffffffffffffffffffffffffffffffffff021916908373ffffffffffffffffffffffffffffffffffffffff160217905550620005e66001600b60003373ffffffffffffffffffffffffffffffffffffffff1673ffffffffffffffffffffffffffffffffffffffff16815260200190815260200160002054620009706401000000000262001835179091906401000000009004565b600b60003373ffffffffffffffffffffffffffffffffffffffff1673ffffffffffffffffffffffffffffffffffffffff1681526020019081526020016000208190555060018360008151811015156200063b57fe5b9060200190602002019060ff16908160ff168152505060018360038151811015156200066357fe5b9060200190602002019060ff16908160ff1681525050620006cf836040805190810160405280600481526020017f5269746f0000000000000000000000000000000000000000000000000000000081525033620008ee6401000000000262001eba176401000000009004565b91506001600d8054806001018281620006e9919062000ebb565b916000526020600020906003020160008590919091506000820151816000015560208201518160010190805190602001906200072792919062000ef0565b5060408201518160020160006101000a81548163ffffffff021916908363ffffffff16021790555060608201518160020160046101000a81548163ffffffff021916908363ffffffff16021790555060808201518160020160086101000a81548163ffffffff021916908363ffffffff1602179055505050039050336009600083815260200190815260200160002060006101000a81548173ffffffffffffffffffffffffffffffffffffffff021916908373ffffffffffffffffffffffffffffffffffffffff160217905550620008576001600b60003373ffffffffffffffffffffffffffffffffffffffff1673ffffffffffffffffffffffffffffffffffffffff16815260200190815260200160002054620009706401000000000262001835179091906401000000009004565b600b60003373ffffffffffffffffffffffffffffffffffffffff1673ffffffffffffffffffffffffffffffffffffffff1681526020019081526020016000208190555066038d7ea4c68000600e600080815260200190815260200160002081905550620008df6001600f54620009706401000000000262001835179091906401000000009004565b600f8190555050505062001094565b620008f862000e71565b60008060006200091e8787876200098d6401000000000262001f37176401000000009004565b80935081945082955050505060a0604051908101604052808481526020018781526020018363ffffffff1681526020018263ffffffff1681526020014263ffffffff1681525093505050509392505050565b600081830190508281101515156200098457fe5b80905092915050565b600080600080600080428789604051808481526020018373ffffffffffffffffffffffffffffffffffffffff1673ffffffffffffffffffffffffffffffffffffffff166c0100000000000000000000000002815260140182805190602001908083835b60208310151562000a175780518252602082019150602081019050602083039250620009f0565b6001836020036101000a038019825116818451168082178552505050505050905001935050505060405180910390206001900492504287604051808381526020018273ffffffffffffffffffffffffffffffffffffffff1673ffffffffffffffffffffffffffffffffffffffff166c010000000000000000000000000281526014019250505060405180910390206001900491508282604051808381526020018281526020019250505060405180910390206001900490506003548181151562000add57fe5b0695506005548681151562000aee57fe5b06945060055460075481151562000b0157fe5b046007548781151562000b1057fe5b0681151562000b1b57fe5b04935062000b9085600680548060200260200160405190810160405280929190818152602001828054801562000b7157602002820191906000526020600020905b81548152602001906001019080831162000b5c575b505050505062000bd16401000000000262002145176401000000009004565b945062000bb2898562000c4364010000000002620021b2176401000000009004565b93506004548681151562000bc257fe5b04955050505093509350939050565b60008060008060009250600091505b845182101562000c3257848281518110151562000bf957fe5b9060200190602002015190508083018663ffffffff16101562000c1f5781935062000c3a565b8083019250818060010192505062000be0565b600185510393505b50505092915050565b600062000c4f62000f77565b600080600080600880548060200260200160405190810160405280929190818152602001828054801562000ca357602002820191906000526020600020905b81548152602001906001019080831162000c8e575b5050505050945060009350600092505b875183101562000ceb57878381518110151562000ccc57fe5b9060200190602002015160ff1684019350828060010193505062000cb3565b6001885103600a02915060008411801562000d065750875184105b1562000d8057600092505b875183101562000d7f57878381518110151562000d2a57fe5b9060200190602002015160ff1688510290508381039050808281151562000d4d57fe5b04858481518110151562000d5d57fe5b9060200190602002018181510191508181525050828060010193505062000d11565b5b62000da0878662000bd16401000000000262002145176401000000009004565b9550505050505092915050565b82805482825590600052602060002090810192821562000df2579160200282015b8281111562000df1578251829061ffff1690559160200191906001019062000dce565b5b50905062000e01919062000f8b565b5090565b82805482825590600052602060002090810192821562000e4a579160200282015b8281111562000e49578251829061ffff1690559160200191906001019062000e26565b5b50905062000e59919062000f8b565b5090565b602060405190810160405280600081525090565b60a0604051908101604052806000815260200162000e8e62000fb3565b8152602001600063ffffffff168152602001600063ffffffff168152602001600063ffffffff1681525090565b81548183558181151162000eeb5760030281600302836000526020600020918201910162000eea919062000fc7565b5b505050565b828054600181600116156101000203166002900490600052602060002090601f016020900481019282601f1062000f3357805160ff191683800117855562000f64565b8280016001018555821562000f64579182015b8281111562000f6357825182559160200191906001019062000f46565b5b50905062000f73919062000f8b565b5090565b602060405190810160405280600081525090565b62000fb091905b8082111562000fac57600081600090555060010162000f92565b5090565b90565b602060405190810160405280600081525090565b6200104591905b80821115620010415760008082016000905560018201600062000ff2919062001048565b6002820160006101000a81549063ffffffff02191690556002820160046101000a81549063ffffffff02191690556002820160086101000a81549063ffffffff02191690555060030162000fce565b5090565b90565b50805460018160011615610100020316600290046000825580601f1062001070575062001091565b601f01602090049060005260206000209081019062001090919062000f8b565b5b50565b61254380620010a46000396000f300606060405260043610610107576000357c0100000000000000000000000000000000000000000000000000000000900463ffffffff168063081812fc1461010c578063095ea7b31461016f578063120e22e4146101b157806323b872dd146101dd57806342842e0e1461023e5780634f558e791461029f5780636352211e146102da5780636b8667f51461033d57806370a082311461036057806378a89567146103ad57806380507b57146103d65780638c7a63ae14610464578063933b54541461054e578063a22cb46514610577578063b438314f146105bb578063b88d4fde146105d3578063be928c9214610677578063e985e9c5146106e1578063f542926514610751575b600080fd5b341561011757600080fd5b61012d6004808035906020019091905050610806565b604051808273ffffffffffffffffffffffffffffffffffffffff1673ffffffffffffffffffffffffffffffffffffffff16815260200191505060405180910390f35b341561017a57600080fd5b6101af600480803573ffffffffffffffffffffffffffffffffffffffff16906020019091908035906020019091905050610843565b005b34156101bc57600080fd5b6101db6004808035906020019091908035906020019091905050610a09565b005b34156101e857600080fd5b61023c600480803573ffffffffffffffffffffffffffffffffffffffff1690602001909190803573ffffffffffffffffffffffffffffffffffffffff16906020019091908035906020019091905050610abd565b005b341561024957600080fd5b61029d600480803573ffffffffffffffffffffffffffffffffffffffff1690602001909190803573ffffffffffffffffffffffffffffffffffffffff16906020019091908035906020019091905050610bd4565b005b34156102aa57600080fd5b6102c06004808035906020019091905050610c0c565b604051808215151515815260200191505060405180910390f35b34156102e557600080fd5b6102fb6004808035906020019091905050610c7e565b604051808273ffffffffffffffffffffffffffffffffffffffff1673ffffffffffffffffffffffffffffffffffffffff16815260200191505060405180910390f35b341561034857600080fd5b61035e6004808035906020019091905050610cfc565b005b341561036b57600080fd5b610397600480803573ffffffffffffffffffffffffffffffffffffffff16906020019091905050610da2565b6040518082815260200191505060405180910390f35b34156103b857600080fd5b6103c0610e26565b6040518082815260200191505060405180910390f35b34156103e157600080fd5b61040d600480803573ffffffffffffffffffffffffffffffffffffffff16906020019091905050610e6d565b6040518080602001828103825283818151815260200191508051906020019060200280838360005b83811015610450578082015181840152602081019050610435565b505050509050019250505060405180910390f35b341561046f57600080fd5b6104856004808035906020019091905050610faf565b60405180888152602001878152602001806020018663ffffffff1663ffffffff1681526020018563ffffffff1663ffffffff1681526020018463ffffffff1663ffffffff168152602001838152602001828103825287818151815260200191508051906020019080838360005b8381101561050d5780820151818401526020810190506104f2565b50505050905090810190601f16801561053a5780820380516001836020036101000a031916815260200191505b509850505050505050505060405180910390f35b341561055957600080fd5b610561611159565b6040518082815260200191505060405180910390f35b341561058257600080fd5b6105b9600480803573ffffffffffffffffffffffffffffffffffffffff169060200190919080351515906020019091905050611166565b005b6105d160048080359060200190919050506112a2565b005b34156105de57600080fd5b610675600480803573ffffffffffffffffffffffffffffffffffffffff1690602001909190803573ffffffffffffffffffffffffffffffffffffffff1690602001909190803590602001909190803590602001908201803590602001908080601f0160208091040260200160405190810160405280939291908181526020018383808284378201915050505050509190505061144b565b005b341561068257600080fd5b61068a61148a565b6040518080602001828103825283818151815260200191508051906020019060200280838360005b838110156106cd5780820151818401526020810190506106b2565b505050509050019250505060405180910390f35b34156106ec57600080fd5b610737600480803573ffffffffffffffffffffffffffffffffffffffff1690602001909190803573ffffffffffffffffffffffffffffffffffffffff1690602001909190505061152c565b604051808215151515815260200191505060405180910390f35b341561075c57600080fd5b6107ec60048080359060200190820180359060200190808060200260200160405190810160405280939291908181526020018383602002808284378201915050505050509190803590602001908201803590602001908080601f016020809104026020016040519081016040528093929190818152602001838380828437820191505050505050919050506115c0565b604051808215151515815260200191505060405180910390f35b6000600a600083815260200190815260200160002060009054906101000a900473ffffffffffffffffffffffffffffffffffffffff169050919050565b600061084e82610c7e565b90508073ffffffffffffffffffffffffffffffffffffffff168373ffffffffffffffffffffffffffffffffffffffff161415151561088b57600080fd5b8073ffffffffffffffffffffffffffffffffffffffff163373ffffffffffffffffffffffffffffffffffffffff1614806108cb57506108ca813361152c565b5b15156108d657600080fd5b600073ffffffffffffffffffffffffffffffffffffffff166108f783610806565b73ffffffffffffffffffffffffffffffffffffffff161415806109475750600073ffffffffffffffffffffffffffffffffffffffff168373ffffffffffffffffffffffffffffffffffffffff1614155b15610a045782600a600084815260200190815260200160002060006101000a81548173ffffffffffffffffffffffffffffffffffffffff021916908373ffffffffffffffffffffffffffffffffffffffff1602179055508273ffffffffffffffffffffffffffffffffffffffff168173ffffffffffffffffffffffffffffffffffffffff167f8c5be1e5ebec7d5bd14f71427d1e84f3dd0314c0f7b2291e5b200ac8c7c3b925846040518082815260200191505060405180910390a35b505050565b813373ffffffffffffffffffffffffffffffffffffffff16610a2a82610c7e565b73ffffffffffffffffffffffffffffffffffffffff16141515610a4c57600080fd5b6000600e600085815260200190815260200160002054148015610a6f5750600082115b1515610a7a57600080fd5b81600e600085815260200190815260200160002081905550610aa86001600f5461183590919063ffffffff16565b600f81905550610ab83084610843565b505050565b80610ac83382611851565b1515610ad357600080fd5b600073ffffffffffffffffffffffffffffffffffffffff168473ffffffffffffffffffffffffffffffffffffffff1614151515610b0f57600080fd5b600073ffffffffffffffffffffffffffffffffffffffff168373ffffffffffffffffffffffffffffffffffffffff1614151515610b4b57600080fd5b610b5584836118e6565b610b5f8483611a4f565b610b698383611b7e565b8273ffffffffffffffffffffffffffffffffffffffff168473ffffffffffffffffffffffffffffffffffffffff167fddf252ad1be2c89b69c2b068fc378daa952ba7f163c4a11628f55a4df523b3ef846040518082815260200191505060405180910390a350505050565b80610bdf3382611851565b1515610bea57600080fd5b610c06848484602060405190810160405280600081525061144b565b50505050565b6000806009600084815260200190815260200160002060009054906101000a900473ffffffffffffffffffffffffffffffffffffffff169050600073ffffffffffffffffffffffffffffffffffffffff168173ffffffffffffffffffffffffffffffffffffffff161415915050919050565b6000806009600084815260200190815260200160002060009054906101000a900473ffffffffffffffffffffffffffffffffffffffff169050600073ffffffffffffffffffffffffffffffffffffffff168173ffffffffffffffffffffffffffffffffffffffff1614151515610cf357600080fd5b80915050919050565b803373ffffffffffffffffffffffffffffffffffffffff16610d1d82610c7e565b73ffffffffffffffffffffffffffffffffffffffff16141515610d3f57600080fd5b6000600e600084815260200190815260200160002054111515610d6157600080fd5b600e600083815260200190815260200160002060009055610d8e6001600f54611cd890919063ffffffff16565b600f81905550610d9e33836118e6565b5050565b60008073ffffffffffffffffffffffffffffffffffffffff168273ffffffffffffffffffffffffffffffffffffffff1614151515610ddf57600080fd5b600b60008373ffffffffffffffffffffffffffffffffffffffff1673ffffffffffffffffffffffffffffffffffffffff168152602001908152602001600020549050919050565b6000600b60003373ffffffffffffffffffffffffffffffffffffffff1673ffffffffffffffffffffffffffffffffffffffff16815260200190815260200160002054905090565b610e756122f8565b6000610e7f6122f8565b600080600b60008773ffffffffffffffffffffffffffffffffffffffff1673ffffffffffffffffffffffffffffffffffffffff16815260200190815260200160002054935083604051805910610ed25750595b9080825280602002602001820160405250925060009150600090505b600d80549050811015610fa3578573ffffffffffffffffffffffffffffffffffffffff166009600083815260200190815260200160002060009054906101000a900473ffffffffffffffffffffffffffffffffffffffff1673ffffffffffffffffffffffffffffffffffffffff161415610f8857808383815181101515610f7157fe5b906020019060200201818152505081806001019250505b8382101515610f9657610fa3565b8080600101915050610eee565b82945050505050919050565b600080610fba61230c565b600080600080610fc8612320565b600d89815481101515610fd757fe5b906000526020600020906003020160a0604051908101604052908160008201548152602001600182018054600181600116156101000203166002900480601f0160208091040260200160405190810160405280929190818152602001828054600181600116156101000203166002900480156110945780601f1061106957610100808354040283529160200191611094565b820191906000526020600020905b81548152906001019060200180831161107757829003601f168201915b505050505081526020016002820160009054906101000a900463ffffffff1663ffffffff1663ffffffff1681526020016002820160049054906101000a900463ffffffff1663ffffffff1663ffffffff1681526020016002820160089054906101000a900463ffffffff1663ffffffff1663ffffffff168152505090508897508060000151965080602001519550806040015194508060600151935080608001519250600e60008a815260200190815260200160002054915050919395979092949650565b6000600d80549050905090565b3373ffffffffffffffffffffffffffffffffffffffff168273ffffffffffffffffffffffffffffffffffffffff16141515156111a157600080fd5b80600c60003373ffffffffffffffffffffffffffffffffffffffff1673ffffffffffffffffffffffffffffffffffffffff16815260200190815260200160002060008473ffffffffffffffffffffffffffffffffffffffff1673ffffffffffffffffffffffffffffffffffffffff16815260200190815260200160002060006101000a81548160ff0219169083151502179055508173ffffffffffffffffffffffffffffffffffffffff163373ffffffffffffffffffffffffffffffffffffffff167f17307eab39ab6107e8899845ad3d59bd9653f200f220920489ca2b5937696c3183604051808215151515815260200191505060405180910390a35050565b600080600e6000848152602001908152602001600020541180156112d85750600e60008381526020019081526020016000205434145b15156112e357600080fd5b6112ec82610c7e565b90508073ffffffffffffffffffffffffffffffffffffffff166108fc349081150290604051600060405180830381858888f19350505050151561132e57600080fd5b3073ffffffffffffffffffffffffffffffffffffffff166342842e0e8233856040518463ffffffff167c0100000000000000000000000000000000000000000000000000000000028152600401808473ffffffffffffffffffffffffffffffffffffffff1673ffffffffffffffffffffffffffffffffffffffff1681526020018373ffffffffffffffffffffffffffffffffffffffff1673ffffffffffffffffffffffffffffffffffffffff1681526020018281526020019350505050600060405180830381600087803b151561140457600080fd5b5af1151561141157600080fd5b505050600e6000838152602001908152602001600020600090556114416001600f54611cd890919063ffffffff16565b600f819055505050565b816114563382611851565b151561146157600080fd5b61146c858585610abd565b61147885858585611cf1565b151561148357600080fd5b5050505050565b6114926122f8565b61149a6122f8565b600080600f546040518059106114ad5750595b9080825280602002602001820160405250925060009150600090505b600d80549050811015611523576000600e60008381526020019081526020016000205411156115165780838381518110151561150157fe5b90602001906020020181815250506001820191505b80806001019150506114c9565b82935050505090565b6000600c60008473ffffffffffffffffffffffffffffffffffffffff1673ffffffffffffffffffffffffffffffffffffffff16815260200190815260200160002060008373ffffffffffffffffffffffffffffffffffffffff1673ffffffffffffffffffffffffffffffffffffffff16815260200190815260200160002060009054906101000a900460ff16905092915050565b60006115ca612320565b600080600b60003373ffffffffffffffffffffffffffffffffffffffff1673ffffffffffffffffffffffffffffffffffffffff1681526020019081526020016000205414151561161957600080fd5b611624858533611eba565b91506001600d805480600101828161163c9190612368565b9160005260206000209060030201600085909190915060008201518160000155602082015181600101908051906020019061167892919061239a565b5060408201518160020160006101000a81548163ffffffff021916908363ffffffff16021790555060608201518160020160046101000a81548163ffffffff021916908363ffffffff16021790555060808201518160020160086101000a81548163ffffffff021916908363ffffffff1602179055505050039050336009600083815260200190815260200160002060006101000a81548173ffffffffffffffffffffffffffffffffffffffff021916908373ffffffffffffffffffffffffffffffffffffffff1602179055506117986001600b60003373ffffffffffffffffffffffffffffffffffffffff1673ffffffffffffffffffffffffffffffffffffffff1681526020019081526020016000205461183590919063ffffffff16565b600b60003373ffffffffffffffffffffffffffffffffffffffff1673ffffffffffffffffffffffffffffffffffffffff168152602001908152602001600020819055503373ffffffffffffffffffffffffffffffffffffffff167f163090350da897fd03497e870bbe993a1948b39328cd37a8fe6b9179e120dd27826040518082815260200191505060405180910390a260019250505092915050565b6000818301905082811015151561184857fe5b80905092915050565b60008061185d83610c7e565b90508073ffffffffffffffffffffffffffffffffffffffff168473ffffffffffffffffffffffffffffffffffffffff1614806118cc57508373ffffffffffffffffffffffffffffffffffffffff166118b484610806565b73ffffffffffffffffffffffffffffffffffffffff16145b806118dd57506118dc818561152c565b5b91505092915050565b8173ffffffffffffffffffffffffffffffffffffffff1661190682610c7e565b73ffffffffffffffffffffffffffffffffffffffff1614151561192857600080fd5b600073ffffffffffffffffffffffffffffffffffffffff16600a600083815260200190815260200160002060009054906101000a900473ffffffffffffffffffffffffffffffffffffffff1673ffffffffffffffffffffffffffffffffffffffff16141515611a4b576000600a600083815260200190815260200160002060006101000a81548173ffffffffffffffffffffffffffffffffffffffff021916908373ffffffffffffffffffffffffffffffffffffffff160217905550600073ffffffffffffffffffffffffffffffffffffffff168273ffffffffffffffffffffffffffffffffffffffff167f8c5be1e5ebec7d5bd14f71427d1e84f3dd0314c0f7b2291e5b200ac8c7c3b925836040518082815260200191505060405180910390a35b5050565b8173ffffffffffffffffffffffffffffffffffffffff16611a6f82610c7e565b73ffffffffffffffffffffffffffffffffffffffff16141515611a9157600080fd5b611ae46001600b60008573ffffffffffffffffffffffffffffffffffffffff1673ffffffffffffffffffffffffffffffffffffffff16815260200190815260200160002054611cd890919063ffffffff16565b600b60008473ffffffffffffffffffffffffffffffffffffffff1673ffffffffffffffffffffffffffffffffffffffff1681526020019081526020016000208190555060006009600083815260200190815260200160002060006101000a81548173ffffffffffffffffffffffffffffffffffffffff021916908373ffffffffffffffffffffffffffffffffffffffff1602179055505050565b600073ffffffffffffffffffffffffffffffffffffffff166009600083815260200190815260200160002060009054906101000a900473ffffffffffffffffffffffffffffffffffffffff1673ffffffffffffffffffffffffffffffffffffffff16141515611bec57600080fd5b816009600083815260200190815260200160002060006101000a81548173ffffffffffffffffffffffffffffffffffffffff021916908373ffffffffffffffffffffffffffffffffffffffff160217905550611c916001600b60008573ffffffffffffffffffffffffffffffffffffffff1673ffffffffffffffffffffffffffffffffffffffff1681526020019081526020016000205461183590919063ffffffff16565b600b60008473ffffffffffffffffffffffffffffffffffffffff1673ffffffffffffffffffffffffffffffffffffffff168152602001908152602001600020819055505050565b6000828211151515611ce657fe5b818303905092915050565b600080611d138573ffffffffffffffffffffffffffffffffffffffff16611f24565b1515611d225760019150611eb1565b8473ffffffffffffffffffffffffffffffffffffffff1663f0b9e5ba8786866040518463ffffffff167c0100000000000000000000000000000000000000000000000000000000028152600401808473ffffffffffffffffffffffffffffffffffffffff1673ffffffffffffffffffffffffffffffffffffffff16815260200183815260200180602001828103825283818151815260200191508051906020019080838360005b83811015611de4578082015181840152602081019050611dc9565b50505050905090810190601f168015611e115780820380516001836020036101000a031916815260200191505b50945050505050602060405180830381600087803b1515611e3157600080fd5b5af11515611e3e57600080fd5b50505060405180519050905063f0b9e5ba7c0100000000000000000000000000000000000000000000000000000000027bffffffffffffffffffffffffffffffffffffffffffffffffffffffff1916817bffffffffffffffffffffffffffffffffffffffffffffffffffffffff19161491505b50949350505050565b611ec2612320565b6000806000611ed2878787611f37565b80935081945082955050505060a0604051908101604052808481526020018781526020018363ffffffff1681526020018263ffffffff1681526020014263ffffffff1681525093505050509392505050565b600080823b905060008111915050919050565b600080600080600080428789604051808481526020018373ffffffffffffffffffffffffffffffffffffffff1673ffffffffffffffffffffffffffffffffffffffff166c0100000000000000000000000002815260140182805190602001908083835b602083101515611fbf5780518252602082019150602081019050602083039250611f9a565b6001836020036101000a038019825116818451168082178552505050505050905001935050505060405180910390206001900492504287604051808381526020018273ffffffffffffffffffffffffffffffffffffffff1673ffffffffffffffffffffffffffffffffffffffff166c010000000000000000000000000281526014019250505060405180910390206001900491508282604051808381526020018281526020019250505060405180910390206001900490506003548181151561208457fe5b0695506005548681151561209457fe5b0694506005546007548115156120a657fe5b04600754878115156120b457fe5b068115156120be57fe5b04935061211b85600680548060200260200160405190810160405280929190818152602001828054801561211157602002820191906000526020600020905b8154815260200190600101908083116120fd575b5050505050612145565b945061212789856121b2565b93506004548681151561213657fe5b04955050505093509350939050565b60008060008060009250600091505b84518210156121a157848281518110151561216b57fe5b9060200190602002015190508083018663ffffffff16101561218f578193506121a9565b80830192508180600101925050612154565b600185510393505b50505092915050565b60006121bc6122f8565b600080600080600880548060200260200160405190810160405280929190818152602001828054801561220e57602002820191906000526020600020905b8154815260200190600101908083116121fa575b5050505050945060009350600092505b875183101561225357878381518110151561223557fe5b9060200190602002015160ff1684019350828060010193505061221e565b6001885103600a02915060008411801561226d5750875184105b156122e157600092505b87518310156122e057878381518110151561228e57fe5b9060200190602002015160ff168851029050838103905080828115156122b057fe5b0485848151811015156122bf57fe5b90602001906020020181815101915081815250508280600101935050612277565b5b6122eb8786612145565b9550505050505092915050565b602060405190810160405280600081525090565b602060405190810160405280600081525090565b60a0604051908101604052806000815260200161233b61241a565b8152602001600063ffffffff168152602001600063ffffffff168152602001600063ffffffff1681525090565b81548183558181151161239557600302816003028360005260206000209182019101612394919061242e565b5b505050565b828054600181600116156101000203166002900490600052602060002090601f016020900481019282601f106123db57805160ff1916838001178555612409565b82800160010185558215612409579182015b828111156124085782518255916020019190600101906123ed565b5b50905061241691906124aa565b5090565b602060405190810160405280600081525090565b6124a791905b808211156124a35760008082016000905560018201600061245591906124cf565b6002820160006101000a81549063ffffffff02191690556002820160046101000a81549063ffffffff02191690556002820160086101000a81549063ffffffff021916905550600301612434565b5090565b90565b6124cc91905b808211156124c85760008160009055506001016124b0565b5090565b90565b50805460018160011615610100020316600290046000825580601f106124f55750612514565b601f01602090049060005260206000209081019061251391906124aa565b5b505600a165627a7a723058201c9718e49790f6eb9a972558af27a242ffa8806992fc28a85943324c37d3d72c0029",
  "source": "pragma solidity ^0.4.21;\n\nimport './DnaCore.sol';\nimport 'openzeppelin-solidity/contracts/token/ERC721/ERC721BasicToken.sol';\n\n\ncontract ToriToken is DnaCore, ERC721BasicToken {\n\n  struct Tori {\n    uint256 dna;\n    string name;\n    uint32 proficiency;\n    uint32 personality;\n    uint32 readyTime;\n  }\n\n  Tori[] toris;\n\n  // toriId to price (in wei)\n  mapping (uint => uint256) toriSale;\n  uint256 toriSaleCount;\n\n  event NewTori(address indexed _address, uint256 toriIdx);\n\n\n  /* DEV USE */\n  function ToriToken() {\n    // Generate some Toris for the owner.\n\n    // 1.\n    uint8[] memory testQuiz = new uint8[](4);\n    testQuiz[0] = 0;\n    testQuiz[1] = 0;\n    testQuiz[2] = 0;\n    testQuiz[3] = 0;\n    Tori memory newTori = _generateRandomTori(testQuiz, \"Toto\", msg.sender);\n    uint256 id = toris.push(newTori) - 1;\n    tokenOwner[id] = msg.sender;\n    ownedTokensCount[msg.sender] = ownedTokensCount[msg.sender].add(1);\n    // 2.\n    testQuiz[1] = 1;\n    newTori = _generateRandomTori(testQuiz, \"Riri\", msg.sender);\n    id = toris.push(newTori) - 1;\n    tokenOwner[id] = msg.sender;\n    ownedTokensCount[msg.sender] = ownedTokensCount[msg.sender].add(1);\n\n    // 3.\n    testQuiz[0] = 1;\n    testQuiz[3] = 1;\n    newTori = _generateRandomTori(testQuiz, \"Rito\", msg.sender);\n    id = toris.push(newTori) - 1;\n    tokenOwner[id] = msg.sender;\n    ownedTokensCount[msg.sender] = ownedTokensCount[msg.sender].add(1);\n\n    toriSale[0] = 1000000000000000;\n    toriSaleCount = toriSaleCount.add(1);\n  }\n\n\n\n  /*\n  *   Generate random dna, personality, and proficiency level from\n  *   the given quiz & sender address.\n  */\n  function _generateRandomTori(uint8[] _quizzes, string _name, address _owner) private view returns (Tori) {\n    uint256 dna;\n    uint32 proficiency;\n    uint32 personality;\n    (dna, proficiency, personality) = _generateRandomTraits(_quizzes, _name, _owner);\n    return Tori(dna, _name, proficiency, personality, uint32(now));\n  }\n\n  function generateNewTori(uint8[] _quizzes, string _name) public returns (bool success) {\n    // Generate three new toris.\n    require (ownedTokensCount[msg.sender] == 0);\n    Tori memory newTori = _generateRandomTori(_quizzes, _name, msg.sender);\n    // Push to the book keeping array.\n    uint256 id = toris.push(newTori) - 1;\n    tokenOwner[id] = msg.sender;\n    ownedTokensCount[msg.sender] = ownedTokensCount[msg.sender].add(1);\n\n    emit NewTori(msg.sender, id);\n    return true;\n  }\n\n  function getTokenIndexes(address _owner) public view returns (uint[]) {\n    uint size = ownedTokensCount[_owner];\n    uint[] memory result = new uint[](size);\n\n    uint idx = 0;\n    for (uint i = 0; i < toris.length; i++) {\n      if (tokenOwner[i] == _owner) {\n        result[idx] = i;\n        idx++;\n      }\n      if (idx >= size) {\n        break;\n      }\n    }\n    return result;\n  }\n\n  function getTokenInfo(uint256 _toriId) public view returns\n                    (uint256 toriId, uint256 toriDna, string name, uint32 proficiency,\n                      uint32 personality, uint32 readyTime, uint postingPrice) {\n    Tori memory tori = toris[_toriId];\n    toriId = _toriId;\n    toriDna = tori.dna;\n    name = tori.name;\n    proficiency = tori.proficiency;\n    personality = tori.personality;\n    readyTime = tori.readyTime;\n    postingPrice = toriSale[_toriId];\n  }\n\n  function getTokenCount() public view returns (uint256 toriCount) {\n    return ownedTokensCount[msg.sender];\n  }\n\n  function getAllTokensCount() public view returns (uint) {\n    return toris.length;\n  }\n\n\n  // TODO: add functionality for users to change the sale price.\n  function approveForSale(uint256 _tokenId, uint256 _salePrice) public onlyOwnerOf(_tokenId) {\n    require((toriSale[_tokenId] == 0) && (_salePrice > 0));\n    toriSale[_tokenId] = _salePrice;\n    toriSaleCount = toriSaleCount.add(1);\n\n    approve(this, _tokenId);\n  }\n\n  function removeForSale(uint256 _tokenId) public onlyOwnerOf(_tokenId) {\n    require(toriSale[_tokenId] > 0);\n    delete toriSale[_tokenId];\n    toriSaleCount = toriSaleCount.sub(1);\n\n    clearApproval(msg.sender, _tokenId);\n  }\n\n  function buyForSale(uint256 _tokenId) public payable {\n    // TODO: does msg.value needs to be exactly equal?\n    require((toriSale[_tokenId] > 0) && (msg.value == toriSale[_tokenId]));\n    address _from = ownerOf(_tokenId);\n    // Send the ether.\n    _from.transfer(msg.value);\n    // We want to call this from this contract.\n    this.safeTransferFrom(_from, msg.sender, _tokenId);\n    // Delete sale entry.\n    delete toriSale[_tokenId];\n    toriSaleCount = toriSaleCount.sub(1);\n  }\n\n  function retrieveAllForSales() public view returns (uint[]) {\n    uint[] memory result = new uint[](toriSaleCount);\n    uint idx = 0;\n    for (uint i = 0; i < toris.length; i++) {\n      if (toriSale[i] > 0) {\n        result[idx] = i;\n        idx += 1;\n      }\n    }\n    return result;\n  }\n}\n",
  "sourcePath": "/Users/Cindy/Desktop/cs359b/cs359b-cribtori/contracts/ToriToken.sol",
  "compiler": {
    "name": "solc",
    "version": "0.4.21+commit.dfe3193c.Emscripten.clang"
  },
  "schemaVersion": "2.0.0",
  "updatedAt": "2018-05-05T01:18:25.249Z"
}