{
  "contractName": "ToriToken",
  "abi": [
    {
      "inputs": [],
      "payable": false,
      "stateMutability": "nonpayable",
      "type": "constructor"
    },
    {
      "anonymous": false,
      "inputs": [
        {
          "indexed": true,
          "name": "_address",
          "type": "address"
        },
        {
          "indexed": false,
          "name": "toriIdx",
          "type": "uint256"
        }
      ],
      "name": "NewTori",
      "type": "event"
    },
    {
      "constant": false,
      "inputs": [
        {
          "name": "_quiz",
          "type": "string"
        },
        {
          "name": "_name",
          "type": "string"
        }
      ],
      "name": "generateNewTori",
      "outputs": [
        {
          "name": "success",
          "type": "bool"
        }
      ],
      "payable": false,
      "stateMutability": "nonpayable",
      "type": "function"
    },
    {
      "constant": true,
      "inputs": [
        {
          "name": "_owner",
          "type": "address"
        }
      ],
      "name": "getToriIndexes",
      "outputs": [
        {
          "name": "",
          "type": "uint256[]"
        }
      ],
      "payable": false,
      "stateMutability": "view",
      "type": "function"
    },
    {
      "constant": true,
      "inputs": [
        {
          "name": "_toriId",
          "type": "uint256"
        }
      ],
      "name": "getToriInfo",
      "outputs": [
        {
          "name": "toriId",
          "type": "uint256"
        },
        {
          "name": "toriDna",
          "type": "uint256"
        },
        {
          "name": "proficiency",
          "type": "uint32"
        },
        {
          "name": "personality",
          "type": "uint32"
        },
        {
          "name": "readyTime",
          "type": "uint32"
        },
        {
          "name": "postingPrice",
          "type": "uint256"
        }
      ],
      "payable": false,
      "stateMutability": "view",
      "type": "function"
    },
    {
      "constant": true,
      "inputs": [],
      "name": "getToriCount",
      "outputs": [
        {
          "name": "toriCount",
          "type": "uint256"
        }
      ],
      "payable": false,
      "stateMutability": "view",
      "type": "function"
    },
    {
      "constant": true,
      "inputs": [],
      "name": "getAllToriCount",
      "outputs": [
        {
          "name": "",
          "type": "uint256"
        }
      ],
      "payable": false,
      "stateMutability": "view",
      "type": "function"
    }
  ],
  "bytecode": "0x6060604052600a600055600260015560028055600054600a0a600355600154600a0a600455600254600a0a60055534156200003957600080fd5b600080620000466200040d565b600060039350600092505b838310156200024757620000e56040805190810160405280600681526020017f73616d706c6500000000000000000000000000000000000000000000000000008152506040805190810160405280600681526020017f73616d706c650000000000000000000000000000000000000000000000000000815250336200027c6401000000000262000725176401000000009004565b9150600160068054806001018281620000ff919062000448565b916000526020600020906002020160008590919091506000820151816000015560208201518160010160006101000a81548163ffffffff021916908363ffffffff16021790555060408201518160010160046101000a81548163ffffffff021916908363ffffffff16021790555060608201518160010160086101000a81548163ffffffff021916908363ffffffff1602179055505050039050336007600083815260200190815260200160002060006101000a81548173ffffffffffffffffffffffffffffffffffffffff021916908373ffffffffffffffffffffffffffffffffffffffff1602179055506001600860003373ffffffffffffffffffffffffffffffffffffffff1673ffffffffffffffffffffffffffffffffffffffff16815260200190815260200160002060008282540192505081905550828060010193505062000051565b61271060096000808152602001908152602001600020819055506001600a6000828254019250508190555050505050620004ec565b620002866200040d565b60008060008042868989604051808581526020018473ffffffffffffffffffffffffffffffffffffffff1673ffffffffffffffffffffffffffffffffffffffff166c0100000000000000000000000002815260140183805190602001908083835b6020831015156200030e5780518252602082019150602081019050602083039250620002e7565b6001836020036101000a03801982511681845116808217855250505050505090500182805190602001908083835b6020831015156200036357805182526020820191506020810190506020830392506200033c565b6001836020036101000a038019825116818451168082178552505050505050905001945050505050604051809103902060019004935060035484811515620003a757fe5b06925060045484811515620003b857fe5b06915060055484811515620003c957fe5b0690506080604051908101604052808481526020018363ffffffff1681526020018263ffffffff1681526020014263ffffffff168152509450505050509392505050565b60806040519081016040528060008152602001600063ffffffff168152602001600063ffffffff168152602001600063ffffffff1681525090565b81548183558181151162000478576002028160020283600052602060002091820191016200047791906200047d565b5b505050565b620004e991905b80821115620004e5576000808201600090556001820160006101000a81549063ffffffff02191690556001820160046101000a81549063ffffffff02191690556001820160086101000a81549063ffffffff02191690555060020162000484565b5090565b90565b6109c680620004fc6000396000f30060606040526004361061006d576000357c0100000000000000000000000000000000000000000000000000000000900463ffffffff1680631f1324b514610072578063926e9ebf146100f0578063a3ec75fe14610119578063be00f008146101a7578063d43d9ee6146101d0575b600080fd5b341561007d57600080fd5b6100936004808035906020019091905050610288565b604051808781526020018681526020018563ffffffff1663ffffffff1681526020018463ffffffff1663ffffffff1681526020018363ffffffff1663ffffffff168152602001828152602001965050505050505060405180910390f35b34156100fb57600080fd5b61010361037f565b6040518082815260200191505060405180910390f35b341561012457600080fd5b610150600480803573ffffffffffffffffffffffffffffffffffffffff1690602001909190505061038c565b6040518080602001828103825283818151815260200191508051906020019060200280838360005b83811015610193578082015181840152602081019050610178565b505050509050019250505060405180910390f35b34156101b257600080fd5b6101ba6104ce565b6040518082815260200191505060405180910390f35b34156101db57600080fd5b61026e600480803590602001908201803590602001908080601f0160208091040260200160405190810160405280939291908181526020018383808284378201915050505050509190803590602001908201803590602001908080601f01602080910402602001604051908101604052809392919081815260200183838082843782019150505050505091905050610515565b604051808215151515815260200191505060405180910390f35b6000806000806000806102996108ad565b6006888154811015156102a857fe5b906000526020600020906002020160806040519081016040529081600082015481526020016001820160009054906101000a900463ffffffff1663ffffffff1663ffffffff1681526020016001820160049054906101000a900463ffffffff1663ffffffff1663ffffffff1681526020016001820160089054906101000a900463ffffffff1663ffffffff1663ffffffff16815250509050878160000151826020015183604001518460600151600960008e8152602001908152602001600020549650965096509650965096505091939550919395565b6000600680549050905090565b6103946108e8565b600061039e6108e8565b600080600860008773ffffffffffffffffffffffffffffffffffffffff1673ffffffffffffffffffffffffffffffffffffffff168152602001908152602001600020549350836040518059106103f15750595b9080825280602002602001820160405250925060009150600090505b6006805490508110156104c2578573ffffffffffffffffffffffffffffffffffffffff166007600083815260200190815260200160002060009054906101000a900473ffffffffffffffffffffffffffffffffffffffff1673ffffffffffffffffffffffffffffffffffffffff1614156104a75780838381518110151561049057fe5b906020019060200201818152505081806001019250505b83821015156104b5576104c2565b808060010191505061040d565b82945050505050919050565b6000600860003373ffffffffffffffffffffffffffffffffffffffff1673ffffffffffffffffffffffffffffffffffffffff16815260200190815260200160002054905090565b600061051f6108ad565b600080600860003373ffffffffffffffffffffffffffffffffffffffff1673ffffffffffffffffffffffffffffffffffffffff1681526020019081526020016000205414151561056e57600080fd5b610579858533610725565b915060016006805480600101828161059191906108fc565b916000526020600020906002020160008590919091506000820151816000015560208201518160010160006101000a81548163ffffffff021916908363ffffffff16021790555060408201518160010160046101000a81548163ffffffff021916908363ffffffff16021790555060608201518160010160086101000a81548163ffffffff021916908363ffffffff1602179055505050039050336007600083815260200190815260200160002060006101000a81548173ffffffffffffffffffffffffffffffffffffffff021916908373ffffffffffffffffffffffffffffffffffffffff1602179055506001600860003373ffffffffffffffffffffffffffffffffffffffff1673ffffffffffffffffffffffffffffffffffffffff168152602001908152602001600020600082825401925050819055503373ffffffffffffffffffffffffffffffffffffffff167f163090350da897fd03497e870bbe993a1948b39328cd37a8fe6b9179e120dd27826040518082815260200191505060405180910390a260019250505092915050565b61072d6108ad565b60008060008042868989604051808581526020018473ffffffffffffffffffffffffffffffffffffffff1673ffffffffffffffffffffffffffffffffffffffff166c0100000000000000000000000002815260140183805190602001908083835b6020831015156107b3578051825260208201915060208101905060208303925061078e565b6001836020036101000a03801982511681845116808217855250505050505090500182805190602001908083835b60208310151561080657805182526020820191506020810190506020830392506107e1565b6001836020036101000a03801982511681845116808217855250505050505090500194505050505060405180910390206001900493506003548481151561084957fe5b0692506004548481151561085957fe5b0691506005548481151561086957fe5b0690506080604051908101604052808481526020018363ffffffff1681526020018263ffffffff1681526020014263ffffffff168152509450505050509392505050565b60806040519081016040528060008152602001600063ffffffff168152602001600063ffffffff168152602001600063ffffffff1681525090565b602060405190810160405280600081525090565b81548183558181151161092957600202816002028360005260206000209182019101610928919061092e565b5b505050565b61099791905b80821115610993576000808201600090556001820160006101000a81549063ffffffff02191690556001820160046101000a81549063ffffffff02191690556001820160086101000a81549063ffffffff021916905550600201610934565b5090565b905600a165627a7a7230582055d6dda6e3dc7516eaf54c5f216b47c2750b6e73a95c1a62e12a153afff735ea0029",
  "source": "pragma solidity ^0.4.21;\n\n/* import 'openzeppelin-solidity/contracts/ownership/Ownable.sol'; */\n\ncontract ToriToken {\n\n  uint256 private DNA_DIGIT = 10;\n  uint256 private PROFICIENCY_DIGIT = 2;\n  uint256 private PERSONALITY_DIGIT = 2;\n\n  uint256 private DNA_LIMIT = 10**DNA_DIGIT;\n  uint256 private PROFICIENCY_LIMIT = 10**PROFICIENCY_DIGIT;\n  uint256 private PERSONALITY_LIMIT = 10**PERSONALITY_DIGIT;\n\n  struct Tori {\n    uint256 dna;\n    uint32 proficiency;\n    uint32 personality;\n    uint32 readyTime;\n  }\n\n  Tori[] toris;\n\n  mapping (uint256 => address) toriIndexToAddr;\n  mapping (address => uint256) addrToToriCount;\n\n  // toriId to price (in wei)\n  mapping (uint => uint256) toriSale;\n  uint256 toriSaleCount;\n\n  event NewTori(address indexed _address, uint256 toriIdx);\n\n\n  /* DEV USE */\n  function ToriToken() {\n    // Generate some Toris for the owner.\n    uint n = 3;\n    for (uint i = 0; i < n; i++) {\n      Tori memory newTori = _generateRandomTori(\"sample\", \"sample\", msg.sender);\n      // Push to the book keeping array.\n      uint256 id = toris.push(newTori) - 1;\n      toriIndexToAddr[id] = msg.sender;\n      addrToToriCount[msg.sender] += 1;\n    }\n\n    toriSale[0] = 10000;\n    toriSaleCount += 1;\n  }\n\n\n\n  /*\n  *   Generate random dna, personality, and proficiency level from\n  *   the given quiz & sender address.\n  */\n  function _generateRandomTori(string _quiz, string _name, address _owner) private view returns (Tori) {\n    // TODO: implement a more detailed Tori generation.\n    uint256 generatedRandomness = uint(keccak256(now, _owner, _quiz, _name));\n    uint256 dna = generatedRandomness % DNA_LIMIT;\n    uint32 proficiency = uint32(generatedRandomness % PROFICIENCY_LIMIT);\n    uint32 personality = uint32(generatedRandomness % PERSONALITY_LIMIT);\n    return Tori(dna, proficiency, personality, uint32(now));\n  }\n\n  function generateNewTori(string _quiz, string _name) public returns (bool success) {\n    // Generate three new toris.\n    require (addrToToriCount[msg.sender] == 0);\n    Tori memory newTori = _generateRandomTori(_quiz, _name, msg.sender);\n    // Push to the book keeping array.\n    uint256 id = toris.push(newTori) - 1;\n    toriIndexToAddr[id] = msg.sender;\n    addrToToriCount[msg.sender] += 1;\n\n    emit NewTori(msg.sender, id);\n    return true;\n  }\n\n  function getToriIndexes(address _owner) public view returns (uint[]) {\n    uint size = addrToToriCount[_owner];\n    uint[] memory result = new uint[](size);\n\n    uint idx = 0;\n    for (uint i = 0; i < toris.length; i++) {\n      if (toriIndexToAddr[i] == _owner) {\n        result[idx] = i;\n        idx++;\n      }\n      if (idx >= size) {\n        break;\n      }\n    }\n    return result;\n  }\n\n  function getToriInfo(uint256 _toriId) public view returns\n                    (uint256 toriId, uint256 toriDna, uint32 proficiency,\n                      uint32 personality, uint32 readyTime, uint postingPrice) {\n    Tori memory tori = toris[_toriId];\n    return (_toriId,\n      tori.dna,\n      tori.proficiency,\n      tori.personality,\n      tori.readyTime,\n      toriSale[_toriId]);\n  }\n\n  function getToriCount() public view returns (uint256 toriCount) {\n    return addrToToriCount[msg.sender];\n  }\n\n  function getAllToriCount() public view returns (uint) {\n    return toris.length;\n  }\n}\n",
  "sourcePath": "/Users/Cindy/Desktop/cs359b/cs359b-cribtori/contracts/ToriToken.sol",
  "compiler": {
    "name": "solc",
    "version": "0.4.21+commit.dfe3193c.Emscripten.clang"
  },
  "schemaVersion": "2.0.0",
  "updatedAt": "2018-04-30T01:42:18.624Z"
}