{
  "contractName": "ToriToken",
  "abi": [
    {
      "constant": true,
      "inputs": [
        {
          "name": "_tokenId",
          "type": "uint256"
        }
      ],
      "name": "getApproved",
      "outputs": [
        {
          "name": "",
          "type": "address"
        }
      ],
      "payable": false,
      "stateMutability": "view",
      "type": "function"
    },
    {
      "constant": false,
      "inputs": [
        {
          "name": "_to",
          "type": "address"
        },
        {
          "name": "_tokenId",
          "type": "uint256"
        }
      ],
      "name": "approve",
      "outputs": [],
      "payable": false,
      "stateMutability": "nonpayable",
      "type": "function"
    },
    {
      "constant": false,
      "inputs": [
        {
          "name": "_from",
          "type": "address"
        },
        {
          "name": "_to",
          "type": "address"
        },
        {
          "name": "_tokenId",
          "type": "uint256"
        }
      ],
      "name": "transferFrom",
      "outputs": [],
      "payable": false,
      "stateMutability": "nonpayable",
      "type": "function"
    },
    {
      "constant": false,
      "inputs": [
        {
          "name": "addrs",
          "type": "address[]"
        }
      ],
      "name": "removeAddressesFromWhitelist",
      "outputs": [
        {
          "name": "success",
          "type": "bool"
        }
      ],
      "payable": false,
      "stateMutability": "nonpayable",
      "type": "function"
    },
    {
      "constant": false,
      "inputs": [
        {
          "name": "addr",
          "type": "address"
        }
      ],
      "name": "removeAddressFromWhitelist",
      "outputs": [
        {
          "name": "success",
          "type": "bool"
        }
      ],
      "payable": false,
      "stateMutability": "nonpayable",
      "type": "function"
    },
    {
      "constant": false,
      "inputs": [
        {
          "name": "_from",
          "type": "address"
        },
        {
          "name": "_to",
          "type": "address"
        },
        {
          "name": "_tokenId",
          "type": "uint256"
        }
      ],
      "name": "safeTransferFrom",
      "outputs": [],
      "payable": false,
      "stateMutability": "nonpayable",
      "type": "function"
    },
    {
      "constant": true,
      "inputs": [
        {
          "name": "_tokenId",
          "type": "uint256"
        }
      ],
      "name": "exists",
      "outputs": [
        {
          "name": "",
          "type": "bool"
        }
      ],
      "payable": false,
      "stateMutability": "view",
      "type": "function"
    },
    {
      "constant": true,
      "inputs": [
        {
          "name": "_tokenId",
          "type": "uint256"
        }
      ],
      "name": "ownerOf",
      "outputs": [
        {
          "name": "",
          "type": "address"
        }
      ],
      "payable": false,
      "stateMutability": "view",
      "type": "function"
    },
    {
      "constant": true,
      "inputs": [
        {
          "name": "_owner",
          "type": "address"
        }
      ],
      "name": "balanceOf",
      "outputs": [
        {
          "name": "",
          "type": "uint256"
        }
      ],
      "payable": false,
      "stateMutability": "view",
      "type": "function"
    },
    {
      "constant": false,
      "inputs": [
        {
          "name": "addr",
          "type": "address"
        }
      ],
      "name": "addAddressToWhitelist",
      "outputs": [
        {
          "name": "success",
          "type": "bool"
        }
      ],
      "payable": false,
      "stateMutability": "nonpayable",
      "type": "function"
    },
    {
      "constant": true,
      "inputs": [],
      "name": "owner",
      "outputs": [
        {
          "name": "",
          "type": "address"
        }
      ],
      "payable": false,
      "stateMutability": "view",
      "type": "function"
    },
    {
      "constant": true,
      "inputs": [
        {
          "name": "",
          "type": "address"
        }
      ],
      "name": "whitelist",
      "outputs": [
        {
          "name": "",
          "type": "bool"
        }
      ],
      "payable": false,
      "stateMutability": "view",
      "type": "function"
    },
    {
      "constant": false,
      "inputs": [
        {
          "name": "_to",
          "type": "address"
        },
        {
          "name": "_approved",
          "type": "bool"
        }
      ],
      "name": "setApprovalForAll",
      "outputs": [],
      "payable": false,
      "stateMutability": "nonpayable",
      "type": "function"
    },
    {
      "constant": false,
      "inputs": [
        {
          "name": "_from",
          "type": "address"
        },
        {
          "name": "_to",
          "type": "address"
        },
        {
          "name": "_tokenId",
          "type": "uint256"
        },
        {
          "name": "_data",
          "type": "bytes"
        }
      ],
      "name": "safeTransferFrom",
      "outputs": [],
      "payable": false,
      "stateMutability": "nonpayable",
      "type": "function"
    },
    {
      "constant": false,
      "inputs": [
        {
          "name": "addrs",
          "type": "address[]"
        }
      ],
      "name": "addAddressesToWhitelist",
      "outputs": [
        {
          "name": "success",
          "type": "bool"
        }
      ],
      "payable": false,
      "stateMutability": "nonpayable",
      "type": "function"
    },
    {
      "constant": true,
      "inputs": [
        {
          "name": "_owner",
          "type": "address"
        },
        {
          "name": "_operator",
          "type": "address"
        }
      ],
      "name": "isApprovedForAll",
      "outputs": [
        {
          "name": "",
          "type": "bool"
        }
      ],
      "payable": false,
      "stateMutability": "view",
      "type": "function"
    },
    {
      "constant": false,
      "inputs": [
        {
          "name": "newOwner",
          "type": "address"
        }
      ],
      "name": "transferOwnership",
      "outputs": [],
      "payable": false,
      "stateMutability": "nonpayable",
      "type": "function"
    },
    {
      "inputs": [],
      "payable": false,
      "stateMutability": "nonpayable",
      "type": "constructor"
    },
    {
      "anonymous": false,
      "inputs": [
        {
          "indexed": true,
          "name": "_address",
          "type": "address"
        },
        {
          "indexed": false,
          "name": "toriIdx",
          "type": "uint256"
        }
      ],
      "name": "NewTori",
      "type": "event"
    },
    {
      "anonymous": false,
      "inputs": [
        {
          "indexed": true,
          "name": "_from",
          "type": "address"
        },
        {
          "indexed": true,
          "name": "_to",
          "type": "address"
        },
        {
          "indexed": false,
          "name": "_tokenId",
          "type": "uint256"
        }
      ],
      "name": "Transfer",
      "type": "event"
    },
    {
      "anonymous": false,
      "inputs": [
        {
          "indexed": true,
          "name": "_owner",
          "type": "address"
        },
        {
          "indexed": true,
          "name": "_approved",
          "type": "address"
        },
        {
          "indexed": false,
          "name": "_tokenId",
          "type": "uint256"
        }
      ],
      "name": "Approval",
      "type": "event"
    },
    {
      "anonymous": false,
      "inputs": [
        {
          "indexed": true,
          "name": "_owner",
          "type": "address"
        },
        {
          "indexed": true,
          "name": "_operator",
          "type": "address"
        },
        {
          "indexed": false,
          "name": "_approved",
          "type": "bool"
        }
      ],
      "name": "ApprovalForAll",
      "type": "event"
    },
    {
      "anonymous": false,
      "inputs": [
        {
          "indexed": false,
          "name": "addr",
          "type": "address"
        }
      ],
      "name": "WhitelistedAddressAdded",
      "type": "event"
    },
    {
      "anonymous": false,
      "inputs": [
        {
          "indexed": false,
          "name": "addr",
          "type": "address"
        }
      ],
      "name": "WhitelistedAddressRemoved",
      "type": "event"
    },
    {
      "anonymous": false,
      "inputs": [
        {
          "indexed": true,
          "name": "previousOwner",
          "type": "address"
        },
        {
          "indexed": true,
          "name": "newOwner",
          "type": "address"
        }
      ],
      "name": "OwnershipTransferred",
      "type": "event"
    },
    {
      "constant": false,
      "inputs": [
        {
          "name": "_quizzes",
          "type": "uint8[]"
        },
        {
          "name": "_name",
          "type": "string"
        }
      ],
      "name": "generateInitialTori",
      "outputs": [
        {
          "name": "success",
          "type": "bool"
        }
      ],
      "payable": false,
      "stateMutability": "nonpayable",
      "type": "function"
    },
    {
      "constant": false,
      "inputs": [
        {
          "name": "_dna",
          "type": "uint256"
        },
        {
          "name": "_proficiency",
          "type": "uint32"
        },
        {
          "name": "_personality",
          "type": "uint32"
        },
        {
          "name": "_name",
          "type": "string"
        },
        {
          "name": "_owner",
          "type": "address"
        }
      ],
      "name": "generateNewTori",
      "outputs": [
        {
          "name": "success",
          "type": "bool"
        }
      ],
      "payable": false,
      "stateMutability": "nonpayable",
      "type": "function"
    },
    {
      "constant": false,
      "inputs": [
        {
          "name": "_owner",
          "type": "address"
        },
        {
          "name": "_tokenId",
          "type": "uint256"
        }
      ],
      "name": "burnTori",
      "outputs": [
        {
          "name": "success",
          "type": "bool"
        }
      ],
      "payable": false,
      "stateMutability": "nonpayable",
      "type": "function"
    },
    {
      "constant": true,
      "inputs": [
        {
          "name": "_owner",
          "type": "address"
        }
      ],
      "name": "getTokenIndexes",
      "outputs": [
        {
          "name": "",
          "type": "uint256[]"
        }
      ],
      "payable": false,
      "stateMutability": "view",
      "type": "function"
    },
    {
      "constant": true,
      "inputs": [
        {
          "name": "_toriId",
          "type": "uint256"
        }
      ],
      "name": "getTokenInfo",
      "outputs": [
        {
          "name": "toriId",
          "type": "uint256"
        },
        {
          "name": "toriDna",
          "type": "uint256"
        },
        {
          "name": "name",
          "type": "string"
        },
        {
          "name": "proficiency",
          "type": "uint32"
        },
        {
          "name": "personality",
          "type": "uint32"
        },
        {
          "name": "readyTime",
          "type": "uint32"
        },
        {
          "name": "postingPrice",
          "type": "uint256"
        },
        {
          "name": "toriOwner",
          "type": "address"
        }
      ],
      "payable": false,
      "stateMutability": "view",
      "type": "function"
    },
    {
      "constant": true,
      "inputs": [],
      "name": "getTokenCount",
      "outputs": [
        {
          "name": "toriCount",
          "type": "uint256"
        }
      ],
      "payable": false,
      "stateMutability": "view",
      "type": "function"
    },
    {
      "constant": true,
      "inputs": [],
      "name": "getAllTokensCount",
      "outputs": [
        {
          "name": "",
          "type": "uint256"
        }
      ],
      "payable": false,
      "stateMutability": "view",
      "type": "function"
    },
    {
      "constant": false,
      "inputs": [
        {
          "name": "_tokenId",
          "type": "uint256"
        },
        {
          "name": "_salePrice",
          "type": "uint256"
        }
      ],
      "name": "approveForSale",
      "outputs": [],
      "payable": false,
      "stateMutability": "nonpayable",
      "type": "function"
    },
    {
      "constant": false,
      "inputs": [
        {
          "name": "_tokenId",
          "type": "uint256"
        }
      ],
      "name": "removeForSale",
      "outputs": [],
      "payable": false,
      "stateMutability": "nonpayable",
      "type": "function"
    },
    {
      "constant": false,
      "inputs": [
        {
          "name": "_tokenId",
          "type": "uint256"
        }
      ],
      "name": "buyForSale",
      "outputs": [],
      "payable": true,
      "stateMutability": "payable",
      "type": "function"
    },
    {
      "constant": true,
      "inputs": [],
      "name": "retrieveAllForSales",
      "outputs": [
        {
          "name": "",
          "type": "uint256[]"
        }
      ],
      "payable": false,
      "stateMutability": "view",
      "type": "function"
    }
  ],
  "bytecode": "0x60606040526017600255600380556006600455600254600a0a600555600160045401600a0a600655600354600a0a60075560a060405190810160405280601961ffff168152602001606461ffff16815260200160af61ffff16815260200160c861ffff16815260200161012c61ffff16815250600890600562000084929190620011bd565b50600454600a0a600955608060405190810160405280609661ffff16815260200160c861ffff16815260200161012c61ffff16815260200161015e61ffff16815250600a906004620000d892919062001215565b503415620000e557600080fd5b620000ef6200126d565b620000f962001281565b6000336000806101000a81548173ffffffffffffffffffffffffffffffffffffffff021916908373ffffffffffffffffffffffffffffffffffffffff16021790555060046040518059106200014b5750595b9080825280602002602001820160405250925060008360008151811015156200017057fe5b9060200190602002019060ff16908160ff168152505060008360018151811015156200019857fe5b9060200190602002019060ff16908160ff16815250506000836002815181101515620001c057fe5b9060200190602002019060ff16908160ff16815250506000836003815181101515620001e857fe5b9060200190602002019060ff16908160ff168152505062000254836040805190810160405280600481526020017f546f746f00000000000000000000000000000000000000000000000000000000815250336200090a64010000000002620027d8176401000000009004565b91506001600f80548060010182816200026e9190620012cb565b91600052602060002090600302016000859091909150600082015181600001556020820151816001019080519060200190620002ac92919062001300565b5060408201518160020160006101000a81548163ffffffff021916908363ffffffff16021790555060608201518160020160046101000a81548163ffffffff021916908363ffffffff16021790555060808201518160020160086101000a81548163ffffffff021916908363ffffffff160217905550505003905033600b600083815260200190815260200160002060006101000a81548173ffffffffffffffffffffffffffffffffffffffff021916908373ffffffffffffffffffffffffffffffffffffffff160217905550620003dc6001600d60003373ffffffffffffffffffffffffffffffffffffffff1673ffffffffffffffffffffffffffffffffffffffff168152602001908152602001600020546200098c6401000000000262002275179091906401000000009004565b600d60003373ffffffffffffffffffffffffffffffffffffffff1673ffffffffffffffffffffffffffffffffffffffff1681526020019081526020016000208190555060018360018151811015156200043157fe5b9060200190602002019060ff16908160ff16815250506200049d836040805190810160405280600481526020017f5269726900000000000000000000000000000000000000000000000000000000815250336200090a64010000000002620027d8176401000000009004565b91506001600f8054806001018281620004b79190620012cb565b91600052602060002090600302016000859091909150600082015181600001556020820151816001019080519060200190620004f592919062001300565b5060408201518160020160006101000a81548163ffffffff021916908363ffffffff16021790555060608201518160020160046101000a81548163ffffffff021916908363ffffffff16021790555060808201518160020160086101000a81548163ffffffff021916908363ffffffff160217905550505003905033600b600083815260200190815260200160002060006101000a81548173ffffffffffffffffffffffffffffffffffffffff021916908373ffffffffffffffffffffffffffffffffffffffff160217905550620006256001600d60003373ffffffffffffffffffffffffffffffffffffffff1673ffffffffffffffffffffffffffffffffffffffff168152602001908152602001600020546200098c6401000000000262002275179091906401000000009004565b600d60003373ffffffffffffffffffffffffffffffffffffffff1673ffffffffffffffffffffffffffffffffffffffff1681526020019081526020016000208190555060018360008151811015156200067a57fe5b9060200190602002019060ff16908160ff16815250506001836003815181101515620006a257fe5b9060200190602002019060ff16908160ff16815250506200070e836040805190810160405280600481526020017f5269746f00000000000000000000000000000000000000000000000000000000815250336200090a64010000000002620027d8176401000000009004565b91506001600f8054806001018281620007289190620012cb565b916000526020600020906003020160008590919091506000820151816000015560208201518160010190805190602001906200076692919062001300565b5060408201518160020160006101000a81548163ffffffff021916908363ffffffff16021790555060608201518160020160046101000a81548163ffffffff021916908363ffffffff16021790555060808201518160020160086101000a81548163ffffffff021916908363ffffffff160217905550505003905033600b600083815260200190815260200160002060006101000a81548173ffffffffffffffffffffffffffffffffffffffff021916908373ffffffffffffffffffffffffffffffffffffffff160217905550620008966001600d60003373ffffffffffffffffffffffffffffffffffffffff1673ffffffffffffffffffffffffffffffffffffffff168152602001908152602001600020546200098c6401000000000262002275179091906401000000009004565b600d60003373ffffffffffffffffffffffffffffffffffffffff1673ffffffffffffffffffffffffffffffffffffffff1681526020019081526020016000208190555062000901600066038d7ea4c68000620009a96401000000000262000e19176401000000009004565b505050620014a4565b6200091462001281565b60008060006200093a87878762000a9c6401000000000262002d94176401000000009004565b80935081945082955050505060a0604051908101604052808481526020018781526020018363ffffffff1681526020018263ffffffff1681526020014263ffffffff1681525093505050509392505050565b60008183019050828110151515620009a057fe5b80905092915050565b813373ffffffffffffffffffffffffffffffffffffffff16620009e08262000c8464010000000002620012bf176401000000009004565b73ffffffffffffffffffffffffffffffffffffffff1614151562000a0357600080fd5b6000601060008581526020019081526020016000205414801562000a275750600082115b151562000a3357600080fd5b81601060008581526020019081526020016000208190555062000a7160016011546200098c6401000000000262002275179091906401000000009004565b60118190555062000a97308462000d036401000000000262000c53176401000000009004565b505050565b600080600080428587604051808481526020018373ffffffffffffffffffffffffffffffffffffffff1673ffffffffffffffffffffffffffffffffffffffff166c0100000000000000000000000002815260140182805190602001908083835b60208310151562000b23578051825260208201915060208101905060208303925062000afc565b6001836020036101000a038019825116818451168082178552505050505050905001935050505060405180910390206001900490506005548181151562000b6657fe5b0693506000600160025403600a0a8581151562000b7f57fe5b04141562000b9557600160025403600a0a840193505b6007548481151562000ba357fe5b06925060075460095481151562000bb657fe5b046009548581151562000bc557fe5b0681151562000bd057fe5b04915062000c4583600880548060200260200160405190810160405280929190818152602001828054801562000c2657602002820191906000526020600020905b81548152602001906001019080831162000c11575b505050505062000f106401000000000262002f57176401000000009004565b925062000c67878362000f826401000000000262002fc4176401000000009004565b91506006548481151562000c7757fe5b0493505093509350939050565b600080600b600084815260200190815260200160002060009054906101000a900473ffffffffffffffffffffffffffffffffffffffff169050600073ffffffffffffffffffffffffffffffffffffffff168173ffffffffffffffffffffffffffffffffffffffff161415151562000cfa57600080fd5b80915050919050565b600062000d248262000c8464010000000002620012bf176401000000009004565b90508073ffffffffffffffffffffffffffffffffffffffff168373ffffffffffffffffffffffffffffffffffffffff161415151562000d6257600080fd5b8073ffffffffffffffffffffffffffffffffffffffff163373ffffffffffffffffffffffffffffffffffffffff16148062000db9575062000db88133620010ec640100000000026200208c176401000000009004565b5b151562000dc557600080fd5b600073ffffffffffffffffffffffffffffffffffffffff1662000dfc83620011806401000000000262000c16176401000000009004565b73ffffffffffffffffffffffffffffffffffffffff1614158062000e4d5750600073ffffffffffffffffffffffffffffffffffffffff168373ffffffffffffffffffffffffffffffffffffffff1614155b1562000f0b5782600c600084815260200190815260200160002060006101000a81548173ffffffffffffffffffffffffffffffffffffffff021916908373ffffffffffffffffffffffffffffffffffffffff1602179055508273ffffffffffffffffffffffffffffffffffffffff168173ffffffffffffffffffffffffffffffffffffffff167f8c5be1e5ebec7d5bd14f71427d1e84f3dd0314c0f7b2291e5b200ac8c7c3b925846040518082815260200191505060405180910390a35b505050565b60008060008060009250600091505b845182101562000f7157848281518110151562000f3857fe5b9060200190602002015190508083018663ffffffff16101562000f5e5781935062000f79565b8083019250818060010192505062000f1f565b600185510393505b50505092915050565b600062000f8e62001387565b600080600080600a80548060200260200160405190810160405280929190818152602001828054801562000fe257602002820191906000526020600020905b81548152602001906001019080831162000fcd575b5050505050945060009350600092505b87518310156200102a5787838151811015156200100b57fe5b9060200190602002015160ff1684019350828060010193505062000ff2565b6001885103600a029150600084118015620010455750875184105b15620010bf57600092505b8751831015620010be5787838151811015156200106957fe5b9060200190602002015160ff168851029050838103905080828115156200108c57fe5b0485848151811015156200109c57fe5b9060200190602002018181510191508181525050828060010193505062001050565b5b620010df878662000f106401000000000262002f57176401000000009004565b9550505050505092915050565b6000600e60008473ffffffffffffffffffffffffffffffffffffffff1673ffffffffffffffffffffffffffffffffffffffff16815260200190815260200160002060008373ffffffffffffffffffffffffffffffffffffffff1673ffffffffffffffffffffffffffffffffffffffff16815260200190815260200160002060009054906101000a900460ff16905092915050565b6000600c600083815260200190815260200160002060009054906101000a900473ffffffffffffffffffffffffffffffffffffffff169050919050565b82805482825590600052602060002090810192821562001202579160200282015b8281111562001201578251829061ffff16905591602001919060010190620011de565b5b5090506200121191906200139b565b5090565b8280548282559060005260206000209081019282156200125a579160200282015b8281111562001259578251829061ffff1690559160200191906001019062001236565b5b5090506200126991906200139b565b5090565b602060405190810160405280600081525090565b60a060405190810160405280600081526020016200129e620013c3565b8152602001600063ffffffff168152602001600063ffffffff168152602001600063ffffffff1681525090565b815481835581811511620012fb57600302816003028360005260206000209182019101620012fa9190620013d7565b5b505050565b828054600181600116156101000203166002900490600052602060002090601f016020900481019282601f106200134357805160ff191683800117855562001374565b8280016001018555821562001374579182015b828111156200137357825182559160200191906001019062001356565b5b5090506200138391906200139b565b5090565b602060405190810160405280600081525090565b620013c091905b80821115620013bc576000816000905550600101620013a2565b5090565b90565b602060405190810160405280600081525090565b6200145591905b80821115620014515760008082016000905560018201600062001402919062001458565b6002820160006101000a81549063ffffffff02191690556002820160046101000a81549063ffffffff02191690556002820160086101000a81549063ffffffff021916905550600301620013de565b5090565b90565b50805460018160011615610100020316600290046000825580601f10620014805750620014a1565b601f016020900490600052602060002090810190620014a091906200139b565b5b50565b61335580620014b46000396000f30060606040526004361061016a576000357c0100000000000000000000000000000000000000000000000000000000900463ffffffff168063081812fc1461016f578063095ea7b3146101d2578063120e22e41461021457806323b872dd1461024057806324953eaa146102a1578063286dd3f51461031357806342842e0e146103645780634dac6dcf146103c55780634f558e791461041f5780636352211e1461045a57806368d39d71146104bd5780636b8667f51461057257806370a082311461059557806378a89567146105e25780637b9417c81461060b57806380507b571461065c5780638c7a63ae146106ea5780638da5cb5b14610807578063933b54541461085c5780639b19251a14610885578063a22cb465146108d6578063a9bd5d731461091a578063b438314f146109d5578063b88d4fde146109ed578063be928c9214610a91578063e2ec6ec314610afb578063e985e9c514610b6d578063f2fde38b14610bdd575b600080fd5b341561017a57600080fd5b6101906004808035906020019091905050610c16565b604051808273ffffffffffffffffffffffffffffffffffffffff1673ffffffffffffffffffffffffffffffffffffffff16815260200191505060405180910390f35b34156101dd57600080fd5b610212600480803573ffffffffffffffffffffffffffffffffffffffff16906020019091908035906020019091905050610c53565b005b341561021f57600080fd5b61023e6004808035906020019091908035906020019091905050610e19565b005b341561024b57600080fd5b61029f600480803573ffffffffffffffffffffffffffffffffffffffff1690602001909190803573ffffffffffffffffffffffffffffffffffffffff16906020019091908035906020019091905050610ecd565b005b34156102ac57600080fd5b6102f9600480803590602001908201803590602001908080602002602001604051908101604052809392919081815260200183836020028082843782019150505050505091905050610fe4565b604051808215151515815260200191505060405180910390f35b341561031e57600080fd5b61034a600480803573ffffffffffffffffffffffffffffffffffffffff1690602001909190505061108d565b604051808215151515815260200191505060405180910390f35b341561036f57600080fd5b6103c3600480803573ffffffffffffffffffffffffffffffffffffffff1690602001909190803573ffffffffffffffffffffffffffffffffffffffff16906020019091908035906020019091905050611201565b005b34156103d057600080fd5b610405600480803573ffffffffffffffffffffffffffffffffffffffff16906020019091908035906020019091905050611239565b604051808215151515815260200191505060405180910390f35b341561042a57600080fd5b610440600480803590602001909190505061124d565b604051808215151515815260200191505060405180910390f35b341561046557600080fd5b61047b60048080359060200190919050506112bf565b604051808273ffffffffffffffffffffffffffffffffffffffff1673ffffffffffffffffffffffffffffffffffffffff16815260200191505060405180910390f35b34156104c857600080fd5b61055860048080359060200190820180359060200190808060200260200160405190810160405280939291908181526020018383602002808284378201915050505050509190803590602001908201803590602001908080601f0160208091040260200160405190810160405280939291908181526020018383808284378201915050505050509190505061133d565b604051808215151515815260200191505060405180910390f35b341561057d57600080fd5b61059360048080359060200190919050506114d4565b005b34156105a057600080fd5b6105cc600480803573ffffffffffffffffffffffffffffffffffffffff1690602001909190505061157c565b6040518082815260200191505060405180910390f35b34156105ed57600080fd5b6105f5611600565b6040518082815260200191505060405180910390f35b341561061657600080fd5b610642600480803573ffffffffffffffffffffffffffffffffffffffff16906020019091905050611647565b604051808215151515815260200191505060405180910390f35b341561066757600080fd5b610693600480803573ffffffffffffffffffffffffffffffffffffffff169060200190919050506117bb565b6040518080602001828103825283818151815260200191508051906020019060200280838360005b838110156106d65780820151818401526020810190506106bb565b505050509050019250505060405180910390f35b34156106f557600080fd5b61070b60048080359060200190919050506118fd565b60405180898152602001888152602001806020018763ffffffff1663ffffffff1681526020018663ffffffff1663ffffffff1681526020018563ffffffff1663ffffffff1681526020018481526020018373ffffffffffffffffffffffffffffffffffffffff1673ffffffffffffffffffffffffffffffffffffffff168152602001828103825288818151815260200191508051906020019080838360005b838110156107c55780820151818401526020810190506107aa565b50505050905090810190601f1680156107f25780820380516001836020036101000a031916815260200191505b50995050505050505050505060405180910390f35b341561081257600080fd5b61081a611adf565b604051808273ffffffffffffffffffffffffffffffffffffffff1673ffffffffffffffffffffffffffffffffffffffff16815260200191505060405180910390f35b341561086757600080fd5b61086f611b04565b6040518082815260200191505060405180910390f35b341561089057600080fd5b6108bc600480803573ffffffffffffffffffffffffffffffffffffffff16906020019091905050611b11565b604051808215151515815260200191505060405180910390f35b34156108e157600080fd5b610918600480803573ffffffffffffffffffffffffffffffffffffffff169060200190919080351515906020019091905050611b31565b005b341561092557600080fd5b6109bb600480803590602001909190803563ffffffff1690602001909190803563ffffffff1690602001909190803590602001908201803590602001908080601f0160208091040260200160405190810160405280939291908181526020018383808284378201915050505050509190803573ffffffffffffffffffffffffffffffffffffffff16906020019091905050611c6d565b604051808215151515815260200191505060405180910390f35b6109eb6004808035906020019091905050611c87565b005b34156109f857600080fd5b610a8f600480803573ffffffffffffffffffffffffffffffffffffffff1690602001909190803573ffffffffffffffffffffffffffffffffffffffff1690602001909190803590602001909190803590602001908201803590602001908080601f01602080910402602001604051908101604052809392919081815260200183838082843782019150505050505091905050611f02565b005b3415610a9c57600080fd5b610aa4611f41565b6040518080602001828103825283818151815260200191508051906020019060200280838360005b83811015610ae7578082015181840152602081019050610acc565b505050509050019250505060405180910390f35b3415610b0657600080fd5b610b53600480803590602001908201803590602001908080602002602001604051908101604052809392919081815260200183836020028082843782019150505050505091905050611fe3565b604051808215151515815260200191505060405180910390f35b3415610b7857600080fd5b610bc3600480803573ffffffffffffffffffffffffffffffffffffffff1690602001909190803573ffffffffffffffffffffffffffffffffffffffff1690602001909190505061208c565b604051808215151515815260200191505060405180910390f35b3415610be857600080fd5b610c14600480803573ffffffffffffffffffffffffffffffffffffffff16906020019091905050612120565b005b6000600c600083815260200190815260200160002060009054906101000a900473ffffffffffffffffffffffffffffffffffffffff169050919050565b6000610c5e826112bf565b90508073ffffffffffffffffffffffffffffffffffffffff168373ffffffffffffffffffffffffffffffffffffffff1614151515610c9b57600080fd5b8073ffffffffffffffffffffffffffffffffffffffff163373ffffffffffffffffffffffffffffffffffffffff161480610cdb5750610cda813361208c565b5b1515610ce657600080fd5b600073ffffffffffffffffffffffffffffffffffffffff16610d0783610c16565b73ffffffffffffffffffffffffffffffffffffffff16141580610d575750600073ffffffffffffffffffffffffffffffffffffffff168373ffffffffffffffffffffffffffffffffffffffff1614155b15610e145782600c600084815260200190815260200160002060006101000a81548173ffffffffffffffffffffffffffffffffffffffff021916908373ffffffffffffffffffffffffffffffffffffffff1602179055508273ffffffffffffffffffffffffffffffffffffffff168173ffffffffffffffffffffffffffffffffffffffff167f8c5be1e5ebec7d5bd14f71427d1e84f3dd0314c0f7b2291e5b200ac8c7c3b925846040518082815260200191505060405180910390a35b505050565b813373ffffffffffffffffffffffffffffffffffffffff16610e3a826112bf565b73ffffffffffffffffffffffffffffffffffffffff16141515610e5c57600080fd5b60006010600085815260200190815260200160002054148015610e7f5750600082115b1515610e8a57600080fd5b816010600085815260200190815260200160002081905550610eb8600160115461227590919063ffffffff16565b601181905550610ec83084610c53565b505050565b80610ed83382612291565b1515610ee357600080fd5b600073ffffffffffffffffffffffffffffffffffffffff168473ffffffffffffffffffffffffffffffffffffffff1614151515610f1f57600080fd5b600073ffffffffffffffffffffffffffffffffffffffff168373ffffffffffffffffffffffffffffffffffffffff1614151515610f5b57600080fd5b610f658483612326565b610f6f848361248f565b610f7983836125be565b8273ffffffffffffffffffffffffffffffffffffffff168473ffffffffffffffffffffffffffffffffffffffff167fddf252ad1be2c89b69c2b068fc378daa952ba7f163c4a11628f55a4df523b3ef846040518082815260200191505060405180910390a350505050565b6000806000809054906101000a900473ffffffffffffffffffffffffffffffffffffffff1673ffffffffffffffffffffffffffffffffffffffff163373ffffffffffffffffffffffffffffffffffffffff1614151561104257600080fd5b600090505b825181101561108757611070838281518110151561106157fe5b9060200190602002015161108d565b1561107a57600191505b8080600101915050611047565b50919050565b60008060009054906101000a900473ffffffffffffffffffffffffffffffffffffffff1673ffffffffffffffffffffffffffffffffffffffff163373ffffffffffffffffffffffffffffffffffffffff161415156110ea57600080fd5b600160008373ffffffffffffffffffffffffffffffffffffffff1673ffffffffffffffffffffffffffffffffffffffff16815260200190815260200160002060009054906101000a900460ff16156111fc576000600160008473ffffffffffffffffffffffffffffffffffffffff1673ffffffffffffffffffffffffffffffffffffffff16815260200190815260200160002060006101000a81548160ff0219169083151502179055507ff1abf01a1043b7c244d128e8595cf0c1d10743b022b03a02dffd8ca3bf729f5a82604051808273ffffffffffffffffffffffffffffffffffffffff1673ffffffffffffffffffffffffffffffffffffffff16815260200191505060405180910390a1600190505b919050565b8061120c3382612291565b151561121757600080fd5b6112338484846020604051908101604052806000815250611f02565b50505050565b60006112458383612718565b905092915050565b600080600b600084815260200190815260200160002060009054906101000a900473ffffffffffffffffffffffffffffffffffffffff169050600073ffffffffffffffffffffffffffffffffffffffff168173ffffffffffffffffffffffffffffffffffffffff161415915050919050565b600080600b600084815260200190815260200160002060009054906101000a900473ffffffffffffffffffffffffffffffffffffffff169050600073ffffffffffffffffffffffffffffffffffffffff168173ffffffffffffffffffffffffffffffffffffffff161415151561133457600080fd5b80915050919050565b600061134761310a565b600080600d60003373ffffffffffffffffffffffffffffffffffffffff1673ffffffffffffffffffffffffffffffffffffffff1681526020019081526020016000205414151561139657600080fd5b6113a18585336127d8565b91506001600f80548060010182816113b99190613152565b916000526020600020906003020160008590919091506000820151816000015560208201518160010190805190602001906113f5929190613184565b5060408201518160020160006101000a81548163ffffffff021916908363ffffffff16021790555060608201518160020160046101000a81548163ffffffff021916908363ffffffff16021790555060808201518160020160086101000a81548163ffffffff021916908363ffffffff160217905550505003905061147a3382612842565b3373ffffffffffffffffffffffffffffffffffffffff167f163090350da897fd03497e870bbe993a1948b39328cd37a8fe6b9179e120dd27826040518082815260200191505060405180910390a260019250505092915050565b803373ffffffffffffffffffffffffffffffffffffffff166114f5826112bf565b73ffffffffffffffffffffffffffffffffffffffff1614151561151757600080fd5b6000601060008481526020019081526020016000205411151561153957600080fd5b6000601060008481526020019081526020016000208190555061156860016011546128f290919063ffffffff16565b6011819055506115783383612326565b5050565b60008073ffffffffffffffffffffffffffffffffffffffff168273ffffffffffffffffffffffffffffffffffffffff16141515156115b957600080fd5b600d60008373ffffffffffffffffffffffffffffffffffffffff1673ffffffffffffffffffffffffffffffffffffffff168152602001908152602001600020549050919050565b6000600d60003373ffffffffffffffffffffffffffffffffffffffff1673ffffffffffffffffffffffffffffffffffffffff16815260200190815260200160002054905090565b60008060009054906101000a900473ffffffffffffffffffffffffffffffffffffffff1673ffffffffffffffffffffffffffffffffffffffff163373ffffffffffffffffffffffffffffffffffffffff161415156116a457600080fd5b600160008373ffffffffffffffffffffffffffffffffffffffff1673ffffffffffffffffffffffffffffffffffffffff16815260200190815260200160002060009054906101000a900460ff1615156117b65760018060008473ffffffffffffffffffffffffffffffffffffffff1673ffffffffffffffffffffffffffffffffffffffff16815260200190815260200160002060006101000a81548160ff0219169083151502179055507fd1bba68c128cc3f427e5831b3c6f99f480b6efa6b9e80c757768f6124158cc3f82604051808273ffffffffffffffffffffffffffffffffffffffff1673ffffffffffffffffffffffffffffffffffffffff16815260200191505060405180910390a1600190505b919050565b6117c3613204565b60006117cd613204565b600080600d60008773ffffffffffffffffffffffffffffffffffffffff1673ffffffffffffffffffffffffffffffffffffffff168152602001908152602001600020549350836040518059106118205750595b9080825280602002602001820160405250925060009150600090505b600f805490508110156118f1578573ffffffffffffffffffffffffffffffffffffffff16600b600083815260200190815260200160002060009054906101000a900473ffffffffffffffffffffffffffffffffffffffff1673ffffffffffffffffffffffffffffffffffffffff1614156118d6578083838151811015156118bf57fe5b906020019060200201818152505081806001019250505b83821015156118e4576118f1565b808060010191505061183c565b82945050505050919050565b600080611908613218565b600080600080600061191861310a565b600f8a81548110151561192757fe5b906000526020600020906003020160a0604051908101604052908160008201548152602001600182018054600181600116156101000203166002900480601f0160208091040260200160405190810160405280929190818152602001828054600181600116156101000203166002900480156119e45780601f106119b9576101008083540402835291602001916119e4565b820191906000526020600020905b8154815290600101906020018083116119c757829003601f168201915b505050505081526020016002820160009054906101000a900463ffffffff1663ffffffff1663ffffffff1681526020016002820160049054906101000a900463ffffffff1663ffffffff1663ffffffff1681526020016002820160089054906101000a900463ffffffff1663ffffffff1663ffffffff168152505090508998508060000151975080602001519650806040015195508060600151945080608001519350601060008b8152602001908152602001600020549250600b60008b815260200190815260200160002060009054906101000a900473ffffffffffffffffffffffffffffffffffffffff16915050919395975091939597565b6000809054906101000a900473ffffffffffffffffffffffffffffffffffffffff1681565b6000600f80549050905090565b60016020528060005260406000206000915054906101000a900460ff1681565b3373ffffffffffffffffffffffffffffffffffffffff168273ffffffffffffffffffffffffffffffffffffffff1614151515611b6c57600080fd5b80600e60003373ffffffffffffffffffffffffffffffffffffffff1673ffffffffffffffffffffffffffffffffffffffff16815260200190815260200160002060008473ffffffffffffffffffffffffffffffffffffffff1673ffffffffffffffffffffffffffffffffffffffff16815260200190815260200160002060006101000a81548160ff0219169083151502179055508173ffffffffffffffffffffffffffffffffffffffff163373ffffffffffffffffffffffffffffffffffffffff167f17307eab39ab6107e8899845ad3d59bd9653f200f220920489ca2b5937696c3183604051808215151515815260200191505060405180910390a35050565b6000611c7c868686868661290b565b905095945050505050565b600080611c943084612291565b8015611cb3575060006010600085815260200190815260200160002054115b8015611cd2575060106000848152602001908152602001600020543410155b1515611cdd57600080fd5b611ce6836112bf565b91506010600084815260200190815260200160002054340390506000811115611da1573373ffffffffffffffffffffffffffffffffffffffff166108fc829081150290604051600060405180830381858888f193505050501515611d4957600080fd5b8173ffffffffffffffffffffffffffffffffffffffff166108fc60106000868152602001908152602001600020549081150290604051600060405180830381858888f193505050501515611d9c57600080fd5b611de2565b8173ffffffffffffffffffffffffffffffffffffffff166108fc349081150290604051600060405180830381858888f193505050501515611de157600080fd5b5b60006010600085815260200190815260200160002081905550611e1160016011546128f290919063ffffffff16565b6011819055503073ffffffffffffffffffffffffffffffffffffffff166342842e0e8333866040518463ffffffff167c0100000000000000000000000000000000000000000000000000000000028152600401808473ffffffffffffffffffffffffffffffffffffffff1673ffffffffffffffffffffffffffffffffffffffff1681526020018373ffffffffffffffffffffffffffffffffffffffff1673ffffffffffffffffffffffffffffffffffffffff1681526020018281526020019350505050600060405180830381600087803b1515611eed57600080fd5b5af11515611efa57600080fd5b505050505050565b81611f0d3382612291565b1515611f1857600080fd5b611f23858585610ecd565b611f2f85858585612b4d565b1515611f3a57600080fd5b5050505050565b611f49613204565b611f51613204565b600080601154604051805910611f645750595b9080825280602002602001820160405250925060009150600090505b600f80549050811015611fda57600060106000838152602001908152602001600020541115611fcd57808383815181101515611fb857fe5b90602001906020020181815250506001820191505b8080600101915050611f80565b82935050505090565b6000806000809054906101000a900473ffffffffffffffffffffffffffffffffffffffff1673ffffffffffffffffffffffffffffffffffffffff163373ffffffffffffffffffffffffffffffffffffffff1614151561204157600080fd5b600090505b82518110156120865761206f838281518110151561206057fe5b90602001906020020151611647565b1561207957600191505b8080600101915050612046565b50919050565b6000600e60008473ffffffffffffffffffffffffffffffffffffffff1673ffffffffffffffffffffffffffffffffffffffff16815260200190815260200160002060008373ffffffffffffffffffffffffffffffffffffffff1673ffffffffffffffffffffffffffffffffffffffff16815260200190815260200160002060009054906101000a900460ff16905092915050565b6000809054906101000a900473ffffffffffffffffffffffffffffffffffffffff1673ffffffffffffffffffffffffffffffffffffffff163373ffffffffffffffffffffffffffffffffffffffff1614151561217b57600080fd5b600073ffffffffffffffffffffffffffffffffffffffff168173ffffffffffffffffffffffffffffffffffffffff16141515156121b757600080fd5b8073ffffffffffffffffffffffffffffffffffffffff166000809054906101000a900473ffffffffffffffffffffffffffffffffffffffff1673ffffffffffffffffffffffffffffffffffffffff167f8be0079c531659141344cd1fd0a4f28419497f9722a3daafe3b4186f6b6457e060405160405180910390a3806000806101000a81548173ffffffffffffffffffffffffffffffffffffffff021916908373ffffffffffffffffffffffffffffffffffffffff16021790555050565b6000818301905082811015151561228857fe5b80905092915050565b60008061229d836112bf565b90508073ffffffffffffffffffffffffffffffffffffffff168473ffffffffffffffffffffffffffffffffffffffff16148061230c57508373ffffffffffffffffffffffffffffffffffffffff166122f484610c16565b73ffffffffffffffffffffffffffffffffffffffff16145b8061231d575061231c818561208c565b5b91505092915050565b8173ffffffffffffffffffffffffffffffffffffffff16612346826112bf565b73ffffffffffffffffffffffffffffffffffffffff1614151561236857600080fd5b600073ffffffffffffffffffffffffffffffffffffffff16600c600083815260200190815260200160002060009054906101000a900473ffffffffffffffffffffffffffffffffffffffff1673ffffffffffffffffffffffffffffffffffffffff1614151561248b576000600c600083815260200190815260200160002060006101000a81548173ffffffffffffffffffffffffffffffffffffffff021916908373ffffffffffffffffffffffffffffffffffffffff160217905550600073ffffffffffffffffffffffffffffffffffffffff168273ffffffffffffffffffffffffffffffffffffffff167f8c5be1e5ebec7d5bd14f71427d1e84f3dd0314c0f7b2291e5b200ac8c7c3b925836040518082815260200191505060405180910390a35b5050565b8173ffffffffffffffffffffffffffffffffffffffff166124af826112bf565b73ffffffffffffffffffffffffffffffffffffffff161415156124d157600080fd5b6125246001600d60008573ffffffffffffffffffffffffffffffffffffffff1673ffffffffffffffffffffffffffffffffffffffff168152602001908152602001600020546128f290919063ffffffff16565b600d60008473ffffffffffffffffffffffffffffffffffffffff1673ffffffffffffffffffffffffffffffffffffffff168152602001908152602001600020819055506000600b600083815260200190815260200160002060006101000a81548173ffffffffffffffffffffffffffffffffffffffff021916908373ffffffffffffffffffffffffffffffffffffffff1602179055505050565b600073ffffffffffffffffffffffffffffffffffffffff16600b600083815260200190815260200160002060009054906101000a900473ffffffffffffffffffffffffffffffffffffffff1673ffffffffffffffffffffffffffffffffffffffff1614151561262c57600080fd5b81600b600083815260200190815260200160002060006101000a81548173ffffffffffffffffffffffffffffffffffffffff021916908373ffffffffffffffffffffffffffffffffffffffff1602179055506126d16001600d60008573ffffffffffffffffffffffffffffffffffffffff1673ffffffffffffffffffffffffffffffffffffffff1681526020019081526020016000205461227590919063ffffffff16565b600d60008473ffffffffffffffffffffffffffffffffffffffff1673ffffffffffffffffffffffffffffffffffffffff168152602001908152602001600020819055505050565b6000600160003373ffffffffffffffffffffffffffffffffffffffff1673ffffffffffffffffffffffffffffffffffffffff16815260200190815260200160002060009054906101000a900460ff16151561277257600080fd5b6000601060008481526020019081526020016000205411156127c457600060106000848152602001908152602001600020819055506127bd60016011546128f290919063ffffffff16565b6011819055505b6127ce8383612d16565b6001905092915050565b6127e061310a565b60008060006127f0878787612d94565b80935081945082955050505060a0604051908101604052808481526020018781526020018363ffffffff1681526020018263ffffffff1681526020014263ffffffff1681525093505050509392505050565b600073ffffffffffffffffffffffffffffffffffffffff168273ffffffffffffffffffffffffffffffffffffffff161415151561287e57600080fd5b61288882826125be565b8173ffffffffffffffffffffffffffffffffffffffff16600073ffffffffffffffffffffffffffffffffffffffff167fddf252ad1be2c89b69c2b068fc378daa952ba7f163c4a11628f55a4df523b3ef836040518082815260200191505060405180910390a35050565b600082821115151561290057fe5b818303905092915050565b600061291561310a565b6000600160003373ffffffffffffffffffffffffffffffffffffffff1673ffffffffffffffffffffffffffffffffffffffff16815260200190815260200160002060009054906101000a900460ff16151561296f57600080fd5b60006005548981151561297e57fe5b04148015612993575060008763ffffffff1610155b80156129a957506008805490508763ffffffff16105b80156129bc575060008663ffffffff1610155b80156129d25750600a805490508663ffffffff16105b15156129dd57600080fd5b60a0604051908101604052808981526020018681526020018863ffffffff1681526020018763ffffffff1681526020014263ffffffff1681525091506001600f8054806001018281612a2f9190613152565b91600052602060002090600302016000859091909150600082015181600001556020820151816001019080519060200190612a6b929190613184565b5060408201518160020160006101000a81548163ffffffff021916908363ffffffff16021790555060608201518160020160046101000a81548163ffffffff021916908363ffffffff16021790555060808201518160020160086101000a81548163ffffffff021916908363ffffffff1602179055505050039050612af08482612842565b8373ffffffffffffffffffffffffffffffffffffffff167f163090350da897fd03497e870bbe993a1948b39328cd37a8fe6b9179e120dd27826040518082815260200191505060405180910390a260019250505095945050505050565b600080612b6f8573ffffffffffffffffffffffffffffffffffffffff16612f44565b1515612b7e5760019150612d0d565b8473ffffffffffffffffffffffffffffffffffffffff1663f0b9e5ba8786866040518463ffffffff167c0100000000000000000000000000000000000000000000000000000000028152600401808473ffffffffffffffffffffffffffffffffffffffff1673ffffffffffffffffffffffffffffffffffffffff16815260200183815260200180602001828103825283818151815260200191508051906020019080838360005b83811015612c40578082015181840152602081019050612c25565b50505050905090810190601f168015612c6d5780820380516001836020036101000a031916815260200191505b50945050505050602060405180830381600087803b1515612c8d57600080fd5b5af11515612c9a57600080fd5b50505060405180519050905063f0b9e5ba7c0100000000000000000000000000000000000000000000000000000000027bffffffffffffffffffffffffffffffffffffffffffffffffffffffff1916817bffffffffffffffffffffffffffffffffffffffffffffffffffffffff19161491505b50949350505050565b612d208282612326565b612d2a828261248f565b600073ffffffffffffffffffffffffffffffffffffffff168273ffffffffffffffffffffffffffffffffffffffff167fddf252ad1be2c89b69c2b068fc378daa952ba7f163c4a11628f55a4df523b3ef836040518082815260200191505060405180910390a35050565b600080600080428587604051808481526020018373ffffffffffffffffffffffffffffffffffffffff1673ffffffffffffffffffffffffffffffffffffffff166c0100000000000000000000000002815260140182805190602001908083835b602083101515612e195780518252602082019150602081019050602083039250612df4565b6001836020036101000a0380198251168184511680821785525050505050509050019350505050604051809103902060019004905060055481811515612e5b57fe5b0693506000600160025403600a0a85811515612e7357fe5b041415612e8857600160025403600a0a840193505b60075484811515612e9557fe5b069250600754600954811515612ea757fe5b0460095485811515612eb557fe5b06811515612ebf57fe5b049150612f1c836008805480602002602001604051908101604052809291908181526020018280548015612f1257602002820191906000526020600020905b815481526020019060010190808311612efe575b5050505050612f57565b9250612f288783612fc4565b915060065484811515612f3757fe5b0493505093509350939050565b600080823b905060008111915050919050565b60008060008060009250600091505b8451821015612fb3578482815181101515612f7d57fe5b9060200190602002015190508083018663ffffffff161015612fa157819350612fbb565b80830192508180600101925050612f66565b600185510393505b50505092915050565b6000612fce613204565b600080600080600a80548060200260200160405190810160405280929190818152602001828054801561302057602002820191906000526020600020905b81548152602001906001019080831161300c575b5050505050945060009350600092505b875183101561306557878381518110151561304757fe5b9060200190602002015160ff16840193508280600101935050613030565b6001885103600a02915060008411801561307f5750875184105b156130f357600092505b87518310156130f25787838151811015156130a057fe5b9060200190602002015160ff168851029050838103905080828115156130c257fe5b0485848151811015156130d157fe5b90602001906020020181815101915081815250508280600101935050613089565b5b6130fd8786612f57565b9550505050505092915050565b60a0604051908101604052806000815260200161312561322c565b8152602001600063ffffffff168152602001600063ffffffff168152602001600063ffffffff1681525090565b81548183558181151161317f5760030281600302836000526020600020918201910161317e9190613240565b5b505050565b828054600181600116156101000203166002900490600052602060002090601f016020900481019282601f106131c557805160ff19168380011785556131f3565b828001600101855582156131f3579182015b828111156131f25782518255916020019190600101906131d7565b5b50905061320091906132bc565b5090565b602060405190810160405280600081525090565b602060405190810160405280600081525090565b602060405190810160405280600081525090565b6132b991905b808211156132b55760008082016000905560018201600061326791906132e1565b6002820160006101000a81549063ffffffff02191690556002820160046101000a81549063ffffffff02191690556002820160086101000a81549063ffffffff021916905550600301613246565b5090565b90565b6132de91905b808211156132da5760008160009055506001016132c2565b5090565b90565b50805460018160011615610100020316600290046000825580601f106133075750613326565b601f01602090049060005260206000209081019061332591906132bc565b5b505600a165627a7a7230582050d42217dd31c2264c5f5bb18beb230a8e32727bf524053e9a71a10a78b92a1d0029",
  "source": "pragma solidity ^0.4.21;\n\nimport './DnaCore.sol';\n/* import 'github.com/OpenZeppelin/zeppelin-solidity/contracts/token/ERC721/ERC721BasicToken.sol'; */\n/* import 'github.com/OpenZeppelin/zeppelin-solidity/contracts/ownership/Whitelist.sol'; */\n\nimport 'openzeppelin-solidity/contracts/token/ERC721/ERC721BasicToken.sol';\nimport 'openzeppelin-solidity/contracts/ownership/Whitelist.sol';\n\ncontract ToriToken is Whitelist, DnaCore, ERC721BasicToken {\n\n  struct Tori {\n    uint256 dna;\n    string name;\n    uint32 proficiency;\n    uint32 personality;\n    uint32 readyTime;\n  }\n\n  Tori[] toris;\n\n  // toriId to price (in wei)\n  mapping (uint => uint256) toriSale;\n  uint256 toriSaleCount;\n\n  event NewTori(address indexed _address, uint256 toriIdx);\n\n\n  /* DEV USE */\n  function ToriToken() {\n    // Generate some Toris for the owner.\n\n    // 1.\n    uint8[] memory testQuiz = new uint8[](4);\n    testQuiz[0] = 0;\n    testQuiz[1] = 0;\n    testQuiz[2] = 0;\n    testQuiz[3] = 0;\n    Tori memory newTori = _generateRandomTori(testQuiz, \"Toto\", msg.sender);\n    uint256 id = toris.push(newTori) - 1;\n    tokenOwner[id] = msg.sender;\n    ownedTokensCount[msg.sender] = ownedTokensCount[msg.sender].add(1);\n    // 2.\n    testQuiz[1] = 1;\n    newTori = _generateRandomTori(testQuiz, \"Riri\", msg.sender);\n    id = toris.push(newTori) - 1;\n    tokenOwner[id] = msg.sender;\n    ownedTokensCount[msg.sender] = ownedTokensCount[msg.sender].add(1);\n\n    // 3.\n    testQuiz[0] = 1;\n    testQuiz[3] = 1;\n    newTori = _generateRandomTori(testQuiz, \"Rito\", msg.sender);\n    id = toris.push(newTori) - 1;\n    tokenOwner[id] = msg.sender;\n    ownedTokensCount[msg.sender] = ownedTokensCount[msg.sender].add(1);\n\n    approveForSale(0, 1000000000000000);\n  }\n\n\n\n  /*\n  *   Generate random dna, personality, and proficiency level from\n  *   the given quiz & sender address.\n  */\n  function _generateRandomTori(uint8[] _quizzes, string _name, address _owner) private view returns (Tori) {\n    uint256 dna;\n    uint32 proficiency;\n    uint32 personality;\n    (dna, proficiency, personality) = _generateRandomTraits(_quizzes, _name, _owner);\n    return Tori(dna, _name, proficiency, personality, uint32(now));\n  }\n\n  function generateInitialTori(uint8[] _quizzes, string _name) public returns (bool success) {\n    // Generate three new toris.\n    require (ownedTokensCount[msg.sender] == 0);\n    Tori memory newTori = _generateRandomTori(_quizzes, _name, msg.sender);\n    // Push to the book keeping array.\n    uint256 id = toris.push(newTori) - 1;\n    _mint(msg.sender, id);\n\n    emit NewTori(msg.sender, id);\n    return true;\n  }\n\n  function _generateNewTori(uint256 _dna,\n                            uint32 _proficiency,\n                            uint32 _personality,\n                            string _name,\n                            address _owner) onlyWhitelisted private returns (bool success) {\n    require((_dna / DNA_LIMIT == 0) &&\n            (_proficiency >= 0) &&\n            (_proficiency < PROFICIENCY_THRESHOLD.length) &&\n            (_personality >= 0) &&\n            (_personality < PERSONALITY_THRESHOLD.length));\n    // Generate three new toris.\n    Tori memory newTori = Tori(_dna, _name, _proficiency, _personality, uint32(now));\n    // Push to the book keeping array.\n    uint256 id = toris.push(newTori) - 1;\n    _mint(_owner, id);\n    emit NewTori(_owner, id);\n    return true;\n  }\n\n  function generateNewTori(uint256 _dna,\n                            uint32 _proficiency,\n                            uint32 _personality,\n                            string _name,\n                            address _owner) public returns (bool success) {\n    return _generateNewTori(_dna, _proficiency, _personality, _name, _owner);\n  }\n\n  function _burnTori(address _owner, uint256 _tokenId) onlyWhitelisted private returns (bool success) {\n    // Check if for sale\n    // TODO: remove it automatically for now.\n    if (toriSale[_tokenId] > 0) {\n      toriSale[_tokenId] = 0;\n      toriSaleCount = toriSaleCount.sub(1);\n    }\n    _burn(_owner, _tokenId);\n    // TODO: check if burn succeed\n    return true;\n  }\n\n  function burnTori(address _owner, uint256 _tokenId) public returns (bool success) {\n    return _burnTori(_owner, _tokenId);\n  }\n\n  function getTokenIndexes(address _owner) public view returns (uint[]) {\n    uint size = ownedTokensCount[_owner];\n    uint[] memory result = new uint[](size);\n\n    uint idx = 0;\n    for (uint i = 0; i < toris.length; i++) {\n      if (tokenOwner[i] == _owner) {\n        result[idx] = i;\n        idx++;\n      }\n      if (idx >= size) {\n        break;\n      }\n    }\n    return result;\n  }\n\n  function getTokenInfo(uint256 _toriId) public view returns\n                    (uint256 toriId,\n                      uint256 toriDna,\n                      string name,\n                      uint32 proficiency,\n                      uint32 personality,\n                      uint32 readyTime,\n                      uint postingPrice,\n                      address toriOwner) {\n    Tori memory tori = toris[_toriId];\n    toriId = _toriId;\n    toriDna = tori.dna;\n    name = tori.name;\n    proficiency = tori.proficiency;\n    personality = tori.personality;\n    readyTime = tori.readyTime;\n    postingPrice = toriSale[_toriId];\n    toriOwner = tokenOwner[_toriId];\n  }\n\n  function getTokenCount() public view returns (uint256 toriCount) {\n    return ownedTokensCount[msg.sender];\n  }\n\n  function getAllTokensCount() public view returns (uint) {\n    return toris.length;\n  }\n\n\n  // TODO: add functionality for users to change the sale price.\n  function approveForSale(uint256 _tokenId, uint256 _salePrice) public onlyOwnerOf(_tokenId) {\n    require((toriSale[_tokenId] == 0) && (_salePrice > 0));\n    toriSale[_tokenId] = _salePrice;\n    toriSaleCount = toriSaleCount.add(1);\n\n    approve(this, _tokenId);\n  }\n\n  function removeForSale(uint256 _tokenId) public onlyOwnerOf(_tokenId) {\n    require(toriSale[_tokenId] > 0);\n    toriSale[_tokenId] = 0;\n    toriSaleCount = toriSaleCount.sub(1);\n\n    clearApproval(msg.sender, _tokenId);\n  }\n\n  function buyForSale(uint256 _tokenId) public payable {\n    // TODO: does msg.value needs to be exactly equal?\n    require(isApprovedOrOwner(this, _tokenId) &&\n            (toriSale[_tokenId] > 0) &&\n            (msg.value >= toriSale[_tokenId]));\n\n    address _from = ownerOf(_tokenId);\n    // Send the ether.\n    uint256 excess = msg.value - toriSale[_tokenId];\n    if (excess > 0) {\n      msg.sender.transfer(excess);\n      _from.transfer(toriSale[_tokenId]);\n    } else {\n      _from.transfer(msg.value);\n    }\n\n    // Delete sale entry.\n    toriSale[_tokenId] = 0;\n    toriSaleCount = toriSaleCount.sub(1);\n\n    // We want to call this from this contract.\n    this.safeTransferFrom(_from, msg.sender, _tokenId);\n  }\n\n  function retrieveAllForSales() public view returns (uint[]) {\n    uint[] memory result = new uint[](toriSaleCount);\n    uint idx = 0;\n    for (uint i = 0; i < toris.length; i++) {\n      if (toriSale[i] > 0) {\n        result[idx] = i;\n        idx += 1;\n      }\n    }\n    return result;\n  }\n}\n",
  "sourcePath": "/Users/Cindy/Desktop/cs359b/cs359b-cribtori/contracts/ToriToken.sol",
  "compiler": {
    "name": "solc",
    "version": "0.4.21+commit.dfe3193c.Emscripten.clang"
  },
  "schemaVersion": "2.0.0",
  "updatedAt": "2018-05-25T02:24:01.696Z"
}