{
  "contractName": "ToriToken",
  "abi": [
    {
      "anonymous": false,
      "inputs": [
        {
          "indexed": true,
          "name": "_address",
          "type": "address"
        },
        {
          "indexed": false,
          "name": "toriIdx",
          "type": "uint256"
        }
      ],
      "name": "NewTori",
      "type": "event"
    },
    {
      "constant": false,
      "inputs": [
        {
          "name": "quiz",
          "type": "string"
        },
        {
          "name": "name",
          "type": "string"
        }
      ],
      "name": "generateNewTori",
      "outputs": [
        {
          "name": "success",
          "type": "bool"
        }
      ],
      "payable": false,
      "stateMutability": "nonpayable",
      "type": "function"
    },
    {
      "constant": true,
      "inputs": [
        {
          "name": "_owner",
          "type": "address"
        }
      ],
      "name": "getToriIndexes",
      "outputs": [
        {
          "name": "",
          "type": "uint256[]"
        }
      ],
      "payable": false,
      "stateMutability": "view",
      "type": "function"
    },
    {
      "constant": true,
      "inputs": [
        {
          "name": "_toriId",
          "type": "uint256"
        }
      ],
      "name": "getToriInfo",
      "outputs": [
        {
          "name": "toriId",
          "type": "uint256"
        },
        {
          "name": "toriDna",
          "type": "uint256"
        },
        {
          "name": "proficiency",
          "type": "uint32"
        },
        {
          "name": "personality",
          "type": "uint32"
        },
        {
          "name": "readyTime",
          "type": "uint32"
        }
      ],
      "payable": false,
      "stateMutability": "view",
      "type": "function"
    },
    {
      "constant": true,
      "inputs": [],
      "name": "getToriCount",
      "outputs": [
        {
          "name": "toriCount",
          "type": "uint256"
        }
      ],
      "payable": false,
      "stateMutability": "view",
      "type": "function"
    },
    {
      "constant": true,
      "inputs": [],
      "name": "getAllToriCount",
      "outputs": [
        {
          "name": "",
          "type": "uint256"
        }
      ],
      "payable": false,
      "stateMutability": "view",
      "type": "function"
    }
  ],
  "bytecode": "0x6060604052600a600055600260015560028055600054600a0a600355600154600a0a600455600254600a0a600555341561003857600080fd5b6109a6806100476000396000f30060606040526004361061006d576000357c0100000000000000000000000000000000000000000000000000000000900463ffffffff1680631f1324b514610072578063926e9ebf146100e9578063a3ec75fe14610112578063be00f008146101a0578063d43d9ee6146101c9575b600080fd5b341561007d57600080fd5b6100936004808035906020019091905050610281565b604051808681526020018581526020018463ffffffff1663ffffffff1681526020018363ffffffff1663ffffffff1681526020018263ffffffff1663ffffffff1681526020019550505050505060405180910390f35b34156100f457600080fd5b6100fc610361565b6040518082815260200191505060405180910390f35b341561011d57600080fd5b610149600480803573ffffffffffffffffffffffffffffffffffffffff1690602001909190505061036e565b6040518080602001828103825283818151815260200191508051906020019060200280838360005b8381101561018c578082015181840152602081019050610171565b505050509050019250505060405180910390f35b34156101ab57600080fd5b6101b36104b0565b6040518082815260200191505060405180910390f35b34156101d457600080fd5b610267600480803590602001908201803590602001908080601f0160208091040260200160405190810160405280939291908181526020018383808284378201915050505050509190803590602001908201803590602001908080601f016020809104026020016040519081016040528093929190818152602001838380828437820191505050505050919050506104f7565b604051808215151515815260200191505060405180910390f35b600080600080600061029161088d565b6006878154811015156102a057fe5b906000526020600020906002020160806040519081016040529081600082015481526020016001820160009054906101000a900463ffffffff1663ffffffff1663ffffffff1681526020016001820160049054906101000a900463ffffffff1663ffffffff1663ffffffff1681526020016001820160089054906101000a900463ffffffff1663ffffffff1663ffffffff16815250509050868160000151826020015183604001518460600151955095509550955095505091939590929450565b6000600680549050905090565b6103766108c8565b60006103806108c8565b600080600860008773ffffffffffffffffffffffffffffffffffffffff1673ffffffffffffffffffffffffffffffffffffffff168152602001908152602001600020549350836040518059106103d35750595b9080825280602002602001820160405250925060009150600090505b6006805490508110156104a4578573ffffffffffffffffffffffffffffffffffffffff166007600083815260200190815260200160002060009054906101000a900473ffffffffffffffffffffffffffffffffffffffff1673ffffffffffffffffffffffffffffffffffffffff1614156104895780838381518110151561047257fe5b906020019060200201818152505081806001019250505b8382101515610497576104a4565b80806001019150506103ef565b82945050505050919050565b6000600860003373ffffffffffffffffffffffffffffffffffffffff1673ffffffffffffffffffffffffffffffffffffffff16815260200190815260200160002054905090565b600061050161088d565b600080600860003373ffffffffffffffffffffffffffffffffffffffff1673ffffffffffffffffffffffffffffffffffffffff1681526020019081526020016000205414151561055057600080fd5b61055a8585610706565b915060016006805480600101828161057291906108dc565b916000526020600020906002020160008590919091506000820151816000015560208201518160010160006101000a81548163ffffffff021916908363ffffffff16021790555060408201518160010160046101000a81548163ffffffff021916908363ffffffff16021790555060608201518160010160086101000a81548163ffffffff021916908363ffffffff1602179055505050039050336007600083815260200190815260200160002060006101000a81548173ffffffffffffffffffffffffffffffffffffffff021916908373ffffffffffffffffffffffffffffffffffffffff1602179055506001600860003373ffffffffffffffffffffffffffffffffffffffff1673ffffffffffffffffffffffffffffffffffffffff168152602001908152602001600020600082825401925050819055503373ffffffffffffffffffffffffffffffffffffffff167f163090350da897fd03497e870bbe993a1948b39328cd37a8fe6b9179e120dd27826040518082815260200191505060405180910390a260019250505092915050565b61070e61088d565b60008060008042338888604051808581526020018473ffffffffffffffffffffffffffffffffffffffff1673ffffffffffffffffffffffffffffffffffffffff166c0100000000000000000000000002815260140183805190602001908083835b602083101515610794578051825260208201915060208101905060208303925061076f565b6001836020036101000a03801982511681845116808217855250505050505090500182805190602001908083835b6020831015156107e757805182526020820191506020810190506020830392506107c2565b6001836020036101000a03801982511681845116808217855250505050505090500194505050505060405180910390206001900493506003548481151561082a57fe5b0692506004548481151561083a57fe5b0691506005548481151561084a57fe5b0690506080604051908101604052808481526020018363ffffffff1681526020018263ffffffff1681526020014263ffffffff1681525094505050505092915050565b60806040519081016040528060008152602001600063ffffffff168152602001600063ffffffff168152602001600063ffffffff1681525090565b602060405190810160405280600081525090565b81548183558181151161090957600202816002028360005260206000209182019101610908919061090e565b5b505050565b61097791905b80821115610973576000808201600090556001820160006101000a81549063ffffffff02191690556001820160046101000a81549063ffffffff02191690556001820160086101000a81549063ffffffff021916905550600201610914565b5090565b905600a165627a7a7230582063091f2a68d917f8698b4f0f61f58a80a7a0d22fb576d1522d0155f5374fae960029",
  "source": "pragma solidity ^0.4.21;\n\n/* import 'openzeppelin-solidity/contracts/ownership/Ownable.sol'; */\n\ncontract ToriToken {\n\n  uint256 private DNA_DIGIT = 10;\n  uint256 private PROFICIENCY_DIGIT = 2;\n  uint256 private PERSONALITY_DIGIT = 2;\n\n  uint256 private DNA_LIMIT = 10**DNA_DIGIT;\n  uint256 private PROFICIENCY_LIMIT = 10**PROFICIENCY_DIGIT;\n  uint256 private PERSONALITY_LIMIT = 10**PERSONALITY_DIGIT;\n\n  struct Tori {\n    uint256 dna;\n    uint32 proficiency;\n    uint32 personality;\n    uint32 readyTime;\n  }\n\n  Tori[] toris;\n\n  mapping (uint256 => address) toriIndexToAddr;\n  mapping (address => uint256) addrToToriCount;\n\n  event NewTori(address indexed _address, uint256 toriIdx);\n\n  /*\n  *   Generate random dna, personality, and proficiency level from\n  *   the given quiz & sender address.\n  */\n  function _generateRandomTori(string quiz, string name) private view returns (Tori) {\n    // TODO: implement a more detailed Tori generation.\n    uint256 generatedRandomness = uint(keccak256(now, msg.sender, quiz, name));\n    uint256 dna = generatedRandomness % DNA_LIMIT;\n    uint32 proficiency = uint32(generatedRandomness % PROFICIENCY_LIMIT);\n    uint32 personality = uint32(generatedRandomness % PERSONALITY_LIMIT);\n    return Tori(dna, proficiency, personality, uint32(now));\n  }\n\n  function generateNewTori(string quiz, string name) public returns (bool success) {\n    // Generate three new toris.\n    require (addrToToriCount[msg.sender] == 0);\n    Tori memory newTori = _generateRandomTori(quiz, name);\n    // Push to the book keeping array.\n    uint256 id = toris.push(newTori) - 1;\n    toriIndexToAddr[id] = msg.sender;\n    addrToToriCount[msg.sender] += 1;\n\n    emit NewTori(msg.sender, id);\n    return true;\n  }\n\n  function getToriIndexes(address _owner) public view returns (uint[]) {\n    uint size = addrToToriCount[_owner];\n    uint[] memory result = new uint[](size);\n\n    uint idx = 0;\n    for (uint i = 0; i < toris.length; i++) {\n      if (toriIndexToAddr[i] == _owner) {\n        result[idx] = i;\n        idx++;\n      }\n      if (idx >= size) {\n        break;\n      }\n    }\n    return result;\n  }\n\n  function getToriInfo(uint256 _toriId) public view returns\n                    (uint256 toriId, uint256 toriDna, uint32 proficiency,\n                      uint32 personality, uint32 readyTime) {\n    Tori memory tori = toris[_toriId];\n    return (_toriId, tori.dna, tori.proficiency, tori.personality, tori.readyTime);\n  }\n\n  function getToriCount() public view returns (uint256 toriCount) {\n    return addrToToriCount[msg.sender];\n  }\n\n  function getAllToriCount() public view returns (uint) {\n    return toris.length;\n  }\n}\n",
  "sourcePath": "/Users/Cindy/Desktop/cs359b/cs359b-cribtori/contracts/ToriToken.sol",
  "compiler": {
    "name": "solc",
    "version": "0.4.21+commit.dfe3193c.Emscripten.clang"
  },
  "schemaVersion": "2.0.0",
  "updatedAt": "2018-04-29T16:35:19.751Z"
}