{
  "contractName": "ToriOwnership",
  "abi": [
    {
      "constant": true,
      "inputs": [],
      "name": "getTokenCount",
      "outputs": [
        {
          "name": "toriCount",
          "type": "uint256"
        }
      ],
      "payable": false,
      "stateMutability": "view",
      "type": "function"
    },
    {
      "constant": true,
      "inputs": [
        {
          "name": "_owner",
          "type": "address"
        }
      ],
      "name": "getTokenIndexes",
      "outputs": [
        {
          "name": "",
          "type": "uint256[]"
        }
      ],
      "payable": false,
      "stateMutability": "view",
      "type": "function"
    },
    {
      "constant": true,
      "inputs": [
        {
          "name": "_toriId",
          "type": "uint256"
        }
      ],
      "name": "getTokenInfo",
      "outputs": [
        {
          "name": "toriId",
          "type": "uint256"
        },
        {
          "name": "toriDna",
          "type": "uint256"
        },
        {
          "name": "name",
          "type": "string"
        },
        {
          "name": "proficiency",
          "type": "uint32"
        },
        {
          "name": "personality",
          "type": "uint32"
        },
        {
          "name": "readyTime",
          "type": "uint32"
        },
        {
          "name": "postingPrice",
          "type": "uint256"
        }
      ],
      "payable": false,
      "stateMutability": "view",
      "type": "function"
    },
    {
      "constant": true,
      "inputs": [],
      "name": "getAllTokensCount",
      "outputs": [
        {
          "name": "",
          "type": "uint256"
        }
      ],
      "payable": false,
      "stateMutability": "view",
      "type": "function"
    },
    {
      "constant": false,
      "inputs": [
        {
          "name": "_quizzes",
          "type": "uint8[]"
        },
        {
          "name": "_name",
          "type": "string"
        }
      ],
      "name": "generateNewTori",
      "outputs": [
        {
          "name": "success",
          "type": "bool"
        }
      ],
      "payable": false,
      "stateMutability": "nonpayable",
      "type": "function"
    },
    {
      "anonymous": false,
      "inputs": [
        {
          "indexed": true,
          "name": "_from",
          "type": "address"
        },
        {
          "indexed": true,
          "name": "_to",
          "type": "address"
        },
        {
          "indexed": false,
          "name": "_tokenId",
          "type": "uint256"
        }
      ],
      "name": "Transfer",
      "type": "event"
    },
    {
      "anonymous": false,
      "inputs": [
        {
          "indexed": true,
          "name": "_owner",
          "type": "address"
        },
        {
          "indexed": true,
          "name": "_approved",
          "type": "address"
        },
        {
          "indexed": false,
          "name": "_tokenId",
          "type": "uint256"
        }
      ],
      "name": "Approval",
      "type": "event"
    },
    {
      "anonymous": false,
      "inputs": [
        {
          "indexed": true,
          "name": "_owner",
          "type": "address"
        },
        {
          "indexed": true,
          "name": "_operator",
          "type": "address"
        },
        {
          "indexed": false,
          "name": "_approved",
          "type": "bool"
        }
      ],
      "name": "ApprovalForAll",
      "type": "event"
    },
    {
      "anonymous": false,
      "inputs": [
        {
          "indexed": true,
          "name": "_address",
          "type": "address"
        },
        {
          "indexed": false,
          "name": "toriIdx",
          "type": "uint256"
        }
      ],
      "name": "NewTori",
      "type": "event"
    },
    {
      "constant": true,
      "inputs": [],
      "name": "name",
      "outputs": [
        {
          "name": "_name",
          "type": "string"
        }
      ],
      "payable": false,
      "stateMutability": "view",
      "type": "function"
    },
    {
      "constant": true,
      "inputs": [],
      "name": "symbol",
      "outputs": [
        {
          "name": "_symbol",
          "type": "string"
        }
      ],
      "payable": false,
      "stateMutability": "view",
      "type": "function"
    },
    {
      "constant": true,
      "inputs": [
        {
          "name": "_owner",
          "type": "address"
        }
      ],
      "name": "balanceOf",
      "outputs": [
        {
          "name": "_balance",
          "type": "uint256"
        }
      ],
      "payable": false,
      "stateMutability": "view",
      "type": "function"
    },
    {
      "constant": true,
      "inputs": [
        {
          "name": "_tokenId",
          "type": "uint256"
        }
      ],
      "name": "ownerOf",
      "outputs": [
        {
          "name": "_owner",
          "type": "address"
        }
      ],
      "payable": false,
      "stateMutability": "view",
      "type": "function"
    },
    {
      "constant": false,
      "inputs": [
        {
          "name": "_from",
          "type": "address"
        },
        {
          "name": "_to",
          "type": "address"
        },
        {
          "name": "_tokenId",
          "type": "uint256"
        },
        {
          "name": "_data",
          "type": "bytes"
        }
      ],
      "name": "safeTransferFrom",
      "outputs": [],
      "payable": false,
      "stateMutability": "nonpayable",
      "type": "function"
    },
    {
      "constant": false,
      "inputs": [
        {
          "name": "_from",
          "type": "address"
        },
        {
          "name": "_to",
          "type": "address"
        },
        {
          "name": "_tokenId",
          "type": "uint256"
        }
      ],
      "name": "safeTransferFrom",
      "outputs": [],
      "payable": false,
      "stateMutability": "nonpayable",
      "type": "function"
    },
    {
      "constant": false,
      "inputs": [
        {
          "name": "_from",
          "type": "address"
        },
        {
          "name": "_to",
          "type": "address"
        },
        {
          "name": "_tokenId",
          "type": "uint256"
        }
      ],
      "name": "transferFrom",
      "outputs": [],
      "payable": false,
      "stateMutability": "nonpayable",
      "type": "function"
    },
    {
      "constant": false,
      "inputs": [
        {
          "name": "_to",
          "type": "address"
        },
        {
          "name": "_tokenId",
          "type": "uint256"
        }
      ],
      "name": "approve",
      "outputs": [],
      "payable": false,
      "stateMutability": "nonpayable",
      "type": "function"
    },
    {
      "constant": false,
      "inputs": [
        {
          "name": "_operator",
          "type": "address"
        },
        {
          "name": "_approved",
          "type": "bool"
        }
      ],
      "name": "setApprovalForAll",
      "outputs": [],
      "payable": false,
      "stateMutability": "nonpayable",
      "type": "function"
    },
    {
      "constant": true,
      "inputs": [
        {
          "name": "_tokenId",
          "type": "uint256"
        }
      ],
      "name": "getApproved",
      "outputs": [
        {
          "name": "_operator",
          "type": "address"
        }
      ],
      "payable": false,
      "stateMutability": "view",
      "type": "function"
    },
    {
      "constant": true,
      "inputs": [
        {
          "name": "_owner",
          "type": "address"
        },
        {
          "name": "_operator",
          "type": "address"
        }
      ],
      "name": "isApprovedForAll",
      "outputs": [
        {
          "name": "",
          "type": "bool"
        }
      ],
      "payable": false,
      "stateMutability": "view",
      "type": "function"
    },
    {
      "constant": true,
      "inputs": [
        {
          "name": "_tokenId",
          "type": "uint256"
        }
      ],
      "name": "exists",
      "outputs": [
        {
          "name": "_exists",
          "type": "bool"
        }
      ],
      "payable": false,
      "stateMutability": "view",
      "type": "function"
    },
    {
      "constant": false,
      "inputs": [
        {
          "name": "_tokenId",
          "type": "uint256"
        },
        {
          "name": "_salePrice",
          "type": "uint256"
        }
      ],
      "name": "approveForSale",
      "outputs": [],
      "payable": true,
      "stateMutability": "payable",
      "type": "function"
    },
    {
      "constant": false,
      "inputs": [
        {
          "name": "_tokenId",
          "type": "uint256"
        }
      ],
      "name": "removeForSale",
      "outputs": [],
      "payable": true,
      "stateMutability": "payable",
      "type": "function"
    },
    {
      "constant": false,
      "inputs": [
        {
          "name": "_tokenId",
          "type": "uint256"
        }
      ],
      "name": "buyForSale",
      "outputs": [],
      "payable": true,
      "stateMutability": "payable",
      "type": "function"
    },
    {
      "constant": true,
      "inputs": [],
      "name": "retrieveAllForSales",
      "outputs": [
        {
          "name": "",
          "type": "uint256[]"
        }
      ],
      "payable": false,
      "stateMutability": "view",
      "type": "function"
    }
  ],
  "bytecode": "0x6060604052601660005560036001556006600255600054600a0a600355600160025401600a0a600455600154600a0a60055560a060405190810160405280601961ffff168152602001606461ffff16815260200160af61ffff16815260200160c861ffff16815260200161012c61ffff1681525060069060056200008592919062000c61565b50600254600a0a600755608060405190810160405280609661ffff16815260200160c861ffff16815260200161012c61ffff16815260200161015e61ffff168152506008906004620000d992919062000cb9565b50620000e462000d11565b620000ee62000d25565b60006004604051805910620001005750595b9080825280602002602001820160405250925060008360008151811015156200012557fe5b9060200190602002019060ff16908160ff168152505060008360018151811015156200014d57fe5b9060200190602002019060ff16908160ff168152505060008360028151811015156200017557fe5b9060200190602002019060ff16908160ff168152505060008360038151811015156200019d57fe5b9060200190602002019060ff16908160ff168152505062000209836040805190810160405280600481526020017f546f746f0000000000000000000000000000000000000000000000000000000081525033620007bf64010000000002620015e0176401000000009004565b915060016009805480600101828162000223919062000d6f565b916000526020600020906003020160008590919091506000820151816000015560208201518160010190805190602001906200026192919062000da4565b5060408201518160020160006101000a81548163ffffffff021916908363ffffffff16021790555060608201518160020160046101000a81548163ffffffff021916908363ffffffff16021790555060808201518160020160086101000a81548163ffffffff021916908363ffffffff160217905550505003905033600a600083815260200190815260200160002060006101000a81548173ffffffffffffffffffffffffffffffffffffffff021916908373ffffffffffffffffffffffffffffffffffffffff1602179055506001600b60003373ffffffffffffffffffffffffffffffffffffffff1673ffffffffffffffffffffffffffffffffffffffff1681526020019081526020016000206000828254019250508190555060018360018151811015156200038e57fe5b9060200190602002019060ff16908160ff1681525050620003fa836040805190810160405280600481526020017f526972690000000000000000000000000000000000000000000000000000000081525033620007bf64010000000002620015e0176401000000009004565b915060016009805480600101828162000414919062000d6f565b916000526020600020906003020160008590919091506000820151816000015560208201518160010190805190602001906200045292919062000da4565b5060408201518160020160006101000a81548163ffffffff021916908363ffffffff16021790555060608201518160020160046101000a81548163ffffffff021916908363ffffffff16021790555060808201518160020160086101000a81548163ffffffff021916908363ffffffff160217905550505003905033600a600083815260200190815260200160002060006101000a81548173ffffffffffffffffffffffffffffffffffffffff021916908373ffffffffffffffffffffffffffffffffffffffff1602179055506001600b60003373ffffffffffffffffffffffffffffffffffffffff1673ffffffffffffffffffffffffffffffffffffffff1681526020019081526020016000206000828254019250508190555060018360008151811015156200057f57fe5b9060200190602002019060ff16908160ff16815250506001836003815181101515620005a757fe5b9060200190602002019060ff16908160ff168152505062000613836040805190810160405280600481526020017f5269746f0000000000000000000000000000000000000000000000000000000081525033620007bf64010000000002620015e0176401000000009004565b91506001600980548060010182816200062d919062000d6f565b916000526020600020906003020160008590919091506000820151816000015560208201518160010190805190602001906200066b92919062000da4565b5060408201518160020160006101000a81548163ffffffff021916908363ffffffff16021790555060608201518160020160046101000a81548163ffffffff021916908363ffffffff16021790555060808201518160020160086101000a81548163ffffffff021916908363ffffffff160217905550505003905033600a600083815260200190815260200160002060006101000a81548173ffffffffffffffffffffffffffffffffffffffff021916908373ffffffffffffffffffffffffffffffffffffffff1602179055506001600b60003373ffffffffffffffffffffffffffffffffffffffff1673ffffffffffffffffffffffffffffffffffffffff1681526020019081526020016000206000828254019250508190555066038d7ea4c68000600c6000808152602001908152602001600020819055506001600d6000828254019250508190555050505062000f48565b620007c962000d25565b6000806000620007ef87878762000841640100000000026200164a176401000000009004565b80935081945082955050505060a0604051908101604052808481526020018781526020018363ffffffff1681526020018263ffffffff1681526020014263ffffffff1681525093505050509392505050565b600080600080600080428789604051808481526020018373ffffffffffffffffffffffffffffffffffffffff1673ffffffffffffffffffffffffffffffffffffffff166c0100000000000000000000000002815260140182805190602001908083835b602083101515620008cb5780518252602082019150602081019050602083039250620008a4565b6001836020036101000a038019825116818451168082178552505050505050905001935050505060405180910390206001900492504287604051808381526020018273ffffffffffffffffffffffffffffffffffffffff1673ffffffffffffffffffffffffffffffffffffffff166c01000000000000000000000000028152601401925050506040518091039020600190049150828260405180838152602001828152602001925050506040518091039020600190049050600354818115156200099157fe5b06955060055486811515620009a257fe5b069450600554600754811515620009b557fe5b0460075487811515620009c457fe5b06811515620009cf57fe5b04935062000a4485600680548060200260200160405190810160405280929190818152602001828054801562000a2557602002820191906000526020600020905b81548152602001906001019080831162000a10575b505050505062000a856401000000000262001858176401000000009004565b945062000a66898562000af764010000000002620018c5176401000000009004565b93506004548681151562000a7657fe5b04955050505093509350939050565b60008060008060009250600091505b845182101562000ae657848281518110151562000aad57fe5b9060200190602002015190508083018663ffffffff16101562000ad35781935062000aee565b8083019250818060010192505062000a94565b600185510393505b50505092915050565b600062000b0362000e2b565b600080600080600880548060200260200160405190810160405280929190818152602001828054801562000b5757602002820191906000526020600020905b81548152602001906001019080831162000b42575b5050505050945060009350600092505b875183101562000b9f57878381518110151562000b8057fe5b9060200190602002015160ff1684019350828060010193505062000b67565b6001885103600a02915060008411801562000bba5750875184105b1562000c3457600092505b875183101562000c3357878381518110151562000bde57fe5b9060200190602002015160ff1688510290508381039050808281151562000c0157fe5b04858481518110151562000c1157fe5b9060200190602002018181510191508181525050828060010193505062000bc5565b5b62000c54878662000a856401000000000262001858176401000000009004565b9550505050505092915050565b82805482825590600052602060002090810192821562000ca6579160200282015b8281111562000ca5578251829061ffff1690559160200191906001019062000c82565b5b50905062000cb5919062000e3f565b5090565b82805482825590600052602060002090810192821562000cfe579160200282015b8281111562000cfd578251829061ffff1690559160200191906001019062000cda565b5b50905062000d0d919062000e3f565b5090565b602060405190810160405280600081525090565b60a0604051908101604052806000815260200162000d4262000e67565b8152602001600063ffffffff168152602001600063ffffffff168152602001600063ffffffff1681525090565b81548183558181151162000d9f5760030281600302836000526020600020918201910162000d9e919062000e7b565b5b505050565b828054600181600116156101000203166002900490600052602060002090601f016020900481019282601f1062000de757805160ff191683800117855562000e18565b8280016001018555821562000e18579182015b8281111562000e1757825182559160200191906001019062000dfa565b5b50905062000e27919062000e3f565b5090565b602060405190810160405280600081525090565b62000e6491905b8082111562000e6057600081600090555060010162000e46565b5090565b90565b602060405190810160405280600081525090565b62000ef991905b8082111562000ef55760008082016000905560018201600062000ea6919062000efc565b6002820160006101000a81549063ffffffff02191690556002820160046101000a81549063ffffffff02191690556002820160086101000a81549063ffffffff02191690555060030162000e82565b5090565b90565b50805460018160011615610100020316600290046000825580601f1062000f24575062000f45565b601f01602090049060005260206000209081019062000f44919062000e3f565b5b50565b611c568062000f586000396000f30060606040526004361061011d576000357c0100000000000000000000000000000000000000000000000000000000900463ffffffff16806306fdde0314610122578063081812fc146101b0578063095ea7b314610213578063120e22e41461025557806323b872dd1461027657806342842e0e146102d75780634f558e79146103385780636352211e146103735780636b8667f5146103d657806370a08231146103ee57806378a895671461043b57806380507b57146104645780638c7a63ae146104f2578063933b5454146105dc57806395d89b4114610605578063a22cb46514610693578063b438314f146106d7578063b88d4fde146106ef578063be928c9214610793578063e985e9c5146107fd578063f54292651461086d575b600080fd5b341561012d57600080fd5b610135610922565b6040518080602001828103825283818151815260200191508051906020019080838360005b8381101561017557808201518184015260208101905061015a565b50505050905090810190601f1680156101a25780820380516001836020036101000a031916815260200191505b509250505060405180910390f35b34156101bb57600080fd5b6101d16004808035906020019091905050610965565b604051808273ffffffffffffffffffffffffffffffffffffffff1673ffffffffffffffffffffffffffffffffffffffff16815260200191505060405180910390f35b341561021e57600080fd5b610253600480803573ffffffffffffffffffffffffffffffffffffffff1690602001909190803590602001909190505061096f565b005b6102746004808035906020019091908035906020019091905050610a99565b005b341561028157600080fd5b6102d5600480803573ffffffffffffffffffffffffffffffffffffffff1690602001909190803573ffffffffffffffffffffffffffffffffffffffff16906020019091908035906020019091905050610b63565b005b34156102e257600080fd5b610336600480803573ffffffffffffffffffffffffffffffffffffffff1690602001909190803573ffffffffffffffffffffffffffffffffffffffff16906020019091908035906020019091905050610be2565b005b341561034357600080fd5b6103596004808035906020019091905050610be7565b604051808215151515815260200191505060405180910390f35b341561037e57600080fd5b6103946004808035906020019091905050610bf1565b604051808273ffffffffffffffffffffffffffffffffffffffff1673ffffffffffffffffffffffffffffffffffffffff16815260200191505060405180910390f35b6103ec6004808035906020019091905050610c2e565b005b34156103f957600080fd5b610425600480803573ffffffffffffffffffffffffffffffffffffffff16906020019091905050610cea565b6040518082815260200191505060405180910390f35b341561044657600080fd5b61044e610d33565b6040518082815260200191505060405180910390f35b341561046f57600080fd5b61049b600480803573ffffffffffffffffffffffffffffffffffffffff16906020019091905050610d7a565b6040518080602001828103825283818151815260200191508051906020019060200280838360005b838110156104de5780820151818401526020810190506104c3565b505050509050019250505060405180910390f35b34156104fd57600080fd5b6105136004808035906020019091905050610ebc565b60405180888152602001878152602001806020018663ffffffff1663ffffffff1681526020018563ffffffff1663ffffffff1681526020018463ffffffff1663ffffffff168152602001838152602001828103825287818151815260200191508051906020019080838360005b8381101561059b578082015181840152602081019050610580565b50505050905090810190601f1680156105c85780820380516001836020036101000a031916815260200191505b509850505050505050505060405180910390f35b34156105e757600080fd5b6105ef611066565b6040518082815260200191505060405180910390f35b341561061057600080fd5b610618611073565b6040518080602001828103825283818151815260200191508051906020019080838360005b8381101561065857808201518184015260208101905061063d565b50505050905090810190601f1680156106855780820380516001836020036101000a031916815260200191505b509250505060405180910390f35b341561069e57600080fd5b6106d5600480803573ffffffffffffffffffffffffffffffffffffffff1690602001909190803515159060200190919050506110b6565b005b6106ed60048080359060200190919050506110ba565b005b34156106fa57600080fd5b610791600480803573ffffffffffffffffffffffffffffffffffffffff1690602001909190803573ffffffffffffffffffffffffffffffffffffffff1690602001909190803590602001909190803590602001908201803590602001908080601f016020809104026020016040519081016040528093929190818152602001838380828437820191505050505050919050506111a8565b005b341561079e57600080fd5b6107a66111ae565b6040518080602001828103825283818151815260200191508051906020019060200280838360005b838110156107e95780820151818401526020810190506107ce565b505050509050019250505060405180910390f35b341561080857600080fd5b610853600480803573ffffffffffffffffffffffffffffffffffffffff1690602001909190803573ffffffffffffffffffffffffffffffffffffffff16906020019091905050611250565b604051808215151515815260200191505060405180910390f35b341561087857600080fd5b61090860048080359060200190820180359060200190808060200260200160405190810160405280939291908181526020018383602002808284378201915050505050509190803590602001908201803590602001908080601f0160208091040260200160405190810160405280939291908181526020018383808284378201915050505050509190505061125b565b604051808215151515815260200191505060405180910390f35b61092a611a0b565b6040805190810160405280600a81526020017f546f726920546f6b656e00000000000000000000000000000000000000000000815250905090565b6000339050919050565b803373ffffffffffffffffffffffffffffffffffffffff16600a600083815260200190815260200160002060009054906101000a900473ffffffffffffffffffffffffffffffffffffffff1673ffffffffffffffffffffffffffffffffffffffff161415156109dd57600080fd5b82600e600084815260200190815260200160002060006101000a81548173ffffffffffffffffffffffffffffffffffffffff021916908373ffffffffffffffffffffffffffffffffffffffff1602179055508273ffffffffffffffffffffffffffffffffffffffff163373ffffffffffffffffffffffffffffffffffffffff167f8c5be1e5ebec7d5bd14f71427d1e84f3dd0314c0f7b2291e5b200ac8c7c3b925846040518082815260200191505060405180910390a3505050565b813373ffffffffffffffffffffffffffffffffffffffff16600a600083815260200190815260200160002060009054906101000a900473ffffffffffffffffffffffffffffffffffffffff1673ffffffffffffffffffffffffffffffffffffffff16141515610b0757600080fd5b6000600c600085815260200190815260200160002054148015610b2a5750600082115b1515610b3557600080fd5b81600c6000858152602001908152602001600020819055506001600d60008282540192505081905550505050565b803373ffffffffffffffffffffffffffffffffffffffff16600a600083815260200190815260200160002060009054906101000a900473ffffffffffffffffffffffffffffffffffffffff1673ffffffffffffffffffffffffffffffffffffffff16141515610bd157600080fd5b610bdc848484611488565b50505050565b505050565b6000809050919050565b6000600a600083815260200190815260200160002060009054906101000a900473ffffffffffffffffffffffffffffffffffffffff169050919050565b803373ffffffffffffffffffffffffffffffffffffffff16600a600083815260200190815260200160002060009054906101000a900473ffffffffffffffffffffffffffffffffffffffff1673ffffffffffffffffffffffffffffffffffffffff16141515610c9c57600080fd5b6000600c600084815260200190815260200160002054111515610cbe57600080fd5b600c6000838152602001908152602001600020600090556001600d600082825403925050819055505050565b6000600b60008373ffffffffffffffffffffffffffffffffffffffff1673ffffffffffffffffffffffffffffffffffffffff168152602001908152602001600020549050919050565b6000600b60003373ffffffffffffffffffffffffffffffffffffffff1673ffffffffffffffffffffffffffffffffffffffff16815260200190815260200160002054905090565b610d82611a1f565b6000610d8c611a1f565b600080600b60008773ffffffffffffffffffffffffffffffffffffffff1673ffffffffffffffffffffffffffffffffffffffff16815260200190815260200160002054935083604051805910610ddf5750595b9080825280602002602001820160405250925060009150600090505b600980549050811015610eb0578573ffffffffffffffffffffffffffffffffffffffff16600a600083815260200190815260200160002060009054906101000a900473ffffffffffffffffffffffffffffffffffffffff1673ffffffffffffffffffffffffffffffffffffffff161415610e9557808383815181101515610e7e57fe5b906020019060200201818152505081806001019250505b8382101515610ea357610eb0565b8080600101915050610dfb565b82945050505050919050565b600080610ec7611a0b565b600080600080610ed5611a33565b600989815481101515610ee457fe5b906000526020600020906003020160a0604051908101604052908160008201548152602001600182018054600181600116156101000203166002900480601f016020809104026020016040519081016040528092919081815260200182805460018160011615610100020316600290048015610fa15780601f10610f7657610100808354040283529160200191610fa1565b820191906000526020600020905b815481529060010190602001808311610f8457829003601f168201915b505050505081526020016002820160009054906101000a900463ffffffff1663ffffffff1663ffffffff1681526020016002820160049054906101000a900463ffffffff1663ffffffff1663ffffffff1681526020016002820160089054906101000a900463ffffffff1663ffffffff1663ffffffff168152505090508897508060000151965080602001519550806040015194508060600151935080608001519250600c60008a815260200190815260200160002054915050919395979092949650565b6000600980549050905090565b61107b611a0b565b6040805190810160405280600481526020017f544f524900000000000000000000000000000000000000000000000000000000815250905090565b5050565b600080600c6000848152602001908152602001600020541180156110f05750600c60008381526020019081526020016000205434145b15156110fb57600080fd5b600a600083815260200190815260200160002060009054906101000a900473ffffffffffffffffffffffffffffffffffffffff16905061113c813384611488565b8073ffffffffffffffffffffffffffffffffffffffff166108fc349081150290604051600060405180830381858888f19350505050151561117c57600080fd5b600c6000838152602001908152602001600020600090556001600d600082825403925050819055505050565b50505050565b6111b6611a1f565b6111be611a1f565b600080600d546040518059106111d15750595b9080825280602002602001820160405250925060009150600090505b600980549050811015611247576000600c600083815260200190815260200160002054111561123a5780838381518110151561122557fe5b90602001906020020181815250506001820191505b80806001019150506111ed565b82935050505090565b600080905092915050565b6000611265611a33565b600080600b60003373ffffffffffffffffffffffffffffffffffffffff1673ffffffffffffffffffffffffffffffffffffffff168152602001908152602001600020541415156112b457600080fd5b6112bf8585336115e0565b91506001600980548060010182816112d79190611a7b565b91600052602060002090600302016000859091909150600082015181600001556020820151816001019080519060200190611313929190611aad565b5060408201518160020160006101000a81548163ffffffff021916908363ffffffff16021790555060608201518160020160046101000a81548163ffffffff021916908363ffffffff16021790555060808201518160020160086101000a81548163ffffffff021916908363ffffffff160217905550505003905033600a600083815260200190815260200160002060006101000a81548173ffffffffffffffffffffffffffffffffffffffff021916908373ffffffffffffffffffffffffffffffffffffffff1602179055506001600b60003373ffffffffffffffffffffffffffffffffffffffff1673ffffffffffffffffffffffffffffffffffffffff168152602001908152602001600020600082825401925050819055503373ffffffffffffffffffffffffffffffffffffffff167f163090350da897fd03497e870bbe993a1948b39328cd37a8fe6b9179e120dd27826040518082815260200191505060405180910390a260019250505092915050565b6001600b60008473ffffffffffffffffffffffffffffffffffffffff1673ffffffffffffffffffffffffffffffffffffffff168152602001908152602001600020600082825401925050819055506001600b60003373ffffffffffffffffffffffffffffffffffffffff1673ffffffffffffffffffffffffffffffffffffffff1681526020019081526020016000206000828254039250508190555081600a600083815260200190815260200160002060006101000a81548173ffffffffffffffffffffffffffffffffffffffff021916908373ffffffffffffffffffffffffffffffffffffffff1602179055508173ffffffffffffffffffffffffffffffffffffffff168373ffffffffffffffffffffffffffffffffffffffff167fddf252ad1be2c89b69c2b068fc378daa952ba7f163c4a11628f55a4df523b3ef836040518082815260200191505060405180910390a3505050565b6115e8611a33565b60008060006115f887878761164a565b80935081945082955050505060a0604051908101604052808481526020018781526020018363ffffffff1681526020018263ffffffff1681526020014263ffffffff1681525093505050509392505050565b600080600080600080428789604051808481526020018373ffffffffffffffffffffffffffffffffffffffff1673ffffffffffffffffffffffffffffffffffffffff166c0100000000000000000000000002815260140182805190602001908083835b6020831015156116d257805182526020820191506020810190506020830392506116ad565b6001836020036101000a038019825116818451168082178552505050505050905001935050505060405180910390206001900492504287604051808381526020018273ffffffffffffffffffffffffffffffffffffffff1673ffffffffffffffffffffffffffffffffffffffff166c010000000000000000000000000281526014019250505060405180910390206001900491508282604051808381526020018281526020019250505060405180910390206001900490506003548181151561179757fe5b069550600554868115156117a757fe5b0694506005546007548115156117b957fe5b04600754878115156117c757fe5b068115156117d157fe5b04935061182e85600680548060200260200160405190810160405280929190818152602001828054801561182457602002820191906000526020600020905b815481526020019060010190808311611810575b5050505050611858565b945061183a89856118c5565b93506004548681151561184957fe5b04955050505093509350939050565b60008060008060009250600091505b84518210156118b457848281518110151561187e57fe5b9060200190602002015190508083018663ffffffff1610156118a2578193506118bc565b80830192508180600101925050611867565b600185510393505b50505092915050565b60006118cf611a1f565b600080600080600880548060200260200160405190810160405280929190818152602001828054801561192157602002820191906000526020600020905b81548152602001906001019080831161190d575b5050505050945060009350600092505b875183101561196657878381518110151561194857fe5b9060200190602002015160ff16840193508280600101935050611931565b6001885103600a0291506000841180156119805750875184105b156119f457600092505b87518310156119f35787838151811015156119a157fe5b9060200190602002015160ff168851029050838103905080828115156119c357fe5b0485848151811015156119d257fe5b9060200190602002018181510191508181525050828060010193505061198a565b5b6119fe8786611858565b9550505050505092915050565b602060405190810160405280600081525090565b602060405190810160405280600081525090565b60a06040519081016040528060008152602001611a4e611b2d565b8152602001600063ffffffff168152602001600063ffffffff168152602001600063ffffffff1681525090565b815481835581811511611aa857600302816003028360005260206000209182019101611aa79190611b41565b5b505050565b828054600181600116156101000203166002900490600052602060002090601f016020900481019282601f10611aee57805160ff1916838001178555611b1c565b82800160010185558215611b1c579182015b82811115611b1b578251825591602001919060010190611b00565b5b509050611b299190611bbd565b5090565b602060405190810160405280600081525090565b611bba91905b80821115611bb657600080820160009055600182016000611b689190611be2565b6002820160006101000a81549063ffffffff02191690556002820160046101000a81549063ffffffff02191690556002820160086101000a81549063ffffffff021916905550600301611b47565b5090565b90565b611bdf91905b80821115611bdb576000816000905550600101611bc3565b5090565b90565b50805460018160011615610100020316600290046000825580601f10611c085750611c27565b601f016020900490600052602060002090810190611c269190611bbd565b5b505600a165627a7a72305820397645d697e51b7ffc1e48d630eab035fd56452aecdb723838a666bac7f7a8ed0029",
  "source": "pragma solidity ^0.4.21;\n\nimport './ToriToken.sol';\nimport 'openzeppelin-solidity/contracts/token/ERC721/ERC721Basic.sol';\n\ncontract ToriOwnership is ToriToken, ERC721Basic {\n  /*\n  ERC721 compliant functions\n  */\n  mapping (uint => address) toriApprovals;\n\n  modifier onlyOwnerOf(uint256 _tokenId) {\n    require(toriIndexToAddr[_tokenId] == msg.sender);\n    _;\n  }\n\n  function name() public view returns (string _name) {\n    return \"Tori Token\";\n  }\n\n  function symbol() public view returns (string _symbol) {\n    return \"TORI\";\n  }\n\n  function balanceOf(address _owner) public view returns (uint256 _balance) {\n    return addrToToriCount[_owner];\n  }\n\n  function ownerOf(uint256 _tokenId) public view returns (address _owner) {\n    return toriIndexToAddr[_tokenId];\n  }\n\n  function safeTransferFrom(address _from, address _to, uint256 _tokenId) public {\n    // TODO:\n  }\n\n  function safeTransferFrom(\n    address _from,\n    address _to,\n    uint256 _tokenId,\n    bytes _data\n  )\n    public {\n    // TODO:\n  }\n\n\n  function _transfer(address _from, address _to, uint256 _tokenId) private {\n    // Modify the counts.\n    addrToToriCount[_to] += 1;\n    addrToToriCount[msg.sender] -= 1;\n\n    toriIndexToAddr[_tokenId] = _to;\n    emit Transfer(_from, _to, _tokenId);\n  }\n\n  function transferFrom(address _from, address _to, uint256 _tokenId) public onlyOwnerOf(_tokenId) {\n    _transfer(_from, _to, _tokenId);\n  }\n\n  function approve(address _to, uint256 _tokenId) public onlyOwnerOf(_tokenId) {\n    toriApprovals[_tokenId] = _to;\n    emit Approval(msg.sender, _to, _tokenId);\n  }\n\n  function setApprovalForAll(address _operator, bool _approved) public {\n    // TODO\n  }\n\n  function getApproved(uint256 _tokenId) public view returns (address _operator) {\n    // TODO\n    return msg.sender;\n  }\n\n  function isApprovedForAll(address _owner, address _operator) public view returns (bool) {\n    // TODO\n    return false;\n  }\n\n  function exists(uint256 _tokenId) public view returns (bool _exists) {\n    // TODO\n    return false;\n  }\n\n\n  // TODO: add functionality for users to change the sale price.\n  function approveForSale(uint256 _tokenId, uint256 _salePrice) external payable onlyOwnerOf(_tokenId) {\n    require((toriSale[_tokenId] == 0) && (_salePrice > 0));\n    toriSale[_tokenId] = _salePrice;\n    toriSaleCount += 1;\n    // TODO: emit event here.\n  }\n\n  function removeForSale(uint256 _tokenId) external payable onlyOwnerOf(_tokenId) {\n    require(toriSale[_tokenId] > 0);\n    delete toriSale[_tokenId];\n    toriSaleCount -= 1;\n    // TODO: emit event here.\n  }\n\n  function buyForSale(uint256 _tokenId) external payable {\n    require((toriSale[_tokenId] > 0) && (msg.value == toriSale[_tokenId]));\n    address _from = toriIndexToAddr[_tokenId];\n    _transfer(_from, msg.sender, _tokenId);\n    // Send the ether.\n    _from.transfer(msg.value);\n    // Delete sale entry.\n    delete toriSale[_tokenId];\n    toriSaleCount -= 1;\n    // TODO: emit event here.\n  }\n\n  function retrieveAllForSales() public view returns (uint[]) {\n    uint[] memory result = new uint[](toriSaleCount);\n    uint idx = 0;\n    for (uint i = 0; i < toris.length; i++) {\n      if (toriSale[i] > 0) {\n        result[idx] = i;\n        idx += 1;\n      }\n    }\n    return result;\n  }\n\n}\n",
  "sourcePath": "/Users/Cindy/Desktop/cs359b/cs359b-cribtori/contracts/ToriOwnership.sol",
  "compiler": {
    "name": "solc",
    "version": "0.4.21+commit.dfe3193c.Emscripten.clang"
  },
  "schemaVersion": "2.0.0",
  "updatedAt": "2018-05-04T09:24:04.329Z"
}