{
  "contractName": "ToriOwnership",
  "abi": [
    {
      "constant": true,
      "inputs": [],
      "name": "getTokenCount",
      "outputs": [
        {
          "name": "toriCount",
          "type": "uint256"
        }
      ],
      "payable": false,
      "stateMutability": "view",
      "type": "function"
    },
    {
      "constant": true,
      "inputs": [
        {
          "name": "_owner",
          "type": "address"
        }
      ],
      "name": "getTokenIndexes",
      "outputs": [
        {
          "name": "",
          "type": "uint256[]"
        }
      ],
      "payable": false,
      "stateMutability": "view",
      "type": "function"
    },
    {
      "constant": true,
      "inputs": [
        {
          "name": "_toriId",
          "type": "uint256"
        }
      ],
      "name": "getTokenInfo",
      "outputs": [
        {
          "name": "toriId",
          "type": "uint256"
        },
        {
          "name": "toriDna",
          "type": "uint256"
        },
        {
          "name": "proficiency",
          "type": "uint32"
        },
        {
          "name": "personality",
          "type": "uint32"
        },
        {
          "name": "readyTime",
          "type": "uint32"
        },
        {
          "name": "postingPrice",
          "type": "uint256"
        }
      ],
      "payable": false,
      "stateMutability": "view",
      "type": "function"
    },
    {
      "constant": true,
      "inputs": [],
      "name": "getAllTokensCount",
      "outputs": [
        {
          "name": "",
          "type": "uint256"
        }
      ],
      "payable": false,
      "stateMutability": "view",
      "type": "function"
    },
    {
      "constant": false,
      "inputs": [
        {
          "name": "_quiz",
          "type": "string"
        },
        {
          "name": "_name",
          "type": "string"
        }
      ],
      "name": "generateNewTori",
      "outputs": [
        {
          "name": "success",
          "type": "bool"
        }
      ],
      "payable": false,
      "stateMutability": "nonpayable",
      "type": "function"
    },
    {
      "anonymous": false,
      "inputs": [
        {
          "indexed": true,
          "name": "_from",
          "type": "address"
        },
        {
          "indexed": true,
          "name": "_to",
          "type": "address"
        },
        {
          "indexed": false,
          "name": "_tokenId",
          "type": "uint256"
        }
      ],
      "name": "Transfer",
      "type": "event"
    },
    {
      "anonymous": false,
      "inputs": [
        {
          "indexed": true,
          "name": "_owner",
          "type": "address"
        },
        {
          "indexed": true,
          "name": "_approved",
          "type": "address"
        },
        {
          "indexed": false,
          "name": "_tokenId",
          "type": "uint256"
        }
      ],
      "name": "Approval",
      "type": "event"
    },
    {
      "anonymous": false,
      "inputs": [
        {
          "indexed": true,
          "name": "_owner",
          "type": "address"
        },
        {
          "indexed": true,
          "name": "_operator",
          "type": "address"
        },
        {
          "indexed": false,
          "name": "_approved",
          "type": "bool"
        }
      ],
      "name": "ApprovalForAll",
      "type": "event"
    },
    {
      "anonymous": false,
      "inputs": [
        {
          "indexed": true,
          "name": "_address",
          "type": "address"
        },
        {
          "indexed": false,
          "name": "toriIdx",
          "type": "uint256"
        }
      ],
      "name": "NewTori",
      "type": "event"
    },
    {
      "constant": true,
      "inputs": [],
      "name": "name",
      "outputs": [
        {
          "name": "_name",
          "type": "string"
        }
      ],
      "payable": false,
      "stateMutability": "view",
      "type": "function"
    },
    {
      "constant": true,
      "inputs": [],
      "name": "symbol",
      "outputs": [
        {
          "name": "_symbol",
          "type": "string"
        }
      ],
      "payable": false,
      "stateMutability": "view",
      "type": "function"
    },
    {
      "constant": true,
      "inputs": [
        {
          "name": "_owner",
          "type": "address"
        }
      ],
      "name": "balanceOf",
      "outputs": [
        {
          "name": "_balance",
          "type": "uint256"
        }
      ],
      "payable": false,
      "stateMutability": "view",
      "type": "function"
    },
    {
      "constant": true,
      "inputs": [
        {
          "name": "_tokenId",
          "type": "uint256"
        }
      ],
      "name": "ownerOf",
      "outputs": [
        {
          "name": "_owner",
          "type": "address"
        }
      ],
      "payable": false,
      "stateMutability": "view",
      "type": "function"
    },
    {
      "constant": false,
      "inputs": [
        {
          "name": "_from",
          "type": "address"
        },
        {
          "name": "_to",
          "type": "address"
        },
        {
          "name": "_tokenId",
          "type": "uint256"
        }
      ],
      "name": "safeTransferFrom",
      "outputs": [],
      "payable": true,
      "stateMutability": "payable",
      "type": "function"
    },
    {
      "constant": false,
      "inputs": [
        {
          "name": "_from",
          "type": "address"
        },
        {
          "name": "_to",
          "type": "address"
        },
        {
          "name": "_tokenId",
          "type": "uint256"
        },
        {
          "name": "data",
          "type": "bytes"
        }
      ],
      "name": "safeTransferFrom",
      "outputs": [],
      "payable": true,
      "stateMutability": "payable",
      "type": "function"
    },
    {
      "constant": false,
      "inputs": [
        {
          "name": "_from",
          "type": "address"
        },
        {
          "name": "_to",
          "type": "address"
        },
        {
          "name": "_tokenId",
          "type": "uint256"
        }
      ],
      "name": "transferFrom",
      "outputs": [],
      "payable": true,
      "stateMutability": "payable",
      "type": "function"
    },
    {
      "constant": false,
      "inputs": [
        {
          "name": "_to",
          "type": "address"
        },
        {
          "name": "_tokenId",
          "type": "uint256"
        }
      ],
      "name": "approve",
      "outputs": [],
      "payable": true,
      "stateMutability": "payable",
      "type": "function"
    },
    {
      "constant": false,
      "inputs": [
        {
          "name": "_operator",
          "type": "address"
        },
        {
          "name": "_approved",
          "type": "bool"
        }
      ],
      "name": "setApprovalForAll",
      "outputs": [],
      "payable": false,
      "stateMutability": "nonpayable",
      "type": "function"
    },
    {
      "constant": true,
      "inputs": [
        {
          "name": "_tokenId",
          "type": "uint256"
        }
      ],
      "name": "getApproved",
      "outputs": [
        {
          "name": "",
          "type": "address"
        }
      ],
      "payable": false,
      "stateMutability": "view",
      "type": "function"
    },
    {
      "constant": true,
      "inputs": [
        {
          "name": "_owner",
          "type": "address"
        },
        {
          "name": "_operator",
          "type": "address"
        }
      ],
      "name": "isApprovedForAll",
      "outputs": [
        {
          "name": "",
          "type": "bool"
        }
      ],
      "payable": false,
      "stateMutability": "view",
      "type": "function"
    },
    {
      "constant": true,
      "inputs": [
        {
          "name": "interfaceID",
          "type": "bytes4"
        }
      ],
      "name": "supportsInterface",
      "outputs": [
        {
          "name": "",
          "type": "bool"
        }
      ],
      "payable": false,
      "stateMutability": "view",
      "type": "function"
    },
    {
      "constant": false,
      "inputs": [
        {
          "name": "_tokenId",
          "type": "uint256"
        },
        {
          "name": "_salePrice",
          "type": "uint256"
        }
      ],
      "name": "approveForSale",
      "outputs": [],
      "payable": true,
      "stateMutability": "payable",
      "type": "function"
    },
    {
      "constant": false,
      "inputs": [
        {
          "name": "_tokenId",
          "type": "uint256"
        }
      ],
      "name": "removeForSale",
      "outputs": [],
      "payable": true,
      "stateMutability": "payable",
      "type": "function"
    },
    {
      "constant": false,
      "inputs": [
        {
          "name": "_tokenId",
          "type": "uint256"
        }
      ],
      "name": "buyForSale",
      "outputs": [],
      "payable": true,
      "stateMutability": "payable",
      "type": "function"
    },
    {
      "constant": true,
      "inputs": [],
      "name": "retrieveAllForSales",
      "outputs": [
        {
          "name": "",
          "type": "uint256[]"
        }
      ],
      "payable": false,
      "stateMutability": "view",
      "type": "function"
    }
  ],
  "bytecode": "0x6060604052600a600055600260015560028055600054600a0a600355600154600a0a600455600254600a0a6005556000806200003a62000406565b600060039350600092505b838310156200023b57620000d96040805190810160405280600681526020017f73616d706c6500000000000000000000000000000000000000000000000000008152506040805190810160405280600681526020017f73616d706c6500000000000000000000000000000000000000000000000000008152503362000275640100000000026200146c176401000000009004565b9150600160068054806001018281620000f3919062000441565b916000526020600020906002020160008590919091506000820151816000015560208201518160010160006101000a81548163ffffffff021916908363ffffffff16021790555060408201518160010160046101000a81548163ffffffff021916908363ffffffff16021790555060608201518160010160086101000a81548163ffffffff021916908363ffffffff1602179055505050039050336007600083815260200190815260200160002060006101000a81548173ffffffffffffffffffffffffffffffffffffffff021916908373ffffffffffffffffffffffffffffffffffffffff1602179055506001600860003373ffffffffffffffffffffffffffffffffffffffff1673ffffffffffffffffffffffffffffffffffffffff16815260200190815260200160002060008282540192505081905550828060010193505062000045565b66038d7ea4c6800060096000808152602001908152602001600020819055506001600a6000828254019250508190555050505050620004e5565b6200027f62000406565b60008060008042868989604051808581526020018473ffffffffffffffffffffffffffffffffffffffff1673ffffffffffffffffffffffffffffffffffffffff166c0100000000000000000000000002815260140183805190602001908083835b602083101515620003075780518252602082019150602081019050602083039250620002e0565b6001836020036101000a03801982511681845116808217855250505050505090500182805190602001908083835b6020831015156200035c578051825260208201915060208101905060208303925062000335565b6001836020036101000a038019825116818451168082178552505050505050905001945050505050604051809103902060019004935060035484811515620003a057fe5b06925060045484811515620003b157fe5b06915060055484811515620003c257fe5b0690506080604051908101604052808481526020018363ffffffff1681526020018263ffffffff1681526020014263ffffffff168152509450505050509392505050565b60806040519081016040528060008152602001600063ffffffff168152602001600063ffffffff168152602001600063ffffffff1681525090565b815481835581811511620004715760020281600202836000526020600020918201910162000470919062000476565b5b505050565b620004e291905b80821115620004de576000808201600090556001820160006101000a81549063ffffffff02191690556001820160046101000a81549063ffffffff02191690556001820160086101000a81549063ffffffff0219169055506002016200047d565b5090565b90565b61172180620004f56000396000f30060606040526004361061011d576000357c0100000000000000000000000000000000000000000000000000000000900463ffffffff16806301ffc9a71461012257806306fdde031461017c578063081812fc1461020a578063095ea7b31461026d578063120e22e4146102a457806323b872dd146102c557806342842e0e1461031b5780636352211e146103715780636b8667f5146103d457806370a08231146103ec57806378a895671461043957806380507b57146104625780638c7a63ae146104f0578063933b54541461056e57806395d89b4114610597578063a22cb46514610625578063b438314f14610669578063b88d4fde14610681578063be928c92146106eb578063d43d9ee614610755578063e985e9c51461080d575b600080fd5b341561012d57600080fd5b61016260048080357bffffffffffffffffffffffffffffffffffffffffffffffffffffffff191690602001909190505061087d565b604051808215151515815260200191505060405180910390f35b341561018757600080fd5b61018f610887565b6040518080602001828103825283818151815260200191508051906020019080838360005b838110156101cf5780820151818401526020810190506101b4565b50505050905090810190601f1680156101fc5780820380516001836020036101000a031916815260200191505b509250505060405180910390f35b341561021557600080fd5b61022b60048080359060200190919050506108ca565b604051808273ffffffffffffffffffffffffffffffffffffffff1673ffffffffffffffffffffffffffffffffffffffff16815260200191505060405180910390f35b6102a2600480803573ffffffffffffffffffffffffffffffffffffffff169060200190919080359060200190919050506108d4565b005b6102c360048080359060200190919080359060200190919050506109fe565b005b610319600480803573ffffffffffffffffffffffffffffffffffffffff1690602001909190803573ffffffffffffffffffffffffffffffffffffffff16906020019091908035906020019091905050610ac8565b005b61036f600480803573ffffffffffffffffffffffffffffffffffffffff1690602001909190803573ffffffffffffffffffffffffffffffffffffffff16906020019091908035906020019091905050610b47565b005b341561037c57600080fd5b6103926004808035906020019091905050610b4c565b604051808273ffffffffffffffffffffffffffffffffffffffff1673ffffffffffffffffffffffffffffffffffffffff16815260200191505060405180910390f35b6103ea6004808035906020019091905050610b89565b005b34156103f757600080fd5b610423600480803573ffffffffffffffffffffffffffffffffffffffff16906020019091905050610c45565b6040518082815260200191505060405180910390f35b341561044457600080fd5b61044c610c8e565b6040518082815260200191505060405180910390f35b341561046d57600080fd5b610499600480803573ffffffffffffffffffffffffffffffffffffffff16906020019091905050610cd5565b6040518080602001828103825283818151815260200191508051906020019060200280838360005b838110156104dc5780820151818401526020810190506104c1565b505050509050019250505060405180910390f35b34156104fb57600080fd5b6105116004808035906020019091905050610e17565b604051808781526020018681526020018563ffffffff1663ffffffff1681526020018463ffffffff1663ffffffff1681526020018363ffffffff1663ffffffff168152602001828152602001965050505050505060405180910390f35b341561057957600080fd5b610581610f0e565b6040518082815260200191505060405180910390f35b34156105a257600080fd5b6105aa610f1b565b6040518080602001828103825283818151815260200191508051906020019080838360005b838110156105ea5780820151818401526020810190506105cf565b50505050905090810190601f1680156106175780820380516001836020036101000a031916815260200191505b509250505060405180910390f35b341561063057600080fd5b610667600480803573ffffffffffffffffffffffffffffffffffffffff169060200190919080351515906020019091905050610f5e565b005b61067f6004808035906020019091905050610f62565b005b6106e9600480803573ffffffffffffffffffffffffffffffffffffffff1690602001909190803573ffffffffffffffffffffffffffffffffffffffff169060200190919080359060200190919080359060200190820180359060200191909192905050611050565b005b34156106f657600080fd5b6106fe611057565b6040518080602001828103825283818151815260200191508051906020019060200280838360005b83811015610741578082015181840152602081019050610726565b505050509050019250505060405180910390f35b341561076057600080fd5b6107f3600480803590602001908201803590602001908080601f0160208091040260200160405190810160405280939291908181526020018383808284378201915050505050509190803590602001908201803590602001908080601f016020809104026020016040519081016040528093929190818152602001838380828437820191505050505050919050506110f9565b604051808215151515815260200191505060405180910390f35b341561081857600080fd5b610863600480803573ffffffffffffffffffffffffffffffffffffffff1690602001909190803573ffffffffffffffffffffffffffffffffffffffff16906020019091905050611309565b604051808215151515815260200191505060405180910390f35b6000809050919050565b61088f6115f4565b6040805190810160405280600a81526020017f546f726920546f6b656e00000000000000000000000000000000000000000000815250905090565b6000339050919050565b803373ffffffffffffffffffffffffffffffffffffffff166007600083815260200190815260200160002060009054906101000a900473ffffffffffffffffffffffffffffffffffffffff1673ffffffffffffffffffffffffffffffffffffffff1614151561094257600080fd5b82600b600084815260200190815260200160002060006101000a81548173ffffffffffffffffffffffffffffffffffffffff021916908373ffffffffffffffffffffffffffffffffffffffff1602179055508273ffffffffffffffffffffffffffffffffffffffff163373ffffffffffffffffffffffffffffffffffffffff167f8c5be1e5ebec7d5bd14f71427d1e84f3dd0314c0f7b2291e5b200ac8c7c3b925846040518082815260200191505060405180910390a3505050565b813373ffffffffffffffffffffffffffffffffffffffff166007600083815260200190815260200160002060009054906101000a900473ffffffffffffffffffffffffffffffffffffffff1673ffffffffffffffffffffffffffffffffffffffff16141515610a6c57600080fd5b60006009600085815260200190815260200160002054148015610a8f5750600082115b1515610a9a57600080fd5b8160096000858152602001908152602001600020819055506001600a60008282540192505081905550505050565b803373ffffffffffffffffffffffffffffffffffffffff166007600083815260200190815260200160002060009054906101000a900473ffffffffffffffffffffffffffffffffffffffff1673ffffffffffffffffffffffffffffffffffffffff16141515610b3657600080fd5b610b41848484611314565b50505050565b505050565b60006007600083815260200190815260200160002060009054906101000a900473ffffffffffffffffffffffffffffffffffffffff169050919050565b803373ffffffffffffffffffffffffffffffffffffffff166007600083815260200190815260200160002060009054906101000a900473ffffffffffffffffffffffffffffffffffffffff1673ffffffffffffffffffffffffffffffffffffffff16141515610bf757600080fd5b60006009600084815260200190815260200160002054111515610c1957600080fd5b60096000838152602001908152602001600020600090556001600a600082825403925050819055505050565b6000600860008373ffffffffffffffffffffffffffffffffffffffff1673ffffffffffffffffffffffffffffffffffffffff168152602001908152602001600020549050919050565b6000600860003373ffffffffffffffffffffffffffffffffffffffff1673ffffffffffffffffffffffffffffffffffffffff16815260200190815260200160002054905090565b610cdd611608565b6000610ce7611608565b600080600860008773ffffffffffffffffffffffffffffffffffffffff1673ffffffffffffffffffffffffffffffffffffffff16815260200190815260200160002054935083604051805910610d3a5750595b9080825280602002602001820160405250925060009150600090505b600680549050811015610e0b578573ffffffffffffffffffffffffffffffffffffffff166007600083815260200190815260200160002060009054906101000a900473ffffffffffffffffffffffffffffffffffffffff1673ffffffffffffffffffffffffffffffffffffffff161415610df057808383815181101515610dd957fe5b906020019060200201818152505081806001019250505b8382101515610dfe57610e0b565b8080600101915050610d56565b82945050505050919050565b600080600080600080610e2861161c565b600688815481101515610e3757fe5b906000526020600020906002020160806040519081016040529081600082015481526020016001820160009054906101000a900463ffffffff1663ffffffff1663ffffffff1681526020016001820160049054906101000a900463ffffffff1663ffffffff1663ffffffff1681526020016001820160089054906101000a900463ffffffff1663ffffffff1663ffffffff16815250509050878160000151826020015183604001518460600151600960008e8152602001908152602001600020549650965096509650965096505091939550919395565b6000600680549050905090565b610f236115f4565b6040805190810160405280600481526020017f544f524900000000000000000000000000000000000000000000000000000000815250905090565b5050565b6000806009600084815260200190815260200160002054118015610f985750600960008381526020019081526020016000205434145b1515610fa357600080fd5b6007600083815260200190815260200160002060009054906101000a900473ffffffffffffffffffffffffffffffffffffffff169050610fe4813384611314565b8073ffffffffffffffffffffffffffffffffffffffff166108fc349081150290604051600060405180830381858888f19350505050151561102457600080fd5b60096000838152602001908152602001600020600090556001600a600082825403925050819055505050565b5050505050565b61105f611608565b611067611608565b600080600a5460405180591061107a5750595b9080825280602002602001820160405250925060009150600090505b6006805490508110156110f0576000600960008381526020019081526020016000205411156110e3578083838151811015156110ce57fe5b90602001906020020181815250506001820191505b8080600101915050611096565b82935050505090565b600061110361161c565b600080600860003373ffffffffffffffffffffffffffffffffffffffff1673ffffffffffffffffffffffffffffffffffffffff1681526020019081526020016000205414151561115257600080fd5b61115d85853361146c565b91506001600680548060010182816111759190611657565b916000526020600020906002020160008590919091506000820151816000015560208201518160010160006101000a81548163ffffffff021916908363ffffffff16021790555060408201518160010160046101000a81548163ffffffff021916908363ffffffff16021790555060608201518160010160086101000a81548163ffffffff021916908363ffffffff1602179055505050039050336007600083815260200190815260200160002060006101000a81548173ffffffffffffffffffffffffffffffffffffffff021916908373ffffffffffffffffffffffffffffffffffffffff1602179055506001600860003373ffffffffffffffffffffffffffffffffffffffff1673ffffffffffffffffffffffffffffffffffffffff168152602001908152602001600020600082825401925050819055503373ffffffffffffffffffffffffffffffffffffffff167f163090350da897fd03497e870bbe993a1948b39328cd37a8fe6b9179e120dd27826040518082815260200191505060405180910390a260019250505092915050565b600080905092915050565b6001600860008473ffffffffffffffffffffffffffffffffffffffff1673ffffffffffffffffffffffffffffffffffffffff168152602001908152602001600020600082825401925050819055506001600860003373ffffffffffffffffffffffffffffffffffffffff1673ffffffffffffffffffffffffffffffffffffffff16815260200190815260200160002060008282540392505081905550816007600083815260200190815260200160002060006101000a81548173ffffffffffffffffffffffffffffffffffffffff021916908373ffffffffffffffffffffffffffffffffffffffff1602179055508173ffffffffffffffffffffffffffffffffffffffff168373ffffffffffffffffffffffffffffffffffffffff167fddf252ad1be2c89b69c2b068fc378daa952ba7f163c4a11628f55a4df523b3ef836040518082815260200191505060405180910390a3505050565b61147461161c565b60008060008042868989604051808581526020018473ffffffffffffffffffffffffffffffffffffffff1673ffffffffffffffffffffffffffffffffffffffff166c0100000000000000000000000002815260140183805190602001908083835b6020831015156114fa57805182526020820191506020810190506020830392506114d5565b6001836020036101000a03801982511681845116808217855250505050505090500182805190602001908083835b60208310151561154d5780518252602082019150602081019050602083039250611528565b6001836020036101000a03801982511681845116808217855250505050505090500194505050505060405180910390206001900493506003548481151561159057fe5b069250600454848115156115a057fe5b069150600554848115156115b057fe5b0690506080604051908101604052808481526020018363ffffffff1681526020018263ffffffff1681526020014263ffffffff168152509450505050509392505050565b602060405190810160405280600081525090565b602060405190810160405280600081525090565b60806040519081016040528060008152602001600063ffffffff168152602001600063ffffffff168152602001600063ffffffff1681525090565b815481835581811511611684576002028160020283600052602060002091820191016116839190611689565b5b505050565b6116f291905b808211156116ee576000808201600090556001820160006101000a81549063ffffffff02191690556001820160046101000a81549063ffffffff02191690556001820160086101000a81549063ffffffff02191690555060020161168f565b5090565b905600a165627a7a72305820d4267e658311a8eac4d769d16948a16b86957c2cd8feb9c7db6d2c9ea92cb4580029",
  "source": "pragma solidity ^0.4.21;\n\nimport './ToriToken.sol';\nimport './ERC721.sol';\n/* import 'openzeppelin-solidity/contracts/token/ERC721/ERC721.sol'; */\n\ncontract ToriOwnership is ToriToken, ERC721 {\n  /*\n  ERC721 compliant functions\n  */\n  mapping (uint => address) toriApprovals;\n\n  modifier onlyOwnerOf(uint256 _tokenId) {\n    require(toriIndexToAddr[_tokenId] == msg.sender);\n    _;\n  }\n\n  function name() public view returns (string _name) {\n    return \"Tori Token\";\n  }\n\n  function symbol() public view returns (string _symbol) {\n    return \"TORI\";\n  }\n\n  function balanceOf(address _owner) external view returns (uint256 _balance) {\n    return addrToToriCount[_owner];\n  }\n\n  function ownerOf(uint256 _tokenId) external view returns (address _owner) {\n    return toriIndexToAddr[_tokenId];\n  }\n\n  function safeTransferFrom(address _from, address _to, uint256 _tokenId, bytes data) external payable {\n    // TODO:\n  }\n\n  function safeTransferFrom(address _from, address _to, uint256 _tokenId) external payable {\n    // TODO:\n  }\n\n\n  function _transfer(address _from, address _to, uint256 _tokenId) private {\n    // Modify the counts.\n    addrToToriCount[_to] += 1;\n    addrToToriCount[msg.sender] -= 1;\n\n    toriIndexToAddr[_tokenId] = _to;\n    emit Transfer(_from, _to, _tokenId);\n  }\n\n  function transferFrom(address _from, address _to, uint256 _tokenId) external payable onlyOwnerOf(_tokenId) {\n    _transfer(_from, _to, _tokenId);\n  }\n\n  function approve(address _to, uint256 _tokenId) external payable onlyOwnerOf(_tokenId) {\n    toriApprovals[_tokenId] = _to;\n    emit Approval(msg.sender, _to, _tokenId);\n  }\n\n  function setApprovalForAll(address _operator, bool _approved) external {\n    // TODO\n  }\n\n  function getApproved(uint256 _tokenId) external view returns (address) {\n    // TODO\n    return msg.sender;\n  }\n\n  function isApprovedForAll(address _owner, address _operator) external view returns (bool) {\n    // TODO\n    return false;\n  }\n\n  function supportsInterface(bytes4 interfaceID) external view returns (bool) {\n    // TODO\n    return false;\n  }\n\n\n  // TODO: add functionality for users to change the sale price.\n  function approveForSale(uint256 _tokenId, uint256 _salePrice) external payable onlyOwnerOf(_tokenId) {\n    require((toriSale[_tokenId] == 0) && (_salePrice > 0));\n    toriSale[_tokenId] = _salePrice;\n    toriSaleCount += 1;\n    // TODO: emit event here.\n  }\n\n  function removeForSale(uint256 _tokenId) external payable onlyOwnerOf(_tokenId) {\n    require(toriSale[_tokenId] > 0);\n    delete toriSale[_tokenId];\n    toriSaleCount -= 1;\n    // TODO: emit event here.\n  }\n\n  function buyForSale(uint256 _tokenId) external payable {\n    require((toriSale[_tokenId] > 0) && (msg.value == toriSale[_tokenId]));\n    address _from = toriIndexToAddr[_tokenId];\n    _transfer(_from, msg.sender, _tokenId);\n    // Send the ether.\n    _from.transfer(msg.value);\n    // Delete sale entry.\n    delete toriSale[_tokenId];\n    toriSaleCount -= 1;\n    // TODO: emit event here.\n  }\n\n  function retrieveAllForSales() public view returns (uint[]) {\n    uint[] memory result = new uint[](toriSaleCount);\n    uint idx = 0;\n    for (uint i = 0; i < toris.length; i++) {\n      if (toriSale[i] > 0) {\n        result[idx] = i;\n        idx += 1;\n      }\n    }\n    return result;\n  }\n}\n",
  "sourcePath": "/Users/Cindy/Desktop/cs359b/cs359b-cribtori/contracts/ToriOwnership.sol",
  "compiler": {
    "name": "solc",
    "version": "0.4.21+commit.dfe3193c.Emscripten.clang"
  },
  "schemaVersion": "2.0.0",
  "updatedAt": "2018-05-01T19:14:31.552Z"
}