{
  "contractName": "ToriToken",
  "abi": [
    {
      "constant": true,
      "inputs": [
        {
          "name": "_tokenId",
          "type": "uint256"
        }
      ],
      "name": "getApproved",
      "outputs": [
        {
          "name": "",
          "type": "address"
        }
      ],
      "payable": false,
      "stateMutability": "view",
      "type": "function"
    },
    {
      "constant": false,
      "inputs": [
        {
          "name": "_to",
          "type": "address"
        },
        {
          "name": "_tokenId",
          "type": "uint256"
        }
      ],
      "name": "approve",
      "outputs": [],
      "payable": false,
      "stateMutability": "nonpayable",
      "type": "function"
    },
    {
      "constant": false,
      "inputs": [
        {
          "name": "_from",
          "type": "address"
        },
        {
          "name": "_to",
          "type": "address"
        },
        {
          "name": "_tokenId",
          "type": "uint256"
        }
      ],
      "name": "transferFrom",
      "outputs": [],
      "payable": false,
      "stateMutability": "nonpayable",
      "type": "function"
    },
    {
      "constant": false,
      "inputs": [
        {
          "name": "_from",
          "type": "address"
        },
        {
          "name": "_to",
          "type": "address"
        },
        {
          "name": "_tokenId",
          "type": "uint256"
        }
      ],
      "name": "safeTransferFrom",
      "outputs": [],
      "payable": false,
      "stateMutability": "nonpayable",
      "type": "function"
    },
    {
      "constant": true,
      "inputs": [
        {
          "name": "_tokenId",
          "type": "uint256"
        }
      ],
      "name": "exists",
      "outputs": [
        {
          "name": "",
          "type": "bool"
        }
      ],
      "payable": false,
      "stateMutability": "view",
      "type": "function"
    },
    {
      "constant": true,
      "inputs": [
        {
          "name": "_tokenId",
          "type": "uint256"
        }
      ],
      "name": "ownerOf",
      "outputs": [
        {
          "name": "",
          "type": "address"
        }
      ],
      "payable": false,
      "stateMutability": "view",
      "type": "function"
    },
    {
      "constant": true,
      "inputs": [
        {
          "name": "_owner",
          "type": "address"
        }
      ],
      "name": "balanceOf",
      "outputs": [
        {
          "name": "",
          "type": "uint256"
        }
      ],
      "payable": false,
      "stateMutability": "view",
      "type": "function"
    },
    {
      "constant": false,
      "inputs": [
        {
          "name": "_to",
          "type": "address"
        },
        {
          "name": "_approved",
          "type": "bool"
        }
      ],
      "name": "setApprovalForAll",
      "outputs": [],
      "payable": false,
      "stateMutability": "nonpayable",
      "type": "function"
    },
    {
      "constant": false,
      "inputs": [
        {
          "name": "_from",
          "type": "address"
        },
        {
          "name": "_to",
          "type": "address"
        },
        {
          "name": "_tokenId",
          "type": "uint256"
        },
        {
          "name": "_data",
          "type": "bytes"
        }
      ],
      "name": "safeTransferFrom",
      "outputs": [],
      "payable": false,
      "stateMutability": "nonpayable",
      "type": "function"
    },
    {
      "constant": true,
      "inputs": [
        {
          "name": "_owner",
          "type": "address"
        },
        {
          "name": "_operator",
          "type": "address"
        }
      ],
      "name": "isApprovedForAll",
      "outputs": [
        {
          "name": "",
          "type": "bool"
        }
      ],
      "payable": false,
      "stateMutability": "view",
      "type": "function"
    },
    {
      "inputs": [],
      "payable": false,
      "stateMutability": "nonpayable",
      "type": "constructor"
    },
    {
      "anonymous": false,
      "inputs": [
        {
          "indexed": true,
          "name": "_address",
          "type": "address"
        },
        {
          "indexed": false,
          "name": "toriIdx",
          "type": "uint256"
        }
      ],
      "name": "NewTori",
      "type": "event"
    },
    {
      "anonymous": false,
      "inputs": [
        {
          "indexed": true,
          "name": "_from",
          "type": "address"
        },
        {
          "indexed": true,
          "name": "_to",
          "type": "address"
        },
        {
          "indexed": false,
          "name": "_tokenId",
          "type": "uint256"
        }
      ],
      "name": "Transfer",
      "type": "event"
    },
    {
      "anonymous": false,
      "inputs": [
        {
          "indexed": true,
          "name": "_owner",
          "type": "address"
        },
        {
          "indexed": true,
          "name": "_approved",
          "type": "address"
        },
        {
          "indexed": false,
          "name": "_tokenId",
          "type": "uint256"
        }
      ],
      "name": "Approval",
      "type": "event"
    },
    {
      "anonymous": false,
      "inputs": [
        {
          "indexed": true,
          "name": "_owner",
          "type": "address"
        },
        {
          "indexed": true,
          "name": "_operator",
          "type": "address"
        },
        {
          "indexed": false,
          "name": "_approved",
          "type": "bool"
        }
      ],
      "name": "ApprovalForAll",
      "type": "event"
    },
    {
      "constant": false,
      "inputs": [
        {
          "name": "_quizzes",
          "type": "uint8[]"
        },
        {
          "name": "_name",
          "type": "string"
        }
      ],
      "name": "generateNewTori",
      "outputs": [
        {
          "name": "success",
          "type": "bool"
        }
      ],
      "payable": false,
      "stateMutability": "nonpayable",
      "type": "function"
    },
    {
      "constant": true,
      "inputs": [
        {
          "name": "_owner",
          "type": "address"
        }
      ],
      "name": "getTokenIndexes",
      "outputs": [
        {
          "name": "",
          "type": "uint256[]"
        }
      ],
      "payable": false,
      "stateMutability": "view",
      "type": "function"
    },
    {
      "constant": true,
      "inputs": [
        {
          "name": "_toriId",
          "type": "uint256"
        }
      ],
      "name": "getTokenInfo",
      "outputs": [
        {
          "name": "toriId",
          "type": "uint256"
        },
        {
          "name": "toriDna",
          "type": "uint256"
        },
        {
          "name": "name",
          "type": "string"
        },
        {
          "name": "proficiency",
          "type": "uint32"
        },
        {
          "name": "personality",
          "type": "uint32"
        },
        {
          "name": "readyTime",
          "type": "uint32"
        },
        {
          "name": "postingPrice",
          "type": "uint256"
        },
        {
          "name": "toriOwner",
          "type": "address"
        }
      ],
      "payable": false,
      "stateMutability": "view",
      "type": "function"
    },
    {
      "constant": true,
      "inputs": [],
      "name": "getTokenCount",
      "outputs": [
        {
          "name": "toriCount",
          "type": "uint256"
        }
      ],
      "payable": false,
      "stateMutability": "view",
      "type": "function"
    },
    {
      "constant": true,
      "inputs": [],
      "name": "getAllTokensCount",
      "outputs": [
        {
          "name": "",
          "type": "uint256"
        }
      ],
      "payable": false,
      "stateMutability": "view",
      "type": "function"
    },
    {
      "constant": false,
      "inputs": [
        {
          "name": "_tokenId",
          "type": "uint256"
        },
        {
          "name": "_salePrice",
          "type": "uint256"
        }
      ],
      "name": "approveForSale",
      "outputs": [],
      "payable": false,
      "stateMutability": "nonpayable",
      "type": "function"
    },
    {
      "constant": false,
      "inputs": [
        {
          "name": "_tokenId",
          "type": "uint256"
        }
      ],
      "name": "removeForSale",
      "outputs": [],
      "payable": false,
      "stateMutability": "nonpayable",
      "type": "function"
    },
    {
      "constant": false,
      "inputs": [
        {
          "name": "_tokenId",
          "type": "uint256"
        }
      ],
      "name": "buyForSale",
      "outputs": [],
      "payable": true,
      "stateMutability": "payable",
      "type": "function"
    },
    {
      "constant": true,
      "inputs": [],
      "name": "retrieveAllForSales",
      "outputs": [
        {
          "name": "",
          "type": "uint256[]"
        }
      ],
      "payable": false,
      "stateMutability": "view",
      "type": "function"
    }
  ],
  "bytecode": "0x6060604052601660005560036001556006600255600054600a0a600355600160025401600a0a600455600154600a0a60055560a060405190810160405280601961ffff168152602001606461ffff16815260200160af61ffff16815260200160c861ffff16815260200161012c61ffff1681525060069060056200008592919062000dad565b50600254600a0a600755608060405190810160405280609661ffff16815260200160c861ffff16815260200161012c61ffff16815260200161015e61ffff168152506008906004620000d992919062000e05565b503415620000e657600080fd5b620000f062000e5d565b620000fa62000e71565b600060046040518059106200010c5750595b9080825280602002602001820160405250925060008360008151811015156200013157fe5b9060200190602002019060ff16908160ff168152505060008360018151811015156200015957fe5b9060200190602002019060ff16908160ff168152505060008360028151811015156200018157fe5b9060200190602002019060ff16908160ff16815250506000836003815181101515620001a957fe5b9060200190602002019060ff16908160ff168152505062000215836040805190810160405280600481526020017f546f746f0000000000000000000000000000000000000000000000000000000081525033620008ee6401000000000262001f25176401000000009004565b91506001600d80548060010182816200022f919062000ebb565b916000526020600020906003020160008590919091506000820151816000015560208201518160010190805190602001906200026d92919062000ef0565b5060408201518160020160006101000a81548163ffffffff021916908363ffffffff16021790555060608201518160020160046101000a81548163ffffffff021916908363ffffffff16021790555060808201518160020160086101000a81548163ffffffff021916908363ffffffff1602179055505050039050336009600083815260200190815260200160002060006101000a81548173ffffffffffffffffffffffffffffffffffffffff021916908373ffffffffffffffffffffffffffffffffffffffff1602179055506200039d6001600b60003373ffffffffffffffffffffffffffffffffffffffff1673ffffffffffffffffffffffffffffffffffffffff168152602001908152602001600020546200097064010000000002620018a0179091906401000000009004565b600b60003373ffffffffffffffffffffffffffffffffffffffff1673ffffffffffffffffffffffffffffffffffffffff168152602001908152602001600020819055506001836001815181101515620003f257fe5b9060200190602002019060ff16908160ff16815250506200045e836040805190810160405280600481526020017f526972690000000000000000000000000000000000000000000000000000000081525033620008ee6401000000000262001f25176401000000009004565b91506001600d805480600101828162000478919062000ebb565b91600052602060002090600302016000859091909150600082015181600001556020820151816001019080519060200190620004b692919062000ef0565b5060408201518160020160006101000a81548163ffffffff021916908363ffffffff16021790555060608201518160020160046101000a81548163ffffffff021916908363ffffffff16021790555060808201518160020160086101000a81548163ffffffff021916908363ffffffff1602179055505050039050336009600083815260200190815260200160002060006101000a81548173ffffffffffffffffffffffffffffffffffffffff021916908373ffffffffffffffffffffffffffffffffffffffff160217905550620005e66001600b60003373ffffffffffffffffffffffffffffffffffffffff1673ffffffffffffffffffffffffffffffffffffffff168152602001908152602001600020546200097064010000000002620018a0179091906401000000009004565b600b60003373ffffffffffffffffffffffffffffffffffffffff1673ffffffffffffffffffffffffffffffffffffffff1681526020019081526020016000208190555060018360008151811015156200063b57fe5b9060200190602002019060ff16908160ff168152505060018360038151811015156200066357fe5b9060200190602002019060ff16908160ff1681525050620006cf836040805190810160405280600481526020017f5269746f0000000000000000000000000000000000000000000000000000000081525033620008ee6401000000000262001f25176401000000009004565b91506001600d8054806001018281620006e9919062000ebb565b916000526020600020906003020160008590919091506000820151816000015560208201518160010190805190602001906200072792919062000ef0565b5060408201518160020160006101000a81548163ffffffff021916908363ffffffff16021790555060608201518160020160046101000a81548163ffffffff021916908363ffffffff16021790555060808201518160020160086101000a81548163ffffffff021916908363ffffffff1602179055505050039050336009600083815260200190815260200160002060006101000a81548173ffffffffffffffffffffffffffffffffffffffff021916908373ffffffffffffffffffffffffffffffffffffffff160217905550620008576001600b60003373ffffffffffffffffffffffffffffffffffffffff1673ffffffffffffffffffffffffffffffffffffffff168152602001908152602001600020546200097064010000000002620018a0179091906401000000009004565b600b60003373ffffffffffffffffffffffffffffffffffffffff1673ffffffffffffffffffffffffffffffffffffffff1681526020019081526020016000208190555066038d7ea4c68000600e600080815260200190815260200160002081905550620008df6001600f546200097064010000000002620018a0179091906401000000009004565b600f8190555050505062001094565b620008f862000e71565b60008060006200091e8787876200098d6401000000000262001fa2176401000000009004565b80935081945082955050505060a0604051908101604052808481526020018781526020018363ffffffff1681526020018263ffffffff1681526020014263ffffffff1681525093505050509392505050565b600081830190508281101515156200098457fe5b80905092915050565b600080600080600080428789604051808481526020018373ffffffffffffffffffffffffffffffffffffffff1673ffffffffffffffffffffffffffffffffffffffff166c0100000000000000000000000002815260140182805190602001908083835b60208310151562000a175780518252602082019150602081019050602083039250620009f0565b6001836020036101000a038019825116818451168082178552505050505050905001935050505060405180910390206001900492504287604051808381526020018273ffffffffffffffffffffffffffffffffffffffff1673ffffffffffffffffffffffffffffffffffffffff166c010000000000000000000000000281526014019250505060405180910390206001900491508282604051808381526020018281526020019250505060405180910390206001900490506003548181151562000add57fe5b0695506005548681151562000aee57fe5b06945060055460075481151562000b0157fe5b046007548781151562000b1057fe5b0681151562000b1b57fe5b04935062000b9085600680548060200260200160405190810160405280929190818152602001828054801562000b7157602002820191906000526020600020905b81548152602001906001019080831162000b5c575b505050505062000bd164010000000002620021b0176401000000009004565b945062000bb2898562000c43640100000000026200221d176401000000009004565b93506004548681151562000bc257fe5b04955050505093509350939050565b60008060008060009250600091505b845182101562000c3257848281518110151562000bf957fe5b9060200190602002015190508083018663ffffffff16101562000c1f5781935062000c3a565b8083019250818060010192505062000be0565b600185510393505b50505092915050565b600062000c4f62000f77565b600080600080600880548060200260200160405190810160405280929190818152602001828054801562000ca357602002820191906000526020600020905b81548152602001906001019080831162000c8e575b5050505050945060009350600092505b875183101562000ceb57878381518110151562000ccc57fe5b9060200190602002015160ff1684019350828060010193505062000cb3565b6001885103600a02915060008411801562000d065750875184105b1562000d8057600092505b875183101562000d7f57878381518110151562000d2a57fe5b9060200190602002015160ff1688510290508381039050808281151562000d4d57fe5b04858481518110151562000d5d57fe5b9060200190602002018181510191508181525050828060010193505062000d11565b5b62000da0878662000bd164010000000002620021b0176401000000009004565b9550505050505092915050565b82805482825590600052602060002090810192821562000df2579160200282015b8281111562000df1578251829061ffff1690559160200191906001019062000dce565b5b50905062000e01919062000f8b565b5090565b82805482825590600052602060002090810192821562000e4a579160200282015b8281111562000e49578251829061ffff1690559160200191906001019062000e26565b5b50905062000e59919062000f8b565b5090565b602060405190810160405280600081525090565b60a0604051908101604052806000815260200162000e8e62000fb3565b8152602001600063ffffffff168152602001600063ffffffff168152602001600063ffffffff1681525090565b81548183558181151162000eeb5760030281600302836000526020600020918201910162000eea919062000fc7565b5b505050565b828054600181600116156101000203166002900490600052602060002090601f016020900481019282601f1062000f3357805160ff191683800117855562000f64565b8280016001018555821562000f64579182015b8281111562000f6357825182559160200191906001019062000f46565b5b50905062000f73919062000f8b565b5090565b602060405190810160405280600081525090565b62000fb091905b8082111562000fac57600081600090555060010162000f92565b5090565b90565b602060405190810160405280600081525090565b6200104591905b80821115620010415760008082016000905560018201600062000ff2919062001048565b6002820160006101000a81549063ffffffff02191690556002820160046101000a81549063ffffffff02191690556002820160086101000a81549063ffffffff02191690555060030162000fce565b5090565b90565b50805460018160011615610100020316600290046000825580601f1062001070575062001091565b601f01602090049060005260206000209081019062001090919062000f8b565b5b50565b6125ae80620010a46000396000f300606060405260043610610107576000357c0100000000000000000000000000000000000000000000000000000000900463ffffffff168063081812fc1461010c578063095ea7b31461016f578063120e22e4146101b157806323b872dd146101dd57806342842e0e1461023e5780634f558e791461029f5780636352211e146102da5780636b8667f51461033d57806370a082311461036057806378a89567146103ad57806380507b57146103d65780638c7a63ae14610464578063933b545414610581578063a22cb465146105aa578063b438314f146105ee578063b88d4fde14610606578063be928c92146106aa578063e985e9c514610714578063f542926514610784575b600080fd5b341561011757600080fd5b61012d6004808035906020019091905050610839565b604051808273ffffffffffffffffffffffffffffffffffffffff1673ffffffffffffffffffffffffffffffffffffffff16815260200191505060405180910390f35b341561017a57600080fd5b6101af600480803573ffffffffffffffffffffffffffffffffffffffff16906020019091908035906020019091905050610876565b005b34156101bc57600080fd5b6101db6004808035906020019091908035906020019091905050610a3c565b005b34156101e857600080fd5b61023c600480803573ffffffffffffffffffffffffffffffffffffffff1690602001909190803573ffffffffffffffffffffffffffffffffffffffff16906020019091908035906020019091905050610af0565b005b341561024957600080fd5b61029d600480803573ffffffffffffffffffffffffffffffffffffffff1690602001909190803573ffffffffffffffffffffffffffffffffffffffff16906020019091908035906020019091905050610c07565b005b34156102aa57600080fd5b6102c06004808035906020019091905050610c3f565b604051808215151515815260200191505060405180910390f35b34156102e557600080fd5b6102fb6004808035906020019091905050610cb1565b604051808273ffffffffffffffffffffffffffffffffffffffff1673ffffffffffffffffffffffffffffffffffffffff16815260200191505060405180910390f35b341561034857600080fd5b61035e6004808035906020019091905050610d2f565b005b341561036b57600080fd5b610397600480803573ffffffffffffffffffffffffffffffffffffffff16906020019091905050610dd5565b6040518082815260200191505060405180910390f35b34156103b857600080fd5b6103c0610e59565b6040518082815260200191505060405180910390f35b34156103e157600080fd5b61040d600480803573ffffffffffffffffffffffffffffffffffffffff16906020019091905050610ea0565b6040518080602001828103825283818151815260200191508051906020019060200280838360005b83811015610450578082015181840152602081019050610435565b505050509050019250505060405180910390f35b341561046f57600080fd5b6104856004808035906020019091905050610fe2565b60405180898152602001888152602001806020018763ffffffff1663ffffffff1681526020018663ffffffff1663ffffffff1681526020018563ffffffff1663ffffffff1681526020018481526020018373ffffffffffffffffffffffffffffffffffffffff1673ffffffffffffffffffffffffffffffffffffffff168152602001828103825288818151815260200191508051906020019080838360005b8381101561053f578082015181840152602081019050610524565b50505050905090810190601f16801561056c5780820380516001836020036101000a031916815260200191505b50995050505050505050505060405180910390f35b341561058c57600080fd5b6105946111c4565b6040518082815260200191505060405180910390f35b34156105b557600080fd5b6105ec600480803573ffffffffffffffffffffffffffffffffffffffff1690602001909190803515159060200190919050506111d1565b005b610604600480803590602001909190505061130d565b005b341561061157600080fd5b6106a8600480803573ffffffffffffffffffffffffffffffffffffffff1690602001909190803573ffffffffffffffffffffffffffffffffffffffff1690602001909190803590602001909190803590602001908201803590602001908080601f016020809104026020016040519081016040528093929190818152602001838380828437820191505050505050919050506114b6565b005b34156106b557600080fd5b6106bd6114f5565b6040518080602001828103825283818151815260200191508051906020019060200280838360005b838110156107005780820151818401526020810190506106e5565b505050509050019250505060405180910390f35b341561071f57600080fd5b61076a600480803573ffffffffffffffffffffffffffffffffffffffff1690602001909190803573ffffffffffffffffffffffffffffffffffffffff16906020019091905050611597565b604051808215151515815260200191505060405180910390f35b341561078f57600080fd5b61081f60048080359060200190820180359060200190808060200260200160405190810160405280939291908181526020018383602002808284378201915050505050509190803590602001908201803590602001908080601f0160208091040260200160405190810160405280939291908181526020018383808284378201915050505050509190505061162b565b604051808215151515815260200191505060405180910390f35b6000600a600083815260200190815260200160002060009054906101000a900473ffffffffffffffffffffffffffffffffffffffff169050919050565b600061088182610cb1565b90508073ffffffffffffffffffffffffffffffffffffffff168373ffffffffffffffffffffffffffffffffffffffff16141515156108be57600080fd5b8073ffffffffffffffffffffffffffffffffffffffff163373ffffffffffffffffffffffffffffffffffffffff1614806108fe57506108fd8133611597565b5b151561090957600080fd5b600073ffffffffffffffffffffffffffffffffffffffff1661092a83610839565b73ffffffffffffffffffffffffffffffffffffffff1614158061097a5750600073ffffffffffffffffffffffffffffffffffffffff168373ffffffffffffffffffffffffffffffffffffffff1614155b15610a375782600a600084815260200190815260200160002060006101000a81548173ffffffffffffffffffffffffffffffffffffffff021916908373ffffffffffffffffffffffffffffffffffffffff1602179055508273ffffffffffffffffffffffffffffffffffffffff168173ffffffffffffffffffffffffffffffffffffffff167f8c5be1e5ebec7d5bd14f71427d1e84f3dd0314c0f7b2291e5b200ac8c7c3b925846040518082815260200191505060405180910390a35b505050565b813373ffffffffffffffffffffffffffffffffffffffff16610a5d82610cb1565b73ffffffffffffffffffffffffffffffffffffffff16141515610a7f57600080fd5b6000600e600085815260200190815260200160002054148015610aa25750600082115b1515610aad57600080fd5b81600e600085815260200190815260200160002081905550610adb6001600f546118a090919063ffffffff16565b600f81905550610aeb3084610876565b505050565b80610afb33826118bc565b1515610b0657600080fd5b600073ffffffffffffffffffffffffffffffffffffffff168473ffffffffffffffffffffffffffffffffffffffff1614151515610b4257600080fd5b600073ffffffffffffffffffffffffffffffffffffffff168373ffffffffffffffffffffffffffffffffffffffff1614151515610b7e57600080fd5b610b888483611951565b610b928483611aba565b610b9c8383611be9565b8273ffffffffffffffffffffffffffffffffffffffff168473ffffffffffffffffffffffffffffffffffffffff167fddf252ad1be2c89b69c2b068fc378daa952ba7f163c4a11628f55a4df523b3ef846040518082815260200191505060405180910390a350505050565b80610c1233826118bc565b1515610c1d57600080fd5b610c3984848460206040519081016040528060008152506114b6565b50505050565b6000806009600084815260200190815260200160002060009054906101000a900473ffffffffffffffffffffffffffffffffffffffff169050600073ffffffffffffffffffffffffffffffffffffffff168173ffffffffffffffffffffffffffffffffffffffff161415915050919050565b6000806009600084815260200190815260200160002060009054906101000a900473ffffffffffffffffffffffffffffffffffffffff169050600073ffffffffffffffffffffffffffffffffffffffff168173ffffffffffffffffffffffffffffffffffffffff1614151515610d2657600080fd5b80915050919050565b803373ffffffffffffffffffffffffffffffffffffffff16610d5082610cb1565b73ffffffffffffffffffffffffffffffffffffffff16141515610d7257600080fd5b6000600e600084815260200190815260200160002054111515610d9457600080fd5b600e600083815260200190815260200160002060009055610dc16001600f54611d4390919063ffffffff16565b600f81905550610dd13383611951565b5050565b60008073ffffffffffffffffffffffffffffffffffffffff168273ffffffffffffffffffffffffffffffffffffffff1614151515610e1257600080fd5b600b60008373ffffffffffffffffffffffffffffffffffffffff1673ffffffffffffffffffffffffffffffffffffffff168152602001908152602001600020549050919050565b6000600b60003373ffffffffffffffffffffffffffffffffffffffff1673ffffffffffffffffffffffffffffffffffffffff16815260200190815260200160002054905090565b610ea8612363565b6000610eb2612363565b600080600b60008773ffffffffffffffffffffffffffffffffffffffff1673ffffffffffffffffffffffffffffffffffffffff16815260200190815260200160002054935083604051805910610f055750595b9080825280602002602001820160405250925060009150600090505b600d80549050811015610fd6578573ffffffffffffffffffffffffffffffffffffffff166009600083815260200190815260200160002060009054906101000a900473ffffffffffffffffffffffffffffffffffffffff1673ffffffffffffffffffffffffffffffffffffffff161415610fbb57808383815181101515610fa457fe5b906020019060200201818152505081806001019250505b8382101515610fc957610fd6565b8080600101915050610f21565b82945050505050919050565b600080610fed612377565b6000806000806000610ffd61238b565b600d8a81548110151561100c57fe5b906000526020600020906003020160a0604051908101604052908160008201548152602001600182018054600181600116156101000203166002900480601f0160208091040260200160405190810160405280929190818152602001828054600181600116156101000203166002900480156110c95780601f1061109e576101008083540402835291602001916110c9565b820191906000526020600020905b8154815290600101906020018083116110ac57829003601f168201915b505050505081526020016002820160009054906101000a900463ffffffff1663ffffffff1663ffffffff1681526020016002820160049054906101000a900463ffffffff1663ffffffff1663ffffffff1681526020016002820160089054906101000a900463ffffffff1663ffffffff1663ffffffff168152505090508998508060000151975080602001519650806040015195508060600151945080608001519350600e60008b8152602001908152602001600020549250600960008b815260200190815260200160002060009054906101000a900473ffffffffffffffffffffffffffffffffffffffff16915050919395975091939597565b6000600d80549050905090565b3373ffffffffffffffffffffffffffffffffffffffff168273ffffffffffffffffffffffffffffffffffffffff161415151561120c57600080fd5b80600c60003373ffffffffffffffffffffffffffffffffffffffff1673ffffffffffffffffffffffffffffffffffffffff16815260200190815260200160002060008473ffffffffffffffffffffffffffffffffffffffff1673ffffffffffffffffffffffffffffffffffffffff16815260200190815260200160002060006101000a81548160ff0219169083151502179055508173ffffffffffffffffffffffffffffffffffffffff163373ffffffffffffffffffffffffffffffffffffffff167f17307eab39ab6107e8899845ad3d59bd9653f200f220920489ca2b5937696c3183604051808215151515815260200191505060405180910390a35050565b600080600e6000848152602001908152602001600020541180156113435750600e60008381526020019081526020016000205434145b151561134e57600080fd5b61135782610cb1565b90508073ffffffffffffffffffffffffffffffffffffffff166108fc349081150290604051600060405180830381858888f19350505050151561139957600080fd5b3073ffffffffffffffffffffffffffffffffffffffff166342842e0e8233856040518463ffffffff167c0100000000000000000000000000000000000000000000000000000000028152600401808473ffffffffffffffffffffffffffffffffffffffff1673ffffffffffffffffffffffffffffffffffffffff1681526020018373ffffffffffffffffffffffffffffffffffffffff1673ffffffffffffffffffffffffffffffffffffffff1681526020018281526020019350505050600060405180830381600087803b151561146f57600080fd5b5af1151561147c57600080fd5b505050600e6000838152602001908152602001600020600090556114ac6001600f54611d4390919063ffffffff16565b600f819055505050565b816114c133826118bc565b15156114cc57600080fd5b6114d7858585610af0565b6114e385858585611d5c565b15156114ee57600080fd5b5050505050565b6114fd612363565b611505612363565b600080600f546040518059106115185750595b9080825280602002602001820160405250925060009150600090505b600d8054905081101561158e576000600e60008381526020019081526020016000205411156115815780838381518110151561156c57fe5b90602001906020020181815250506001820191505b8080600101915050611534565b82935050505090565b6000600c60008473ffffffffffffffffffffffffffffffffffffffff1673ffffffffffffffffffffffffffffffffffffffff16815260200190815260200160002060008373ffffffffffffffffffffffffffffffffffffffff1673ffffffffffffffffffffffffffffffffffffffff16815260200190815260200160002060009054906101000a900460ff16905092915050565b600061163561238b565b600080600b60003373ffffffffffffffffffffffffffffffffffffffff1673ffffffffffffffffffffffffffffffffffffffff1681526020019081526020016000205414151561168457600080fd5b61168f858533611f25565b91506001600d80548060010182816116a791906123d3565b916000526020600020906003020160008590919091506000820151816000015560208201518160010190805190602001906116e3929190612405565b5060408201518160020160006101000a81548163ffffffff021916908363ffffffff16021790555060608201518160020160046101000a81548163ffffffff021916908363ffffffff16021790555060808201518160020160086101000a81548163ffffffff021916908363ffffffff1602179055505050039050336009600083815260200190815260200160002060006101000a81548173ffffffffffffffffffffffffffffffffffffffff021916908373ffffffffffffffffffffffffffffffffffffffff1602179055506118036001600b60003373ffffffffffffffffffffffffffffffffffffffff1673ffffffffffffffffffffffffffffffffffffffff168152602001908152602001600020546118a090919063ffffffff16565b600b60003373ffffffffffffffffffffffffffffffffffffffff1673ffffffffffffffffffffffffffffffffffffffff168152602001908152602001600020819055503373ffffffffffffffffffffffffffffffffffffffff167f163090350da897fd03497e870bbe993a1948b39328cd37a8fe6b9179e120dd27826040518082815260200191505060405180910390a260019250505092915050565b600081830190508281101515156118b357fe5b80905092915050565b6000806118c883610cb1565b90508073ffffffffffffffffffffffffffffffffffffffff168473ffffffffffffffffffffffffffffffffffffffff16148061193757508373ffffffffffffffffffffffffffffffffffffffff1661191f84610839565b73ffffffffffffffffffffffffffffffffffffffff16145b8061194857506119478185611597565b5b91505092915050565b8173ffffffffffffffffffffffffffffffffffffffff1661197182610cb1565b73ffffffffffffffffffffffffffffffffffffffff1614151561199357600080fd5b600073ffffffffffffffffffffffffffffffffffffffff16600a600083815260200190815260200160002060009054906101000a900473ffffffffffffffffffffffffffffffffffffffff1673ffffffffffffffffffffffffffffffffffffffff16141515611ab6576000600a600083815260200190815260200160002060006101000a81548173ffffffffffffffffffffffffffffffffffffffff021916908373ffffffffffffffffffffffffffffffffffffffff160217905550600073ffffffffffffffffffffffffffffffffffffffff168273ffffffffffffffffffffffffffffffffffffffff167f8c5be1e5ebec7d5bd14f71427d1e84f3dd0314c0f7b2291e5b200ac8c7c3b925836040518082815260200191505060405180910390a35b5050565b8173ffffffffffffffffffffffffffffffffffffffff16611ada82610cb1565b73ffffffffffffffffffffffffffffffffffffffff16141515611afc57600080fd5b611b4f6001600b60008573ffffffffffffffffffffffffffffffffffffffff1673ffffffffffffffffffffffffffffffffffffffff16815260200190815260200160002054611d4390919063ffffffff16565b600b60008473ffffffffffffffffffffffffffffffffffffffff1673ffffffffffffffffffffffffffffffffffffffff1681526020019081526020016000208190555060006009600083815260200190815260200160002060006101000a81548173ffffffffffffffffffffffffffffffffffffffff021916908373ffffffffffffffffffffffffffffffffffffffff1602179055505050565b600073ffffffffffffffffffffffffffffffffffffffff166009600083815260200190815260200160002060009054906101000a900473ffffffffffffffffffffffffffffffffffffffff1673ffffffffffffffffffffffffffffffffffffffff16141515611c5757600080fd5b816009600083815260200190815260200160002060006101000a81548173ffffffffffffffffffffffffffffffffffffffff021916908373ffffffffffffffffffffffffffffffffffffffff160217905550611cfc6001600b60008573ffffffffffffffffffffffffffffffffffffffff1673ffffffffffffffffffffffffffffffffffffffff168152602001908152602001600020546118a090919063ffffffff16565b600b60008473ffffffffffffffffffffffffffffffffffffffff1673ffffffffffffffffffffffffffffffffffffffff168152602001908152602001600020819055505050565b6000828211151515611d5157fe5b818303905092915050565b600080611d7e8573ffffffffffffffffffffffffffffffffffffffff16611f8f565b1515611d8d5760019150611f1c565b8473ffffffffffffffffffffffffffffffffffffffff1663f0b9e5ba8786866040518463ffffffff167c0100000000000000000000000000000000000000000000000000000000028152600401808473ffffffffffffffffffffffffffffffffffffffff1673ffffffffffffffffffffffffffffffffffffffff16815260200183815260200180602001828103825283818151815260200191508051906020019080838360005b83811015611e4f578082015181840152602081019050611e34565b50505050905090810190601f168015611e7c5780820380516001836020036101000a031916815260200191505b50945050505050602060405180830381600087803b1515611e9c57600080fd5b5af11515611ea957600080fd5b50505060405180519050905063f0b9e5ba7c0100000000000000000000000000000000000000000000000000000000027bffffffffffffffffffffffffffffffffffffffffffffffffffffffff1916817bffffffffffffffffffffffffffffffffffffffffffffffffffffffff19161491505b50949350505050565b611f2d61238b565b6000806000611f3d878787611fa2565b80935081945082955050505060a0604051908101604052808481526020018781526020018363ffffffff1681526020018263ffffffff1681526020014263ffffffff1681525093505050509392505050565b600080823b905060008111915050919050565b600080600080600080428789604051808481526020018373ffffffffffffffffffffffffffffffffffffffff1673ffffffffffffffffffffffffffffffffffffffff166c0100000000000000000000000002815260140182805190602001908083835b60208310151561202a5780518252602082019150602081019050602083039250612005565b6001836020036101000a038019825116818451168082178552505050505050905001935050505060405180910390206001900492504287604051808381526020018273ffffffffffffffffffffffffffffffffffffffff1673ffffffffffffffffffffffffffffffffffffffff166c01000000000000000000000000028152601401925050506040518091039020600190049150828260405180838152602001828152602001925050506040518091039020600190049050600354818115156120ef57fe5b069550600554868115156120ff57fe5b06945060055460075481151561211157fe5b046007548781151561211f57fe5b0681151561212957fe5b04935061218685600680548060200260200160405190810160405280929190818152602001828054801561217c57602002820191906000526020600020905b815481526020019060010190808311612168575b50505050506121b0565b9450612192898561221d565b9350600454868115156121a157fe5b04955050505093509350939050565b60008060008060009250600091505b845182101561220c5784828151811015156121d657fe5b9060200190602002015190508083018663ffffffff1610156121fa57819350612214565b808301925081806001019250506121bf565b600185510393505b50505092915050565b6000612227612363565b600080600080600880548060200260200160405190810160405280929190818152602001828054801561227957602002820191906000526020600020905b815481526020019060010190808311612265575b5050505050945060009350600092505b87518310156122be5787838151811015156122a057fe5b9060200190602002015160ff16840193508280600101935050612289565b6001885103600a0291506000841180156122d85750875184105b1561234c57600092505b875183101561234b5787838151811015156122f957fe5b9060200190602002015160ff1688510290508381039050808281151561231b57fe5b04858481518110151561232a57fe5b906020019060200201818151019150818152505082806001019350506122e2565b5b61235687866121b0565b9550505050505092915050565b602060405190810160405280600081525090565b602060405190810160405280600081525090565b60a060405190810160405280600081526020016123a6612485565b8152602001600063ffffffff168152602001600063ffffffff168152602001600063ffffffff1681525090565b815481835581811511612400576003028160030283600052602060002091820191016123ff9190612499565b5b505050565b828054600181600116156101000203166002900490600052602060002090601f016020900481019282601f1061244657805160ff1916838001178555612474565b82800160010185558215612474579182015b82811115612473578251825591602001919060010190612458565b5b5090506124819190612515565b5090565b602060405190810160405280600081525090565b61251291905b8082111561250e576000808201600090556001820160006124c0919061253a565b6002820160006101000a81549063ffffffff02191690556002820160046101000a81549063ffffffff02191690556002820160086101000a81549063ffffffff02191690555060030161249f565b5090565b90565b61253791905b8082111561253357600081600090555060010161251b565b5090565b90565b50805460018160011615610100020316600290046000825580601f10612560575061257f565b601f01602090049060005260206000209081019061257e9190612515565b5b505600a165627a7a72305820837f70b1a0be141aa81d606ed23f1c12775af3fdb092a8899f95867d47efc2d90029",
  "source": "pragma solidity ^0.4.21;\n\nimport './DnaCore.sol';\nimport 'openzeppelin-solidity/contracts/token/ERC721/ERC721BasicToken.sol';\n\n\ncontract ToriToken is DnaCore, ERC721BasicToken {\n\n  struct Tori {\n    uint256 dna;\n    string name;\n    uint32 proficiency;\n    uint32 personality;\n    uint32 readyTime;\n  }\n\n  Tori[] toris;\n\n  // toriId to price (in wei)\n  mapping (uint => uint256) toriSale;\n  uint256 toriSaleCount;\n\n  event NewTori(address indexed _address, uint256 toriIdx);\n\n\n  /* DEV USE */\n  function ToriToken() {\n    // Generate some Toris for the owner.\n\n    // 1.\n    uint8[] memory testQuiz = new uint8[](4);\n    testQuiz[0] = 0;\n    testQuiz[1] = 0;\n    testQuiz[2] = 0;\n    testQuiz[3] = 0;\n    Tori memory newTori = _generateRandomTori(testQuiz, \"Toto\", msg.sender);\n    uint256 id = toris.push(newTori) - 1;\n    tokenOwner[id] = msg.sender;\n    ownedTokensCount[msg.sender] = ownedTokensCount[msg.sender].add(1);\n    // 2.\n    testQuiz[1] = 1;\n    newTori = _generateRandomTori(testQuiz, \"Riri\", msg.sender);\n    id = toris.push(newTori) - 1;\n    tokenOwner[id] = msg.sender;\n    ownedTokensCount[msg.sender] = ownedTokensCount[msg.sender].add(1);\n\n    // 3.\n    testQuiz[0] = 1;\n    testQuiz[3] = 1;\n    newTori = _generateRandomTori(testQuiz, \"Rito\", msg.sender);\n    id = toris.push(newTori) - 1;\n    tokenOwner[id] = msg.sender;\n    ownedTokensCount[msg.sender] = ownedTokensCount[msg.sender].add(1);\n\n    toriSale[0] = 1000000000000000;\n    toriSaleCount = toriSaleCount.add(1);\n  }\n\n\n\n  /*\n  *   Generate random dna, personality, and proficiency level from\n  *   the given quiz & sender address.\n  */\n  function _generateRandomTori(uint8[] _quizzes, string _name, address _owner) private view returns (Tori) {\n    uint256 dna;\n    uint32 proficiency;\n    uint32 personality;\n    (dna, proficiency, personality) = _generateRandomTraits(_quizzes, _name, _owner);\n    return Tori(dna, _name, proficiency, personality, uint32(now));\n  }\n\n  function generateNewTori(uint8[] _quizzes, string _name) public returns (bool success) {\n    // Generate three new toris.\n    require (ownedTokensCount[msg.sender] == 0);\n    Tori memory newTori = _generateRandomTori(_quizzes, _name, msg.sender);\n    // Push to the book keeping array.\n    uint256 id = toris.push(newTori) - 1;\n    tokenOwner[id] = msg.sender;\n    ownedTokensCount[msg.sender] = ownedTokensCount[msg.sender].add(1);\n\n    emit NewTori(msg.sender, id);\n    return true;\n  }\n\n  function getTokenIndexes(address _owner) public view returns (uint[]) {\n    uint size = ownedTokensCount[_owner];\n    uint[] memory result = new uint[](size);\n\n    uint idx = 0;\n    for (uint i = 0; i < toris.length; i++) {\n      if (tokenOwner[i] == _owner) {\n        result[idx] = i;\n        idx++;\n      }\n      if (idx >= size) {\n        break;\n      }\n    }\n    return result;\n  }\n\n  function getTokenInfo(uint256 _toriId) public view returns\n                    (uint256 toriId, uint256 toriDna, string name, uint32 proficiency,\n                      uint32 personality, uint32 readyTime, uint postingPrice, address toriOwner) {\n    Tori memory tori = toris[_toriId];\n    toriId = _toriId;\n    toriDna = tori.dna;\n    name = tori.name;\n    proficiency = tori.proficiency;\n    personality = tori.personality;\n    readyTime = tori.readyTime;\n    postingPrice = toriSale[_toriId];\n    toriOwner = tokenOwner[_toriId];\n  }\n\n  function getTokenCount() public view returns (uint256 toriCount) {\n    return ownedTokensCount[msg.sender];\n  }\n\n  function getAllTokensCount() public view returns (uint) {\n    return toris.length;\n  }\n\n\n  // TODO: add functionality for users to change the sale price.\n  function approveForSale(uint256 _tokenId, uint256 _salePrice) public onlyOwnerOf(_tokenId) {\n    require((toriSale[_tokenId] == 0) && (_salePrice > 0));\n    toriSale[_tokenId] = _salePrice;\n    toriSaleCount = toriSaleCount.add(1);\n\n    approve(this, _tokenId);\n  }\n\n  function removeForSale(uint256 _tokenId) public onlyOwnerOf(_tokenId) {\n    require(toriSale[_tokenId] > 0);\n    delete toriSale[_tokenId];\n    toriSaleCount = toriSaleCount.sub(1);\n\n    clearApproval(msg.sender, _tokenId);\n  }\n\n  function buyForSale(uint256 _tokenId) public payable {\n    // TODO: does msg.value needs to be exactly equal?\n    require((toriSale[_tokenId] > 0) && (msg.value == toriSale[_tokenId]));\n    address _from = ownerOf(_tokenId);\n    // Send the ether.\n    _from.transfer(msg.value);\n    // We want to call this from this contract.\n    this.safeTransferFrom(_from, msg.sender, _tokenId);\n    // Delete sale entry.\n    delete toriSale[_tokenId];\n    toriSaleCount = toriSaleCount.sub(1);\n  }\n\n  function retrieveAllForSales() public view returns (uint[]) {\n    uint[] memory result = new uint[](toriSaleCount);\n    uint idx = 0;\n    for (uint i = 0; i < toris.length; i++) {\n      if (toriSale[i] > 0) {\n        result[idx] = i;\n        idx += 1;\n      }\n    }\n    return result;\n  }\n}\n",
  "sourcePath": "/Users/Cindy/Desktop/cs359b/cs359b-cribtori/contracts/ToriToken.sol",
  "compiler": {
    "name": "solc",
    "version": "0.4.21+commit.dfe3193c.Emscripten.clang"
  },
  "schemaVersion": "2.0.0",
  "updatedAt": "2018-05-05T04:32:44.311Z"
}