{
  "contractName": "ToriToken",
  "abi": [
    {
      "constant": true,
      "inputs": [
        {
          "name": "_tokenId",
          "type": "uint256"
        }
      ],
      "name": "getApproved",
      "outputs": [
        {
          "name": "",
          "type": "address"
        }
      ],
      "payable": false,
      "stateMutability": "view",
      "type": "function"
    },
    {
      "constant": false,
      "inputs": [
        {
          "name": "_to",
          "type": "address"
        },
        {
          "name": "_tokenId",
          "type": "uint256"
        }
      ],
      "name": "approve",
      "outputs": [],
      "payable": false,
      "stateMutability": "nonpayable",
      "type": "function"
    },
    {
      "constant": false,
      "inputs": [
        {
          "name": "_from",
          "type": "address"
        },
        {
          "name": "_to",
          "type": "address"
        },
        {
          "name": "_tokenId",
          "type": "uint256"
        }
      ],
      "name": "transferFrom",
      "outputs": [],
      "payable": false,
      "stateMutability": "nonpayable",
      "type": "function"
    },
    {
      "constant": false,
      "inputs": [
        {
          "name": "addrs",
          "type": "address[]"
        }
      ],
      "name": "removeAddressesFromWhitelist",
      "outputs": [
        {
          "name": "success",
          "type": "bool"
        }
      ],
      "payable": false,
      "stateMutability": "nonpayable",
      "type": "function"
    },
    {
      "constant": false,
      "inputs": [
        {
          "name": "addr",
          "type": "address"
        }
      ],
      "name": "removeAddressFromWhitelist",
      "outputs": [
        {
          "name": "success",
          "type": "bool"
        }
      ],
      "payable": false,
      "stateMutability": "nonpayable",
      "type": "function"
    },
    {
      "constant": false,
      "inputs": [
        {
          "name": "_from",
          "type": "address"
        },
        {
          "name": "_to",
          "type": "address"
        },
        {
          "name": "_tokenId",
          "type": "uint256"
        }
      ],
      "name": "safeTransferFrom",
      "outputs": [],
      "payable": false,
      "stateMutability": "nonpayable",
      "type": "function"
    },
    {
      "constant": true,
      "inputs": [
        {
          "name": "_tokenId",
          "type": "uint256"
        }
      ],
      "name": "exists",
      "outputs": [
        {
          "name": "",
          "type": "bool"
        }
      ],
      "payable": false,
      "stateMutability": "view",
      "type": "function"
    },
    {
      "constant": true,
      "inputs": [
        {
          "name": "_tokenId",
          "type": "uint256"
        }
      ],
      "name": "ownerOf",
      "outputs": [
        {
          "name": "",
          "type": "address"
        }
      ],
      "payable": false,
      "stateMutability": "view",
      "type": "function"
    },
    {
      "constant": true,
      "inputs": [
        {
          "name": "_owner",
          "type": "address"
        }
      ],
      "name": "balanceOf",
      "outputs": [
        {
          "name": "",
          "type": "uint256"
        }
      ],
      "payable": false,
      "stateMutability": "view",
      "type": "function"
    },
    {
      "constant": false,
      "inputs": [
        {
          "name": "addr",
          "type": "address"
        }
      ],
      "name": "addAddressToWhitelist",
      "outputs": [
        {
          "name": "success",
          "type": "bool"
        }
      ],
      "payable": false,
      "stateMutability": "nonpayable",
      "type": "function"
    },
    {
      "constant": true,
      "inputs": [],
      "name": "owner",
      "outputs": [
        {
          "name": "",
          "type": "address"
        }
      ],
      "payable": false,
      "stateMutability": "view",
      "type": "function"
    },
    {
      "constant": true,
      "inputs": [
        {
          "name": "",
          "type": "address"
        }
      ],
      "name": "whitelist",
      "outputs": [
        {
          "name": "",
          "type": "bool"
        }
      ],
      "payable": false,
      "stateMutability": "view",
      "type": "function"
    },
    {
      "constant": false,
      "inputs": [
        {
          "name": "_to",
          "type": "address"
        },
        {
          "name": "_approved",
          "type": "bool"
        }
      ],
      "name": "setApprovalForAll",
      "outputs": [],
      "payable": false,
      "stateMutability": "nonpayable",
      "type": "function"
    },
    {
      "constant": false,
      "inputs": [
        {
          "name": "_from",
          "type": "address"
        },
        {
          "name": "_to",
          "type": "address"
        },
        {
          "name": "_tokenId",
          "type": "uint256"
        },
        {
          "name": "_data",
          "type": "bytes"
        }
      ],
      "name": "safeTransferFrom",
      "outputs": [],
      "payable": false,
      "stateMutability": "nonpayable",
      "type": "function"
    },
    {
      "constant": false,
      "inputs": [
        {
          "name": "addrs",
          "type": "address[]"
        }
      ],
      "name": "addAddressesToWhitelist",
      "outputs": [
        {
          "name": "success",
          "type": "bool"
        }
      ],
      "payable": false,
      "stateMutability": "nonpayable",
      "type": "function"
    },
    {
      "constant": true,
      "inputs": [
        {
          "name": "_owner",
          "type": "address"
        },
        {
          "name": "_operator",
          "type": "address"
        }
      ],
      "name": "isApprovedForAll",
      "outputs": [
        {
          "name": "",
          "type": "bool"
        }
      ],
      "payable": false,
      "stateMutability": "view",
      "type": "function"
    },
    {
      "constant": false,
      "inputs": [
        {
          "name": "newOwner",
          "type": "address"
        }
      ],
      "name": "transferOwnership",
      "outputs": [],
      "payable": false,
      "stateMutability": "nonpayable",
      "type": "function"
    },
    {
      "inputs": [],
      "payable": false,
      "stateMutability": "nonpayable",
      "type": "constructor"
    },
    {
      "anonymous": false,
      "inputs": [
        {
          "indexed": true,
          "name": "_address",
          "type": "address"
        },
        {
          "indexed": false,
          "name": "toriIdx",
          "type": "uint256"
        }
      ],
      "name": "NewTori",
      "type": "event"
    },
    {
      "anonymous": false,
      "inputs": [
        {
          "indexed": true,
          "name": "_from",
          "type": "address"
        },
        {
          "indexed": true,
          "name": "_to",
          "type": "address"
        },
        {
          "indexed": false,
          "name": "_tokenId",
          "type": "uint256"
        }
      ],
      "name": "Transfer",
      "type": "event"
    },
    {
      "anonymous": false,
      "inputs": [
        {
          "indexed": true,
          "name": "_owner",
          "type": "address"
        },
        {
          "indexed": true,
          "name": "_approved",
          "type": "address"
        },
        {
          "indexed": false,
          "name": "_tokenId",
          "type": "uint256"
        }
      ],
      "name": "Approval",
      "type": "event"
    },
    {
      "anonymous": false,
      "inputs": [
        {
          "indexed": true,
          "name": "_owner",
          "type": "address"
        },
        {
          "indexed": true,
          "name": "_operator",
          "type": "address"
        },
        {
          "indexed": false,
          "name": "_approved",
          "type": "bool"
        }
      ],
      "name": "ApprovalForAll",
      "type": "event"
    },
    {
      "anonymous": false,
      "inputs": [
        {
          "indexed": false,
          "name": "addr",
          "type": "address"
        }
      ],
      "name": "WhitelistedAddressAdded",
      "type": "event"
    },
    {
      "anonymous": false,
      "inputs": [
        {
          "indexed": false,
          "name": "addr",
          "type": "address"
        }
      ],
      "name": "WhitelistedAddressRemoved",
      "type": "event"
    },
    {
      "anonymous": false,
      "inputs": [
        {
          "indexed": true,
          "name": "previousOwner",
          "type": "address"
        },
        {
          "indexed": true,
          "name": "newOwner",
          "type": "address"
        }
      ],
      "name": "OwnershipTransferred",
      "type": "event"
    },
    {
      "constant": false,
      "inputs": [],
      "name": "updateGeneration",
      "outputs": [],
      "payable": false,
      "stateMutability": "nonpayable",
      "type": "function"
    },
    {
      "constant": false,
      "inputs": [
        {
          "name": "_quizzes",
          "type": "uint8[]"
        },
        {
          "name": "_name",
          "type": "string"
        },
        {
          "name": "_special",
          "type": "uint256"
        },
        {
          "name": "_owner",
          "type": "address"
        }
      ],
      "name": "generateSpecialTori",
      "outputs": [
        {
          "name": "success",
          "type": "bool"
        }
      ],
      "payable": false,
      "stateMutability": "nonpayable",
      "type": "function"
    },
    {
      "constant": false,
      "inputs": [
        {
          "name": "_dna",
          "type": "uint256"
        },
        {
          "name": "_level",
          "type": "uint256"
        },
        {
          "name": "_proficiency",
          "type": "uint32"
        },
        {
          "name": "_personality",
          "type": "uint32"
        },
        {
          "name": "_parent1",
          "type": "uint256"
        },
        {
          "name": "_parent2",
          "type": "uint256"
        },
        {
          "name": "_name",
          "type": "string"
        },
        {
          "name": "_owner",
          "type": "address"
        },
        {
          "name": "_special",
          "type": "uint256"
        }
      ],
      "name": "generateNewTori",
      "outputs": [
        {
          "name": "success",
          "type": "bool"
        }
      ],
      "payable": false,
      "stateMutability": "nonpayable",
      "type": "function"
    },
    {
      "constant": false,
      "inputs": [
        {
          "name": "_owner",
          "type": "address"
        },
        {
          "name": "_tokenId",
          "type": "uint256"
        }
      ],
      "name": "burnTori",
      "outputs": [
        {
          "name": "success",
          "type": "bool"
        }
      ],
      "payable": false,
      "stateMutability": "nonpayable",
      "type": "function"
    },
    {
      "constant": true,
      "inputs": [
        {
          "name": "_owner",
          "type": "address"
        }
      ],
      "name": "getTokenIndexes",
      "outputs": [
        {
          "name": "",
          "type": "uint256[]"
        }
      ],
      "payable": false,
      "stateMutability": "view",
      "type": "function"
    },
    {
      "constant": true,
      "inputs": [
        {
          "name": "_owner",
          "type": "address"
        }
      ],
      "name": "getTokenIndexesWithMaxLevel",
      "outputs": [
        {
          "name": "",
          "type": "uint256[]"
        },
        {
          "name": "",
          "type": "uint256"
        }
      ],
      "payable": false,
      "stateMutability": "view",
      "type": "function"
    },
    {
      "constant": true,
      "inputs": [
        {
          "name": "_toriId",
          "type": "uint256"
        }
      ],
      "name": "getTokenInfo",
      "outputs": [
        {
          "name": "toriId",
          "type": "uint256"
        },
        {
          "name": "toriDna",
          "type": "uint256"
        },
        {
          "name": "level",
          "type": "uint256"
        },
        {
          "name": "name",
          "type": "string"
        },
        {
          "name": "proficiency",
          "type": "uint32"
        },
        {
          "name": "personality",
          "type": "uint32"
        },
        {
          "name": "readyTime",
          "type": "uint32"
        },
        {
          "name": "generation",
          "type": "uint256"
        },
        {
          "name": "special",
          "type": "uint256"
        },
        {
          "name": "postingPrice",
          "type": "uint256"
        },
        {
          "name": "toriOwner",
          "type": "address"
        }
      ],
      "payable": false,
      "stateMutability": "view",
      "type": "function"
    },
    {
      "constant": true,
      "inputs": [
        {
          "name": "_tokenId",
          "type": "uint256"
        }
      ],
      "name": "getParentIds",
      "outputs": [
        {
          "name": "parent1",
          "type": "uint256"
        },
        {
          "name": "parent2",
          "type": "uint256"
        }
      ],
      "payable": false,
      "stateMutability": "view",
      "type": "function"
    },
    {
      "constant": true,
      "inputs": [],
      "name": "getTokenCount",
      "outputs": [
        {
          "name": "toriCount",
          "type": "uint256"
        }
      ],
      "payable": false,
      "stateMutability": "view",
      "type": "function"
    },
    {
      "constant": true,
      "inputs": [],
      "name": "getAllTokensCount",
      "outputs": [
        {
          "name": "",
          "type": "uint256"
        }
      ],
      "payable": false,
      "stateMutability": "view",
      "type": "function"
    },
    {
      "constant": false,
      "inputs": [
        {
          "name": "_tokenId",
          "type": "uint256"
        },
        {
          "name": "_salePrice",
          "type": "uint256"
        }
      ],
      "name": "approveForSale",
      "outputs": [],
      "payable": false,
      "stateMutability": "nonpayable",
      "type": "function"
    },
    {
      "constant": false,
      "inputs": [
        {
          "name": "_tokenId",
          "type": "uint256"
        }
      ],
      "name": "removeForSale",
      "outputs": [],
      "payable": false,
      "stateMutability": "nonpayable",
      "type": "function"
    },
    {
      "constant": false,
      "inputs": [
        {
          "name": "_tokenId",
          "type": "uint256"
        }
      ],
      "name": "buyForSale",
      "outputs": [],
      "payable": true,
      "stateMutability": "payable",
      "type": "function"
    },
    {
      "constant": true,
      "inputs": [],
      "name": "retrieveAllForSales",
      "outputs": [
        {
          "name": "",
          "type": "uint256[]"
        }
      ],
      "payable": false,
      "stateMutability": "view",
      "type": "function"
    },
    {
      "constant": false,
      "inputs": [
        {
          "name": "_tokenId",
          "type": "uint256"
        },
        {
          "name": "_newName",
          "type": "string"
        }
      ],
      "name": "updateName",
      "outputs": [
        {
          "name": "",
          "type": "bool"
        }
      ],
      "payable": false,
      "stateMutability": "nonpayable",
      "type": "function"
    },
    {
      "constant": false,
      "inputs": [
        {
          "name": "_tokenId",
          "type": "uint256"
        },
        {
          "name": "_name",
          "type": "string"
        },
        {
          "name": "_proficiency",
          "type": "uint32"
        },
        {
          "name": "_personality",
          "type": "uint32"
        },
        {
          "name": "_special",
          "type": "uint256"
        },
        {
          "name": "_minLevel",
          "type": "uint256"
        }
      ],
      "name": "updateTori",
      "outputs": [
        {
          "name": "result",
          "type": "bool"
        }
      ],
      "payable": false,
      "stateMutability": "nonpayable",
      "type": "function"
    }
  ],
  "bytecode": "0x60606040526023600255600380556006600455600254600a0a600555600160045401600a0a600655600354600a0a60075560a060405190810160405280601961ffff168152602001606461ffff16815260200160af61ffff16815260200160c861ffff16815260200161012c61ffff168152506008906005620000849291906200128e565b50600454600a0a600955608060405190810160405280609661ffff16815260200160c861ffff16815260200161012c61ffff16815260200161015e61ffff16815250600a906004620000d8929190620012e6565b50604b600b5560006013553415620000ef57600080fd5b620000f96200133e565b6200010362001352565b6000336000806101000a81548173ffffffffffffffffffffffffffffffffffffffff021916908373ffffffffffffffffffffffffffffffffffffffff1602179055506004604051805910620001555750595b9080825280602002602001820160405250925060008360008151811015156200017a57fe5b9060200190602002019060ff16908160ff16815250506000836001815181101515620001a257fe5b9060200190602002019060ff16908160ff16815250506000836002815181101515620001ca57fe5b9060200190602002019060ff16908160ff16815250506000836003815181101515620001f257fe5b9060200190602002019060ff16908160ff168152505062000260836040805190810160405280600481526020017f546f746f00000000000000000000000000000000000000000000000000000000815250336000620009b66401000000000262003360176401000000009004565b91506001601080548060010182816200027a9190620013c0565b9160005260206000209060080201600085909190915060008201518160000155602082015181600101556040820151816002019080519060200190620002c2929190620013f5565b5060608201518160030160006101000a81548163ffffffff021916908363ffffffff16021790555060808201518160030160046101000a81548163ffffffff021916908363ffffffff16021790555060a08201518160030160086101000a81548163ffffffff021916908363ffffffff16021790555060c0820151816004015560e0820151816005015561010082015181600601556101208201518160070155505003905033600c600083815260200190815260200160002060006101000a81548173ffffffffffffffffffffffffffffffffffffffff021916908373ffffffffffffffffffffffffffffffffffffffff1602179055506200041c6001600e60003373ffffffffffffffffffffffffffffffffffffffff1673ffffffffffffffffffffffffffffffffffffffff1681526020019081526020016000205462000a5d6401000000000262002980179091906401000000009004565b600e60003373ffffffffffffffffffffffffffffffffffffffff1673ffffffffffffffffffffffffffffffffffffffff1681526020019081526020016000208190555060018360018151811015156200047157fe5b9060200190602002019060ff16908160ff1681525050620004df836040805190810160405280600481526020017f5269726900000000000000000000000000000000000000000000000000000000815250336000620009b66401000000000262003360176401000000009004565b9150600160108054806001018281620004f99190620013c0565b916000526020600020906008020160008590919091506000820151816000015560208201518160010155604082015181600201908051906020019062000541929190620013f5565b5060608201518160030160006101000a81548163ffffffff021916908363ffffffff16021790555060808201518160030160046101000a81548163ffffffff021916908363ffffffff16021790555060a08201518160030160086101000a81548163ffffffff021916908363ffffffff16021790555060c0820151816004015560e0820151816005015561010082015181600601556101208201518160070155505003905033600c600083815260200190815260200160002060006101000a81548173ffffffffffffffffffffffffffffffffffffffff021916908373ffffffffffffffffffffffffffffffffffffffff1602179055506200069b6001600e60003373ffffffffffffffffffffffffffffffffffffffff1673ffffffffffffffffffffffffffffffffffffffff1681526020019081526020016000205462000a5d6401000000000262002980179091906401000000009004565b600e60003373ffffffffffffffffffffffffffffffffffffffff1673ffffffffffffffffffffffffffffffffffffffff168152602001908152602001600020819055506001836000815181101515620006f057fe5b9060200190602002019060ff16908160ff168152505060018360038151811015156200071857fe5b9060200190602002019060ff16908160ff168152505062000786836040805190810160405280600481526020017f5269746f00000000000000000000000000000000000000000000000000000000815250336000620009b66401000000000262003360176401000000009004565b9150600160108054806001018281620007a09190620013c0565b9160005260206000209060080201600085909190915060008201518160000155602082015181600101556040820151816002019080519060200190620007e8929190620013f5565b5060608201518160030160006101000a81548163ffffffff021916908363ffffffff16021790555060808201518160030160046101000a81548163ffffffff021916908363ffffffff16021790555060a08201518160030160086101000a81548163ffffffff021916908363ffffffff16021790555060c0820151816004015560e0820151816005015561010082015181600601556101208201518160070155505003905033600c600083815260200190815260200160002060006101000a81548173ffffffffffffffffffffffffffffffffffffffff021916908373ffffffffffffffffffffffffffffffffffffffff160217905550620009426001600e60003373ffffffffffffffffffffffffffffffffffffffff1673ffffffffffffffffffffffffffffffffffffffff1681526020019081526020016000205462000a5d6401000000000262002980179091906401000000009004565b600e60003373ffffffffffffffffffffffffffffffffffffffff1673ffffffffffffffffffffffffffffffffffffffff16815260200190815260200160002081905550620009ad600066038d7ea4c6800062000a7a64010000000002620010c5176401000000009004565b505050620015c1565b620009c062001352565b6000806000620009e688888862000b6d6401000000000262003530176401000000009004565b80935081945082955050505061014060405190810160405280848152602001600181526020018881526020018363ffffffff1681526020018263ffffffff1681526020014263ffffffff16815260200160135481526020018681526020016000815260200160008152509350505050949350505050565b6000818301905082811015151562000a7157fe5b80905092915050565b813373ffffffffffffffffffffffffffffffffffffffff1662000ab18262000d556401000000000262001801176401000000009004565b73ffffffffffffffffffffffffffffffffffffffff1614151562000ad457600080fd5b6000601160008581526020019081526020016000205414801562000af85750600082115b151562000b0457600080fd5b81601160008581526020019081526020016000208190555062000b42600160125462000a5d6401000000000262002980179091906401000000009004565b60128190555062000b68308462000dd46401000000000262000eff176401000000009004565b505050565b600080600080428587604051808481526020018373ffffffffffffffffffffffffffffffffffffffff1673ffffffffffffffffffffffffffffffffffffffff166c0100000000000000000000000002815260140182805190602001908083835b60208310151562000bf4578051825260208201915060208101905060208303925062000bcd565b6001836020036101000a038019825116818451168082178552505050505050905001935050505060405180910390206001900490506005548181151562000c3757fe5b0693506000600160025403600a0a8581151562000c5057fe5b04141562000c6657600160025403600a0a840193505b6007548481151562000c7457fe5b06925060075460095481151562000c8757fe5b046009548581151562000c9657fe5b0681151562000ca157fe5b04915062000d1683600880548060200260200160405190810160405280929190818152602001828054801562000cf757602002820191906000526020600020905b81548152602001906001019080831162000ce2575b505050505062000fe164010000000002620036e0176401000000009004565b925062000d38878362001053640100000000026200374d176401000000009004565b91506006548481151562000d4857fe5b0493505093509350939050565b600080600c600084815260200190815260200160002060009054906101000a900473ffffffffffffffffffffffffffffffffffffffff169050600073ffffffffffffffffffffffffffffffffffffffff168173ffffffffffffffffffffffffffffffffffffffff161415151562000dcb57600080fd5b80915050919050565b600062000df58262000d556401000000000262001801176401000000009004565b90508073ffffffffffffffffffffffffffffffffffffffff168373ffffffffffffffffffffffffffffffffffffffff161415151562000e3357600080fd5b8073ffffffffffffffffffffffffffffffffffffffff163373ffffffffffffffffffffffffffffffffffffffff16148062000e8a575062000e898133620011bd6401000000000262002797176401000000009004565b5b151562000e9657600080fd5b600073ffffffffffffffffffffffffffffffffffffffff1662000ecd83620012516401000000000262000ec2176401000000009004565b73ffffffffffffffffffffffffffffffffffffffff1614158062000f1e5750600073ffffffffffffffffffffffffffffffffffffffff168373ffffffffffffffffffffffffffffffffffffffff1614155b1562000fdc5782600d600084815260200190815260200160002060006101000a81548173ffffffffffffffffffffffffffffffffffffffff021916908373ffffffffffffffffffffffffffffffffffffffff1602179055508273ffffffffffffffffffffffffffffffffffffffff168173ffffffffffffffffffffffffffffffffffffffff167f8c5be1e5ebec7d5bd14f71427d1e84f3dd0314c0f7b2291e5b200ac8c7c3b925846040518082815260200191505060405180910390a35b505050565b60008060008060009250600091505b8451821015620010425784828151811015156200100957fe5b9060200190602002015190508083018663ffffffff1610156200102f578193506200104a565b8083019250818060010192505062000ff0565b600185510393505b50505092915050565b60006200105f6200147c565b600080600080600a805480602002602001604051908101604052809291908181526020018280548015620010b357602002820191906000526020600020905b8154815260200190600101908083116200109e575b5050505050945060009350600092505b8751831015620010fb578783815181101515620010dc57fe5b9060200190602002015160ff16840193508280600101935050620010c3565b6001885103600a029150600084118015620011165750875184105b156200119057600092505b87518310156200118f5787838151811015156200113a57fe5b9060200190602002015160ff168851029050838103905080828115156200115d57fe5b0485848151811015156200116d57fe5b9060200190602002018181510191508181525050828060010193505062001121565b5b620011b0878662000fe164010000000002620036e0176401000000009004565b9550505050505092915050565b6000600f60008473ffffffffffffffffffffffffffffffffffffffff1673ffffffffffffffffffffffffffffffffffffffff16815260200190815260200160002060008373ffffffffffffffffffffffffffffffffffffffff1673ffffffffffffffffffffffffffffffffffffffff16815260200190815260200160002060009054906101000a900460ff16905092915050565b6000600d600083815260200190815260200160002060009054906101000a900473ffffffffffffffffffffffffffffffffffffffff169050919050565b828054828255906000526020600020908101928215620012d3579160200282015b82811115620012d2578251829061ffff16905591602001919060010190620012af565b5b509050620012e2919062001490565b5090565b8280548282559060005260206000209081019282156200132b579160200282015b828111156200132a578251829061ffff1690559160200191906001019062001307565b5b5090506200133a919062001490565b5090565b602060405190810160405280600081525090565b61014060405190810160405280600081526020016000815260200162001377620014b8565b8152602001600063ffffffff168152602001600063ffffffff168152602001600063ffffffff168152602001600081526020016000815260200160008152602001600081525090565b815481835581811511620013f057600802816008028360005260206000209182019101620013ef9190620014cc565b5b505050565b828054600181600116156101000203166002900490600052602060002090601f016020900481019282601f106200143857805160ff191683800117855562001469565b8280016001018555821562001469579182015b82811115620014685782518255916020019190600101906200144b565b5b50905062001478919062001490565b5090565b602060405190810160405280600081525090565b620014b591905b80821115620014b157600081600090555060010162001497565b5090565b90565b602060405190810160405280600081525090565b6200157291905b808211156200156e576000808201600090556001820160009055600282016000620014ff919062001575565b6003820160006101000a81549063ffffffff02191690556003820160046101000a81549063ffffffff02191690556003820160086101000a81549063ffffffff0219169055600482016000905560058201600090556006820160009055600782016000905550600801620014d3565b5090565b90565b50805460018160011615610100020316600290046000825580601f106200159d5750620015be565b601f016020900490600052602060002090810190620015bd919062001490565b5b50565b613baa80620015d16000396000f3006060604052600436106101a1576000357c0100000000000000000000000000000000000000000000000000000000900463ffffffff168063081812fc146101a6578063095ea7b314610209578063120e22e41461024b57806323b872dd1461027757806324953eaa146102d8578063286dd3f51461034a57806342842e0e1461039b578063444c9293146103fc5780634dac6dcf146104aa5780634f558e79146105045780634f8e2a421461053f5780635178f0041461061e57806353e76f2c1461065c5780636352211e146106da5780636b8667f51461073d57806370a082311461076057806378a89567146107ad5780637b9417c8146107d657806380507b57146108275780638c7a63ae146108b55780638da5cb5b146109e7578063933b545414610a3c5780639b19251a14610a65578063a22cb46514610ab6578063b32805c314610afa578063b438314f14610b0f578063b88d4fde14610b27578063be928c9214610bcb578063e2ec6ec314610c35578063e3ce225714610ca7578063e728ce9014610d3c578063e985e9c514610e19578063f2fde38b14610e89575b600080fd5b34156101b157600080fd5b6101c76004808035906020019091905050610ec2565b604051808273ffffffffffffffffffffffffffffffffffffffff1673ffffffffffffffffffffffffffffffffffffffff16815260200191505060405180910390f35b341561021457600080fd5b610249600480803573ffffffffffffffffffffffffffffffffffffffff16906020019091908035906020019091905050610eff565b005b341561025657600080fd5b61027560048080359060200190919080359060200190919050506110c5565b005b341561028257600080fd5b6102d6600480803573ffffffffffffffffffffffffffffffffffffffff1690602001909190803573ffffffffffffffffffffffffffffffffffffffff16906020019091908035906020019091905050611179565b005b34156102e357600080fd5b610330600480803590602001908201803590602001908080602002602001604051908101604052809392919081815260200183836020028082843782019150505050505091905050611290565b604051808215151515815260200191505060405180910390f35b341561035557600080fd5b610381600480803573ffffffffffffffffffffffffffffffffffffffff16906020019091905050611339565b604051808215151515815260200191505060405180910390f35b34156103a657600080fd5b6103fa600480803573ffffffffffffffffffffffffffffffffffffffff1690602001909190803573ffffffffffffffffffffffffffffffffffffffff169060200190919080359060200190919050506114ad565b005b341561040757600080fd5b610490600480803590602001909190803590602001908201803590602001908080601f0160208091040260200160405190810160405280939291908181526020018383808284378201915050505050509190803563ffffffff1690602001909190803563ffffffff169060200190919080359060200190919080359060200190919050506114e5565b604051808215151515815260200191505060405180910390f35b34156104b557600080fd5b6104ea600480803573ffffffffffffffffffffffffffffffffffffffff1690602001909190803590602001909190505061164d565b604051808215151515815260200191505060405180910390f35b341561050f57600080fd5b6105256004808035906020019091905050611661565b604051808215151515815260200191505060405180910390f35b341561054a57600080fd5b610604600480803590602001909190803590602001909190803563ffffffff1690602001909190803563ffffffff1690602001909190803590602001909190803590602001909190803590602001908201803590602001908080601f0160208091040260200160405190810160405280939291908181526020018383808284378201915050505050509190803573ffffffffffffffffffffffffffffffffffffffff169060200190919080359060200190919050506116d3565b604051808215151515815260200191505060405180910390f35b341561062957600080fd5b61063f60048080359060200190919050506116f5565b604051808381526020018281526020019250505060405180910390f35b341561066757600080fd5b6106c0600480803590602001909190803590602001908201803590602001908080601f01602080910402602001604051908101604052809392919081815260200183838082843782019150505050505091905050611743565b604051808215151515815260200191505060405180910390f35b34156106e557600080fd5b6106fb6004808035906020019091905050611801565b604051808273ffffffffffffffffffffffffffffffffffffffff1673ffffffffffffffffffffffffffffffffffffffff16815260200191505060405180910390f35b341561074857600080fd5b61075e600480803590602001909190505061187f565b005b341561076b57600080fd5b610797600480803573ffffffffffffffffffffffffffffffffffffffff16906020019091905050611927565b6040518082815260200191505060405180910390f35b34156107b857600080fd5b6107c06119ab565b6040518082815260200191505060405180910390f35b34156107e157600080fd5b61080d600480803573ffffffffffffffffffffffffffffffffffffffff169060200190919050506119f2565b604051808215151515815260200191505060405180910390f35b341561083257600080fd5b61085e600480803573ffffffffffffffffffffffffffffffffffffffff16906020019091905050611b66565b6040518080602001828103825283818151815260200191508051906020019060200280838360005b838110156108a1578082015181840152602081019050610886565b505050509050019250505060405180910390f35b34156108c057600080fd5b6108d66004808035906020019091905050611cc4565b604051808c81526020018b81526020018a8152602001806020018963ffffffff1663ffffffff1681526020018863ffffffff1663ffffffff1681526020018763ffffffff1663ffffffff1681526020018681526020018581526020018481526020018373ffffffffffffffffffffffffffffffffffffffff1673ffffffffffffffffffffffffffffffffffffffff16815260200182810382528a818151815260200191508051906020019080838360005b838110156109a2578082015181840152602081019050610987565b50505050905090810190601f1680156109cf5780820380516001836020036101000a031916815260200191505b509c5050505050505050505050505060405180910390f35b34156109f257600080fd5b6109fa611ef7565b604051808273ffffffffffffffffffffffffffffffffffffffff1673ffffffffffffffffffffffffffffffffffffffff16815260200191505060405180910390f35b3415610a4757600080fd5b610a4f611f1c565b6040518082815260200191505060405180910390f35b3415610a7057600080fd5b610a9c600480803573ffffffffffffffffffffffffffffffffffffffff16906020019091905050611f29565b604051808215151515815260200191505060405180910390f35b3415610ac157600080fd5b610af8600480803573ffffffffffffffffffffffffffffffffffffffff169060200190919080351515906020019091905050611f49565b005b3415610b0557600080fd5b610b0d612085565b005b610b2560048080359060200190919050506120fe565b005b3415610b3257600080fd5b610bc9600480803573ffffffffffffffffffffffffffffffffffffffff1690602001909190803573ffffffffffffffffffffffffffffffffffffffff1690602001909190803590602001909190803590602001908201803590602001908080601f01602080910402602001604051908101604052809392919081815260200183838082843782019150505050505091905050612389565b005b3415610bd657600080fd5b610bde6123c8565b6040518080602001828103825283818151815260200191508051906020019060200280838360005b83811015610c21578082015181840152602081019050610c06565b505050509050019250505060405180910390f35b3415610c4057600080fd5b610c8d600480803590602001908201803590602001908080602002602001604051908101604052809392919081815260200183836020028082843782019150505050505091905050612488565b604051808215151515815260200191505060405180910390f35b3415610cb257600080fd5b610cde600480803573ffffffffffffffffffffffffffffffffffffffff16906020019091905050612531565b6040518080602001838152602001828103825284818151815260200191508051906020019060200280838360005b83811015610d27578082015181840152602081019050610d0c565b50505050905001935050505060405180910390f35b3415610d4757600080fd5b610dff60048080359060200190820180359060200190808060200260200160405190810160405280939291908181526020018383602002808284378201915050505050509190803590602001908201803590602001908080601f0160208091040260200160405190810160405280939291908181526020018383808284378201915050505050509190803590602001909190803573ffffffffffffffffffffffffffffffffffffffff169060200190919050506125be565b604051808215151515815260200191505060405180910390f35b3415610e2457600080fd5b610e6f600480803573ffffffffffffffffffffffffffffffffffffffff1690602001909190803573ffffffffffffffffffffffffffffffffffffffff16906020019091905050612797565b604051808215151515815260200191505060405180910390f35b3415610e9457600080fd5b610ec0600480803573ffffffffffffffffffffffffffffffffffffffff1690602001909190505061282b565b005b6000600d600083815260200190815260200160002060009054906101000a900473ffffffffffffffffffffffffffffffffffffffff169050919050565b6000610f0a82611801565b90508073ffffffffffffffffffffffffffffffffffffffff168373ffffffffffffffffffffffffffffffffffffffff1614151515610f4757600080fd5b8073ffffffffffffffffffffffffffffffffffffffff163373ffffffffffffffffffffffffffffffffffffffff161480610f875750610f868133612797565b5b1515610f9257600080fd5b600073ffffffffffffffffffffffffffffffffffffffff16610fb383610ec2565b73ffffffffffffffffffffffffffffffffffffffff161415806110035750600073ffffffffffffffffffffffffffffffffffffffff168373ffffffffffffffffffffffffffffffffffffffff1614155b156110c05782600d600084815260200190815260200160002060006101000a81548173ffffffffffffffffffffffffffffffffffffffff021916908373ffffffffffffffffffffffffffffffffffffffff1602179055508273ffffffffffffffffffffffffffffffffffffffff168173ffffffffffffffffffffffffffffffffffffffff167f8c5be1e5ebec7d5bd14f71427d1e84f3dd0314c0f7b2291e5b200ac8c7c3b925846040518082815260200191505060405180910390a35b505050565b813373ffffffffffffffffffffffffffffffffffffffff166110e682611801565b73ffffffffffffffffffffffffffffffffffffffff1614151561110857600080fd5b6000601160008581526020019081526020016000205414801561112b5750600082115b151561113657600080fd5b816011600085815260200190815260200160002081905550611164600160125461298090919063ffffffff16565b6012819055506111743084610eff565b505050565b80611184338261299c565b151561118f57600080fd5b600073ffffffffffffffffffffffffffffffffffffffff168473ffffffffffffffffffffffffffffffffffffffff16141515156111cb57600080fd5b600073ffffffffffffffffffffffffffffffffffffffff168373ffffffffffffffffffffffffffffffffffffffff161415151561120757600080fd5b6112118483612a31565b61121b8483612b9a565b6112258383612cc9565b8273ffffffffffffffffffffffffffffffffffffffff168473ffffffffffffffffffffffffffffffffffffffff167fddf252ad1be2c89b69c2b068fc378daa952ba7f163c4a11628f55a4df523b3ef846040518082815260200191505060405180910390a350505050565b6000806000809054906101000a900473ffffffffffffffffffffffffffffffffffffffff1673ffffffffffffffffffffffffffffffffffffffff163373ffffffffffffffffffffffffffffffffffffffff161415156112ee57600080fd5b600090505b82518110156113335761131c838281518110151561130d57fe5b90602001906020020151611339565b1561132657600191505b80806001019150506112f3565b50919050565b60008060009054906101000a900473ffffffffffffffffffffffffffffffffffffffff1673ffffffffffffffffffffffffffffffffffffffff163373ffffffffffffffffffffffffffffffffffffffff1614151561139657600080fd5b600160008373ffffffffffffffffffffffffffffffffffffffff1673ffffffffffffffffffffffffffffffffffffffff16815260200190815260200160002060009054906101000a900460ff16156114a8576000600160008473ffffffffffffffffffffffffffffffffffffffff1673ffffffffffffffffffffffffffffffffffffffff16815260200190815260200160002060006101000a81548160ff0219169083151502179055507ff1abf01a1043b7c244d128e8595cf0c1d10743b022b03a02dffd8ca3bf729f5a82604051808273ffffffffffffffffffffffffffffffffffffffff1673ffffffffffffffffffffffffffffffffffffffff16815260200191505060405180910390a1600190505b919050565b806114b8338261299c565b15156114c357600080fd5b6114df8484846020604051908101604052806000815250612389565b50505050565b600080600160003373ffffffffffffffffffffffffffffffffffffffff1673ffffffffffffffffffffffffffffffffffffffff16815260200190815260200160002060009054906101000a900460ff16151561154057600080fd5b873373ffffffffffffffffffffffffffffffffffffffff1661156182611801565b73ffffffffffffffffffffffffffffffffffffffff1614151561158357600080fd5b88848060108381548110151561159557fe5b906000526020600020906008020160010154101515156115b457600080fd5b60108b8154811015156115c357fe5b90600052602060002090600802019350898460020190805190602001906115eb929190613893565b50888460030160006101000a81548163ffffffff021916908363ffffffff160217905550878460030160046101000a81548163ffffffff021916908363ffffffff16021790555086846005018190555060019450505050509695505050505050565b60006116598383612e23565b905092915050565b600080600c600084815260200190815260200160002060009054906101000a900473ffffffffffffffffffffffffffffffffffffffff169050600073ffffffffffffffffffffffffffffffffffffffff168173ffffffffffffffffffffffffffffffffffffffff161415915050919050565b60006116e68a8a8a8a8a8a8a8a8a612ee3565b90509998505050505050505050565b60008060108381548110151561170757fe5b90600052602060002090600802016006015460108481548110151561172857fe5b90600052602060002090600802016007015491509150915091565b600080833373ffffffffffffffffffffffffffffffffffffffff1661176782611801565b73ffffffffffffffffffffffffffffffffffffffff1614151561178957600080fd5b8460048060108381548110151561179c57fe5b906000526020600020906008020160010154101515156117bb57600080fd5b6010878154811015156117ca57fe5b90600052602060002090600802019350858460020190805190602001906117f2929190613893565b50600194505050505092915050565b600080600c600084815260200190815260200160002060009054906101000a900473ffffffffffffffffffffffffffffffffffffffff169050600073ffffffffffffffffffffffffffffffffffffffff168173ffffffffffffffffffffffffffffffffffffffff161415151561187657600080fd5b80915050919050565b803373ffffffffffffffffffffffffffffffffffffffff166118a082611801565b73ffffffffffffffffffffffffffffffffffffffff161415156118c257600080fd5b600060116000848152602001908152602001600020541115156118e457600080fd5b60006011600084815260200190815260200160002081905550611913600160125461317e90919063ffffffff16565b6012819055506119233383612a31565b5050565b60008073ffffffffffffffffffffffffffffffffffffffff168273ffffffffffffffffffffffffffffffffffffffff161415151561196457600080fd5b600e60008373ffffffffffffffffffffffffffffffffffffffff1673ffffffffffffffffffffffffffffffffffffffff168152602001908152602001600020549050919050565b6000600e60003373ffffffffffffffffffffffffffffffffffffffff1673ffffffffffffffffffffffffffffffffffffffff16815260200190815260200160002054905090565b60008060009054906101000a900473ffffffffffffffffffffffffffffffffffffffff1673ffffffffffffffffffffffffffffffffffffffff163373ffffffffffffffffffffffffffffffffffffffff16141515611a4f57600080fd5b600160008373ffffffffffffffffffffffffffffffffffffffff1673ffffffffffffffffffffffffffffffffffffffff16815260200190815260200160002060009054906101000a900460ff161515611b615760018060008473ffffffffffffffffffffffffffffffffffffffff1673ffffffffffffffffffffffffffffffffffffffff16815260200190815260200160002060006101000a81548160ff0219169083151502179055507fd1bba68c128cc3f427e5831b3c6f99f480b6efa6b9e80c757768f6124158cc3f82604051808273ffffffffffffffffffffffffffffffffffffffff1673ffffffffffffffffffffffffffffffffffffffff16815260200191505060405180910390a1600190505b919050565b611b6e613913565b6000611b78613913565b600080600e60008773ffffffffffffffffffffffffffffffffffffffff1673ffffffffffffffffffffffffffffffffffffffff16815260200190815260200160002054935083604051805910611bcb5750595b9080825280602002602001820160405250925060009150600090505b601080549050811015611cb8578573ffffffffffffffffffffffffffffffffffffffff16600c600083815260200190815260200160002060009054906101000a900473ffffffffffffffffffffffffffffffffffffffff1673ffffffffffffffffffffffffffffffffffffffff161415611c8f57808383815181101515611c6a57fe5b9060200190602002018181525050611c8c60018361298090919063ffffffff16565b91505b8382101515611c9d57611cb8565b611cb160018261298090919063ffffffff16565b9050611be7565b82945050505050919050565b6000806000611cd1613927565b6000806000806000806000611ce461393b565b60108d815481101515611cf357fe5b906000526020600020906008020161014060405190810160405290816000820154815260200160018201548152602001600282018054600181600116156101000203166002900480601f016020809104026020016040519081016040528092919081815260200182805460018160011615610100020316600290048015611dbb5780601f10611d9057610100808354040283529160200191611dbb565b820191906000526020600020905b815481529060010190602001808311611d9e57829003601f168201915b505050505081526020016003820160009054906101000a900463ffffffff1663ffffffff1663ffffffff1681526020016003820160049054906101000a900463ffffffff1663ffffffff1663ffffffff1681526020016003820160089054906101000a900463ffffffff1663ffffffff1663ffffffff16815260200160048201548152602001600582015481526020016006820154815260200160078201548152505090508c9b508060200151995080600001519a508060400151985080606001519750806080015196508060a0015195508060c0015194508060e001519350601160008e8152602001908152602001600020549250600c60008e815260200190815260200160002060009054906101000a900473ffffffffffffffffffffffffffffffffffffffff1691505091939597999b90929496989a50565b6000809054906101000a900473ffffffffffffffffffffffffffffffffffffffff1681565b6000601080549050905090565b60016020528060005260406000206000915054906101000a900460ff1681565b3373ffffffffffffffffffffffffffffffffffffffff168273ffffffffffffffffffffffffffffffffffffffff1614151515611f8457600080fd5b80600f60003373ffffffffffffffffffffffffffffffffffffffff1673ffffffffffffffffffffffffffffffffffffffff16815260200190815260200160002060008473ffffffffffffffffffffffffffffffffffffffff1673ffffffffffffffffffffffffffffffffffffffff16815260200190815260200160002060006101000a81548160ff0219169083151502179055508173ffffffffffffffffffffffffffffffffffffffff163373ffffffffffffffffffffffffffffffffffffffff167f17307eab39ab6107e8899845ad3d59bd9653f200f220920489ca2b5937696c3183604051808215151515815260200191505060405180910390a35050565b6000809054906101000a900473ffffffffffffffffffffffffffffffffffffffff1673ffffffffffffffffffffffffffffffffffffffff163373ffffffffffffffffffffffffffffffffffffffff161415156120e057600080fd5b6120f6600160135461298090919063ffffffff16565b601381905550565b60008061210b308461299c565b801561212a575060006011600085815260200190815260200160002054115b8015612149575060116000848152602001908152602001600020543410155b151561215457600080fd5b61215d83611801565b915061218560116000858152602001908152602001600020543461317e90919063ffffffff16565b90506000811115612228573373ffffffffffffffffffffffffffffffffffffffff166108fc829081150290604051600060405180830381858888f1935050505015156121d057600080fd5b8173ffffffffffffffffffffffffffffffffffffffff166108fc60116000868152602001908152602001600020549081150290604051600060405180830381858888f19350505050151561222357600080fd5b612269565b8173ffffffffffffffffffffffffffffffffffffffff166108fc349081150290604051600060405180830381858888f19350505050151561226857600080fd5b5b60006011600085815260200190815260200160002081905550612298600160125461317e90919063ffffffff16565b6012819055503073ffffffffffffffffffffffffffffffffffffffff166342842e0e8333866040518463ffffffff167c0100000000000000000000000000000000000000000000000000000000028152600401808473ffffffffffffffffffffffffffffffffffffffff1673ffffffffffffffffffffffffffffffffffffffff1681526020018373ffffffffffffffffffffffffffffffffffffffff1673ffffffffffffffffffffffffffffffffffffffff1681526020018281526020019350505050600060405180830381600087803b151561237457600080fd5b5af1151561238157600080fd5b505050505050565b81612394338261299c565b151561239f57600080fd5b6123aa858585611179565b6123b685858585613197565b15156123c157600080fd5b5050505050565b6123d0613913565b6123d8613913565b6000806012546040518059106123eb5750595b9080825280602002602001820160405250925060009150600090505b60108054905081101561247f576000601160008381526020019081526020016000205411156124645780838381518110151561243f57fe5b906020019060200201818152505061246160018361298090919063ffffffff16565b91505b61247860018261298090919063ffffffff16565b9050612407565b82935050505090565b6000806000809054906101000a900473ffffffffffffffffffffffffffffffffffffffff1673ffffffffffffffffffffffffffffffffffffffff163373ffffffffffffffffffffffffffffffffffffffff161415156124e657600080fd5b600090505b825181101561252b57612514838281518110151561250557fe5b906020019060200201516119f2565b1561251e57600191505b80806001019150506124eb565b50919050565b612539613913565b6000612543613913565b600080600061255187611b66565b935060019250600091505b83518210156125af5760108281548110151561257457fe5b906000526020600020906008020160010154905082811115612594578092505b6125a860018361298090919063ffffffff16565b915061255c565b83839550955050505050915091565b60006125c861393b565b6000600160003373ffffffffffffffffffffffffffffffffffffffff1673ffffffffffffffffffffffffffffffffffffffff16815260200190815260200160002060009054906101000a900460ff16151561262257600080fd5b61262e87878688613360565b915060016010805480600101828161264691906139a7565b916000526020600020906008020160008590919091506000820151816000015560208201518160010155604082015181600201908051906020019061268c9291906139d9565b5060608201518160030160006101000a81548163ffffffff021916908363ffffffff16021790555060808201518160030160046101000a81548163ffffffff021916908363ffffffff16021790555060a08201518160030160086101000a81548163ffffffff021916908363ffffffff16021790555060c0820151816004015560e0820151816005015561010082015181600601556101208201518160070155505003905061273b84826133ef565b8373ffffffffffffffffffffffffffffffffffffffff167f163090350da897fd03497e870bbe993a1948b39328cd37a8fe6b9179e120dd27826040518082815260200191505060405180910390a2600192505050949350505050565b6000600f60008473ffffffffffffffffffffffffffffffffffffffff1673ffffffffffffffffffffffffffffffffffffffff16815260200190815260200160002060008373ffffffffffffffffffffffffffffffffffffffff1673ffffffffffffffffffffffffffffffffffffffff16815260200190815260200160002060009054906101000a900460ff16905092915050565b6000809054906101000a900473ffffffffffffffffffffffffffffffffffffffff1673ffffffffffffffffffffffffffffffffffffffff163373ffffffffffffffffffffffffffffffffffffffff1614151561288657600080fd5b600073ffffffffffffffffffffffffffffffffffffffff168173ffffffffffffffffffffffffffffffffffffffff16141515156128c257600080fd5b8073ffffffffffffffffffffffffffffffffffffffff166000809054906101000a900473ffffffffffffffffffffffffffffffffffffffff1673ffffffffffffffffffffffffffffffffffffffff167f8be0079c531659141344cd1fd0a4f28419497f9722a3daafe3b4186f6b6457e060405160405180910390a3806000806101000a81548173ffffffffffffffffffffffffffffffffffffffff021916908373ffffffffffffffffffffffffffffffffffffffff16021790555050565b6000818301905082811015151561299357fe5b80905092915050565b6000806129a883611801565b90508073ffffffffffffffffffffffffffffffffffffffff168473ffffffffffffffffffffffffffffffffffffffff161480612a1757508373ffffffffffffffffffffffffffffffffffffffff166129ff84610ec2565b73ffffffffffffffffffffffffffffffffffffffff16145b80612a285750612a278185612797565b5b91505092915050565b8173ffffffffffffffffffffffffffffffffffffffff16612a5182611801565b73ffffffffffffffffffffffffffffffffffffffff16141515612a7357600080fd5b600073ffffffffffffffffffffffffffffffffffffffff16600d600083815260200190815260200160002060009054906101000a900473ffffffffffffffffffffffffffffffffffffffff1673ffffffffffffffffffffffffffffffffffffffff16141515612b96576000600d600083815260200190815260200160002060006101000a81548173ffffffffffffffffffffffffffffffffffffffff021916908373ffffffffffffffffffffffffffffffffffffffff160217905550600073ffffffffffffffffffffffffffffffffffffffff168273ffffffffffffffffffffffffffffffffffffffff167f8c5be1e5ebec7d5bd14f71427d1e84f3dd0314c0f7b2291e5b200ac8c7c3b925836040518082815260200191505060405180910390a35b5050565b8173ffffffffffffffffffffffffffffffffffffffff16612bba82611801565b73ffffffffffffffffffffffffffffffffffffffff16141515612bdc57600080fd5b612c2f6001600e60008573ffffffffffffffffffffffffffffffffffffffff1673ffffffffffffffffffffffffffffffffffffffff1681526020019081526020016000205461317e90919063ffffffff16565b600e60008473ffffffffffffffffffffffffffffffffffffffff1673ffffffffffffffffffffffffffffffffffffffff168152602001908152602001600020819055506000600c600083815260200190815260200160002060006101000a81548173ffffffffffffffffffffffffffffffffffffffff021916908373ffffffffffffffffffffffffffffffffffffffff1602179055505050565b600073ffffffffffffffffffffffffffffffffffffffff16600c600083815260200190815260200160002060009054906101000a900473ffffffffffffffffffffffffffffffffffffffff1673ffffffffffffffffffffffffffffffffffffffff16141515612d3757600080fd5b81600c600083815260200190815260200160002060006101000a81548173ffffffffffffffffffffffffffffffffffffffff021916908373ffffffffffffffffffffffffffffffffffffffff160217905550612ddc6001600e60008573ffffffffffffffffffffffffffffffffffffffff1673ffffffffffffffffffffffffffffffffffffffff1681526020019081526020016000205461298090919063ffffffff16565b600e60008473ffffffffffffffffffffffffffffffffffffffff1673ffffffffffffffffffffffffffffffffffffffff168152602001908152602001600020819055505050565b6000600160003373ffffffffffffffffffffffffffffffffffffffff1673ffffffffffffffffffffffffffffffffffffffff16815260200190815260200160002060009054906101000a900460ff161515612e7d57600080fd5b600060116000848152602001908152602001600020541115612ecf5760006011600084815260200190815260200160002081905550612ec8600160125461317e90919063ffffffff16565b6012819055505b612ed9838361349f565b6001905092915050565b6000612eed61393b565b6000600160003373ffffffffffffffffffffffffffffffffffffffff1673ffffffffffffffffffffffffffffffffffffffff16815260200190815260200160002060009054906101000a900460ff161515612f4757600080fd5b60006005548d811515612f5657fe5b04148015612f6b575060008a63ffffffff1610155b8015612f8157506008805490508a63ffffffff16105b8015612f94575060008963ffffffff1610155b8015612faa5750600a805490508963ffffffff16105b1515612fb557600080fd5b610140604051908101604052808d81526020018c81526020018781526020018b63ffffffff1681526020018a63ffffffff1681526020014263ffffffff168152602001601354815260200185815260200189815260200188815250915060016010805480600101828161302891906139a7565b916000526020600020906008020160008590919091506000820151816000015560208201518160010155604082015181600201908051906020019061306e9291906139d9565b5060608201518160030160006101000a81548163ffffffff021916908363ffffffff16021790555060808201518160030160046101000a81548163ffffffff021916908363ffffffff16021790555060a08201518160030160086101000a81548163ffffffff021916908363ffffffff16021790555060c0820151816004015560e0820151816005015561010082015181600601556101208201518160070155505003905061311d85826133ef565b8473ffffffffffffffffffffffffffffffffffffffff167f163090350da897fd03497e870bbe993a1948b39328cd37a8fe6b9179e120dd27826040518082815260200191505060405180910390a26001925050509998505050505050505050565b600082821115151561318c57fe5b818303905092915050565b6000806131b98573ffffffffffffffffffffffffffffffffffffffff1661351d565b15156131c85760019150613357565b8473ffffffffffffffffffffffffffffffffffffffff1663f0b9e5ba8786866040518463ffffffff167c0100000000000000000000000000000000000000000000000000000000028152600401808473ffffffffffffffffffffffffffffffffffffffff1673ffffffffffffffffffffffffffffffffffffffff16815260200183815260200180602001828103825283818151815260200191508051906020019080838360005b8381101561328a57808201518184015260208101905061326f565b50505050905090810190601f1680156132b75780820380516001836020036101000a031916815260200191505b50945050505050602060405180830381600087803b15156132d757600080fd5b5af115156132e457600080fd5b50505060405180519050905063f0b9e5ba7c0100000000000000000000000000000000000000000000000000000000027bffffffffffffffffffffffffffffffffffffffffffffffffffffffff1916817bffffffffffffffffffffffffffffffffffffffffffffffffffffffff19161491505b50949350505050565b61336861393b565b6000806000613378888888613530565b80935081945082955050505061014060405190810160405280848152602001600181526020018881526020018363ffffffff1681526020018263ffffffff1681526020014263ffffffff16815260200160135481526020018681526020016000815260200160008152509350505050949350505050565b600073ffffffffffffffffffffffffffffffffffffffff168273ffffffffffffffffffffffffffffffffffffffff161415151561342b57600080fd5b6134358282612cc9565b8173ffffffffffffffffffffffffffffffffffffffff16600073ffffffffffffffffffffffffffffffffffffffff167fddf252ad1be2c89b69c2b068fc378daa952ba7f163c4a11628f55a4df523b3ef836040518082815260200191505060405180910390a35050565b6134a98282612a31565b6134b38282612b9a565b600073ffffffffffffffffffffffffffffffffffffffff168273ffffffffffffffffffffffffffffffffffffffff167fddf252ad1be2c89b69c2b068fc378daa952ba7f163c4a11628f55a4df523b3ef836040518082815260200191505060405180910390a35050565b600080823b905060008111915050919050565b600080600080428587604051808481526020018373ffffffffffffffffffffffffffffffffffffffff1673ffffffffffffffffffffffffffffffffffffffff166c0100000000000000000000000002815260140182805190602001908083835b6020831015156135b55780518252602082019150602081019050602083039250613590565b6001836020036101000a03801982511681845116808217855250505050505090500193505050506040518091039020600190049050600554818115156135f757fe5b0693506000600160025403600a0a8581151561360f57fe5b04141561362457600160025403600a0a840193505b6007548481151561363157fe5b06925060075460095481151561364357fe5b046009548581151561365157fe5b0681151561365b57fe5b0491506136b88360088054806020026020016040519081016040528092919081815260200182805480156136ae57602002820191906000526020600020905b81548152602001906001019080831161369a575b50505050506136e0565b92506136c4878361374d565b9150600654848115156136d357fe5b0493505093509350939050565b60008060008060009250600091505b845182101561373c57848281518110151561370657fe5b9060200190602002015190508083018663ffffffff16101561372a57819350613744565b808301925081806001019250506136ef565b600185510393505b50505092915050565b6000613757613913565b600080600080600a8054806020026020016040519081016040528092919081815260200182805480156137a957602002820191906000526020600020905b815481526020019060010190808311613795575b5050505050945060009350600092505b87518310156137ee5787838151811015156137d057fe5b9060200190602002015160ff168401935082806001019350506137b9565b6001885103600a0291506000841180156138085750875184105b1561387c57600092505b875183101561387b57878381518110151561382957fe5b9060200190602002015160ff1688510290508381039050808281151561384b57fe5b04858481518110151561385a57fe5b90602001906020020181815101915081815250508280600101935050613812565b5b61388687866136e0565b9550505050505092915050565b828054600181600116156101000203166002900490600052602060002090601f016020900481019282601f106138d457805160ff1916838001178555613902565b82800160010185558215613902579182015b828111156139015782518255916020019190600101906138e6565b5b50905061390f9190613a59565b5090565b602060405190810160405280600081525090565b602060405190810160405280600081525090565b61014060405190810160405280600081526020016000815260200161395e613a7e565b8152602001600063ffffffff168152602001600063ffffffff168152602001600063ffffffff168152602001600081526020016000815260200160008152602001600081525090565b8154818355818115116139d4576008028160080283600052602060002091820191016139d39190613a92565b5b505050565b828054600181600116156101000203166002900490600052602060002090601f016020900481019282601f10613a1a57805160ff1916838001178555613a48565b82800160010185558215613a48579182015b82811115613a47578251825591602001919060010190613a2c565b5b509050613a559190613a59565b5090565b613a7b91905b80821115613a77576000816000905550600101613a5f565b5090565b90565b602060405190810160405280600081525090565b613b3391905b80821115613b2f576000808201600090556001820160009055600282016000613ac19190613b36565b6003820160006101000a81549063ffffffff02191690556003820160046101000a81549063ffffffff02191690556003820160086101000a81549063ffffffff0219169055600482016000905560058201600090556006820160009055600782016000905550600801613a98565b5090565b90565b50805460018160011615610100020316600290046000825580601f10613b5c5750613b7b565b601f016020900490600052602060002090810190613b7a9190613a59565b5b505600a165627a7a723058207e44f7111cbc239bd068d8f1019854b55129d124870d7df95d684bc0b1673d140029",
  "source": "pragma solidity ^0.4.21;\n\nimport './DnaCore.sol';\n\n/* import 'github.com/OpenZeppelin/zeppelin-solidity/contracts/token/ERC721/ERC721BasicToken.sol'; */\n/* import 'github.com/OpenZeppelin/zeppelin-solidity/contracts/ownership/Whitelist.sol'; */\n/* import 'github.com/OpenZeppelin/zeppelin-solidity/contracts/math/SafeMath.sol'; */\n\nimport 'openzeppelin-solidity/contracts/token/ERC721/ERC721BasicToken.sol';\nimport 'openzeppelin-solidity/contracts/ownership/Whitelist.sol';\nimport 'openzeppelin-solidity/contracts/math/SafeMath.sol';\n\ncontract ToriToken is Whitelist, DnaCore, ERC721BasicToken {\n\n  using SafeMath for uint256;\n\n  struct Tori {\n    uint256 dna;\n    uint256 level;\n    string name;\n    uint32 proficiency;\n    uint32 personality;\n    uint32 readyTime;\n    uint256 generation;\n    uint256 special;\n    // 0, 0 --> generation 1.\n    uint256 parent1;\n    uint256 parent2;\n  }\n\n  Tori[] toris;\n\n  // toriId to price (in wei)\n  mapping (uint => uint256) toriSale;\n  uint256 toriSaleCount;\n\n  event NewTori(address indexed _address, uint256 toriIdx);\n\n\n  /* DEV USE */\n  function ToriToken() {\n    // Generate some Toris for the owner.\n\n    // 1.\n    uint8[] memory testQuiz = new uint8[](4);\n    testQuiz[0] = 0;\n    testQuiz[1] = 0;\n    testQuiz[2] = 0;\n    testQuiz[3] = 0;\n    Tori memory newTori = _generateRandomTori(testQuiz, \"Toto\", msg.sender, 0);\n    uint256 id = toris.push(newTori) - 1;\n    tokenOwner[id] = msg.sender;\n    ownedTokensCount[msg.sender] = ownedTokensCount[msg.sender].add(1);\n    // 2.\n    testQuiz[1] = 1;\n    newTori = _generateRandomTori(testQuiz, \"Riri\", msg.sender, 0);\n    id = toris.push(newTori) - 1;\n    tokenOwner[id] = msg.sender;\n    ownedTokensCount[msg.sender] = ownedTokensCount[msg.sender].add(1);\n\n    // 3.\n    testQuiz[0] = 1;\n    testQuiz[3] = 1;\n    newTori = _generateRandomTori(testQuiz, \"Rito\", msg.sender, 0);\n    id = toris.push(newTori) - 1;\n    tokenOwner[id] = msg.sender;\n    ownedTokensCount[msg.sender] = ownedTokensCount[msg.sender].add(1);\n\n    approveForSale(0, 1000000000000000);\n  }\n\n  uint256 currentGeneration = 0;\n\n  function updateGeneration() onlyOwner public {\n    currentGeneration = currentGeneration.add(1);\n  }\n\n  /*\n  *   Generate random dna, personality, and proficiency level from\n  *   the given quiz & sender address.\n  */\n  function _generateRandomTori(uint8[] _quizzes,\n                               string _name,\n                               address _owner,\n                               uint256 _special) private view returns (Tori) {\n    uint256 dna;\n    uint32 proficiency;\n    uint32 personality;\n    (dna, proficiency, personality) = _generateRandomTraits(_quizzes, _name, _owner);\n    return Tori(dna, 1, _name, proficiency, personality, uint32(now), currentGeneration, _special, 0, 0);\n  }\n\n  function generateSpecialTori(uint8[] _quizzes,\n                               string _name,\n                               uint256 _special,\n                               address _owner) onlyWhitelisted public returns (bool success) {\n    Tori memory newTori = _generateRandomTori(_quizzes, _name, _owner, _special);\n    // Push to the book keeping array.\n    uint256 id = toris.push(newTori) - 1;\n    _mint(_owner, id);\n\n    emit NewTori(_owner, id);\n    return true;\n  }\n\n  function _generateNewTori(uint256 _dna,\n                            uint256 _level,\n                            uint32 _proficiency,\n                            uint32 _personality,\n                            uint256 _parent1,\n                            uint256 _parent2,\n                            string _name,\n                            address _owner,\n                            uint256 _special) onlyWhitelisted private returns (bool success) {\n    require((_dna / DNA_LIMIT == 0) &&\n            (_proficiency >= 0) &&\n            (_proficiency < PROFICIENCY_THRESHOLD.length) &&\n            (_personality >= 0) &&\n            (_personality < PERSONALITY_THRESHOLD.length));\n    // Generate three new toris.\n    Tori memory newTori = Tori(_dna,\n                               _level,\n                               _name,\n                               _proficiency,\n                               _personality,\n                               uint32(now),\n                               currentGeneration,\n                               _special,\n                               _parent1,\n                               _parent2);\n    // Push to the book keeping array.\n    uint256 id = toris.push(newTori) - 1;\n    _mint(_owner, id);\n    emit NewTori(_owner, id);\n    return true;\n  }\n\n  function generateNewTori(uint256 _dna,\n                           uint256 _level,\n                           uint32 _proficiency,\n                           uint32 _personality,\n                           uint256 _parent1,\n                           uint256 _parent2,\n                           string _name,\n                           address _owner,\n                           uint256 _special) public returns (bool success) {\n    return _generateNewTori(\n      _dna,\n      _level,\n      _proficiency,\n      _personality,\n      _parent1,\n      _parent2,\n      _name,\n      _owner,\n      _special\n    );\n  }\n\n  function _burnTori(address _owner, uint256 _tokenId) onlyWhitelisted private returns (bool success) {\n    // Check if for sale\n    // TODO: remove it automatically for now.\n    if (toriSale[_tokenId] > 0) {\n      toriSale[_tokenId] = 0;\n      toriSaleCount = toriSaleCount.sub(1);\n    }\n    _burn(_owner, _tokenId);\n    // TODO: check if burn succeed\n    return true;\n  }\n\n  function burnTori(address _owner, uint256 _tokenId) public returns (bool success) {\n    return _burnTori(_owner, _tokenId);\n  }\n\n  function getTokenIndexes(address _owner) public view returns (uint[]) {\n    uint size = ownedTokensCount[_owner];\n    uint[] memory result = new uint[](size);\n\n    uint idx = 0;\n    for (uint i = 0; i < toris.length; i = i.add(1)) {\n      if (tokenOwner[i] == _owner) {\n        result[idx] = i;\n        idx = idx.add(1);\n      }\n      if (idx >= size) {\n        break;\n      }\n    }\n    return result;\n  }\n\n  function getTokenIndexesWithMaxLevel(address _owner) public view returns (uint[], uint) {\n    uint[] memory indexes = getTokenIndexes(_owner);\n    uint maxLevel = 1;\n    for (uint i = 0; i < indexes.length; i = i.add(1)) {\n      uint currLevel = toris[i].level;\n      if (currLevel > maxLevel) {\n        maxLevel = currLevel;\n      }\n    }\n    return (indexes, maxLevel);\n  }\n\n  function getTokenInfo(uint256 _toriId) public view returns\n                    (uint256 toriId,\n                      uint256 toriDna,\n                      uint256 level,\n                      string name,\n                      uint32 proficiency,\n                      uint32 personality,\n                      uint32 readyTime,\n                      uint256 generation,\n                      uint256 special,\n                      uint postingPrice,\n                      address toriOwner) {\n    Tori memory tori = toris[_toriId];\n    toriId = _toriId;\n    level = tori.level;\n    toriDna = tori.dna;\n    name = tori.name;\n    proficiency = tori.proficiency;\n    personality = tori.personality;\n    readyTime = tori.readyTime;\n    generation = tori.generation;\n    special = tori.special;\n    postingPrice = toriSale[_toriId];\n    toriOwner = tokenOwner[_toriId];\n  }\n\n  function getParentIds(uint256 _tokenId) public view returns (uint256 parent1, uint256 parent2) {\n    return (toris[_tokenId].parent1, toris[_tokenId].parent2);\n  }\n\n  function getTokenCount() public view returns (uint256 toriCount) {\n    return ownedTokensCount[msg.sender];\n  }\n\n  function getAllTokensCount() public view returns (uint) {\n    return toris.length;\n  }\n\n\n  // TODO: add functionality for users to change the sale price.\n  function approveForSale(uint256 _tokenId, uint256 _salePrice) public onlyOwnerOf(_tokenId) {\n    require((toriSale[_tokenId] == 0) && (_salePrice > 0));\n    toriSale[_tokenId] = _salePrice;\n    toriSaleCount = toriSaleCount.add(1);\n\n    approve(this, _tokenId);\n  }\n\n  function removeForSale(uint256 _tokenId) public onlyOwnerOf(_tokenId) {\n    require(toriSale[_tokenId] > 0);\n    toriSale[_tokenId] = 0;\n    toriSaleCount = toriSaleCount.sub(1);\n\n    clearApproval(msg.sender, _tokenId);\n  }\n\n  function buyForSale(uint256 _tokenId) public payable {\n    // TODO: does msg.value needs to be exactly equal?\n    require(isApprovedOrOwner(this, _tokenId) &&\n            (toriSale[_tokenId] > 0) &&\n            (msg.value >= toriSale[_tokenId]));\n\n    address _from = ownerOf(_tokenId);\n    // Send the ether.\n    uint256 excess = msg.value.sub(toriSale[_tokenId]);\n    if (excess > 0) {\n      msg.sender.transfer(excess);\n      _from.transfer(toriSale[_tokenId]);\n    } else {\n      _from.transfer(msg.value);\n    }\n\n    // Delete sale entry.\n    toriSale[_tokenId] = 0;\n    toriSaleCount = toriSaleCount.sub(1);\n\n    // We want to call this from this contract.\n    this.safeTransferFrom(_from, msg.sender, _tokenId);\n  }\n\n  function retrieveAllForSales() public view returns (uint[]) {\n    uint[] memory result = new uint[](toriSaleCount);\n    uint idx = 0;\n    for (uint i = 0; i < toris.length; i = i.add(1)) {\n      if (toriSale[i] > 0) {\n        result[idx] = i;\n        idx = idx.add(1);\n      }\n    }\n    return result;\n  }\n\n  modifier minLevel(uint256 _tokenId, uint256 _minLevel) {\n    require(toris[_tokenId].level >= _minLevel);\n    _;\n  }\n\n  function updateName(uint256 _tokenId, string _newName) public onlyOwnerOf(_tokenId) minLevel(_tokenId, 4) returns (bool) {\n    Tori storage tori = toris[_tokenId];\n    tori.name = _newName;\n    return true;\n  }\n\n  function updateTori(uint256 _tokenId,\n                      string _name,\n                      uint32 _proficiency,\n                      uint32 _personality,\n                      uint256 _special,\n                      uint256 _minLevel) onlyWhitelisted onlyOwnerOf(_tokenId) minLevel(_tokenId, _minLevel) public returns (bool result) {\n    Tori storage tori = toris[_tokenId];\n    tori.name = _name;\n    tori.proficiency = _proficiency;\n    tori.personality = _personality;\n    tori.special = _special;\n    return true;\n  }\n}\n",
  "sourcePath": "/Users/Cindy/Desktop/cs359b/cs359b-cribtori/contracts/ToriToken.sol",
  "compiler": {
    "name": "solc",
    "version": "0.4.21+commit.dfe3193c.Emscripten.clang"
  },
  "schemaVersion": "2.0.0",
  "updatedAt": "2018-06-06T06:10:20.304Z"
}